:020000040800F2
:1000000000060020F505000829240008DD2300086B
:1000100005240008DD230008FD230008F70500087B
:10002000F7050008F7050008F7050008195500084E
:10003000F7050008F7050008F7050008F7050008B0
:10004000F7050008F7050008F7050008F7050008A0
:10005000F7050008F70500080D5900083959000890
:100060006559000891590008BD590008F7050008B6
:10007000F7050008F7050008F7050008F705000870
:10008000F7050008F7050008F7050008F705000860
:10009000F7050008F7050008F7050008E95900080A
:1000A000F7050008F7050008F7050008F705000840
:1000B000F7050008F7050008F7050008F705000830
:1000C000F7050008F7050008F7050008F705000820
:1000D000F7050008F7050008F7050008F705000810
:1000E0004D5A0008F7050008F7050008F705000855
:1000F000F7050008F7050008F7050008F7050008F0
:10010000F7050008F7050008D55A0008F7050008AC
:10011000F7050008F7050008F7050008F7050008CF
:10012000F7050008F7050008F7050008F7050008BF
:10013000F7050008F7050008F7050008F7050008AF
:10014000F7050008F7050008F7050008F70500089F
:10015000F7050008F7050008F7050008F70500088F
:10016000F7050008F7050008F7050008F70500087F
:10017000F7050008B54C0008F7050008F70500086A
:10018000F7050008F7050008F7050008F70500085F
:10019000F7050008F7050008F7050008F70500084F
:1001A000F7050008F7050008F7050008F70500083F
:1001B000C15A0008F7050008F7050008F705000810
:1001C000F7050008F7050008F7050008F70500081F
:1001D000F7050008A14C0008F7050008F70500081E
:1001E000F7050008F7050008F7050008F7050008FF
:1001F000F7050008F7050008F7050008F7050008EF
:10020000F7050008F7050008F7050008F7050008DE
:10021000F7050008F7050008F7050008F7050008CE
:10022000F7050008F705000801410008F705000878
:10023000F7050008F7050008F7050008F7050008AE
:10024000F7050008F7050008F7050008F70500089E
:10025000F7050008F7050008F7050008F70500088E
:10026000F7050008F7050008F7050008F70500087E
:10027000F7050008F7050008F7050008F70500086E
:10028000F7050008F7050008F7050008F70500085E
:10029000F7050008F7050008F7050008F70500084E
:1002A000F7050008F7050008F7050008F70500083E
:1002B000F7050008F7050008F7050008F70500082E
:1002C000F7050008F7050008F7050008F70500081E
:1002D000F7050008F7050008F7050008F70500080E
:1002E000D9070008A5200008B52300080000000079
:1002F00053B94AB9002908BF00281CBF4FF0FF318D
:100300004FF0FF3000F074B9ADF1080C6DE904CE88
:1003100000F006F8DDF804E0DDE9022304B07047E0
:100320002DE9F047089D04468E46002B4DD18A42A8
:10033000944669D9B2FA82F252B101FA02F3C2F1DB
:10034000200120FA01F10CFA02FC41EA030E94406C
:100350004FEA1C48210CBEFBF8F61FFA8CF708FB8D
:1003600016E341EA034306FB07F199420AD91CEB65
:10037000030306F1FF3080F01F81994240F21C8197
:10038000023E63445B1AA4B2B3FBF8F008FB1033DF
:1003900044EA034400FB07F7A7420AD91CEB040414
:1003A00000F1FF3380F00A81A74240F207816444E4
:1003B000023840EA0640E41B00261DB1D440002369
:1003C000C5E900433146BDE8F0878B4209D9002DCD
:1003D00000F0EF800026C5E9000130463146BDE857
:1003E000F087B3FA83F6002E4AD18B4202D38242C1
:1003F00000F2F980841A61EB030301209E46002D70
:10040000E0D0C5E9004EDDE702B9FFDEB2FA82F2C4
:10041000002A40F09280A1EB0C014FEA1C471FFA22
:100420008CFE0126200CB1FBF7F307FB131140EA09
:1004300001410EFB03F0884208D91CEB010103F1D6
:10044000FF3802D2884200F2CB804346091AA4B298
:10045000B1FBF7F007FB101144EA01440EFB00FE6C
:10046000A64508D91CEB040400F1FF3102D2A645D1
:1004700000F2BB800846A4EB0E0440EA03409CE770
:10048000C6F12007B34022FA07FC4CEA030C20FA1D
:1004900007F401FA06F31C43F9404FEA1C4900FA3D
:1004A00006F3B1FBF9F8200C1FFA8CFE09FB1811BA
:1004B00040EA014108FB0EF0884202FA06F20BD92D
:1004C0001CEB010108F1FF3A80F08880884240F27D
:1004D0008580A8F102086144091AA4B2B1FBF9F0C1
:1004E00009FB101144EA014100FB0EFE8E4508D9BC
:1004F0001CEB010100F1FF346CD28E456AD9023841
:10050000614440EA0840A0FB0294A1EB0E01A14225
:10051000C846A64656D353D05DB1B3EB080261EB93
:100520000E0101FA07F722FA06F3F1401F43C5E96D
:10053000007100263146BDE8F087C2F12003D840A3
:100540000CFA02FC21FA03F3914001434FEA1C47E5
:100550001FFA8CFEB3FBF7F007FB10360B0C43EAD7
:10056000064300FB0EF69E4204FA02F408D91CEB87
:10057000030300F1FF382FD29E422DD90238634485
:100580009B1B89B2B3FBF7F607FB163341EA034125
:1005900006FB0EF38B4208D91CEB010106F1FF3874
:1005A00016D28B4214D9023E6144C91A46EA00466B
:1005B00038E72E46284605E70646E3E61846F8E6FD
:1005C0004B45A9D2B9EB020864EB0C0E0138A3E746
:1005D0004646EAE7204694E74046D1E7D0467BE727
:1005E000023B614432E7304609E76444023842E79F
:1005F000704700BF02E000F000F8FEE772B637482F
:1006000080F30888364880F3098836483649086000
:1006100040F20000CCF200004EF63471CEF2000140
:100620000860BFF34F8FBFF36F8F40F20000C0F23E
:10063000F0004EF68851CEF200010860BFF34F8FF4
:10064000BFF36F8F4FF00000E1EE100A4EF63C71E1
:10065000CEF200010860062080F31488BFF36F8F8C
:1006600003F0B6FC04F0B6FE4FF055301F491B4AAC
:1006700091423CBF41F8040BFAE71D49184A9142E8
:100680003CBF41F8040BFAE71A491B4A1B4B9A423C
:100690003EBF51F8040B42F8040BF8E7002018495C
:1006A000184A91423CBF41F8040BFAE703F0CEFC34
:1006B00004F006FF144C154DAC4203DA54F8041B49
:1006C0008847F9E700F050F8114C124DAC4203DABC
:1006D00054F8041B8847F9E703F0B6BC0006002075
:1006E000002200200000000808ED00E000000020CB
:1006F00000060020B862000800220020C02200206E
:10070000C022002008460020E0020008EC02000899
:10071000EC020008EC0200082DE9F04F2DED108AE4
:10072000C1F80CD0D0F80CD0BDEC108ABDE8F08F29
:10073000002383F311882846A047002002F03CFEE6
:10074000FEE702F055FD00DFFEE70000054B10B5A7
:1007500004460360806810B103685B6898472046D0
:1007600010BD00BF1C5E000870B500F065FD03F011
:1007700055FB054603F022FC0446B8B9144B9D42D4
:1007800016D001339D4241F2883512BF0446002540
:100790000124104E002003F04BFB304601F0A4FA78
:1007A00040B944F6206002F00DFEF6E70025F0E7C0
:1007B0000546EEE70CB100F091F800F0F7FE00F00E
:1007C00091FD284600F036F900F088F8F9E700BFFF
:1007D000010007B0C02200200448054B054A036011
:1007E00000230549836005F0C9B900BFC02200207D
:1007F0001C5E0008C42400204D07000808B500F066
:1008000043FDA0F120035842584108BD07B504211B
:1008100001900DEB010000F055FD03B05DF804FB05
:1008200007B541F21203022101A8ADF8043000F02F
:1008300049FD03B05DF804FB38B5302383F311881C
:10084000174803680BB102F09BFE0023154A4FF4D2
:100850007A71134802F08AFE002383F31188124C48
:10086000236813B12368013B2360636813B1636895
:10087000013B63600D4D2B7833B963687BB902206F
:1008800000F0F6FD322363602B78032B07D16368F9
:100890002BB9022000F0ECFD4FF47A73636038BD91
:1008A000502300203908000870240020682300200D
:1008B000084B187003280CD8DFE800F00805020880
:1008C000022000F0C7BD022000F0B4BD024B0022A0
:1008D0005A6070476823002070240020F7B54E4806
:1008E00001A901F081FB002800F094804B4B4C4A99
:1008F0001C461968013100F08A8004339342F8D114
:100900006268484B9A4240F28280474BDB6803F1B1
:10091000104303F580139A4279D2002000F0FCFCCA
:100920000220FFF7C5FF414B0021D3F8E820C3F8B0
:10093000E810D3F81021C3F81011D3F81021D3F820
:10094000EC20C3F8EC10D3F81421C3F81411D3F839
:100950001421D3F8F020C3F8F010D3F81821C3F80D
:100960001811D3F81821D3F8802042F00072C3F890
:100970008020D3F8802022F00072C3F88020D3F8C2
:10098000803072B64FF0E023C3F8084DD4E900047C
:10099000BFF34F8FBFF36F8F254AC2F88410BFF3A8
:1009A0004F8F536923F480335361BFF34F8FD2F8D5
:1009B000803043F6E076C3F3C905C3F34E335B01E1
:1009C00003EA060C29464CEA81770139C2F87472B1
:1009D000F9D2203B13F1200FF2D1BFF34F8FBFF3B9
:1009E0006F8FBFF34F8FBFF36F8F536923F40033C3
:1009F00053610023C2F85032BFF34F8FBFF36F8FA4
:100A0000302383F31188854680F308882047024805
:100A100000F032FE03B0F0BDC022002000001090B4
:100A200020001090FFFF0F90002200200044025889
:100A300000ED00E02DE9F04FB34B9FB02022FF21E5
:100A4000089016A89E68DB68079300F059FDAF4A2E
:100A50001378A3B90121AE4811700360302383F3EA
:100A6000118803680BB102F08BFD0023A94A4FF4F3
:100A70007A71A74802F07AFD002383F31188089B5E
:100A800013B1A54B089A1A60A44A1378032B03D01C
:100A900000231370A04A53600023089DA04F98467E
:100AA0009B46CDE90533012000F0D4FC25B19A4BDB
:100AB0001B68002B00F08783002000F0E5FB0E9000
:100AC0000E9B002BF2DB012000F0B4FC0E9B213BBF
:100AD0001F2BE8D801A252F823F000BF5D0B0008DD
:100AE000850B00081F0C0008A70A0008A70A0008C9
:100AF000A70A00080B0F000809110008A10F000841
:100B000087100008AD100008D3100008A70A0008DD
:100B1000E5100008A70A000851110008FD0B0008A5
:100B2000A70A0008CD110008BD0C0008F50D00084B
:100B3000A70A0008FD0F0008A70A0008A70A000876
:100B4000A70A0008A70A0008A70A0008A70A0008C1
:100B5000A70A0008A70A00081F0C00080220FFF7D8
:100B60004DFE002840F05B83089B0221069A11A8E5
:100B7000002A08BF1D4641F21233ADF8443000F0A0
:100B8000A1FB90E74FF47A7000F07EFB041EEBDBD4
:100B90000220FFF733FE0028E6D0013C052C00F2CE
:100BA0004083DFE804F0030A0D1013390523042104
:100BB00011A8119300F086FB17E004215248F9E7D1
:100BC00004215848F6E704215748F3E74FF01C0981
:100BD000484609F1040900F0A1FB0421119011A875
:100BE00000F070FBB9F12C0FF2D10120059B4FF002
:100BF000000B00FA04F41C43E3B2059300F0CCFCB4
:100C0000B8F1000F05D0059B03F00B030B2B08BFB9
:100C10000025FFF705FE46E704214448CAE7B8F17E
:100C2000000FA1D0059B03F00B030B2B9CD10220DE
:100C3000FFF7E4FD0446002896D001204FF000089D
:100C400000F06AFB0220FFF733FE5FFA88F948469E
:100C500000F072FB0546B8B10E99484608F101084C
:100C6000A1F140025142514100F076FB0028ECD145
:100C70000546069441F21213022111A8A046ADF8D0
:100C8000443000F01FFB0EE72E46DFF87C80012089
:100C9000FFF70EFED8F80830B34207D9304600F00F
:100CA0003DFB013040F0C0820436F3E700261B4BC9
:100CB000A04606941E70184B5E609FE7B8F1000FC7
:100CC0003FF452AF059B03F00B030B2B7FF44CAFAB
:100CD00064210FA800F0ECFA814600287FF444AFAD
:100CE0000220FFF78BFD044600283FF43DAF3A6A2F
:100CF0007B6A0F9953438DF837908B421AD20C4878
:100D000000F0C8FB30E700BF002200206C24002068
:100D10005023002039080008702400206823002098
:100D2000C022002004220020082200200C220020E3
:100D3000C05C00084FF4801AAC48C846BAFBF2FA0F
:100D400000F0A8FBFFF76CFD01210DF1370000F06A
:100D5000B9FA0F9B434541D9002310AA51463846A2
:100D6000CDE9103311AB00F08BFC002882D001F0EC
:100D700063FB109B00EB030901210DF1370000F02C
:100D8000A1FA01F059FB484520D9384600F0B2FEDF
:100D900080B964210F9B96480AF1010A01FB08F112
:100DA000B1FBF3F18DF83710C9B200F073FB3B6A69
:100DB0009844CEE701F040FB119B184448453FF6AC
:100DC00059AF01F039FB109B00EB0309109B4FF466
:100DD0007A70A3FB000302F0F5FACDE7642301214A
:100DE0000DF13700A0468DF8373000F06BFA002384
:100DF000079303E7B8F1000F3FF4B6AE059B03F08D
:100E00000B030B2B7FF4B0AE0220FFF751FD322015
:100E100000F03AFAB0F1000AFFF6A6AE079BD14601
:100E200053440993734B099ADB689A423FF69CAE90
:100E3000BAF5807F3FF798AE6F4A0024A2450A9228
:100E40000EDD4FF47A7000F01FFA0E900E9B002B0F
:100E5000FFF68AAE0E9B01340A9A02F8013BEDE7D9
:100E6000C820FFF7CBFC044600283FF47DAE079B6B
:100E70001F2B11D8C3F1200223F0030016AB5E49EB
:100E80005245184428BF52460A9200F007FB0A9ABE
:100E9000FF21594800F034FB00239846CDE9103378
:100EA000079B03F580130B93B9F1000F02D1A04605
:100EB000099B9DE711AB504A0B993846029310AB42
:100EC0004244414401930FAB00934B4600F0F4FFC2
:100ED00000283FF4CFAE01F0B1FA0F9B82460A9191
:100EE0009844A9EB030901F0A9FA109B0A9A13EBA5
:100EF0000A0342F10002834272EB0103F3D2384647
:100F000000F0F8FD0028EED1CEE7B8F1000F3FF475
:100F10002BAE059B03F00B030B2B7FF425AE0220B9
:100F2000FFF7C6FC322000F0AFF9B0F1000AFFF67F
:100F30001BAE1AF003047FF417AE2E4A0AEB060329
:100F4000926893423FF610AEBAF5807F3FF70CAE41
:100F5000DFF8A490A2450DDD4FF47A7000F094F90B
:100F60000E900E9B002BFFF6FFAD0E9B013409F88F
:100F7000013BEFE7C820FFF741FC044600283FF49F
:100F8000F3ADCAF387021C4930464FEAAA0900F0C4
:100F9000BFFA804600283FF46DAE06EB89062DE6C9
:100FA0000220FFF72BFC00283FF4DEAD00F0F2F941
:100FB00000283FF4D9AD4FF00009DFF838A04C46C7
:100FC000DAF808304B450CD9484609F1040900F01D
:100FD000A5F90422119011A9204601F06BF80446EE
:100FE000EEE72046FFF712FC08E600BFE55C0008CC
:100FF000FD5C0008002200206C230020642110A862
:1010000000F056F9044600287FF4AEAD0220FFF749
:10101000F5FB00283FF4A8AD109BA14603F0030A9E
:101020001099A1EB0A01A1421BD91F2C11D8169BC4
:1010300001330ED024F003031EAA134453F8203CBE
:1010400011934846042211A9043401F033F8814673
:10105000E6E7042311AA04F58011384600F078FF72
:10106000EFE7BAF1000F0CD0534611AA01F5801139
:10107000384600F06DFF4846524611A901F01AF8B3
:1010800081464846AEE70023642111A8119300F081
:101090000FF900287FF468AD0220FFF7AFFB0028AE
:1010A0003FF462AD119800F06BF99BE700236421D7
:1010B00011A8119300F0FCF800287FF455AD022030
:1010C000FFF79CFB00283FF44FAD119800F05AF950
:1010D00088E70220FFF792FB00283FF445AD00F0BF
:1010E00069F97FE70220FFF789FB00283FF43CAD58
:1010F00011A9142000F064F90990FFF787FB099902
:1011000011A800F0DFF879E5322000F0BDF8041EE8
:10111000FFF62AADA3077FF427AD444A04EB0B0387
:10112000926893423FF620AD0220FFF767FB00284C
:101130003FF41AAD24F003045C44A3453FF45EADD4
:1011400058460BF1040B00F0E9F8FFF75FFBF4E7FA
:101150004FF47A70FFF752FB00283FF405AD00F022
:1011600019F980B1169B013328D011AB16AA4FF4A0
:1011700080113846029310AB01930FAB00932023EC
:1011800000F09AFE08B9444674E501F057F9284E7C
:1011900004460D4601F052F9109B1B1945F100025F
:1011A000834272EB0103F5D2304600F0A3FC002825
:1011B000F0D12022FF2116A800F0A2F9FFF730FBA2
:1011C0001C4802F0FFF81FB0BDE8F08FB8F1000F27
:1011D0003FF4CAAC059B03F00B030B2B7FF4C4ACAC
:1011E0000023642111A8119300F062F8044600283E
:1011F0007FF4BAAC0220FFF701FB814600283FF4E0
:10120000B3ACFFF70DFB41F2883002F0DBF8119828
:1012100000F0F6F9C846254600F0BEF943E48046E2
:10122000ECE44FF0000B9FE4069423E5002200203D
:10123000C0220020A0860100704700000F4B70B54F
:101240001B780C460133DBB2012B11D80C4D4FF447
:101250007A732968A2FB033222460E6A01462846A9
:10126000B047844204D1074B002201201A7070BDA0
:101270004FF4FA7002F0A6F80020F8E710220020E0
:1012800058270020A4240020002307B5024601218E
:101290000DF107008DF80730FFF7D0FF20B19DF862
:1012A000070003B05DF804FB4FF0FF30F9E70000E2
:1012B0000A46042108B5FFF7C1FF80F00100C0B263
:1012C000404208BD30B4054C0A460146236820461A
:1012D000DD69034BAC4630BC604700BF5827002097
:1012E000A086010070B50A4E00240A4D02F088FB6A
:1012F000308028683388834208D902F07DFB2B6850
:1013000004440133B4F5003F2B60F2D370BD00BF3D
:10131000A62400207824002002F00ABC00F100601E
:1013200000F500300068704700F10060920000F5A1
:10133000003002F09BBB0000054B1A68054B1B8870
:101340009B1A834202D9104402F056BB002070471A
:1013500078240020A624002038B50446074D29B182
:1013600028682044BDE8384002F052BB2868204479
:1013700002F048FB0028F3D038BD00BF78240020DD
:101380000020704700F1FF5000F58F10D0F80008E2
:1013900070470000064991F8243033B10023082239
:1013A000086A81F82430FFF7BFBF0120704700BFF3
:1013B0007C240020014B1868704700BF0010005CBF
:1013C000194B01380322084470B51D68174BC5F34B
:1013D0000B042D0C1E88A6420BD15C680A46013C0A
:1013E000824213460FD214F9016F4EB102F8016B1D
:1013F000F6E7013A03F10803ECD181420B4602D231
:101400002C2203F8012B0424094A1688AE4204D189
:10141000984284BF967803F8016B013C02F1040204
:10142000F3D1581A70BD00BF0010005C14220020D8
:10143000385D0008022804D1054B4FF480129A61F0
:1014400070470128FCD1024B4FF40022F7E700BFA0
:1014500000100258022803D1044B10229A617047F1
:101460000128FCD1014B0822F8E700BF0010025808
:10147000022805D1064A536983F01003536170476F
:101480000128FCD1024A536983F00803F6E700BF44
:10149000001002580FB404B070470000002310B5CC
:1014A000934203D0CC5CC4540133F9E710BD000073
:1014B000013810B510F9013F3BB191F900409C4251
:1014C00003D11AB10131013AF4E71AB191F90020C0
:1014D000981A10BD1046FCE70138013910F9013F98
:1014E00011F9012F0BB19342F8D0981A7047000000
:1014F00003460246D01A12F9011B0029FAD170479F
:1015000002440346934202D003F8011BFAE77047F6
:101510002DE9F8431F4D14460746884695F82420C8
:1015200052BBDFF870909CB395F824302BB9202281
:10153000FF2148462F62FFF7E3FF95F8240041465C
:10154000C0F1080205EB8000A24228BF2246D6B2B5
:101550009200FFF7A3FF95F82430A41B17441E4404
:101560009044E4B2F6B2082E85F82460DBD1FFF790
:1015700011FF0028D7D108E02B6A03EB82038342D6
:10158000CFD0FFF707FF0028CBD10020BDE8F883BC
:101590000120FBE77C240020024B1A78024B1A70D2
:1015A000704700BFA42400201022002010B5104C6A
:1015B000104801F047F921460E4801F06FF9246800
:1015C0000D48D4F89020D2F8043843F00203C2F852
:1015D000043801F0F7FE0949204601F06DFAD4F80D
:1015E0009020D2F8043823F00203C2F8043810BD6A
:1015F000006000085827002040420F0008600008E3
:101600007047000080697047C0697047006A704782
:10161000406A7047806A7047F0B5ADF2044D0E46DF
:10162000054600214FF47F7201A80091FFF768FF83
:101630002C6A744301362B6A7343A34216D92B6874
:101640006A46214628465F684FF48063B84770B108
:101650006A464FF4806312F8011BFF290AD1013B4F
:101660009BB2002BF7D104F58064E4E701200DF272
:10167000044DF0BD0020FAE780680368DB69184775
:1016800030B5456A85B004468D420FD30568CDE973
:101690000023026A03ABAD6A5143A84720B1206A18
:1016A000039BC31A5842584105B030BD0020FBE7E8
:1016B000F0B5C56987B004468D4212D30C9F866988
:1016C00005687143CDE9013705AB00936D69036A85
:1016D000A84720B1A069059BC31A5842584107B0DA
:1016E000F0BD0020FBE70000F0B5662389B00024C0
:1016F00005464FF480768068079403A9CDE9033648
:10170000CDE9054403685B699847A86822462146ED
:10171000036800941F692346B847A8689923079473
:1017200003A9CDE90336CDE9054403685B69984711
:10173000A86822462146036800941D692346A847ED
:1017400009B0F0BD254B2DE9F04F1B789FB0002567
:1017500004468DF828304FF09F0E80684FF001232B
:10176000ADF8295005A90995CDE905E3CDE907555F
:1017700003685B699847A0680322294603680092C2
:101780002A461E690AABB04730B394F88C200C216E
:10179000134B01FB02339DF828101A7991421BD19B
:1017A0009DF829205B799A4216D1A0684FF05A0C17
:1017B0000C4B082605A90996CDE905C3CDE90755C7
:1017C00003685B699847A0682A4629460368009623
:1017D0001F690AABB84738B900204BE1A85C000884
:1017E000F05D0008002500010422B3490AA804F0B6
:1017F000FFF905460028EFD1BDF82C306FF4827751
:10180000A3813B44012BE7D8079605A9CDE90A003F
:10181000A06803685B699847A0682A462946036860
:1018200000961E690AABB0470028D5D0DDE90A361C
:101830001A0202F4706242EA1662FF2ACCD11B0E31
:1018400026F07F4650222946142B26610AA828BF7D
:101850001423A373FFF754FEA068079605A9036835
:101860005B699847A068A37B294602689B000093A8
:101870000AAB16692A46B0470028ADD00B9900295B
:10188000AADBC9086FF07E43149D4FF0010E994208
:1018900028BF1946C5F303130EFA03F221FA03F326
:1018A00003916161A261E361002B95D02646A446B5
:1018B00000274FF002081EAAC7F3460302EB83037A
:1018C00053F834AC07F001031B01DA1D0EFA03F9DB
:1018D00008FA02F2A2EB090202EA0A02DA401AD07E
:1018E00003F108090F330EFA02F2216A08FA03F332
:1018F0000EFA09FBCCF830208A42A3EB0B0B0BEA63
:101900000A0A2AFA09F98CF82C90A36A88BF226285
:10191000934288BFA26201370CF1100C042FCAD188
:10192000236A4FF0020C039A4FF0010E139F9A4264
:1019300024BFB2FBF3F1616207F00F0138BF01234E
:101940004FF0090201F1010138BF63624900336BB6
:1019500033B3531C0EFA02F8A2F105090CFA03F393
:101960000EFA09FAA3EB080302F1FF380CFA08F8A3
:101970003B40A8EB0A08D34008EA070828FA09F810
:101980007BD0012B7BD0022B7BD0032B08BF4FF4E5
:101990007A735FFA88F808FB033373634B43B363CE
:1019A00007321036252AD2D115F0C04FC5F3417346
:1019B00069D0012B69D0022B0CBF4FF47A634FF42E
:1019C0007A43C5F3046202FB0333E3664B432367A8
:1019D000199B9E075CD0062384F8743015F4005FD1
:1019E00005F00F03C5F3042514BF4022082201337C
:1019F00005FB02255B00A5675D430A9B9F02E56727
:101A00007FF5EAAE0C9BC3F30722C3F3421103F048
:101A10001F0384F8802084F8881084F88130002A1D
:101A20003FF4DAAE189BC3F3025213F4401F84F85C
:101A300083207FF4D1AEDE0602D5042A7FF4CCAE3B
:101A400003F40072002A14BF0122002284F88720C8
:101A500004D0DD0324D5002384F88930179B1A07AE
:101A600022D5002384F88630702384F88530012342
:101A700084F88D301FB0BDE8F08F012389E7102373
:101A800087E7802385E710239BE74FF4807398E76F
:101A9000590701D550239FE713F0780F9ED09BE69E
:101AA0009903DBD50123D7E75B07E0D5012384F851
:101AB00086300523D9E700BF485D000830B58BB0FC
:101AC00000240546806803924FF00122059105A984
:101AD000CDE90624CDE90844026852699047A86818
:101AE0000121039B02680091214615692246A847FF
:101AF0000BB030BD13B50446A0680368DB6C984793
:101B00000028F9D10DF1070294F885102046FFF75F
:101B1000D5FF94F886309DF807001BB100F0010056
:101B200002B010BDC043C0F3C010F9E730B54FF0AC
:101B300001238BB00024054680688DF80F200591A5
:101B400005A9CDE90634CDE9084403685B699847E7
:101B5000A86801220DF10F01036800941D69234656
:101B6000A8470BB030BD0000F7B517460DF10702CE
:101B700006461D46FFF7A2FF68B19DF807403946AB
:101B80009DF82020304624EA05042A4022438DF89F
:101B90000720FFF7CBFF03B0F0BD000030B54FF4D6
:101BA000807389B0002405468068039103A9CDE9BC
:101BB0000434CDE9064403685B699847A868224667
:101BC0002146036800941D692346A84709B030BD2B
:101BD00010B5044623682046DB6A98470028F9D1EF
:101BE00010BD000010B590F8743004465BB1FFF7EB
:101BF000EFFF012394F87410204684F88E30BDE87E
:101C00001040FFF7CBBF012010BD000010B590F8C9
:101C10007430044653B1FFF7DBFF01232046042153
:101C200084F88E30BDE81040FFF7B8BF012010BD2A
:101C3000F0B590F883308BB00446042B50D10027C8
:101C40000DF10E0205218DF80E708DF80F70FFF763
:101C500035FF00282FD00DF10F0235212046FFF768
:101C60002DFF40B320461F4EFFF7BCFF2046FFF775
:101C7000AFFF05AD0FCE0FC5336805A99DF80E2047
:101C80002B609DF80F30A06843F002038DF8102000
:101C90008DF80F308DF8113003685B699847A068A4
:101CA000022204A9036800971D693B46A84720B992
:101CB0002046FFF7ABFF002010E02046FFF7A6FF0D
:101CC0000DF10F0235212046FFF7F8FE0028F2D073
:101CD0009DF80F309B07EED5012363600BB0F0BD7C
:101CE0000120FBE7AC5C00082DE9F341002304462A
:101CF0008068A36010B103685B6898470025264E92
:101D0000264F0C2301A839465FFA85F86B439A5990
:101D100000F072FA019BA0680022A360019210B14A
:101D200003685B689847019810B103685B6898473F
:101D3000A368E3B141F2883084F88C8001F042FB63
:101D40002046FFF7D1FC1E2001F03CFB2046FFF7A8
:101D5000F9FC054688B994F88C300C22104853439E
:101D6000F158FFF797FB284602B0BDE8F081013536
:101D7000032DC6D10B4800F059FB2046FFF758FF52
:101D80000C2294F88C3005465343F15808B90648A4
:101D9000E7E70648E5E700BFF05D0008A82400205B
:101DA000505D0008C65D00087A5D0008A45D00086B
:101DB0002DE9F041044688B00F461646FFF712FFA2
:101DC0002046FFF705FF0025C722A0684FF4807367
:101DD000079503A9CDE90323CDE9055503685B69A0
:101DE0009847A0682A46294603680095D3F81080D2
:101DF0002B46C047054630B92046FFF707FF284667
:101E000008B0BDE8F081E36E3B60236F3360F3E719
:101E10002DE9F041002588B01F4604460E460E9B72
:101E200000F1400CA8463D60016B81B1A9420ED380
:101E300091420CD8B6FBF1FE01FB1E6139B9416B32
:101E400090F82C800F9D1960816B29601546103029
:101E50006045E9D16DB3AB196269934229D8204638
:101E6000FFF7C0FE2046FFF7B3FE4FF41453A068FF
:101E700003A9CDF80C80CDE904360026CDE906662D
:101E800003685B699847A06832463146036800964C
:101E9000D3F810803346C047064620462EB9FFF7D8
:101EA000B5FE304608B0BDE8F081FFF7AFFE3D60FB
:101EB000F7E70026F5E700002DE9F04186690546C1
:101EC00088B00F46B3429046B1FBF6FC06FB1C1CE3
:101ED00028BF3346A6EB0C0C00269C45644628BF61
:101EE0001C46FFF77FFE2846FFF772FE0222A86815
:101EF00003A9164B0597CDE90323CDE906660368D0
:101F00005B699847A86822464146036800961F69A6
:101F10003346B847064628462EB9FFF777FE3046C7
:101F200008B0BDE8F081FFF771FE0E9B1C60AB6F3F
:101F3000AA696343B3FBF2F30F9A1360EA6F109B35
:101F40005443AA69B4FBF2F41C60E8E700250001E1
:101F50002DE9F04FCE18436989B004469E420F46E2
:101F6000914639D83D464FF40458DFF878A0FFF782
:101F70002FFEAE4234D994F88030A6EB050B94F8CE
:101F8000882003A903930023BBF5806FA068069304
:101F9000636828BF4FF4806B0595012B14BF43463F
:101FA0005346012A049394F8813008BF03F1FF33AC
:101FB000079303685B699847A068A9EB0703026869
:101FC000CDF800B02B44D2F810B000221146D8470B
:101FD00018B105F58065CCE7002009B0BDE8F08FA9
:101FE0000120FAE700ED0003F0B5044689B00E4683
:101FF000FFF7EEFD94F887502DB194F889302BB19E
:10200000012B24D00025284609B0F0BD94F880307B
:102010000393F02306934FF4045304936368012B56
:1020200004BF1D4B04930023059394F88130A068EE
:1020300003A9079303685B699847A0683146036862
:102040009B6998470546642001F0BCF9DBE7204610
:102050000027FFF7C7FD2046FFF7BAFD08238122BE
:10206000852120460097FFF77FFD054618B92046D9
:10207000FFF7CCFDC7E794F8803006970393074B32
:1020800004936368012B04BF054B0493002305935D
:1020900094F88130013BCAE700ED000300210010F5
:1020A00000ED0013014B024A1A607047A82400207B
:1020B000185F000830B50A44084D91420DD011F860
:1020C000013B5840082340F30004013B2C4013F02F
:1020D000FF0384EA5000F6D1EFE730BD2083B8ED6E
:1020E00070470000704700000020704700207047D4
:1020F00013B56C4600F1140384E8060094E803006D
:1021000083E8050002B010BD0020704713B56C468F
:1021100000F10C0384E8060094E8030083E805005E
:1021200002B010BD0023C0E90333704782B002AB98
:1021300003E9060002B070477047000000207047B6
:102140007047000000207047002070470120704752
:1021500082B0002002A901E90C0002B07047000023
:102160000020704700207047036B1A79034B53F827
:1021700032309B699868C0F340107047B05E000829
:102180000B6883634B6843638B68C363CB680364EA
:102190000B6943647047000038B5036B0446154D66
:1021A0001B7955F8330000F087FFD4E90B231B7926
:1021B00055F8331002F130034968994218D00023D2
:1021C0001363E26A5363D4E90B12537C581E137CE9
:1021D00092681B0443EA002313438B63D4E90B1377
:1021E0001B79303155F83300BDE8384000F0F8BEB7
:1021F00038BD00BFB05E0008F8B51D4F05460E465D
:1022000011463868FFF768F978BB74683B7924B3E6
:1022100094F82C209A420BD02468F8E70122B521CB
:1022200000F00EF9736823603B79746084F82C30F9
:10223000482003F0ADFC68B100220271C0E903221E
:10224000C0E90522027A42F007020272094AC0E997
:102250000B47026028602846F8BD402003F098FC38
:1022600004460028DAD12C60F5E700232B60F2E762
:10227000B0240020C05E0008044B10B50446036083
:10228000406A08B103F082FC204610BD645E00087D
:1022900010B50446FFF7F0FF204603F075FC20461A
:1022A00010BD000008B519B1FFF776FF012008BD89
:1022B000036B1A79024B53F8320000F001FFF5E787
:1022C000B05E00082DE9FF41DDF82880054617467D
:1022D00003911FFA88F60293FFF75EFF02ABBAB2D2
:1022E00003A9E86A009600F0BFF8044638B9002157
:1022F0002846FFF7D7FF204604B0BDE8F081AFB90C
:102300002B6B05F134011A79134B53F83200B8F1F5
:10231000000F19D100F072FE80F00104E4B23346E0
:10232000E86ADDE9022100F0C5F8E0E7029B83B925
:102330002B6B3A46084805F134011C79039B50F891
:10234000340000F071FEE7E7029B424600F082FE97
:10235000E2E70024E3E700BFB05E000813B50446DF
:102360000191FFF719FF019A236B04F134011879E9
:10237000054B53F8300000F083FE00212046FFF7A4
:1023800091FF012002B010BDB05E000810B50446F8
:10239000FFF702FF236B1A79054B53F8320000F068
:1023A0007DFE00212046FFF77DFF012010BD00BF0C
:1023B000B05E0008064B0121064A1A6000221A711D
:1023C000054AC3E9021240F217121A82704700BF91
:1023D000B0240020E25D000800E1F50500B59BB0E7
:1023E000EFF3098168226846FFF758F8EFF3058399
:1023F000014B9B6BFEE700BF00ED00E008B5FFF767
:10240000EDFF000000B59BB0EFF30981682268463C
:10241000FFF744F8EFF30583014B5B6BFEE700BF6A
:1024200000ED00E0FEE70000FEE700000FB408B595
:10243000029800F053FFFEE701F090BC01F068BC89
:1024400038B5084B04461546017543600A2124300F
:1024500001F022FD04F128002A460A2101F01CFDAA
:10246000204638BD2C5F0008F8B51E461B6805469F
:102470000C4617461BB9236863B9012408E0BDF870
:1024800018203146806A01F01FFD0028F3D1002496
:102490002046F8BD21463A46686A01F04BFD0446E5
:1024A0000028EAD13368002BF1D0A86A01F076FD4C
:1024B000EEE7000038B50D46114604461A4611B144
:1024C000806A01F029FD2DB12946606ABDE83840D7
:1024D00001F05CBD38BD0000036800211B6818478F
:1024E00003790BB1002202711846704703685B68DC
:1024F0001847000003791BB9012303711846704780
:10250000002070477047000010B5044603F03CFB04
:10251000204610BD8A0710B504461DD50378042B4C
:102520001AD143681B682BB10522027098472378A3
:10253000052B01D102232370302383F3118800215E
:1025400004F1080000F058FF002383F31188E069CC
:10255000BDE8104001F098BECB0704D50248BDE8A5
:10256000104000F0BBBE10BD445F000810B5044C25
:10257000204600F02DFD034A0023C4E9062310BDC8
:10258000C82400200050005210B503780446012BE7
:1025900017D1104B984214D102460F49102001F078
:1025A0003FFE0E4BE061D3F8D42042F48042C3F8E2
:1025B000D420D3F8FC2042F48042C3F8FC20D3F8A6
:1025C000FC306268A36992685A60054A1A601B224F
:1025D000DA6010BDC8240020152500080044025808
:1025E0001500020182691B2310B5D360D1E90030C8
:1025F00013F44C4406D19B011461D06103F44043B1
:10260000536110BD0024184313F4406F1461CC686B
:10261000D4615061F5D08B689361F2E730B584697D
:102620001B25C069E5600068836104F12003C36174
:1026300002234261013A03614223C360162383628D
:10264000CB682261E361D1E90023134312F4406FA8
:10265000636101D08B68A361C36843F00103C36069
:1026600030BD000030B5D0E90640006804F1200517
:102670008561C36108234261013A036146230D6904
:10268000C36016238362CB682261E361D1E9002332
:10269000134312F4406F43EA854343F08063636160
:1026A00001D08B68A361C36843F00103C36030BDF0
:1026B0008069036823F0040310B5CC68036000232D
:1026C0000361C4618361D1E900430969234343EA9B
:1026D000814343F04063436112B14FF010431360F4
:1026E00010BD000083691A6842F002021A601A687D
:1026F0009207FCD41A6842F004021A607047000086
:102700008269936810B5D3609B0704461DD5037892
:10271000032B1AD143681B682BB10522027098471E
:102720002378052B01D102232370302383F31188F2
:10273000002104F1080000F05FFE002383F31188FC
:10274000E069BDE8104001F09FBD10BD026843681C
:102750001143016003B118477047000013B5406B87
:1027600000F58054D4F8A4381A681178042914D1DB
:10277000017C022911D11979012312898B4013425E
:102780000BD101A94C3002F0DDFBD4F8A44802467D
:10279000019B2179206800F0DFF902B010BD000034
:1027A000143002F05FBB00004FF0FF33143002F032
:1027B00059BB00004C3002F031BC00004FF0FF3339
:1027C0004C3002F02BBC0000143002F02DBB000096
:1027D0004FF0FF31143002F027BB00004C3002F004
:1027E000FDBB00004FF0FF324C3002F0F7BB0000A1
:1027F0000020704710B500F58054D4F8A4381A684A
:102800001178042917D1017C022914D159790123A7
:1028100052898B4013420ED1143002F0BFFA0246A7
:1028200048B1D4F8A4484FF4407361792068BDE8FA
:10283000104000F07FB910BD406BFFF7DBBF000018
:10284000704700007FB5124B012504260446036043
:102850000023057400F1840243602946C0E9023375
:102860000C4B0290143001934FF44073009602F029
:1028700071FA094B04F69442294604F14C00029483
:10288000CDE900634FF4407302F038FB04B070BD33
:10289000545F0008392800085D2700080A683023C3
:1028A00083F311880B790B3342F823004B791333F0
:1028B00042F823008B7913B10B3342F8230000F563
:1028C0008053C3F8A41802230374002080F31188F6
:1028D0007047000038B5037F044613B190F85430B8
:1028E000ABB90125201D0221FFF730FF04F11400D0
:1028F0006FF00101257700F0A5FD04F14C0084F88C
:1029000054506FF00101BDE8384000F09BBD38BD68
:1029100010B5012104460430FFF718FF0023237788
:1029200084F8543010BD000038B50446002514303A
:1029300002F028FA04F14C00257702F0F7FA201D86
:1029400084F854500121FFF701FF2046BDE83840CC
:10295000FFF750BF90F8803003F06003202B06D1C2
:1029600090F881200023212A03D81F2A06D80020AE
:102970007047222AFBD1C0E91D3303E0034A4267B6
:1029800007228267C3670120704700BF2C22002006
:1029900037B500F58055D5F8A4381A6811780429A0
:1029A0001AD1017C022917D11979012312898B4090
:1029B000134211D100F14C04204602F077FB58B1CC
:1029C00001A9204602F0BEFAD5F8A4480246019BB0
:1029D0002179206800F0C0F803B030BD01F10B038D
:1029E000F0B550F8236085B004460D46FEB13023A3
:1029F00083F3118804EB8507301D0821FFF7A6FE3D
:102A0000FB6806F14C005B691B681BB1019002F08A
:102A1000A7FA019803A902F095FA024648B1039B70
:102A20002946204600F098F8002383F3118805B06A
:102A3000F0BDFB685A691268002AF5D01B8A013B79
:102A40001340F1D104F18002EAE70000133138B5F8
:102A500050F82140ECB1302383F3118804F5805302
:102A6000D3F8A4281368527903EB8203DB689B69CF
:102A70005D6845B104216018FFF768FE294604F13E
:102A8000140002F095F92046FFF7B4FE002383F30B
:102A9000118838BD7047000001F04CBC0123402272
:102AA000002110B5044600F8303BFEF729FD002355
:102AB000C4E9013310BD000010B53023044683F390
:102AC00011882422416000210C30FEF719FD2046B8
:102AD00001F052FC02230020237080F3118810BD06
:102AE00070B500EB8103054650690E461446DA6066
:102AF00018B110220021FEF703FDA06918B11022C1
:102B00000021FEF7FDFC31462846BDE8704001F08B
:102B100039BD000083682022002103F0011310B5A5
:102B2000044683601030FEF7EBFC2046BDE8104001
:102B300001F0B4BDF0B4012500EB810447898D405C
:102B4000E4683D43A469458123600023A26063607B
:102B5000F0BC01F0D1BD0000F0B4012500EB810410
:102B600007898D40E4683D43646905812360002343
:102B7000A2606360F0BC01F047BE000070B50223A4
:102B800000250446242203702946C0F888500C30E2
:102B900040F8045CFEF7B4FC204684F8705001F065
:102BA00085FC63681B6823B129462046BDE8704058
:102BB000184770BD0378052B10B504460AD080F87D
:102BC0008C300523037043681B680BB104219847C0
:102BD0000023A36010BD00000178052906D190F8FC
:102BE0008C20436802701B6803B1184770470000CF
:102BF00070B590F87030044613B1002380F870303F
:102C000004F18002204601F06DFD63689B68B3B952
:102C100094F8803013F0600535D00021204602F092
:102C20005FF80021204602F04FF863681B6813B17B
:102C3000062120469847062384F8703070BD204650
:102C400098470028E4D0B4F88630A26F9A4288BF33
:102C5000A36794F98030A56F002B4FF0300380F20A
:102C60000381002D00F0F280092284F8702083F3A4
:102C7000118800212046D4E91D23FFF76DFF0023B2
:102C800083F31188DAE794F8812003F07F0343EAA5
:102C9000022340F20232934200F0C58021D8B3F5FE
:102CA000807F48D00DD8012B3FD0022B00F09380BD
:102CB000002BB2D104F1880262670222A267E367A7
:102CC000C1E7B3F5817F00F09B80B3F5407FA4D1CD
:102CD00094F88230012BA0D1B4F8883043F002037D
:102CE00032E0B3F5006F4DD017D8B3F5A06F31D0F7
:102CF000A3F5C063012B90D86368204694F8822026
:102D00005E6894F88310B4F88430B047002884D00B
:102D1000436863670368A3671AE0B3F5106F36D0A2
:102D200040F6024293427FF478AF5C4B6367022324
:102D3000A3670023C3E794F88230012B7FF46DAFC3
:102D4000B4F8883023F00203A4F88830C4E91D5594
:102D5000E56778E7B4F88030B3F5A06F0ED194F84A
:102D60008230204684F88A3001F0FEFB63681B68DD
:102D700013B1012120469847032323700023C4E99F
:102D80001D339CE704F18B0363670123C3E72378BA
:102D9000042B10D1302383F311882046FFF7BAFEAD
:102DA00085F311880321636884F88B5021701B68B8
:102DB0000BB12046984794F88230002BDED084F87F
:102DC0008B300423237063681B68002BD6D002214C
:102DD00020469847D2E794F8843020461D0603F039
:102DE0000F010AD501F070FC012804D002287FF4FD
:102DF00014AF2B4B9AE72B4B98E701F057FCF3E706
:102E000094F88230002B7FF408AF94F8843013F0EC
:102E10000F01B3D01A06204602D501F079FFADE7C5
:102E200001F06AFFAAE794F88230002B7FF4F5AE38
:102E300094F8843013F00F01A0D01B06204602D571
:102E400001F04EFF9AE701F03FFF97E7142284F864
:102E5000702083F311882B462A4629462046FFF727
:102E600069FE85F31188E9E65DB1152284F87020CA
:102E700083F3118800212046D4E91D23FFF75AFE71
:102E8000FDE60B2284F8702083F311882B462A4636
:102E900029462046FFF760FEE3E700BF845F000895
:102EA0007C5F0008805F000838B590F870300446F9
:102EB000002B3ED0063BDAB20F2A34D80F2B32D883
:102EC000DFE803F03731310822323131313131312D
:102ED00031313737856FB0F886309D4214D2C368E0
:102EE0001B8AB5FBF3F203FB12556DB9302383F354
:102EF00011882B462A462946FFF72EFE85F31188B6
:102F00000A2384F870300EE0142384F870303023E4
:102F100083F31188002320461A461946FFF70AFE5C
:102F2000002383F3118838BDC36F03B19847002392
:102F3000E7E70021204601F0D3FE0021204601F002
:102F4000C3FE63681B6813B1062120469847062319
:102F5000D7E7000010B590F870300446142B29D044
:102F600017D8062B05D001D81BB110BD093B022B89
:102F7000FBD80021204601F0B3FE0021204601F0DD
:102F8000A3FE63681B6813B10621204698470623F9
:102F900019E0152BE9D10B2380F87030302383F32F
:102FA000118800231A461946FFF7D6FD002383F344
:102FB0001188DAE7C3689B695B68002BD5D1C36FC2
:102FC00003B19847002384F87030CEE7FFF7CEBAFC
:102FD000012100230170C0E901330C3000F028B951
:102FE00010B53023044683F311884160FFF7CCFA13
:102FF00002230020237080F3118810BD10B5302308
:10300000044683F31188032304F8083BFFF7EAFA28
:103010004FF0FF31204600F0E1F9002383F31188DF
:10302000C01A18BF012010BD38B50446302585F3FD
:103030001188032504F8085BFFF7F0FA4FF0FF3121
:10304000204600F0CBF9002383F31188C01A18BF83
:10305000012038BD38B50446302585F31188042594
:1030600004F8085BFFF7FEFA4FF0FF31204600F04E
:10307000B5F9002383F31188C01A18BF012038BDA9
:1030800010B53023044683F31188FFF711FB0623A4
:103090002370002383F3118810BD000010B5302386
:1030A000044683F31188FFF71DFB022323700023DE
:1030B00083F3118810BD00000C3000F0D5B800007B
:1030C0000C3000F0DBB80000002382680375036950
:1030D0001B6899689142FBD25A6803604260106095
:1030E0005860704700238268037503691B689968FC
:1030F0009142FBD85A680360426010605860704784
:1031000008B50846302383F311880A7D0023052A79
:1031100006D8DFE802F00B050503120E8269136082
:103120004FF0FF338361FFF7CFFF002383F3118854
:1031300008BD8269936801339360D0E9003213605F
:103140005A60EDE7FFF7C0BF054BD96808751868EE
:10315000026853601A600122D8600275FDF7DCBA7C
:10316000E82400200C4B30B5DD684B1C87B00446CA
:103170000FD02B46094A684600F0F8F92046FFF7C1
:10318000E3FF009B13B1684600F0FAF9A86907B0A5
:1031900030BDFFF7D9FFF9E7E8240020013100082E
:1031A00038B50C4D04468161EB6881689A6891429C
:1031B00003D8BDE83840FFF787BF1846FFF792FFF6
:1031C00001230146EC6020462375BDE83840FDF739
:1031D000A3BA00BFE8240020044B1A68DB6890689B
:1031E0009B68984294BF002001207047E82400208B
:1031F000084B10B51C68D868226853601A60012219
:10320000DC602275FFF76EFF01462046BDE81040E6
:10321000FDF782BAE8240020044B1A68DB68926844
:103220009B689A4201D9FFF7E3BF7047E82400206A
:10323000C0E90000816070478368013B002B10B536
:1032400083600CDA074BDC684368A0612060636030
:103250001C6044600520FFF777FFA06910BD0020C7
:10326000FCE700BFE824002008B5302383F3118871
:10327000FFF7E2FF002383F3118808BD08B5302370
:1032800083F3118883680133002B836007DC0368B4
:1032900000211A68026050601846FFF781FF002382
:1032A00083F3118808BD000038B50123084C0025C0
:1032B0002370656001F036FF01F05CFF05490648A8
:1032C00002F030F80223237085F3118838BD00BF67
:1032D000502700208C5F0008E824002008B572B653
:1032E000044B186500F006FD00F0D4FD024B0322EC
:1032F0001A70FEE7E82400205027002000F076B97D
:10330000EFF3118020B9EFF30583302282F31188A7
:103310007047000010B530B9EFF30584C4F308041A
:1033200014B180F3118810BDFFF776FF84F3118884
:10333000F9E70000034A516853685B1A9842FBD8CA
:10334000704700BF001000E08B6002230861084650
:103350008B8270478368A3F1840243F8142C0269BE
:1033600043F8442C426943F8402C094A43F8242C82
:10337000C268A3F1200043F8182C022203F80C2C99
:10338000002203F80B2C034A43F8102C704700BFAF
:1033900031070008E824002008B5FFF7DBFFBDE88F
:1033A0000840FFF7CFBE0000024BDB6898610F209A
:1033B000FFF7CABEE8240020302383F31188FFF70B
:1033C000F3BF000008B50146302383F311880820BD
:1033D000FFF7C8FE002383F3118808BD054BDB68A7
:1033E00021B1036098610320FFF7BCBE4FF0FF30AE
:1033F000704700BFE824002003682BB10022026060
:1034000018469961FFF79EBE70470000064BDB68C7
:1034100039B1426818605A60136043600420FFF7B6
:10342000A1BE4FF0FF307047E824002003689842A7
:1034300006D01A680260506018469961FFF782BE94
:103440007047000038B504460D462068844200D11C
:1034500038BD036823605C608561FFF773FEF4E7A5
:10346000036810B59C68A2420CD85C688A600B6047
:103470004C602160596099688A1A9A604FF0FF3356
:10348000836010BD121B1B68ECE700000A2938BFDF
:103490000A2170B504460D460A26601901F03CFE6B
:1034A00001F024FE041BA54203D8751C04462E46D9
:1034B000F3E70A2E04D90120BDE8704001F072BF85
:1034C00070BD0000F8B5144B0D460A2A4FF00A07EC
:1034D000D96103F11001826038BF0A224160196985
:1034E0001446016048601861A81801F005FE01F05B
:1034F000FDFD431B0646A34206D37C1C2819274624
:10350000354601F009FEF2E70A2F04D90120BDE893
:10351000F84001F047BFF8BDE8240020F8B50646A2
:103520000D4601F0E3FD0F4A134653F8107F9F420A
:1035300006D12A4601463046BDE8F840FFF7C2BF33
:10354000D169BB68441A2C1928BF2C46A34202D962
:103550002946FFF79BFF224631460348BDE8F84065
:10356000FFF77EBFE8240020F8240020C0E90323F1
:10357000002310B45DF8044B4361FFF7CFBF000098
:1035800010B5194C236998420DD08168D0E90032FA
:1035900013605A609A680A449A60002303604FF0EF
:1035A000FF33A36110BD0268234643F8102F536018
:1035B0000022026022699A4203D1BDE8104001F066
:1035C000A5BD936881680B44936001F08FFD22696B
:1035D000E1699268441AA242E4D91144BDE810405E
:1035E000091AFFF753BF00BFE82400202DE9F04778
:1035F000DFF8BC8008F110072C4ED8F8105001F00D
:1036000075FDD8F81C40AA68031B9A423ED81444A2
:103610004FF00009D5E90032C8F81C4013605A6029
:10362000C5F80090D8F81030B34201D101F06EFD1A
:1036300089F31188D5E9033128469847302383F36D
:1036400011886B69002BD8D001F050FD6A69A0EB9E
:10365000040982464A450DD2022001F0A3FE002251
:10366000D8F81030B34208D151462846BDE8F0479B
:10367000FFF728BF121A2244F2E712EB0909294684
:10368000384638BF4A46FFF7EBFEB5E7D8F81030AA
:10369000B34208D01444C8F81C00211AA960BDE840
:1036A000F047FFF7F3BEBDE8F08700BFF824002025
:1036B000E824002000207047FEE70000704700006B
:1036C0004FF0FF307047000002290CD0032904D0CE
:1036D0000129074818BF00207047032A05D805486C
:1036E00000EBC2007047044870470020704700BFDD
:1036F000646000083C2200201860000870B59AB091
:1037000005460846144601A900F0C2F801A8FDF7D5
:10371000EFFE431C0022C6B25B001046C5E9003430
:1037200023700323023404F8013C01ABD1B202340C
:103730008E4201D81AB070BD13F8011B013204F893
:10374000010C04F8021CF1E708B5302383F311885B
:103750000348FFF71DF9002383F3118808BD00BF5C
:103760005827002090F8803003F01F02012A07D16B
:1037700090F881200B2A03D10023C0E91D3315E006
:1037800003F06003202B08D1B0F884302BB990F8F7
:103790008120212A03D81F2A04D8FFF7DBB8222A68
:1037A000EBD0FAE7034A426707228267C36701202A
:1037B000704700BF3322002007B5052917D8DFE87E
:1037C00001F0191603191920302383F31188104AC8
:1037D00001210190FFF784F9019802210D4AFFF7BA
:1037E0007FF90D48FFF7A0F8002383F3118803B099
:1037F0005DF804FB302383F311880748FFF76AF86C
:10380000F2E7302383F311880348FFF781F8EBE7F1
:10381000B85F0008DC5F00085827002038B50C4D61
:103820000C4C2A460C4904F10800FFF767FF05F12C
:10383000CA0204F110000949FFF760FF05F5CA72DA
:1038400004F118000649BDE83840FFF757BF00BF34
:10385000304000203C220020985F0008A25F000852
:10386000AD5F000870B5044608460D46FDF740FE02
:10387000C6B22046013403780BB9184670BD3246F3
:103880002946FDF715FE0028F3D10120F6E70000D8
:103890002DE9F84F05460C46FDF72AFE2C49C6B225
:1038A0002846FFF7DFFF08B10236F6B2294928465D
:1038B000FFF7D8FF08B11036F6B2632E0DD8DFF847
:1038C0009080DFF89090244FDFF894A0DFF894B058
:1038D0002E7846B92670BDE8F88F29462046BDE807
:1038E000F84F02F0D9B9252E2ED10722414628469D
:1038F000FDF7DEFD70B9DBF800300735093444F818
:10390000093CDBF8043044F8053C9BF8083004F827
:10391000013CDDE7082249462846FDF7C9FD98B974
:10392000A21C0E4B197802320909C95D02F8041C69
:1039300013F8011B01F00F015345C95D02F8031C88
:10394000F0D118340835C3E7013504F8016BBFE73F
:1039500084600008AD5F00089660000800E8F11F71
:103960000CE8F11F8C600008BFF34F8F024A136907
:103970005B07FCD1704700BF0020005208B5074B21
:103980001B7853B9FFF7F0FF054BDA68D20704D56F
:10399000044A5A6002F188325A6008BD8E42002003
:1039A00000200052230167454FF00063054A196863
:1039B000013104D104339342F9D101207047002032
:1039C000704700BF0000020808B5094B1B786BB9AF
:1039D00008490B695B0703D5CB6843F04003CB6014
:1039E000FFF7C2FFCB6843F00103CB6008BD00BF07
:1039F0008E420020002000524FF40030704700003B
:103A00000120704708B9FFF7CFBF002070470000C2
:103A100010B538BBFFF774FC1349FFF7A5FF044648
:103A2000FFF7ACFF4FF0FF334B610B61FFF79CFFDB
:103A30002423CB60CB6843F08003CB600B695B072A
:103A4000FCD44FF400314FF00060FFF78DFF00F021
:103A5000FDF92046FFF7B8FFFFF75CFCBDE810401A
:103A6000FFF7A2BF002010BD002000522DE9F8434F
:103A700040EA020305460C461146D80602D0002053
:103A8000BDE8F88321F01F01DFF8A0804FF0FF3977
:103A9000FFF774FF6718BC4203D10120FFF794FFC2
:103AA000EEE720222946204602F0A2F810B9203580
:103AB0002034F0E72B4605F120021E68711CDED190
:103AC00004339342F9D1FFF71BFC291BFFF74CFF8E
:103AD000C8F81460D8F80C3004F11C0243F002035B
:103AE000C8F80C30231FD8F8106016F00506FAD17C
:103AF00053F804CF9A4241F803C0F4D1BFF34F8F7B
:103B0000FFF732FFC8F81490D8F80C3023F0020306
:103B1000C8F80C30FFF7FEFB20222146284602F0B1
:103B200067F80028C3D03046B8E700BF0020005235
:103B3000084908B50B7828B11BB9FFF71FFF01230F
:103B40000B7008BD002BFCD00870BDE80840FFF7E3
:103B50003BBF00BF8E4200202DE9F04F0D4685B0DF
:103B6000814658B111F00D0614BF2022082211F031
:103B70000803019304D0431E03426AD0002435E0B9
:103B8000002E37D009F11F0121F01F094FF0010865
:103B9000324F05F00403DFF8D0A005EA080BBBF1B3
:103BA000000F32D07869C0072FD408F101080C3714
:103BB000B8F1060FF3D19EB9294D4946A8190192D3
:103BC00001F0FAFA044600283AD11836019A782E04
:103BD000F3D1494601F0F0FA0446002830D1019AA9
:103BE0004946204801F0E8FA044668BB204605B083
:103BF000BDE8F08F0029C9D101462846029201F0A4
:103C0000DBFA0446E0B9029AC0E713B178694107CC
:103C1000CBD5AC0702D578698007C6D5019911B11B
:103C200078690107C1D51820494600FB08A0CDE9F5
:103C3000022301F0C1FA0446DDE902230028B4D0D2
:103C40004A460021204601E04A460021FDF758FC83
:103C5000CCE70246002E95D198E700BFA860000887
:103C6000C042002090420020A84200200021FFF71F
:103C700073BF00000121FFF76FBF0000F8B5144DBE
:103C800001241827134E40F2FF3200210120FDF7D6
:103C900037FC07FB046001342A6955F80C1F01F05A
:103CA00077FA062CF5D137254FF4C0542046FFF79C
:103CB000E1FF014628B122460748BDE8F84001F07F
:103CC00067BAC4EBC404013D4FEAD404EED1F8BD99
:103CD000A8600008A8420020904200200421FFF7BD
:103CE0003BBF00004843FFF7C1BF000008B101F02F
:103CF000D5BA704738B5054D00240334696855F8C6
:103D00000C0B00F0B5F8122CF7D138BDA8600008F4
:103D100070B5104E82B0FFF7F3FA054601F0E6F9F0
:103D2000326803469042336037BF0B4A0A495168F4
:103D3000146836BF0131D1E90041516004192846A9
:103D400041F100010191FFF7E5FA2046019902B027
:103D500070BD00BF384300204043002070B5124EB4
:103D600082B0FFF7CDFA054601F0C0F9326803468C
:103D70009042336037BF0D4A0C495168146836BF12
:103D80000131D1E9004151600419284641F1000197
:103D90000191FFF7BFFA4FF47A7200232046019990
:103DA000FCF7A6FA02B070BD384300204043002063
:103DB0000244074BD2B210B5904200D110BD441C52
:103DC00000B253F8200041F8040BE0B2F4E700BF62
:103DD000504000580E4B30B51C6F240405D41C6FA6
:103DE0001C671C6F44F400441C670A4C024423689F
:103DF000D2B243F480732360074B904200D130BDB0
:103E0000441C51F8045B00B243F82050E0B2F4E7E0
:103E100000440258004802585040005807B501229B
:103E200001A90020FFF7C4FF019803B05DF804FB6F
:103E300013B50446FFF7F2FFA04205D0012201A905
:103E400000200194FFF7C6FF02B010BD0144BFF38C
:103E50004F8F064B884204D3BFF34F8FBFF36F8F52
:103E60007047C3F85C022030F4E700BF00ED00E0CB
:103E70000144BFF34F8F064B884204D3BFF34F8FEB
:103E8000BFF36F8F7047C3F870022030F4E700BFB4
:103E900000ED00E07047000070B5054616460C4680
:103EA00001201021FFF71EFF286046733CB1204619
:103EB00036B1FFF713FF2B68186000B19C6070BD2E
:103EC000FFF7D8FEF7E7000070B50E46154604462A
:103ED00000B30B6843608368934210D213B100684B
:103EE000FFF704FF637B28462BB1FFF7F7FE206046
:103EF00020B9A06070BDFFF7BDFEF8E7A56020689F
:103F000005F11F01306021F01F01FFF79FFF012025
:103F10002073EFE70120EDE710B5044640B10068DB
:103F2000884205D1606808B1FDF7B8FA0023237311
:103F300010BD000070B50E461546044620B38368D8
:103F40009A4210D913B10068FFF7D0FE637B284670
:103F50002BB1FFF7C3FE206020B9A06070BDFFF752
:103F600089FEF8E7A560316819B12A462068FDF797
:103F700095FA206805F11F01306021F01F01FFF75D
:103F800077FF01202073E9E70120E7E720B103680C
:103F90008B4204BF002303737047000008B1002365
:103FA00003737047034B1A681AB9034AD2F8D02436
:103FB0001A607047484300200040025808B5FFF7D8
:103FC000F1FF024B1868C0F3806008BD4843002031
:103FD00070B5BFF34F8FBFF36F8F1A4A0021C2F83D
:103FE0005012BFF34F8FBFF36F8F536943F4003309
:103FF0005361BFF34F8FBFF36F8FC2F88410BFF3CD
:104000004F8FD2F8803043F6E074C3F3C900C3F396
:104010004E335B0103EA0406014646EA8175013925
:10402000C2F86052F9D2203B13F1200FF2D1BFF356
:104030004F8F536943F480335361BFF34F8FBFF306
:104040006F8F70BD00ED00E0FEE70000214B2248BD
:10405000224A70B5904237D3214BC11EDA1C121A86
:1040600022F003028B4238BF00220021FDF748FAFC
:104070001C4A0023C2F88430BFF34F8FD2F880303F
:1040800043F6E074C3F3C900C3F34E335B0103EAA4
:104090000406014646EA81750139C2F86C52F9D22C
:1040A000203B13F1200FF2D1BFF34F8FBFF36F8F7F
:1040B000BFF34F8FBFF36F8F0023C2F85032BFF3AF
:1040C0004F8FBFF36F8F70BD53F8041B40F8041B74
:1040D000C0E700BF786300080846002008460020BB
:1040E0000846002000ED00E003681A6899685A60ED
:1040F00043681BB142EA01418068184770470000DD
:104100004FF0A44310B51C68E00702D52848FFF71C
:10411000EBFFA10702D52748FFF7E6FF620702D5AC
:104120002548FFF7E1FF230702D52448FFF7DCFF0E
:10413000E00602D52248FFF7D7FFA10602D52148A5
:10414000FFF7D2FF620602D51F48FFF7CDFF230617
:1041500002D51E48FFF7C8FFE00502D51C48FFF74F
:10416000C3FFA10502D51B48FFF7BEFF620502D5BC
:104170001948FFF7B9FF230502D51848FFF7B4FF28
:10418000E00402D51648FFF7AFFFA10402D5154899
:10419000FFF7AAFF620402D51348FFF7A5FF230427
:1041A00002D51248FFF7A0FFBDE8104001F0ECB9BE
:1041B000504300205C4300206843002074430020EB
:1041C000804300208C43002098430020A44300201B
:1041D000B0430020BC430020C8430020D44300204B
:1041E000E0430020EC430020F8430020044400207A
:1041F00030B5094B0021094C10200725196054F8EF
:10420000042B0138C3E90121D16003F10C031161D2
:104210005560F4D130BD00BF4C430020F060000871
:104220000F28F0B50AD9102806D10F230020144C0E
:1042300001272568984203D900201DE00346F6E7D0
:1042400007FA00F6354218D10C2335434343256065
:10425000181D2344C3E902120A4B2044D3F8D4208A
:1042600042F00102C3F8D420D3F8FC2042F001024E
:10427000C3F8FC20D3F8FC30F0BD0130DAE700BF12
:104280004C430020004402580368D968DA68C90723
:1042900022F03F02DA6002D51A689207FCD50722A5
:1042A0005A607047074BD3F8D81021EA0001C3F8D1
:1042B000D810D3F8002122EA0002C3F80021D3F875
:1042C000003170470044025870B5D0E92443002201
:1042D0004FF0FF359E6804EB42135101D3F80009FB
:1042E000002805DAD3F8000940F08040C3F800093F
:1042F000D3F8000B002805DAD3F8000B40F080401B
:10430000C3F8000B013263189642C3F80859C3F88A
:10431000085BE0D24FF00113C4F81C3870BD0000F8
:10432000890141F02001016103699B06FCD4122040
:10433000FFF700B810B50A4C2046FEF7AFFB094B5B
:10434000C4F89030084BC4F89430084C2046FEF76F
:10435000A5FB074BC4F89030064BC4F8943010BD51
:10436000104400200000084054610008AC440020C4
:10437000000004406061000870B503780546012B19
:104380005CD1434BD0F89040984258D1414B0E211C
:104390006520D3F8D82042F00062C3F8D820D3F8C3
:1043A000002142F00062C3F80021D3F80021D3F8C5
:1043B000802042F00062C3F88020D3F8802022F0F1
:1043C0000062C3F88020D3F8803000F0ADFC324B9F
:1043D000E360324BC4F800380023D5F89060C4F88D
:1043E000003EC02323604FF40413A3633369002B02
:1043F000FCDA01230C203361FEF79CFF3369DB07F5
:10440000FCD41220FEF796FF3369002BFCDA00265D
:104410002846A660FFF758FF6B68C4F81068DB6891
:10442000C4F81468C4F81C6883BB1D4BA3614FF02B
:10443000FF336361A36843F00103A36070BD194BB0
:104440009842C9D1134B4FF08060D3F8D82042F086
:104450000072C3F8D820D3F8002142F00072C3F8EC
:104460000021D3F80021D3F8802042F00072C3F875
:104470008020D3F8802022F00072C3F88020D3F887
:104480008030FFF70FFF0E214D209EE7064BCDE752
:104490001044002000440258401400400300200251
:1044A000003C30C0AC440020083C30C0F8B5D0F827
:1044B0009040054600214FF000662046FFF730FF90
:1044C000D5F8941000234FF001128F684FF0FF30A1
:1044D000C4F83438C4F81C2804EB431201339F425B
:1044E000C2F80069C2F8006BC2F80809C2F8080BEC
:1044F000F2D20B68D5F89020C5F89830636210238B
:104500001361166916F01006FBD11220FEF712FF98
:10451000D4F8003823F4FE63C4F80038A36943F4E8
:10452000402343F01003A3610923C4F81038C4F8F2
:1045300014380B4BEB604FF0C043C4F8103B094BF1
:10454000C4F8003BC4F81069C4F80039D5F89830B5
:1045500003F1100243F48013C5F89820A362F8BD5C
:104560003061000840800010D0F8902090F88A1048
:10457000D2F8003823F4FE6343EA0113C2F800388E
:10458000704700002DE9F84300EB8103D0F890500C
:104590000C468046DA680FFA81F94801166806F081
:1045A0000306731E022B05EB41134FF0000194BF6D
:1045B000B604384EC3F8101B4FF0010104F110038C
:1045C00098BF06F1805601FA03F3916998BF06F58A
:1045D000004600293AD0578A04F15801374349016F
:1045E0006F50D5F81C180B430021C5F81C382B1848
:1045F0000127C3F81019A7405369611E9BB3138AA2
:10460000928B9B08012A88BF5343D8F898209818AA
:1046100042EA034301F140022146C8F898002846C7
:1046200005EB82025360FFF77BFE08EB8900C3684D
:104630001B8A43EA845348341E4364012E51D5F843
:104640001C381F43C5F81C78BDE8F88305EB4917F3
:10465000D7F8001B21F40041C7F8001BD5F81C183F
:1046600021EA0303C0E704F13F030B4A2846214631
:1046700005EB83035A60FFF753FE05EB4910D0F8B2
:10468000003923F40043C0F80039D5F81C3823EA78
:104690000707D7E70080001000040002D0F894203C
:1046A0001268C0F89820FFF70FBE00005831D0F80C
:1046B000903049015B5813F4004004D013F4001FFC
:1046C0000CBF0220012070474831D0F890304901DA
:1046D0005B5813F4004004D013F4001F0CBF0220F9
:1046E0000120704700EB8101CB68196A0B681360E9
:1046F0004B6853607047000000EB810330B5DD6804
:10470000AA691368D36019B9402B84BF4023136092
:104710006B8A1468D0F890201C4402EB4110013CD5
:1047200009B2B4FBF3F46343033323F0030343EA16
:10473000C44343F0C043C0F8103B2B6803F00303AD
:10474000012B0ED1D2F8083802EB411013F4807F10
:10475000D0F8003B14BF43F0805343F00053C0F83F
:10476000003B02EB4112D2F8003B43F00443C2F895
:10477000003B30BD2DE9F041D0F8906005460C4675
:1047800006EB4113D3F8087B3A07C3F8087B08D53A
:10479000D6F814381B0704D500EB8103DB685B688F
:1047A0009847FA071FD5D6F81438DB071BD505EB59
:1047B0008403D968CCB98B69488A5A68B2FBF0F691
:1047C00000FB16228AB91868DA6890420DD2121AD4
:1047D000C3E90024302383F3118821462846FFF7DC
:1047E0008BFF84F31188BDE8F081012303FA04F202
:1047F0006B8923EA02036B81CB68002BF3D021463F
:104800002846BDE8F041184700EB81034A0170B526
:10481000DD68D0F890306C692668E66056BB1A44B3
:104820004FF40020C2F810092A6802F00302012A9E
:104830000AB20ED1D3F8080803EB421410F4807FBB
:10484000D4F8000914BF40F0805040F00050C4F884
:10485000000903EB4212D2F8000940F00440C2F80C
:1048600000090122D3F8340802FA01F10143C3F828
:10487000341870BD19B9402E84BF402020602068D4
:104880001A442E8A8419013CB4FBF6F440EAC44071
:1048900040F00050C6E700002DE9F843D0F89060E2
:1048A00005460C464F0106EB4113D3F8088918F072
:1048B000010FC3F808891CD0D6F81038DB0718D5CB
:1048C00000EB8103D3F80CC0DCF81430D3F800E01F
:1048D000DA68964530D2A2EB0E024FF000091A605A
:1048E000C3F80490302383F31188FFF78DFF89F319
:1048F000118818F0800F1DD0D6F834380126A64054
:10490000334217D005EB84030134D5F89050D3F827
:104910000CC0E4B22F44DCF8142005EB0434D2F8C8
:1049200000E05168714514D3D5F8343823EA0606FF
:10493000C5F83468BDE8F883012303FA01F203895E
:1049400023EA02030381DCF80830002BD1D098471A
:10495000CFE7AEEB0103BCF81000834228BF03464B
:10496000D7F8180980B2B3EB800FE3D89068A0F1B4
:10497000040959F8048FC4F80080A0EB0908984492
:10498000B8F1040FF5D818440B4490605360C8E7A1
:104990002DE9F84FD0F8905004466E69AB691E407F
:1049A00016F480586E6103D0BDE8F84FFEF7E6B804
:1049B000002E12DAD5F8003E9B0705D0D5F8003E50
:1049C00023F00303C5F8003ED5F80438204623F051
:1049D0000103C5F80438FEF7FFF8370505D5204672
:1049E000FFF772FC2046FEF7E5F8B0040CD5D5F8C9
:1049F000083813F0060FEB6823F470530CBF43F430
:104A0000105343F4A053EB6031071BD56368DB6898
:104A10001BB9AB6923F00803AB612378052B0CD1DC
:104A2000D5F8003E9A0705D0D5F8003E23F00303E1
:104A3000C5F8003E2046FEF7CFF86368DB680BB18F
:104A400020469847F30200F1BA80B70226D5D4F881
:104A5000909000274FF0010A09EB4712D2F8003B73
:104A600003F44023B3F5802F11D1D2F8003B002B83
:104A70000DDA62890AFA07F322EA0303638104EB81
:104A80008703DB68DB6813B1394620469847013756
:104A9000D4F89430FFB29B689F42DDD9F00619D557
:104AA000D4F89000026AC2F30A1702F00F0302F46E
:104AB000F012B2F5802F00F0CA80B2F5402F09D174
:104AC00004EB8303002200F58050DB681B6A9742E9
:104AD00040F0B0803003D5F8185835D5E90303D538
:104AE00000212046FFF746FEAA0303D501212046F8
:104AF000FFF740FE6B0303D502212046FFF73AFE85
:104B00002F0303D503212046FFF734FEE80203D527
:104B100004212046FFF72EFEA90203D505212046D9
:104B2000FFF728FE6A0203D506212046FFF722FE82
:104B30002B0203D507212046FFF71CFEEF0103D50A
:104B400008212046FFF716FE700340F1A780E90711
:104B500003D500212046FFF79FFEAA0703D50121B8
:104B60002046FFF799FE6B0703D502212046FFF789
:104B700093FE2F0703D503212046FFF78DFEEE0697
:104B800003D504212046FFF787FEA80603D505219B
:104B90002046FFF781FE690603D506212046FFF770
:104BA0007BFE2A0603D507212046FFF775FEEB059D
:104BB00074D520460821BDE8F84FFFF76DBED4F844
:104BC00090904FF0000B4FF0010AD4F894305FFA48
:104BD0008BF79B689F423FF638AF09EB4713D3F83A
:104BE000002902F44022B2F5802F20D1D3F8002909
:104BF000002A1CDAD3F8002942F09042C3F80029B9
:104C0000D3F80029002AFBDB3946D4F89000FFF7DF
:104C100087FB22890AFA07F322EA0303238104EBC4
:104C20008703DB689B6813B13946204698470BF130
:104C3000010BCAE7910701D1D0F80080072A02F1E1
:104C400001029CBF03F8018B4FEA18283FE704EBF1
:104C5000830300F58050DA68D2F818C0DCF8082029
:104C6000DCE9001CA1EB0C0C00218F4208D1DB68B1
:104C70009B699A683A449A605A683A445A6029E7AC
:104C800011F0030F01D1D0F800808C4501F1010132
:104C900084BF02F8018B4FEA1828E6E7BDE8F88FD9
:104CA00008B50348FFF774FEBDE8084000F06CBC8F
:104CB0001044002008B50348FFF76AFEBDE808402D
:104CC00000F062BCAC440020D0F8903003EB4111FE
:104CD000D1F8003B43F40013C1F8003B70470000DB
:104CE000D0F8903003EB4111D1F8003943F40013B0
:104CF000C1F8003970470000D0F8903003EB411143
:104D0000D1F8003B23F40013C1F8003B70470000CA
:104D1000D0F8903003EB4111D1F8003923F400139F
:104D2000C1F8003970470000090100F16043012219
:104D300003F56143C9B283F8001300F01F039A40E2
:104D400043099B0003F1604303F56143C3F88021ED
:104D50001A60704730B50433039C0172002104FBD4
:104D60000325C160C0E90653049B0363059BC0E9AA
:104D70000000C0E90422C0E90842C0E90A11436307
:104D800030BD00000022416AC260C0E90411C0E9E0
:104D90000A226FF00101FEF755BB0000D0E9043292
:104DA000934201D1C2680AB9181D704700207047AC
:104DB000036919600021C2680132C260C2691344EC
:104DC00082699342036124BF436A0361FEF72EBBED
:104DD00038B504460D46E3683BB162690020131DF7
:104DE0001268A3621344E36207E0237A33B92946C9
:104DF0002046FEF70BFB0028EDDA38BD6FF001000E
:104E0000FBE70000C368C269013BC3604369134408
:104E100082699342436124BF436A436100238362F2
:104E2000036B03B11847704770B53023044683F312
:104E30001188866A3EB9FFF7CBFF054618B186F3A5
:104E40001188284670BDA36AE26A13F8015B934299
:104E5000A36202D32046FFF7D5FF002383F3118816
:104E6000EFE700002DE9F84F04460E461746984636
:104E70004FF0300989F311880025AA46D4F828B0EC
:104E8000BBF1000F09D141462046FFF7A1FF20B139
:104E90008BF311882846BDE8F88FD4E90A12A7EBF6
:104EA000050B521A934528BF9346BBF1400F1BD9FF
:104EB000334601F1400251F8040B914243F8040BD0
:104EC000F9D1A36A403640354033A362D4E90A23BE
:104ED0009A4202D32046FFF795FF8AF31188BD421C
:104EE000D8D289F31188C9E730465A46FCF7D6FA7A
:104EF000A36A5E445D445B44A362E7E710B5029C8D
:104F00000433017203FB0421C460C0E906130023CB
:104F1000C0E90A33039B0363049BC0E90000C0E9B6
:104F20000422C0E90842436310BD0000026A6FF02A
:104F30000101C260426AC0E904220022C0E90A22DB
:104F4000FEF780BAD0E904239A4201D1C26822B99F
:104F5000184650F8043B0B60704700231846FAE7E8
:104F6000C3680021C2690133C36043691344826985
:104F70009342436124BF436A4361FEF757BA00007E
:104F800038B504460D46E3683BB1236900201A1D7D
:104F9000A262E2691344E36207E0237A33B9294647
:104FA0002046FEF733FA0028EDDA38BD6FF0010035
:104FB000FBE7000003691960C268013AC260C26978
:104FC000134482699342036124BF436A036100234F
:104FD0008362036B03B118477047000070B530233C
:104FE0000D460446114683F31188866A2EB9FFF7F1
:104FF000C7FF10B186F3118870BDA36A1D70A36A44
:10500000E26A01339342A36204D3E1692046043982
:10501000FFF7D0FF002080F31188EDE72DE9F84F6E
:1050200004460D46904699464FF0300A8AF311889F
:105030000026B346A76A4FB949462046FFF7A0FFAE
:1050400020B187F311883046BDE8F88FD4E90A070C
:105050003A1AA8EB0607974228BF1746402F1BD9DC
:1050600005F1400355F8042B9D4240F8042BF9D17B
:10507000A36A40364033A362D4E90A239A4204D398
:10508000E16920460439FFF795FF8BF31188464507
:10509000D9D28AF31188CDE729463A46FCF7FEF9C2
:1050A000A36A3D443E443B44A362E5E7D0E90423C0
:1050B0009A4217D1C3689BB1836A8BB1043B9B1A98
:1050C0000ED01360C368013BC360C3691A4483698F
:1050D0009A42026124BF436A036100238362012371
:1050E000184670470023FBE700F078BA014B586A76
:1050F000704700BF000C0040034B002258631A6148
:105100000222DA60704700BF000C0040014B002211
:10511000DA607047000C0040014B5863704700BFD5
:10512000000C0040024B034A1A60034A5A60704761
:10513000604500200846002000000220074B49423D
:1051400010B55C68201A08401968821A8A4203D395
:10515000A24201D85A6010BD0020FCE76045002043
:1051600008B5302383F31188FFF7E8FF002383F3AA
:10517000118808BD04480121044B03600023C0E9E5
:1051800001330C30FEF754B8684500206151000827
:10519000CB1D083A23F00703591A521A012110B403
:1051A000D2080024C0E9004384600C301C605A60BF
:1051B0005DF8044BFEF73CB82DE9F84F364ECD1D97
:1051C0000F46002818BF0646082A4FEAD50538BF03
:1051D000082206F10C08341D91464046FEF744F8BB
:1051E00009F10701C9F1000E224624686CB9404656
:1051F000FEF744F83368CBB308224946E8009847E5
:10520000044698B340E9026730E004EB010CD4F89F
:1052100004A00CEA0E0C0AF10100ACF1080304EB47
:10522000C0009842E0D9A0EB0C0CB5EBEC0F4FEAB4
:10523000EC0BD9D89C421CD204F10802AB45A3EB7D
:1052400002024FEAE202626009D9691CED4320685C
:1052500003EBC1025D44556043F8310022601C46F7
:105260005F60404644F8086BFEF708F82046BDE84A
:10527000F88FAA45216802D111602346EFE7013576
:1052800004EBC50344F8351003F10801401AC010BF
:1052900058601360F1E700BF68450020F8B550F88A
:1052A000043C044650F8085CA0F1080607332F1DA3
:1052B0000C35DB0840F8043C2846FDF7D5FF3B469B
:1052C0009F421A6801D0B34228D20AB1964225D231
:1052D00044F8082C54F8042C1E60013254F8081CC1
:1052E00006EBC200814206D14868024444F8042C0F
:1052F0000A6844F8082C5868411C03EBC1018E422F
:1053000007D154F8042C013202445A6054F8082C96
:105310001A602846BDE8F840FDF7B0BF1346CFE756
:10532000FEE7000070B51B4B0025044686B05860B0
:105330000E468562016300F0FFF804F11003A560DA
:10534000E562C4E904334FF0FF33C4E90044C4E923
:105350000635FFF7CBFE2B46024604F1340120460A
:10536000C4E9082380230C4A2565FDF7EDFF0123DE
:105370000A4AE06000920375684672680192B2685A
:10538000CDE90223064BCDE90435FEF705F806B05A
:1053900070BD00BF502700206C61000871610008DB
:1053A00021530008024AD36A1843D062704700BFF5
:1053B000E82400204B6843608B688360CB68C3603F
:1053C0000B6943614B6903628B6943620B6803603D
:1053D0007047000008B5354B40F2FF70D3F8E0107D
:1053E0000143C3F8E010D3F8082102433048C3F862
:1053F0000821304AD3F808311146FFF7DBFF00F5EA
:10540000806002F11C01FFF7D5FF00F5806002F11A
:105410003801FFF7CFFF00F5806002F15401FFF77C
:10542000C9FF00F5806002F17001FFF7C3FF00F5CE
:10543000806002F18C01FFF7BDFF00F5806002F192
:10544000A801FFF7B7FF00F5806002F1C401FFF784
:10545000B1FF00F5806002F1E001FFF7ABFF00F55E
:10546000806002F1FC01FFF7A5FF02F58C7100F5E9
:105470008060FFF79FFF00F07DF90F4BD3F890227B
:1054800042F00102C3F89022D3F8942242F00102C4
:10549000C3F894220522C3F898204FF06052C3F855
:1054A0009C20064AC3F8A02008BD00BF0044025853
:1054B000000002587861000800ED00E01F000803BA
:1054C00008B500F03BFBFDF7EFFE104BD3F8DC20F6
:1054D00042F04002C3F8DC20D3F8042122F040025D
:1054E000C3F80421D3F80431094B1A6842F00802CA
:1054F0001A601A6842F004021A60FEF753FDFEF7C4
:10550000BDFBBDE80840FEF789B900BF0044025862
:105510000018024870470000EFF30983054968331B
:105520004A6B22F001024A6383F30988002383F364
:105530001188704700EF00E0302080F3118862B6D8
:105540000D4B0E4AD96821F4E0610904090C0A43A5
:105550000B49DA60D3F8FC2042F08072C3F8FC20DB
:10556000084AC2F8B01F116841F001011160202201
:10557000DA7783F82200704700ED00E00003FA05B7
:1055800055CEACC5001000E0302310B583F3118870
:105590000E4B5B6813F4006314D0F1EE103AEFF396
:1055A00009844FF08073683CE361094BDB6B236631
:1055B00084F30988FDF710FE10B1064BA36110BDFE
:1055C000054BFBE783F31188F9E700BF00ED00E02E
:1055D00000EF00E04307000846070008114BD3F82E
:1055E000E82042F00802C3F8E820D3F8102142F086
:1055F0000802C3F810210C4AD3F81031D36B43F0E2
:105600000803D363EF22094B9A624FF0FF32DA624C
:1056100000229A615A63DA605A6001225A611A6064
:10562000704700BF004402580010005C000C0040AE
:10563000094A08B51169D3680B40D9B29B076FEAD4
:105640000101116107D5302383F31188FDF756FE60
:10565000002383F3118808BD000C0040064BD3F8EB
:10566000DC200243C3F8DC20D3F804211043C3F844
:105670000401D3F8043170470044025808B53C4B8C
:105680004FF0FF31D3F8802062F00042C3F8802051
:10569000D3F8802002F00042C3F88020D3F88020A5
:1056A000D3F88420C3F88410D3F884200022C3F8F0
:1056B0008420D3F88400D86F40F0FF4040F4FF000E
:1056C00040F4DF4040F07F00D867D86F20F0FF4003
:1056D00020F4FF0020F4DF4020F07F00D867D86F6F
:1056E000D3F888006FEA40506FEA5050C3F8880042
:1056F000D3F88800C0F30A00C3F88800D3F8880004
:10570000D3F89000C3F89010D3F89000C3F890201D
:10571000D3F89000D3F89400C3F89410D3F8940011
:10572000C3F89420D3F89400D3F89800C3F89810E5
:10573000D3F89800C3F89820D3F89800D3F88C00D9
:10574000C3F88C10D3F88C00C3F88C20D3F88C00ED
:10575000D3F89C00C3F89C10D3F89C10C3F89C208D
:10576000D3F89C30FEF744FDBDE8084000F0BAB91C
:105770000044025808B5554BD3F8F42042F0020219
:10578000C3F8F420D3F81C2142F00202C3F81C2114
:105790000222D3F81C314E4BDA605A689104FCD5D2
:1057A0004C4A4D491A6001229A60D9600021196162
:1057B0004FF440419961494BDA6203F511339A691C
:1057C0009204FCD51A6842F480721A603F4B1A6F3B
:1057D00012F4407F04D04FF480321A6700221A6717
:1057E0001A6842F001021A60384B1A685007FCD55B
:1057F00000221A611A6912F03802FBD101211960E6
:105800004FF0804159604FF00051D9605A67344AD7
:10581000DA62344A1A611A6842F480321A602B4BF9
:105820001A689103FCD51A6842F480521A601A680B
:105830009204FCD52C4A2D499A6200225A631963BE
:1058400001F57A01DA6301F2D31199635A64284AA7
:105850001A64284ADA621A6842F0A8521A601B4B8E
:105860001A6802F02852B2F1285FF9D148229A61F1
:105870004FF48862DA6140221A621F4ADA641F4AD2
:105880001A651F4A5A651F4A9A6534231E4A1360D7
:10589000136803F00F03042BFAD10C4A136943F089
:1058A00003031361136903F03803182BFAD14FF087
:1058B0000050FFF7D3FE4FF08040FFF7CFFE4FF0D0
:1058C0000040BDE80840FFF7C9BE00BF00440258D1
:1058D0000048025800C000F0020000010004005817
:1058E0000000FF01008890081210200077020B01D1
:1058F000470E0508DD0BBF0120000020000001104D
:105900000910E00000010110002000524FF0B042E9
:1059100008B5D2F8883003F00103C2F8883023B10B
:10592000044A13680BB150689847BDE80840FFF778
:105930002BBE00BF804500204FF0B04208B5D2F822
:10594000883003F00203C2F8883023B1044A936818
:105950000BB1D0689847BDE80840FFF715BE00BFFF
:10596000804500204FF0B04208B5D2F8883003F0EF
:105970000403C2F8883023B1044A13690BB150699B
:105980009847BDE80840FFF7FFBD00BF80450020F5
:105990004FF0B04208B5D2F8883003F00803C2F8DF
:1059A000883023B1044A93690BB1D0699847BDE8A8
:1059B0000840FFF7E9BD00BF804500204FF0B0422E
:1059C00008B5D2F8883003F01003C2F8883023B14C
:1059D000044A136A0BB1506A9847BDE80840FFF7C4
:1059E000D3BD00BF804500204FF0B04310B5D3F8C1
:1059F000884004F47872C3F88820A30604D5124ABC
:105A0000936A0BB1D06A9847600604D50E4A136BAF
:105A10000BB1506B9847210604D50B4A936B0BB121
:105A2000D06B9847E20504D5074A136C0BB1506C54
:105A30009847A30504D5044A936C0BB1D06C9847E2
:105A4000BDE81040FFF7A0BD804500204FF0B043F7
:105A500010B5D3F8884004F47C42C3F8882062056E
:105A600004D5164A136D0BB1506D9847230504D524
:105A7000124A936D0BB1D06D9847E00404D50F4ADC
:105A8000136E0BB1506E9847A10404D50B4A936E68
:105A90000BB1D06E9847620404D5084A136F0BB15E
:105AA000506F9847230404D5044A936F0BB1D06F0D
:105AB0009847BDE81040FFF767BD00BF8045002054
:105AC00008B50348FCF71CFEBDE80840FFF75CBDC5
:105AD000C824002008B5FFF7ABFDBDE80840FFF77C
