:020000040800F2
:1000000000060020E1020008E3020008E302000805
:10001000E3020008E3020008E3020008E30200082C
:10002000E3020008E3020008E3020008F9420008C6
:10003000E3020008E3020008E3020008E30200080C
:10004000E3020008E3020008E3020008E3020008FC
:10005000E3020008E30200082D47000859470008A2
:1000600085470008B1470008DD470008E3020008A3
:10007000E3020008E3020008E3020008E3020008CC
:10008000E3020008E3020008E3020008E3020008BC
:10009000E3020008E3020008E30200080948000840
:1000A000E3020008E3020008E3020008E30200089C
:1000B000E3020008E3020008E3020008E30200088C
:1000C000E3020008E3020008E3020008E30200087C
:1000D000E3020008E3020008E3020008E30200086C
:1000E00081480008E3020008E3020008E302000878
:1000F000E3020008E3020008E3020008E30200084C
:10010000E3020008E30200081D490008E3020008BA
:10011000E3020008E3020008E3020008E30200082B
:10012000E3020008E3020008E3020008E30200081B
:10013000E3020008E3020008E3020008E30200080B
:10014000E3020008E3020008E3020008E3020008FB
:10015000E3020008E3020008E3020008E3020008EB
:10016000E3020008E3020008E3020008E3020008DB
:10017000E3020008D13B0008E3020008E3020008A4
:10018000E3020008E302000809490008E30200084E
:10019000E3020008E3020008E3020008E3020008AB
:1001A000E3020008E3020008E3020008E30200089B
:1001B000E3020008E3020008E3020008E30200088B
:1001C000E3020008E3020008E3020008E30200087B
:1001D000E3020008BD3B0008E3020008E302000858
:1001E000E3020008E3020008E3020008E30200085B
:1001F000E3020008E3020008E3020008E30200084B
:10020000E3020008E3020008E3020008E30200083A
:10021000E3020008E3020008E3020008E30200082A
:10022000E3020008E3020008E3020008E30200081A
:10023000E3020008E3020008E3020008E30200080A
:10024000E3020008E3020008E3020008E3020008FA
:10025000E3020008E3020008E3020008E3020008EA
:10026000E3020008E3020008E3020008E3020008DA
:10027000E3020008E3020008E3020008E3020008CA
:10028000E3020008E3020008E3020008E3020008BA
:10029000E3020008E3020008E3020008E3020008AA
:1002A000E3020008E3020008E3020008E30200089A
:1002B000E3020008E3020008E3020008E30200088A
:1002C000E3020008E3020008E3020008E30200087A
:1002D000E3020008E3020008E3020008E30200086A
:1002E00002E000F000F8FEE772B6374880F30888B5
:1002F000364880F3098836483649086040F20000E5
:10030000CCF200004EF63471CEF200010860BFF36B
:100310004F8FBFF36F8F40F20000C0F2F0004EF637
:100320008851CEF200010860BFF34F8FBFF36F8F8B
:100330004FF00000E1EE100A4EF63C71CEF20001E3
:100340000860062080F31488BFF36F8F02F09EFDD3
:1003500003F088FF4FF055301F491B4A91423CBFC4
:1003600041F8040BFAE71D49184A91423CBF41F895
:10037000040BFAE71A491B4A1B4B9A423EBF51F83D
:10038000040B42F8040BF8E700201849184A914280
:100390003CBF41F8040BFAE702F0BAFD03F084FF1A
:1003A000144C154DAC4203DA54F8041B8847F9E7A6
:1003B00000F042F8114C124DAC4203DA54F8041B21
:1003C0008847F9E702F0A2BD0006002000220020C5
:1003D0000000000808ED00E00000002000060020FA
:1003E000504D0008002200206422002068220020D6
:1003F000C4470020E0020008E0020008E002000814
:10040000E00200082DE9F04F2DED108AC1F80CD064
:10041000D0F80CD0BDEC108ABDE8F08F002383F338
:1004200011882846A047002002F048F8FEE701F0B6
:10043000A3FF00DFFEE7000038B500F025FC02F066
:10044000DFFC044602F018FD054640B90F4B9C4204
:1004500014D001339C4213D041F2883400E00024D0
:10046000002002F0D9FC75B900F0F0FD00F078FC36
:10047000204600F05FF900F0FDF8F9E70024EFE70F
:1004800000240125ECE700F0F5F8EDE7010007B0E6
:1004900010B584468E46BFF34F8FBFF36F8F1F4B4F
:1004A0000022C3F88420BFF34F8F5A6922F48032B0
:1004B0005A61BFF34F8FD3F88040C4F34E3000E051
:1004C0001846C4F3C90243F6E07303EA401343EA53
:1004D00082731249C1F874321346013A002BF2D1EB
:1004E000431E0028ECD1BFF34F8FBFF36F8FBFF3D4
:1004F0004F8FBFF36F8F4A6922F400324A610022A6
:10050000C1F85022BFF34F8FBFF36F8F302383F3B7
:100510001188E5468CF30888704710BD00ED00E0B7
:1005200000B583B0019004210DEB010000F004FC44
:1005300003B05DF804FB00BF00B583B041F21203C5
:10054000ADF80430022101A800F0F6FB03B05DF81D
:1005500004FB00BF00B583B041F21233ADF80430A4
:10056000022101A800F0E8FB03B05DF804FB00BF26
:1005700000B583B041F21213ADF80430022101A896
:1005800000F0DAFB03B05DF804FB00BF08B5C0EB78
:10059000401300EB8300C00001F098FF08BD00BFCE
:1005A00008B5302383F311881F4B1B6813B11E4815
:1005B00002F042F800231D4A4FF47A711A4802F003
:1005C0002DF8002383F3118801E00133DBB2012B06
:1005D0000BD8174A52F82320002AF6D0144951F8B4
:1005E0002320013A41F82320EFE7124B1B7813B97F
:1005F0000F4B5B6823B10F4B1B78032B07D008BD53
:10060000022000F085FC0A4B32225A60F3E7084BC7
:100610005B68002BF3D1022000F07AFC044B4FF40E
:100620007A725A60EBE700BF68220020A10500083B
:10063000882300208022002008B50C4B1870032866
:1006400006D8DFE800F00A06020E022000F050FC97
:1006500008BD022000F03AFCFAE7054B00225A6080
:10066000F6E7034B00225A60F2E700BF8022002029
:100670008823002008B50023072B08D8294A52F800
:100680002320B2F1FF3F0DD00133DBB2F4E7254B5D
:100690005B68254A934205D9244A9168214A0A4455
:1006A000934200D308BD002000F076FB0220FFF744
:1006B000C3FF1F4BD3F8E8200022C3F8E820D3F88B
:1006C0001011C3F81021D3F81011D3F8EC10C3F8AF
:1006D000EC20D3F81411C3F81421D3F81411D3F873
:1006E000F010C3F8F020D3F81811C3F81821D3F88C
:1006F0001821D3F8802042F00072C3F88020D3F88C
:10070000802022F00072C3F88020D3F8803072B6C7
:10071000044B4FF0E022C2F8083D59681868FFF713
:10072000B7FEBFE700000208FFFF0108002200201B
:10073000004402582DE9F04F91B00546B54BD3F86F
:1007400008A02022FF210DEB020000F021FCB24B9B
:100750001B787BB10DB1B14B1D60B14B1B78032BE6
:1007600021D12C460026B0463746B146012000F084
:10077000BFFB23E0A84B01221A70AA4B00221A608B
:10078000302282F311881B6813B1A64801F054FF90
:100790000023A54A4FF47A71A24801F03FFF0023DD
:1007A00083F31188D6E70020FFF746FFD9E7002042
:1007B00000F0A2FA0290029B002B08DA002CF6D07F
:1007C000964B1B68002BF2D111B0BDE8F08F0120D1
:1007D00000F07CFB029B213B1F2BC7D801A252F8E3
:1007E00023F000BF650800088908000827090008F1
:1007F0006D0700086D0700086D070008A7090008CD
:10080000930B0008A70A00080B0B00082F0B000829
:10081000530B00086D070008710B00086D070008F6
:10082000E70B0008730800086D070008270C000894
:100830005D0B0008730800086D0700080B0B00082B
:100840006D0700086D0700086D0700086D070008B8
:100850006D0700086D0700086D0700086D070008A8
:1008600027090008022000F047FA202840F076818E
:10087000012700F0E1FB27B108F00B030B2B00F080
:10088000F181FFF759FE71E74FF47A7000F034FA06
:10089000B0F1000BC0F26281022000F02DFA202896
:1008A00040F05C810BF1FF33052B00F2DD81DFE8C6
:1008B00003F003151A1F243505230393042103A80D
:1008C00000F03AFA0BF1FF30012303FA00F040EA9E
:1008D00008085FFA88F84FF00009CAE704214D487C
:1008E00000F02AFAEEE70421504800F025FAE9E783
:1008F00004214F4800F020FAE4E74FF00709B9F16E
:100900000A0FDFD84FEA890000F04AFA0390042169
:1009100003A800F011FA09F10109F0E704214548A4
:1009200000F00AFACEE7002F00F0188108F00B0360
:100930000B2B40F01381022000F0DEF9202840F05C
:100940000D81012000F028FA0220FFF775FE002635
:10095000304600F035FA044668B10299402914BFC8
:1009600000210121304600F03DFA002800F081818D
:100970000136F6B2ECE70120FFF75EFEA246254BFA
:100980009B68534509D9504600F00AFAB0F1FF3F81
:1009900040F074810AF1040AF1E70020FFF74CFEF1
:1009A0003E46A24665E7002F00F0D88008F00B0312
:1009B0000B2B40F0D3800220FFF73EFE322000F0E8
:1009C0009BF9B0F1000BC0F2C980CDF800B01BF06C
:1009D000030F40F0C3800BEB0A030E4A9268934268
:1009E00000F2BC80BBF5807F00F2B8800023019448
:1009F0001C46A34522DD4FF47A7000F07DF9029089
:100A0000029B002BC0F23381029A0B4B1A55013422
:100A1000EFE700BF0022002084230020882300206D
:100A20008022002068220020A10500080422002066
:100A3000082200200C22002084220020019CC820D3
:100A400000F05AF9202840F08980BAF11F0F15D81C
:100A5000CAF120039B4500D900932AF003009DF8BA
:100A6000003000931A4686490DF1200C604400F0D6
:100A700063FA009AFF21824800F08AFA5A46BBF1D5
:100A8000000F0DDB4FEAA20BC2F387027C495046F0
:100A900000F088FA002800F0EE800AEB8B0AE8E606
:100AA0000BF10302EEE7022000F026F9202855D1D1
:100AB00000F0B2F9002851D04FF0000B00945C46D2
:100AC0000BE0584600F06CF90390042203A920467D
:100AD00000F022FB04460BF1040B6A4B9B685B455C
:100AE0000ED9BBF11F0FECD8089BB3F1FF3FE8D044
:100AF0002BF0030310AA134453F8203C0393E4E7BC
:100B00002046009CFFF70CFDB3E60023039364210D
:100B100003A800F005F908BB022000F0EDF820283A
:100B20001CD1039800F070F9FFF7FAFCA1E600234E
:100B30000393642103A800F0F3F878B9022000F0D1
:100B4000DBF820280AD1039800F060F9FFF7E8FCF1
:100B50008FE6022000F0D0F8202804D006B92C46F9
:100B6000FFF7F8FC02E600F069F9FFF7D9FC80E630
:100B7000022000F0C1F82028F0D103A9142000F0D1
:100B800063F98346FFF7CCFC594603A800F0D4F87C
:100B90006FE6322000F0B0F8B0F1000BDEDB1BF0A6
:100BA000030FDBD10BEB0903364A92689342D5D889
:100BB000022000F0A1F82028D0D15B46BBF1000F45
:100BC0000EDB9B1003F1FF3B002B7FF752AE484634
:100BD00000F0E6F8FFF7A4FC09F104095B46F1E731
:100BE0000BF10303EDE74FF47A7000F085F820284D
:100BF000B4D100F011F900283DD0089BB3F1FF3FBC
:100C00000BD0082208A9002000F0CCF998B32022CC
:100C1000FF210DEB020000F0BBF9FFF78DFC642013
:100C2000FFF7B4FCD0E5002F98D008F00B030B2B96
:100C300094D100230393642103A800F071F80028E5
:100C40008CD1022000F058F8202887D1FFF774FCDF
:100C50000520FFF79BFC039800F03CFA00F0ECF94C
:100C6000002483E500240CE64FF0000976E7019CA0
:100C700074E73E460024FFF77BFC77E53E46FAE743
:100C80008422002000220020704700BF2DE9F0419F
:100C900007460E461546002411E0144B53F8240075
:100CA0000368D3F82080C5EB451305EB8303DB0015
:100CB00032463946C04786420CD00134E4B2012C9A
:100CC0000CD80B4B93F90030B3F1FF3FE5D0A342B2
:100CD000F3D1E2E7074B1C70012004E04FF4FA70F7
:100CE00001F0F4FB0020BDE8F08100BF14220020D9
:100CF00010220020D423002000B583B00246002338
:100D00008DF8073001210DF10700FFF7BFFF20B17B
:100D10009DF8070003B05DF804FB4FF0FF30F9E7E2
:100D200008B50A460421FFF7B1FF08B1002008BD4D
:100D30004FF0FF30FBE700BF10B584460A46054B75
:100D40001978054B53F821000368DC69034B6146B1
:100D5000A04710BDD423002014220020A08601004B
:100D600010B501F081FF0A4B1880002406E001F065
:100D700077FF0444074A136801331360B4F5003F5A
:100D800005D2034B1B88034A10688342EFD810BD7D
:100D9000D62300209023002008B501F0DBFF08BD1A
:100DA000014BC058704700BF0000020808B5034659
:100DB00092000248184401F0C9FF08BD0000020873
:100DC00008B5064B1B88064A12689B1A834201D855
:100DD000002008BD104401F043FFFAE7D6230020AD
:100DE0009023002010B5044629B9064B186820440A
:100DF00001F03CFF20B9034B1868204401F04EFF7E
:100E000010BD00BF9023002000207047014BC05848
:100E1000704700BF00E8F11F08B5074B93F8243076
:100E20000BB9012008BD0449002381F824300822B1
:100E3000086AFFF7BBFFF5E794230020014B186811
:100E4000704700BF0010005C10B51B4B1B68C3F35C
:100E50000B044FEA134C013801EB000E174B184AF4
:100E6000934211D01A88A24201D00833F7E75B6899
:100E70000A4602E0013302F8010B724505D293F9EC
:100E800000000028F6D100E00A46724502D22C2369
:100E900002F8013B0B4B00E004330B4CA34208D09B
:100EA0001C886445F8D17245F6D2987802F8010B97
:100EB000F2E7501A10BD00BF0010005C1C22002099
:100EC000342200201C4A00082C4A0008022802D0C4
:100ED000012805D07047054B4FF480329A61F7E73F
:100EE000024B4FF480229A61F4E700BF00080258D9
:100EF000022802D0012804D07047044B01229A61D5
:100F0000F8E7024B04229A61F6E700BF0008025896
:100F1000022802D0012806D07047064A536983F0A0
:100F200001035361F6E7034A536983F004035361F5
:100F3000F2E700BF00080258002304E011F803C0E4
:100F400000F803C001339342F8D3704702E0013048
:100F50000131624690F9003043B191F900C0634518
:100F600004D102F1FF3C002AF1D162461AB191F995
:100F70000000181A70470020704700BF0346002089
:100F800000E0013013F9012B002AFAD1704700BFAD
:100F9000034602E003F8011B624602F1FF3C002A0F
:100FA000F8D170472DE9F843814688461546214B14
:100FB00093F8243033B31F4A126A02EB830383424F
:100FC00020D0FFF729FF0346E0B930E0194E96F82C
:100FD0002400C0F10804AC4228BF2C46E4B2A700AC
:100FE0003A46414606EB8000FFF7A6FFB944B844F5
:100FF0002D1BEDB296F824301C44E4B286F8244050
:10100000082C0DD095B10B4B93F82430002BDDD17B
:101010000848C0F820902022FF21FFF7B9FFD5E74C
:10102000FFF7FAFE03460028ECD100E00123184642
:10103000BDE8F88394230020024B93F90020024B73
:101040001A707047D42300201022002038B51A4DA2
:10105000284600F03FFC194C2146284600F068FC69
:101060002468D4F89020D2F8043843F00203C2F880
:101070000438134801F02AFA1249204600F0BAFD5C
:10108000D4F89020D2F8043823F00203C2F80438D0
:101090000D4B4FF4E1321A600C4C00E004340C4B61
:1010A0009C4207D02068044B9842F7D0064900F0D4
:1010B0004FFBF3E738BD00BFB82A00201C4B0008E7
:1010C00040420F00244B0008BC23002014220020C3
:1010D0001C22002038B50C4B1A780C4B53F82220F8
:1010E0000B4B9A420FD004460A4D18220021284685
:1010F000FFF74EFF2C60044B1A782946034B53F838
:10110000220000F025FB38BDD4230020142200204B
:10111000B82A0020BC23002000B58E460AE040F328
:10112000000C09490CEA010181EA50000133DBB2ED
:10113000072BF4D91346013A23B11EF8013B58405E
:101140000023F5E75DF804FB2083B8ED10B4C26D11
:101150008166036E0C6803EB5403B3FBF4F34C6835
:1011600014F4004F05D023F0070403F0070343EA0B
:101170004403D3608B6843F040035360CB6843F073
:10118000010393604C6840F22D13234313604FF02A
:10119000FF3313624B6813F4806F11D013F01023E8
:1011A00006D0B3F1805F07D0FF2380F864300AE0F7
:1011B0007F2380F8643006E03F2380F8643002E04B
:1011C000FF2380F864305DF8044B704708B5024691
:1011D00011F0080301D04FF4807311F0010F01D01A
:1011E00043F0200311F0020F01D043F0400311F04F
:1011F000040F01D043F08003302181F31188101DCA
:1012000051680B435360936803B19847002383F3FD
:10121000118808BD024A136843F0C0031360704789
:101220000078004010B582B00D4C204600F084FAE2
:10123000009400234FF400720A4904F1140000F0F6
:1012400027F90094084B4FF40072084904F1380064
:1012500000F0A8F9064BE365064B236602B010BD0B
:10126000D823002044240020151200084426002022
:101270000078004000E1F50508B529B1037C012B99
:1012800004D0FFF763FF08BD0A49F7E70A4B98420D
:10129000F7D10A4BD3F8E82042F08042C3F8E820A7
:1012A000D3F8102142F08042C3F81021D3F8103156
:1012B000E7E700BF2C4A0008D8230020004402586A
:1012C000F8B50546C66D3768F469346214F00F0F3F
:1012D00011D114F4807F20D0302383F31188281D8E
:1012E0006B6843F480636B60AB6803B1984700237D
:1012F00083F3118811E02146FFF768FFE9E7302307
:1013000083F31188716A95F864301940284600F01B
:101310002DFA002383F31188F46914F0200FEED125
:1013200017F0800F34D117F0400F19D014F0400F90
:1013300016D0302383F31188EA6C2B6D9A4239D092
:10134000002353B1281D6B6843F010036B60AB683A
:1013500003B1984727F040073760002383F31188D3
:1013600014F0100F04D0AA6E13690BB1506998479E
:10137000F8BD281D6B6843F008036B60AB6803B1D0
:10138000984727F080033360002383F31188CAE76E
:1013900014F0800FC7D0302383F3118805F1380093
:1013A00000F034F90028E4DBB062002383F31188F5
:1013B000F469EDE72B6C002BC3D00123C1E700BF1C
:1013C0002DE9F04104460F4615468368934200D24A
:1013D00085682669A169761AB54215D3B5421BD92D
:1013E00032463846FFF7A8FDA5EB06084246E168FD
:1013F000B819FFF7A1FDE3684344A361A3685B1B31
:10140000A3602846BDE8F0812A463846FFF794FDE0
:10141000A3692B44A361F1E72A463846FFF78CFD08
:10142000E368A361EAE700BF2DE9F04104460F46F7
:1014300015468368934200D2856826696069361A2A
:10144000B54215D3B5421BD932463946FFF774FD74
:10145000A5EB06084246B919E068FFF76DFDE368A1
:1014600043446361A3685B1BA3602846BDE8F08129
:101470002A463946FFF760FD63692B446361F1E753
:101480002A463946FFF758FDE3686361EAE700BF83
:1014900010B40060406000248460C16081614161DB
:1014A00011440161C361019B03625DF8044B704705
:1014B00008B543698269934212D00022AAB98268B2
:1014C000013282605A1C42611970426903699A4272
:1014D00001D3C3684361002101F016F8002008BD64
:1014E0008268002AEAD00122E8E74FF0FF30F6E7F1
:1014F00038B505460C46302383F31188AB684BB9E9
:101500002146284600F0EEFF0028F7DA002383F397
:10151000118813E0AB68013BAB60AA69531CAB6157
:1015200014782A69934201D3EB68AB61EB690BB184
:1015300028469847002383F31188204638BD00BF12
:101540002DE9F04707460D4692469946D0F81C8093
:10155000302383F31188144613E04946384600F0DF
:10156000C1FF70B1002383F31188AAEB0400BDE82A
:10157000F087002383F31188A41B3544302383F3C1
:101580001188002CEED0224629463846FFF718FF76
:1015900006460028E1D0B8F1000FEAD03846C0472F
:1015A000E7E700BF006040608260C1608161416127
:1015B00011440161C361009B0362704770B504462A
:1015C0000E461546302383F31188A3684BB929468C
:1015D000204600F087FF0028F7DA002383F3118804
:1015E00013E0A368013BA36063695A1C62611E702B
:1015F000626923699A4201D3E3686361E3690BB1CD
:1016000020469847002080F3118870BD42698369A5
:101610009A4212D00022AAB910B5826801328260C3
:101620005A1C82611C7803699A4201D3C3688361A2
:10163000002100F069FF204610BD8268002AEAD030
:101640000122E8E74FF0FF30704700BF2DE9F04777
:1016500007460D4692469946D0F81C80302383F306
:101660001188144613E04946384600F03BFF70B13C
:10167000002383F31188AAEB0400BDE8F087002360
:1016800083F31188A41B3544302383F31188002C85
:10169000EED0224629463846FFF7C6FE0646002809
:1016A000E1D0B8F1000FEAD03846C047E7E700BF05
:1016B000012901D1002070476FF01300704700BF6F
:1016C00008B51430FFF73CFF08BD00BF08B54FF068
:1016D000FF331430FFF734FF08BD00BF08B53830C2
:1016E000FFF7B4FF08BD00BF08B54FF0FF33383037
:1016F000FFF7ACFF08BD00BF08B51430FFF7F8FED8
:1017000008BD00BF08B54FF0FF311430FFF7F0FE01
:1017100008BD00BF08B53830FFF750FF08BD00BF57
:1017200008B54FF0FF323830FFF748FF08BD00BF63
:1017300008B5FFF777FD08BD044B03600023436045
:101740008360C36001230374704700BF444A0008EC
:1017500010B50446302383F31188FFF78DFD022373
:101760002374002080F3118810BD00BF38B50446F3
:101770000D46C3693BB90430636843F004036360FA
:10178000A36803B19847294604F11400FFF790FEBF
:10179000002800DB38BD201D636843F400636360EC
:1017A000A368002BF6D09847F4E700BF00207047ED
:1017B00010B582B0446B04F58053D3F8A4381A688E
:1017C0001178042908D1217C022905D112891979BF
:1017D00001238B40134201D002B010BD01A904F1D6
:1017E0004C0002F057FB024604F58054D4F8A4489C
:1017F000019B2179206800F0A5FBEDE700F58053FF
:10180000D3F8A4381A68117804291DD110B50446FC
:10181000017C02291AD15289597901238B40134244
:1018200001D0012013E0143002F03EFA024678B1F4
:1018300004F58054D4F8A4084FF44073417900684B
:1018400000F066FB002002E001207047012010BD7F
:101850000120FCE708B5406BFFF7D0FF08BD00BFD3
:1018600008B5143002F092FA08BD00BF08B54FF079
:10187000FF33143002F08AFA08BD00BF08B54C30BF
:1018800002F082FB08BD00BF08B54FF0FF334C30BB
:1018900002F07AFB08BD00BF08B5143002F056FA1A
:1018A00008BD00BF08B54FF0FF31143002F04EFA0A
:1018B00008BD00BF08B54C3002F042FB08BD00BFB8
:1018C00008B54FF0FF324C3002F03AFB08BD00BFC4
:1018D000704700BF70B584B00446124B036000230C
:1018E00043608360C3600125057402900E4B019331
:1018F000042600964FF4407300F184022946143008
:1019000002F0ACF90294094B019300964FF4407336
:1019100004F69442294604F14C0002F093FA04B014
:1019200070BD00BF6C4A000855180008B1170008C8
:101930000A68302383F311880B790B3342F82300B4
:101940004B79133342F823008B7913B10B3342F8F0
:10195000230000F58053C3F8A41802230374002069
:1019600080F31188704700BF38B50446037F13B178
:1019700090F85430BBB9201D636843F002036360E4
:10198000A36803B19847012525776FF0010104F1A1
:10199000140000F0C5FD84F854506FF0010104F10B
:1019A0004C0000F0BDFD38BD10B50446436843F05F
:1019B0000103436083680BB1043098470023237709
:1019C00084F8543010BD00BF38B50446143002F01E
:1019D0005DF90025257704F14C0002F04DFA84F8FA
:1019E0005450636843F001036360A3680BB1201D8A
:1019F00098472046FFF702FF38BD00BF90F88030BF
:101A000003F06003202B01D00020704790F8813054
:101A1000212B05D0222B13D0202B09D0002070477A
:101A20000A4B4367072383670023C367012070477E
:101A3000064B4367072383670023C3670120704772
:101A4000002343678367C367012070473422002067
:101A500000F58053D3F8A4381A681178042923D1EB
:101A600030B583B00446017C022905D11289197969
:101A700001238B40134201D003B030BD00F14C056F
:101A8000284602F0DDFA0028F6D001A9284602F027
:101A900001FA024604F58054D4F8A448019B217948
:101AA000206800F04FFAE7E7704700BF70B582B0DA
:101AB00001F10B0350F8234014B305460E463023C2
:101AC00083F31188201D636843F008036360A368F3
:101AD00003B19847B31C05EB83035B685B691B6824
:101AE00083B901A904F14C0002F0D4F9024670B1A7
:101AF000019B3146284600F025FA002383F3118824
:101B000002B070BD04F14C0002F0D8F9E9E7B31C53
:101B100005EB83035A6853691B68002BEDD0128ACA
:101B2000013A1342E9D1002305F1800231462846EB
:101B300000F008FAE1E700BF38B5133150F8214052
:101B400014B3302383F3118804F58053D3F8A42809
:101B500013685279023203EB82035B689B695D680C
:101B600065B1201D636843F004036360A36803B19B
:101B70009847294604F1140002F0A6F82046FFF722
:101B80003DFE002383F3118838BD00BF704700BFBE
:101B90000378407843EA0020704700BF10B5044640
:101BA00090F8823080F88A3001F0A2FC63681B68EC
:101BB00013B10121204698470323237010BD00BFB5
:101BC00008B501F079FB08BD0123037000234360D1
:101BD00009E003F10C01002240F8212003F1140177
:101BE00040F821200133072BF3D9002303814381DF
:101BF000704700BF10B50446302383F3118841605D
:101C0000002305E09A1C04EB82020021516001339D
:101C1000082BF7D9204601F071FB02232370002026
:101C200080F3118810BD00BF08B58B1C00EB830347
:101C30005A6053694BB14FF0000CC3F800C0C3F8B1
:101C400004C0C3F808C0C3F80CC0936923B10022D4
:101C50001A605A609A60DA6001F058FC08BD00BF53
:101C600008B5038903F001030381438903F00103ED
:101C70004381012305E09A1C00EB820200215160A0
:101C80000133082BF7D901F0E7FC08BD38B504464D
:101C900090F8803003F07F0390F8812043EA02231C
:101CA00040F20232934200F00F8137D8B3F5807FC3
:101CB00000F081800DD9B3F5817F00F0EF80B3F59E
:101CC000407F29D190F88230012B00F086800020DF
:101CD00046E0012B65D0022B12D190F8841090F9C8
:101CE0008430002BC0F2B08001F00F0101F0BCFC89
:101CF000012800F0C380022800F0C88000202FE0F7
:101D000043B900F188034367022383670023C36755
:101D1000012025E0002023E0002021E0B3F5006F42
:101D200075D018D9B3F5106F37D10378042B76D05E
:101D300094F882304BB184F88B30042323706368AD
:101D40001B6813B102212046984700236367A367ED
:101D5000E367012004E0B3F5A06F4AD001D2002070
:101D600038BDA3F5C063012B00F2C48043685D68F1
:101D70008430FFF70DFF034694F8822094F8831017
:101D80002046A847002800F0B780426862670368D1
:101D9000A3670023E3670120E2E740F60242934293
:101DA00007D1584B63670223A3670023E367012031
:101DB000D6E70020D4E790F88230012B01D0002034
:101DC000CEE7B0F8883023F00203A0F88830002373
:101DD00043678367C3670120C2E7B0F8883043F0E8
:101DE0000203A0F88830002343678367C36701209C
:101DF000B6E7B0F88030B3F5A06F05D00023636775
:101E0000A367E3670120ABE7FFF7C8FEF6E700F141
:101E10008B0343670120A0670023E367A0E730231B
:101E200083F31188FFF71CFF002383F3118884F8E4
:101E30008B300323237063681B68002B3FF478AF5B
:101E400003212046984773E701F00F0101F01EFCC3
:101E5000012803D0022809D0002081E72A4B6367BC
:101E60000223A3670023E367012079E7274B636719
:101E70000223A3670023E367012071E7224B636716
:101E80000223A3670023E367012069E71F4B636711
:101E90000223A3670023E367012061E790F8823003
:101EA00063BB90F8843013F00F0104D013F0800F5F
:101EB00007D101F0ABFE00236367A367E36701204E
:101EC0004EE701F0ADFEF6E790F88230C3B990F826
:101ED000843013F00F0104D013F0800F07D101F00C
:101EE00081FE00236367A367E367012038E701F001
:101EF00083FEF6E7002033E7002031E700202FE7DC
:101F000000202DE79C4A0008984A0008944A0008DF
:101F100038B50C464FF0010E0EFA01FE1FFA8EFE88
:101F200045894EEA050EA0F80AE0023400EB84046D
:101F30006468A469A26023600023636001F0C2FBAF
:101F400038BD00BF38B50C464FF0010E0EFA01FE49
:101F50001FFA8EFE05894EEA050EA0F808E002344D
:101F600000EB840464686469A260236000236360FA
:101F700001F048FC38BD00BF10B5044602230370D1
:101F80000023A0F8883080F88A3080F88B300381F5
:101F9000438105E09A1C04EB820200215160013369
:101FA000082BF7D9002384F87030204601F044FA5A
:101FB00063681B6813B100212046984710BD00BF1D
:101FC0000378052B0ED010B5044680F88C3005231D
:101FD000037043681B680BB10421984700232381D9
:101FE000638110BD704700BF08B50378052B00D092
:101FF00008BD90F88C30037043681B68002BF7D045
:1020000005219847F4E700BF10B5044690F87030FA
:1020100013B1002380F8703004F18002204601F0F3
:1020200047FB63689B6813B12046984740B994F812
:10203000803013F0600F22D12046FFF727FEF0B169
:1020400004F18600FFF7A4FDA36F834200D9A067C7
:1020500094F98030002B24DBA36F002B43D0152391
:1020600084F87030302383F31188A36F626F0021EE
:102070002046FFF74DFF002383F3118810E0002175
:10208000204601F0B9FD0021204601F0ABFD636858
:102090001B6813B1062120469847062384F8703048
:1020A00010BDA36F7BB1092384F87030302383F314
:1020B0001188A36F626F00212046FFF743FF0023C2
:1020C00083F31188ECE7142384F87030302383F312
:1020D000118800231A4619462046FFF719FF0023EE
:1020E00083F31188DCE70B2384F87030302383F30B
:1020F000118800231A4619462046FFF723FF0023C4
:1021000083F31188CCE700BF10B5044690F8703017
:10211000152B28D8DFE803F03F27272727273F275D
:10212000270B183827272727272727273F3F8630C1
:10213000FFF72EFDA36F834206D2E268128AB3FB3B
:10214000F2F102FB11337BB1142384F87030302399
:1021500083F3118800231A4619462046FFF7D8FE5C
:10216000002383F3118810BD302383F311880023EB
:102170001A4619462046FFF7E5FE002383F311882F
:102180000A2384F87030EEE7C36F03B19847002349
:1021900084F87030E7E7002101F02EFD0021204691
:1021A00001F020FD63681B6813B1062120469847A3
:1021B000062384F87030D6E710B5044690F87030E6
:1021C000152B1AD8DFE803F0261919191919261941
:1021D0001926262619191919191919191A0B0B2359
:1021E00080F87030302383F3118800231A46194693
:1021F000FFF7A8FE002383F3118810BDC3689B6915
:102200005B68002BF9D1C36F03B19847002384F8B2
:102210007030F2E7002101F0EFFC0021204601F0D0
:10222000E1FC63681B6813B106212046984706232A
:1022300084F87030E1E700BF0023037503691B6871
:10224000996882689142FAD203605A6842601060CD
:102250005860704708B50846302383F311880B7D1A
:10226000032B0ED0042B10D043B14FF0FF3383610A
:10227000FFF7E2FF002383F3118808BD83F3118881
:10228000FBE78B6900221A60EFE74A680B6813606E
:102290004A685A60E9E700BF0023037503691B68B9
:1022A000996882689142FAD803605A684260106067
:1022B0005860704710B5084BD8681C6822681A60CF
:1022C000536001222275DC60FFF7E6FF01462046DD
:1022D000FEF798F810BD00BF4828002008B5FFF7AA
:1022E000ABFF08BD08B5064BD968087518680268C9
:1022F0001A60536001220275D860FEF783F808BDAA
:102300004828002030B587B004460C4BDD68B1F199
:10231000FF3F0FD02B460A4A684600F07FF920465F
:10232000FFF7E0FF009B13B1684600F085F9A8694C
:1023300007B030BDFFF7D6FFF9E700BF48280020FF
:102340005522000808B5054BD9681B689A688B6848
:102350009A4201D9FFF7AEFF08BD00BF4828002010
:10236000044BDA681B6898689368984294BF002011
:10237000012070474828002010B5084BD8681C6819
:1023800022681A60536001222275DC60FFF784FF27
:1023900001462046FEF736F810BD00BF4828002051
:1023A00008B50B4B01221A70002353B109490A48A2
:1023B00001F08EFE064B02221A70002383F311886F
:1023C00008BD034A02EB8302002151600133ECE7B0
:1023D000B02A0020A44A00084828002008B500F0D0
:1023E00065F908BDEFF3118058B9EFF30583C3F326
:1023F00008031BB1302383F311887047302383F324
:102400001188704778B908B5EFF30583C3F3080363
:102410001BB1002383F3118808BDFFF793FF00234E
:1024200083F31188F8E77047401A511A88422CBF8D
:1024300000200120704700BF38B5064B5D68441985
:10244000044B586822462946FFF7EEFF0028F7D1D3
:1024500038BD00BF001000E08B6002230B75002325
:102460004B7508610846704708B58168A1F184037F
:1024700041F8143C026941F8442C426941F8402C6F
:10248000044A41F8242CC368026820390248FFF747
:10249000E3FF08BD1D0400084828002008B5FFF729
:1024A000E3FFFFF71BFF08BD08B5034BDB6898612E
:1024B0000F20FFF717FF08BD4828002008B530237C
:1024C00083F31188FFF7F0FF08BD00BF08B5014690
:1024D000302383F311880820FFF714FF002383F3D0
:1024E000118808BD08B5074BDB6841B11860426828
:1024F0005A60136043600420FFF704FF08BD4FF0EB
:10250000FF30FBE74828002008B5034600688342F7
:1025100005D002681A6053608161FFF7DFFE08BDD5
:1025200038B504460D4605E0036823605C608561AC
:10253000FFF7D4FE20688442F6D138BDF8B51546C1
:102540001C46C2608B60486003680B605960016084
:10255000092C00D80A24C068204401F0A1FD0A27F4
:1025600001F098FD0646431B9C4202D90A2F07D86A
:10257000F8BD7C1C281901F0A3FD27463546EFE77E
:10258000012001F0E5FDF3E770B504460D46092989
:1025900000D80A250A26601901F092FD01F07AFDA3
:1025A000041BA54202D90A2E04D870BD0136354657
:1025B0000446F0E7012001F0CBFDF6E7F8B505464B
:1025C0000E46174601F066FD2B689D4209D0EC6867
:1025D000041B3C1900D33C469B68A34208D82B68D7
:1025E0000CE03B46024631462846FFF7A7FF14E0C1
:1025F0003946FFF7C9FFF2E7A41A1B689A689442AC
:10260000FAD8B46033605A68726016605E609A6887
:10261000121B9A604FF0FF33AB60F8BD08B5036141
:10262000C260002343610A4601460248FFF7C6FF25
:1026300008BD00BF5828002008B51B4B1B699842F5
:1026400010D042680368136042685A60026881686B
:1026500093680B44936000230360134B4FF0FF32E9
:102660009A6108BD1968104A134643F8101F4B6061
:102670000021016012699A4212D0816893680B446C
:10268000936001F007FD084AD369A0EB030C1269BF
:1026900091686145E5D91B1A1944FFF775FFE0E71A
:1026A00001F008FDDDE700BF48280020F8B50BE089
:1026B000002383F31188E36821692046984730237B
:1026C00083F311886369CBB92C4D2C6901F0E2FCCE
:1026D000EB69C21AA568954242D81D44274BDD61BB
:1026E000616822680A60616851600022226053F8C4
:1026F000102F9A42DCD101F0DDFCD9E701F0CAFCD1
:102700000746461B6269B2420CD32B1A13441B4A7C
:1027100052F8101F91420AD09E1900D23346174A30
:1027200012690CE0022001F013FD0023EFE73A46A6
:1027300021461348FFF702FF1FE05B1A12689168F9
:102740008B42FAD8A3602260516861600C605460CB
:102750009168CB1A9360094B4FF0FF329A61B3E74F
:10276000064A52F8101F914207D0044AD0611B1A42
:10277000A1681944A160FFF707FFF8BD48280020B1
:102780005828002000207047FEE700BF704700BFB8
:102790004FF0FF30704700BF02290DD0032905D04C
:1027A000012901D00020704705487047032A05D849
:1027B000044800EBC2007047034870470020704790
:1027C000804B000844220020344B000830B59BB0F9
:1027D00005460846144601A900F0D6F801A8FEF700
:1027E000CDFB5FFA80FC431C5B002B606C602370A8
:1027F0000323637000230BE0591C1AAA1A4412F831
:10280000642C04F811205B0003330022E254CBB2A5
:102810006345F1D31BB030BD08B5302383F3118875
:102820000348FFF715F9002383F3118808BD00BFA3
:10283000B82A002008B590F8803003F01F02012A62
:1028400011D003F06003202B0AD1B0F884303BB9DB
:1028500090F88130212B10D0222B1ED0202B14D0A9
:10286000FFF7CCF808BD90F881200B2AE9D10023AE
:1028700043678367C3670120F4E70B4B4367072374
:1028800083670023C3670120ECE7074B43670723F7
:1028900083670023C3670120E4E70023436783675E
:1028A000C3670120DEE700BF3C22002010B50529E8
:1028B00017D8DFE801F01716031717210446302355
:1028C00083F31188114A0121FFF7AEF9104A022162
:1028D0002046FFF7A9F90F48FFF776F8002383F3A6
:1028E000118810BD302383F311880A48FFF73CF8A4
:1028F000002383F31188F4E7302383F3118805481C
:10290000FFF752F8002383F31188EAE7D44A00085E
:10291000F84A0008B82A002038B50B4D0B4C2A465F
:102920000B4904F10800FFF751FF05F1CA020949FC
:1029300004F11000FFF74AFF05F5CA72064904F1D9
:102940001800FFF743FF38BD9043002044220020C9
:10295000B04A0008BC4A0008C84A000870B50446DE
:102960000D460846FEF70AFB064600E001342378D0
:1029700043B1F2B229462046FEF7E8FA0028F5D125
:10298000012000E0002070BD70B506460C46FEF741
:10299000F5FAC5B227493046FFF7E0FF08B1083520
:1029A000EDB225493046FFF7D9FF08B11035EDB239
:1029B000632D27D93146204602F010F838E01F4B2E
:1029C00007CB20606160A2601A889B78A281A37304
:1029D00007360F3416E01A495A5C12091948155C7B
:1029E000224602F8025B595C01F00F01095C61703C
:1029F0000133DBB214460B2BEDD9083602E0013669
:102A000004F8015B35788DB1252DF8D107220949ED
:102A10003046FEF79BFA0028D1D0082206493046FE
:102A2000FEF794FA0028EAD10023E4E7002323709C
:102A300070BD00BFA04B0008C84A0008A84B0008A2
:102A400000E8F11FB84B0008BFF34F8F054B1B691F
:102A500013F0070FFAD1034BD3F8103113F0070F1F
:102A6000F4D1704700200052034B4FF0FF325A61FF
:102A7000C3F81421704700BF0020005208B5104B66
:102A80001B7803B108BDFFF7DFFF0E4BDB6813F0C7
:102A9000010F05D00B4B0C4A5A6002F188325A6084
:102AA000084BD3F80C3113F0010FEBD0054B064A5D
:102AB000C3F8042102F18832C3F80421E2E700BF21
:102AC000EE4500200020005223016745002301E06D
:102AD000043001338B4205D20268B2F1FF3FF7D0D8
:102AE00000207047012070472DE9F04105460E4651
:102AF00000F17843B3F5801F0FD2184CDFF86C80DB
:102B0000174FFFF7A1FF4FF0FF33C8F800303B68C5
:102B100043F002033B6000220EE0124CDFF85080CD
:102B2000114FEEE7236813F0050FFBD156F8043B75
:102B300045F8043B0132D2B2072AF3D9BFF34F8FD5
:102B4000FFF782FF4FF0FF33C8F800303B6823F0F7
:102B500002033B600120BDE8F08100BF102000525D
:102B60000C200052102100520C210052142000525F
:102B70001421005208B5144B1B781BBB134B1B6967
:102B800013F0040F04D0114AD36843F04003D3601C
:102B90000E4BD3F8103113F0040F06D00B4AD2F8C5
:102BA0000C3143F04003C2F80C31FFF74DFF074BE7
:102BB000DA6842F00102DA60D3F80C2142F0010237
:102BC000C3F80C2108BD00BFEE45002000200052D4
:102BD0002DE9F84312F01F0F35D104460D46164675
:102BE00010F01F0F01D000272EE0FFF747FF02E093
:102BF0002034203E20351F2E21D920222146284670
:102C000001F0DCFE0028F3D008212046FFF75EFF2C
:102C10000746C8B1FFF7E6FB814629462046FFF785
:102C200063FF07464846FFF7EDFB4FB120222946D8
:102C3000204601F0C3FE0028DAD0002700E001277B
:102C4000FFF798FF00E000273846BDE8F88300BF93
:102C50000F2803D800F580604004704700207047BB
:102C60004FF40030704700BF102070470F2811D874
:102C700038B50546FFF7ECFF04462846FFF7F0FF9E
:102C800030B12368B3F1FF3F06D104380434F7E7CD
:102C9000012038BD002070470020FAE70F2801D935
:102CA0000020704770B50446FFF79CFB0546FFF710
:102CB000CBFEFFF7E3FEFFF7D7FE072C28D8224E06
:102CC0004FF0FF333361FFF7BFFE230243F02403CD
:102CD000F360F36843F08003F3601B4B1B6913F050
:102CE000040FFAD1FFF7B0FE2046FFF7B1FF06460A
:102CF0002046FFF7B5FF0146304600F09DF8FFF78C
:102D000039FF2846FFF77EFB2046FFF7AFFF70BD77
:102D10000D4E4FF0FF33C6F81031FFF795FEA4F1CA
:102D200008031B0243F02403C6F80C31D6F80C311B
:102D300043F08003C6F80C31034BD3F8103113F085
:102D4000040FF9D1CEE700BF0020005208B5FFF70D
:102D50003FFF08BD08B5034610B10A4A127822B1F8
:102D600013B9084B1B7833B908BDFFF787FE054B35
:102D700001221A70F8E7034B00221A70FFF7FAFEDF
:102D8000F2E700BFEE45002009E000F1010C064A21
:102D900052F8202041F8042B1A465FFA8CF0531E9B
:102DA000DBB2002AF1D170475040005810B4114BEB
:102DB0001B6F13F4004F06D10E4B1C6F1C671C6F6A
:102DC00044F400441C670C4C236843F48073236074
:102DD00009E000F1010C51F8044B084A42F8204088
:102DE0001A465FFA8CF0531EDBB2002AF1D15DF86F
:102DF000044B7047004402580048025850400058A5
:102E000000B583B0012201A90020FFF7BDFF0198A2
:102E100003B05DF804FB00BF10B582B00446FFF7B5
:102E2000EFFFA04201D102B010BD0194012201A91F
:102E30000020FFF7BBFFF6E70144BFF34F8F03E02D
:102E4000054BC3F85C0220308842F9D3BFF34F8FA3
:102E5000BFF36F8F704700BF00ED00E0044B1B68AD
:102E600023B9044BD3F8D024014B1A60704700BF3C
:102E7000F04500200040025808B5FFF7EFFF024B75
:102E80001868C0F3806008BDF045002010B4BFF39F
:102E90004F8FBFF36F8F1C4B0021C3F85012BFF34D
:102EA0004F8FBFF36F8F5A6942F400325A61BFF3FC
:102EB0004F8FBFF36F8FC3F88410BFF34F8FD3F8DA
:102EC0008040C4F34E3000E01846C4F3C90243F614
:102ED000E07303EA401343EA82730B49C1F860329E
:102EE0001346013A002BF2D1431E0028ECD1BFF368
:102EF0004F8F4B6943F480334B61BFF34F8FBFF368
:102F00006F8F5DF8044B704700ED00E0FEE700BFF7
:102F100010B4204B2049214A934204D251F8042B8B
:102F200043F8042BF7E71E4A934203D2002243F8EA
:102F3000042BF8E71B4B0022C3F88420BFF34F8F0C
:102F4000D3F88040C4F34E3000E01846C4F3C90201
:102F500043F6E07303EA401343EA82731149C1F870
:102F60006C321346013A002BF2D1431E0028ECD1FB
:102F7000BFF34F8FBFF36F8FBFF34F8FBFF36F8FD1
:102F80000022C1F85022BFF34F8FBFF36F8F5DF85F
:102F9000044B7047C4470020B44D0008C4470020CC
:102FA000C447002000ED00E0D0F890200023D0F8C6
:102FB00094108968994232D310B415E003F14801A6
:102FC0004901545844F08044545013E002EB43113B
:102FD0004FF0FF34C1F80849C1F8084B0133D0F86D
:102FE00094108968994213D303F14801490151585B
:102FF0000029E3DB03F15801490151580029E5DAC2
:1030000003F158014901545844F080445450DDE71D
:103010004FF00113C2F81C385DF8044B70474FF0B5
:103020000113C2F81C387047D0F894301B68C0F800
:10303000983070470346D0F898000144C3F89810C0
:10304000704700BF01E0043A04310B680360042AB2
:10305000F9D8704710B44FF0000C644601E00CF151
:10306000010C944509D21CF0030F00D104689C4563
:10307000F5D201F8014B240AF1E75DF8044B7047E3
:1030800070B5D0F89060336AC3F30A1503F00F04EB
:1030900003F4F013B3F5802F0ED0B3F5402F0AD10F
:1030A000023400EB8404616808232A46096A06F5A5
:1030B0008050FFF7CFFF70BD023400EB84046368DB
:1030C00099690A684B68D31A2A46896806F58050C0
:1030D000FFF7C0FF63689A6993682B449360636845
:1030E0009A6953682B445360E5E700BF70B5064604
:1030F0000D4629E0D6F89020D2F83438012000FAA5
:1031000005F523EA0505C2F8345870BDD6F89000DD
:1031100000EB4513D3F818399BB2B4EB830F22D8D8
:103120006B1C2246896800EB0330FFF78BFFAB1C5A
:1031300006EB83035A6851698A6822448A605B6897
:103140005A69536823445360AB1C06EB83035A68E7
:10315000516948680B689842CCD21B1A148A9C4269
:10316000D4D31C46D2E70020CFE700BF70B5054698
:10317000D0F89060002404E02146284698470134A6
:10318000E4B2D5F894309B689C421ED8224604F1E4
:1031900058035B01F35803F44023B3F5802FEED1BD
:1031A00004F158035B01F358002BE8DA012303FA1A
:1031B00004F16B8923EA01036B81023205EB820281
:1031C0005368DB68002BD7D1D9E770BD08B5D0F8BC
:1031D0009020890141F020011161136913F0200F43
:1031E000FBD11220FFF728F908BD00BFF8B507464C
:1031F000D0F89050002404E0214638469847013426
:10320000E4B22146D7F894309B689C422ED82646DB
:1032100004F148035B01EB5803F44023B3F5802F1E
:10322000EDD104F148035B01EB58002BE7DA04F120
:1032300048035B01EA5842F09042EA5006F1480325
:103240005B01EB58002BF9DB3846FFF7BFFF01238A
:1032500003FA06F23B8923EA02033B81023607EBBD
:10326000860673689B68002BC6D1C8E7F8BD00BF0F
:1032700010B5D0F890402369002BFCDA01232361BC
:103280000C20FFF7D9F8236913F0010FFBD11220AE
:10329000FFF7D2F82369002BFCDA10BD08B5D0F88F
:1032A000902010231361136913F0100FFBD112202B
:1032B000FFF7C2F808BD00BF10B50A4C2046FEF764
:1032C00083FC094BC4F89030084BC4F89430084C88
:1032D0002046FEF779FC074BC4F89030064BC4F843
:1032E000943010BDF445002000000840F04B000869
:1032F0009046002000000440FC4B000870B5D0F858
:1033000090600378012B00D070BD0446434B984277
:1033100025D0434B9C4249D00025C6F8005EC0230F
:1033200033604FF40413B3632046FFF7A1FFB56089
:103330002046FFF739FEC6F81058C6F81458C6F8EC
:103340001C586368DB68002B65D0364BB3614FF0C7
:10335000FF337361B36843F00103B360D4E7324BCA
:10336000D3F8D82042F00062C3F8D820D3F8002167
:1033700042F00062C3F80021D3F80021D3F8802086
:1033800042F00062C3F88020D3F8802022F000626F
:10339000C3F88020D3F880300E21652000F04AFC6D
:1033A000224BF360224BC6F80038B2E71E4BD3F82D
:1033B000D82042F00072C3F8D820D3F8002142F0A0
:1033C0000072C3F80021D3F80021D3F8802042F026
:1033D0000072C3F88020D3F8802022F00072C3F876
:1033E0008020D3F88020D3F8D82022F08062C3F860
:1033F000D820D3F8002122F08062C3F80021D3F84E
:1034000000310E214D2000F015FC084BF360084BF5
:10341000C6F8003880E7074BB36198E7F445002011
:1034200090460020083C30C0004402584014004040
:1034300003002002003C30C038B50546D0F890406B
:103440000021FFF7C3FE0023C4F834384FF0011207
:10345000C4F81C2812E003F1480252014FF0006149
:10346000A15003F158025201A15004EB43124FF056
:10347000FF31C2F80819C2F8081B0133D5F89420AF
:1034800092689A42E7D22846FFF7CEFDD5F89430ED
:103490001B6863622846FFF701FFD4F8003823F465
:1034A000FE63C4F80038A2690E4B1343A3610923DD
:1034B000C4F81038C4F814380B4BEB604FF0C0431D
:1034C000C4F8103B094BC4F8003B0022C4F8102993
:1034D000C4F8003910212846FFF7ACFD40F48010F5
:1034E000A06238BD10000C00CC4B000840800010DA
:1034F000D0F89020D2F8003823F4FE6390F88A10B8
:1035000043EA0113C2F80038704700BF2DE9F041CB
:1035100005460C46D0F890608B1C00EB83035B687B
:103520001B6803F00303032B56D8DFE803F0025BAC
:103530005759444F06EB44130022C3F8102BA31C29
:1035400005EB83035B689A69002A4DD05A8A3A4397
:1035500004F158035B01F250D6F81C3804F1100155
:1035600001228A401343C6F81C3806EB441300229C
:10357000C3F81029A31C05EB83035B685A69002A72
:1035800044D0198A89089B8B012B01D903FB01F1D7
:103590004FEA01482846FFF74DFD48EA000004F1D4
:1035A0003F0306EB8303586021462846FFF70EFED3
:1035B00047EA8457A01C05EB80056B681B8A1F43F4
:1035C00004F148035B01F750D6F81C38012101FAD9
:1035D00004F41C43C6F81C48BDE8F0811A4FA9E763
:1035E0001A4FA7E71A4FA5E704F158035B01F258F9
:1035F00022F40042F250D6F81C3804F110010122E6
:103600008A4023EA0203C6F81C38AEE704F13F0300
:1036100006EB83030F4A5A6021462846FFF7D6FD82
:1036200004F148035B01F25822F40042F250D6F84C
:103630001C38012101FA04F423EA0404C6F81C48EA
:10364000CAE700BF008000100080081000800C1046
:10365000008004100004000210B50446FFF7E4FCEB
:103660002046FFF7A1FC10BDD0F890305831490139
:103670005B5813F4004F04D013F4001F03D1022051
:103680007047002070470120704700BFD0F890308D
:10369000483149015B5813F4004F04D013F4001F64
:1036A00003D102207047002070470120704700BFFF
:1036B000023100EB810043681B6A19685B68116086
:1036C0005360704710B48B1C00EB83035B689B69ED
:1036D0001A68DA6019B9402A01D940221A601A68BA
:1036E00001F1020C00EB8C0CDCF804305B8A1A440C
:1036F000013AB2FBF3F202FB03F3033323F00303BB
:1037000043EAC24343F0C043D0F8902002EB411299
:10371000C2F8103BDCF804301B6803F00303012BF4
:103720000AD0D0F8902058314901535843F004434F
:1037300053505DF8044B7047D0F89030D3F8082808
:1037400012F4807F07D001F1580252019C5844F0D6
:1037500080549C50E5E701F1580252019C5844F016
:1037600000549C50DDE700BFF8B507460C46D0F882
:10377000906006EB4113D3F8085BC3F8085B15F0C3
:10378000080F0AD0D6F8143813F0080F05D08B1C98
:1037900000EB83035B685B68984715F0010F21D04D
:1037A000D6F8143813F0010F1CD0A31C07EB8303C9
:1037B00059688A6954B95368488AB3FBF0F500FB2D
:1037C00015331BB91068D36898420CD3012303FA50
:1037D00004F27B8923EA02037B81CB6813B1214683
:1037E00038469847F8BD1B1A1360002555603023F2
:1037F00083F3118821463846FFF764FF85F311886B
:10380000F0E700BF10B48B1C00EB83035B685B69BF
:103810001A68DA6032BBD0F8903003EB41134FF4F2
:103820000022C3F810298B1C00EB83035B681B6824
:1038300003F00303012B2FD0D0F8904001F148038F
:103840005B01E25842F00442E250D0F89000D0F818
:103850003438012202FA01F11943C0F834185DF836
:10386000044B704719B9402A01D940221A601B68DD
:103870008A1C00EB82025268148A1A19013AB2FBC0
:10388000F4F2D0F8904043EAC24343F0005304EB13
:103890004114C4F81039C6E7D0F89030D3F808289E
:1038A00012F4807F07D001F1480252019C5844F085
:1038B00080549C50C0E701F1480252019C5844F0EA
:1038C00000549C50B8E700BF2DE9F04107460C4674
:1038D000D0F8906006EB4113D3F80859C3F80859A3
:1038E00015F0010F19D0D6F8103813F0010F14D0CD
:1038F0008B1C00EB830359684B691868DA689042A7
:1039000016D3012303FA04F23B8923EA02033B8125
:103910008B6813B121463846984715F0800F05D0C3
:10392000D6F834280123A3401A4211D1BDE8F08112
:10393000121A1A604FF00008C3F80480302383F392
:10394000118821463846FFF75DFF88F31188E4E7C8
:1039500021463846FFF7CAFBE8E700BF70B50646C8
:10396000D0F890506C69AB691C406C6114F4805FB6
:1039700040F08480002CC0F2848014F4006F40F08A
:10398000958014F4005F0BD0D5F8083813F0060FBB
:1039900040F09380EB6823F4705343F41053EB60D2
:1039A00014F0080F0DD07368DB68002B00F08C80DA
:1039B0003378052B00F08D807368DB680BB13046DF
:1039C000984714F4801F40F0938014F4001F40F0D7
:1039D000938014F0100F40F09380D5F8185814F429
:1039E000002F23D015F4803F40F08E8015F4003F67
:1039F00040F08F8015F4802F40F0908015F4002F58
:103A000040F0918015F4801F40F0928015F4001F63
:103A100040F0938015F4800F40F0948015F4000F6F
:103A200040F0958015F0807F40F0968014F4802F50
:103A300023D015F0010F40F0948015F0020F40F0F4
:103A4000958015F0040F40F0968015F0080F40F0B7
:103A5000978015F0100F40F0988015F0200F40F07F
:103A6000998015F0400F40F09A8015F0800F40F0DB
:103A70009B8015F4807F40F09C8070BDFEF77CFA3F
:103A8000FBE7D5F8003E13F0030F05D0D5F8003E54
:103A900023F00303C5F8003ED5F8043823F00103F2
:103AA000C5F804383046FEF79FFA66E73046FFF760
:103AB0007BFA3046FEF784FA63E7EB6823F4705331
:103AC00043F4A053EB606BE7AB6923F00803AB61F1
:103AD0006EE7D5F8003E13F0030F05D0D5F8003E91
:103AE00023F00303C5F8003E3046FEF77DFA63E796
:103AF0003046FFF77BFB68E73046FFF737FB68E7A8
:103B00003046FFF7BDFA68E700213046FFF72CFE8C
:103B10006CE701213046FFF727FE6BE702213046B4
:103B2000FFF722FE6AE703213046FFF71DFE69E733
:103B300004213046FFF718FE68E705213046FFF7FD
:103B400013FE67E706213046FFF70EFE66E7072102
:103B50003046FFF709FE65E708213046FFF704FE0F
:103B600064E700213046FFF7AFFE66E701213046EB
:103B7000FFF7AAFE65E702213046FFF7A5FE64E7DE
:103B800003213046FFF7A0FE63E704213046FFF72C
:103B90009BFE62E705213046FFF796FE61E70621AE
:103BA0003046FFF791FE60E707213046FFF78CFEB5
:103BB0005FE708213046FFF787FE5EE708B5034858
:103BC000FFF7CCFE00F0D0FB08BD00BFF44500209D
:103BD00008B50348FFF7C2FE00F0C6FB08BD00BFF2
:103BE00090460020D0F8902058314901535843F4B2
:103BF00000135350704700BFD0F89020483149015E
:103C0000535843F400135350704700BFD0F890202E
:103C100058314901535823F400135350704700BFE3
:103C2000D0F8902048314901535823F400135350E1
:103C3000704700BF0901C9B2074A131883F800137F
:103C400000F01F01400901238B4000F1600142F8A0
:103C5000213042F82030704700E100E030B4029C8F
:103C60000060406001720021C16042610261043362
:103C700004FB03258561C361046242628162C16203
:103C8000039B0363049B436330BC704708B5002269
:103C9000C260416A416101618262C2626FF00101EA
:103CA000FEF73EFC08BD00BF03694269934203D0A2
:103CB000002232B9181D7047C268002AF9D00122CB
:103CC000F7E70020704700BF08B503691960C368B3
:103CD0000133C360C269036913440361826993427B
:103CE00001D3436A03610021FEF70EFC08BD00BF4B
:103CF00038B504460D46E36843B9237A73B92946BB
:103D00002046FEF7EFFB0028F5DA06E06269131D96
:103D1000A36212681344E362002038BD6FF0010013
:103D2000FBE700BF08B5C368013BC360C2694369D4
:103D3000134443618269934201D3436A4361002380
:103D40008362036B03B1984708BD00BF38B50446D2
:103D5000302383F31188836A5BB1A36A13F8015B94
:103D6000A362E26A93420DD2002383F311882846AE
:103D700038BDFFF7BDFF05460028EED0002383F3D2
:103D80001188F4E72046FFF7CDFFEDE72DE9F84372
:103D900004460F4690469946302383F31188002647
:103DA00031E049462046FFF7A3FF78B3002383F3B1
:103DB00011883046BDE8F883DCF80050DCF80400D8
:103DC000DCF80820DCF80C30CEF80050CEF8040007
:103DD000CEF80820CEF80C300CF1100C0EF1100EBD
:103DE0008C45E9D14037A36A4033A3624036A26ACA
:103DF000E36A9A4222D2002383F311884645D8D23F
:103E0000302383F31188A36A002BCAD0E36AA16A26
:103E10005B1AA8EB06059D4200D31D46402D03D931
:103E20008C46BE464031C7E72A463846FDF784F83F
:103E30002F44A36A2B44A3622E44D8E72046FFF701
:103E400071FFD8E710B4019C006040600172C4604B
:103E500042610261043303FB04218161C361046296
:103E6000426200238362C362029B0363039B43633A
:103E70005DF8044B704700BF08B5026AC260426A31
:103E80004261026100228262C2626FF00101FEF7AC
:103E900047FB08BD026943699A4206D000224AB92D
:103EA0001B680B60406904307047C268002AF6D076
:103EB0000122F4E700200860704700BF08B5C3681E
:103EC0000133C360C2694369134443618269934209
:103ED00001D3436A43610021FEF716FB08BD00BF12
:103EE00038B504460D46E36843B9237A73B92946C9
:103EF0002046FEF7F7FA0028F5DA06E023691A1DD6
:103F0000A262E2691344E362002038BD6FF0010051
:103F1000FBE700BF08B503691960C368013BC360D4
:103F2000C2690369134403618269934201D3436AFE
:103F3000036100238362036B03B1984708BD00BF90
:103F400038B504460D46302383F31188836A5BB18C
:103F5000A36A1D70A36A0133A362E26A93420CD282
:103F6000002080F3118838BD1146FFF7B9FF002803
:103F7000EED0002383F31188F5E7E1690439204688
:103F8000FFF7C8FFECE700BF2DE9F84304460E46F3
:103F900017469846302383F3118800252DE04146CB
:103FA0002046FFF79DFF58B3002383F3118828466E
:103FB000BDE8F883DCF800E0DCF80410DCF8082049
:103FC000DCF80C30C0F800E041608260C3600CF1A6
:103FD000100C1030CC45EDD14036A36A4033A362BB
:103FE0004035A26AE36A9A4223D2002383F3118800
:103FF000BD42DCD2302383F31188A36A002BCED0DC
:10400000E36AA06A1B1AA7EB0509994500D39946F4
:10401000B9F1400F03D9B44606F14009CAE74A4650
:104020003146FCF789FF4E44A36A4B44A3624D44DA
:10403000D7E7E16904392046FFF76CFFD5E700BFF9
:10404000034601694269914209D0002210462AB113
:104050009A6ACAB1521A043A06D100207047C2685F
:10406000002AF3D00122F1E70A60DA68013ADA6047
:10407000D9691A690A441A6199698A4201D35A6A4C
:104080001A6100229A6270470020704708B500F05C
:1040900097F908BD014B586A704700BF000C0040FB
:1040A000034B586300221A610222DA60704700BF96
:1040B000000C0040014B0022DA607047000C004009
:1040C000014B5863704700BF000C0040FEE700BF83
:1040D00070B586B004460E46194B586000258562BF
:1040E000016300F019F924606460A560E56204F1E1
:1040F0001003236163614FF0FF33A361E561FFF7B4
:10410000C9FF02462B46C4E90823256580230D4AD2
:1041100004F134012046FEF79FF9E06001230375A6
:10412000094A009272680192B26802920393074BA7
:10413000049305956846FEF7B1F906B070BD00BF5F
:10414000B02A0020084C0008104C0008CD400008A0
:10415000024AD36A0343D362704700BF4828002055
:104160004B6843608B688360CB68C3600B694361B5
:104170004B6903628B6943620B680360704700BF41
:1041800010B52A4BD3F8882040F2FF710A43C3F8D8
:104190008820D3F88800264A0240C3F88820D3F844
:1041A0008820D3F8E0200A43C3F8E020D3F80821A0
:1041B0000A43C3F80821D3F808311E4C21461E4893
:1041C000FFF7CEFF04F11C011C48FFF7C9FF04F103
:1041D00038011B48FFF7C4FF04F154011948FFF7E9
:1041E000BFFF04F170011848FFF7BAFF04F18C011A
:1041F0001648FFF7B5FF04F1A8011548FFF7B0FF17
:1042000004F1C4011348FFF7ABFF04F1E0011248C9
:10421000FFF7A6FF04F1FC011048FFF7A1FF04F52A
:104220008C710F48FFF79CFF10BD00BF004402587F
:1042300000F8FFFF184C0008000002580004025864
:1042400000080258000C02580010025800140258CE
:1042500000180258001C025800200258002402587E
:104260000028025808B5FFF78BFF00F065F90C4BEA
:10427000D3F8902242F00102C3F89022D3F894229E
:1042800042F00102C3F894220522C3F898204FF0AF
:104290006052C3F89C20034AC3F8A02008BD00BFA9
:1042A00000ED00E01F00080308B500F067FBFEF713
:1042B00077F80E4BD3F8DC2042F04002C3F8DC2044
:1042C000D3F8042122F04002C3F80421D3F80431CA
:1042D000074B1A6842F008021A601A6842F004029A
:1042E0001A60FEF7BBFDFEF717FB08BD004402583D
:1042F00000180248704700BFEFF30983683305498F
:104300004A6B22F001024A6383F30988002383F396
:104310001188704700EF00E0302080F3118862B60A
:104320000D4BD96821F4E0610904090C0B4A0A43DA
:10433000DA60D3F8FC2042F08072C3F8FC20084A0F
:104340000849C2F8B01F116841F001011160202234
:10435000DA7783F82200704700ED00E00003FA05E9
:10436000001000E055CEACC5302383F31188104B0C
:104370005B6813F4006F03D1002383F31188704747
:1043800010B5F1EE103AEFF30984683C4FF08073FA
:10439000E361084BDB6B236684F30988FDF7E0FFDC
:1043A00010B1054BA36110BD044BA361FBE700BF37
:1043B00000ED00E000EF00E02F04000832040008E8
:1043C000114BD3F8E82042F00802C3F8E820D3F8F4
:1043D000102142F00802C3F81021D3F810310B4A23
:1043E000D36B43F00803D363094BC7229A624FF0A3
:1043F000FF32DA6200229A615A63DA605A6001225F
:104400005A611A60704700BF004402580010005CF7
:10441000000C004008B50A4A1369D168C9B20B40C4
:10442000D943116113F0020F00D108BD302383F38B
:104430001188FDF7D3FF002383F31188F5E700BF50
:10444000000C004010B53A4BD3F8802062F00042D7
:10445000C3F88020D3F8802002F00042C3F8802007
:10446000D3F88020D3F884204FF0FF31C3F88410B4
:10447000D3F884200022C3F88420D3F88400D86FB6
:1044800040F0FF4040F4FF0040F4DF4040F07F0088
:10449000D867D86F20F0FF4020F4FF0020F4DF4001
:1044A00020F07F00D867D86FD3F888402148204398
:1044B000C3F88800D3F88800C0F30A00C3F8880066
:1044C000D3F88800D3F89000C3F89010D3F8900088
:1044D000C3F89020D3F89000D3F89400C3F8941058
:1044E000D3F89400C3F89420D3F89400D3F898003C
:1044F000C3F89810D3F89800C3F89820D3F8980020
:10450000D3F88C00C3F88C10D3F88C00C3F88C203F
:10451000D3F88C00D3F89C00C3F89C10D3F89C10FF
:10452000C3F89C20D3F89C3000F0FEF910BD00BF0A
:104530000044025800F8FFFF6C4B0122C3F8082129
:104540006B4BD3F8F42042F00202C3F8F420D3F806
:104550001C2142F00202C3F81C21D3F81C31654B28
:104560000222DA60634B5B6813F4005FFAD0614BA0
:10457000614A1A6001229A60604ADA6000221A6178
:104580004FF440429A615B4B9B6913F4005FFAD091
:10459000584A136843F480731360554B1B6F13F430
:1045A000407F05D0524B4FF480321A6700221A67C1
:1045B0004F4A136843F0010313604D4B1B6813F01F
:1045C000040FFAD04A4B00221A61494B1B6913F0C1
:1045D000380FFAD1464B01221A604FF080425A60E0
:1045E00000225A67464ADA62464A1A611A6842F459
:1045F00080321A603E4B1B6813F4003FFAD03C4AED
:10460000136843F480531360394B1B6813F4005F45
:10461000FAD0374B3C4A9A6200225A633B491963ED
:10462000DA6301F57C0101F2E71199635A64384AB3
:104630001A64384ADA621A6842F0A8521A602C4B9F
:104640001B6803F02853B3F1285FF8D1284B4822A8
:104650009A614FF48862DA6140221A622E4ADA6463
:104660002E4A1A652E4A5A652E4A9A652E4B3222D8
:104670001A602D4B1B6803F00F03022BF9D11C4A63
:10468000136943F003031361194B1B6903F03803EB
:10469000182BF9D1164BD3F8DC2042F00052C3F8A6
:1046A000DC20D3F8042142F00052C3F80421D3F8EF
:1046B0000421D3F8DC2042F08042C3F8DC20D3F898
:1046C000042142F08042C3F80421D3F80421D3F836
:1046D000DC2042F00042C3F8DC20D3F8042142F091
:1046E0000042C3F80421D3F8043170470080005120
:1046F000004402580048025800C000F002000001C7
:104700000000FF01008890081210200063020901D8
:10471000470E0508DD0BBF0120000020000001103E
:104720000910E000000101100020005208B54FF010
:10473000B042D2F8883003F00103C2F888302BB1C0
:10474000044B1B6813B1034A50689847FFF70CFEEF
:1047500008BD00BF4447002008B54FF0B042D2F872
:10476000883003F00203C2F888302BB1044B9B68F9
:1047700013B1034AD0689847FFF7F6FD08BD00BFA4
:104780004447002008B54FF0B042D2F8883003F01B
:104790000403C2F888302BB1044B1B6913B1034AE0
:1047A00050699847FFF7E0FD08BD00BF444700206F
:1047B00008B54FF0B042D2F8883003F00803C2F8D1
:1047C00088302BB1044B9B6913B1034AD0699847D9
:1047D000FFF7CAFD08BD00BF4447002008B54FF0F1
:1047E000B042D2F8883003F01003C2F888302BB101
:1047F000044B1B6A13B1034A506A9847FFF7B4FD94
:1048000008BD00BF4447002010B54FF0B043D3F8B7
:10481000884004F47872C3F8882014F0200F05D083
:10482000164B9B6A13B1154AD06A984714F0400F93
:1048300005D0124B1B6B13B1104A506B984714F004
:10484000800F05D00D4B9B6B13B10C4AD06B984772
:1048500014F4807F05D0094B1B6C13B1074A506CD0
:10486000984714F4007F05D0044B9B6C13B1034AA6
:10487000D06C9847FFF778FD10BD00BF444700207B
:1048800010B54FF0B043D3F8884004F47C42C3F82D
:10489000882014F4806F05D01A4B1B6D13B1194A90
:1048A000506D984714F4006F05D0164B9B6D13B1F3
:1048B000144AD06D984714F4805F05D0114B1B6EDD
:1048C00013B1104A506E984714F4005F05D00D4B99
:1048D0009B6E13B10B4AD06E984714F4804F05D0ED
:1048E000084B1B6F13B1074A506F984714F4004FE1
:1048F00005D0044B9B6F13B1024AD06F9847FFF766
:1049000033FD10BD4447002008B50348FCF7D8FC30
:10491000FFF72AFD08BD00BFD823002008B5FFF728
:1049200079FDFFF721FD08BD08B506210846FFF710
:1049300081F906210720FFF77DF906210820FFF7FE
:1049400079F906210920FFF775F906210A20FFF7FA
:1049500071F906211720FFF76DF906212820FFF7CE
:1049600069F909217A20FFF765F907213220FFF75D
:1049700061F90C215220FFF75DF908BD08B5FFF77A
:1049800061FD00F00BF8FCF7D3FEFDF719F9FCF719
:104990009FFFFFF7AFFCFFF779FB08BD002307E09F
:1049A000054A002142F8331002EBC3025160013383
:1049B0000F2BF5D9704700BF4447002010B50139CF
:1049C0000244904201D1002005E0037811F8014F24
:1049D000A34201D0181B10BD0130F2E7034611F8C5
:1049E000012B03F8012B002AF9D1704753544D33A2
:1049F0003248373F3F3F000053544D33324837333E
:104A0000782F37327800000053544D333248373412
:104A1000332F3735332F37353000000001105A005F
:104A20000310590001205800032056000096000092
:104A30000000000000000000000000000000000076
:104A40000000000000000000E9160008CD16000874
:104A5000211700080517000815170008F9160008A7
:104A6000DD160008C1160008B1160008000000009D
:104A7000891800086D180008C1180008A51800085A
:104A8000B5180008991800087D180008611800087A
:104A9000AD17000800000000010000000000000049
:104AA00063300000A04A0008A0280020B02A00209F
:104AB0004172647550696C6F7400000025424F416B
:104AC0005244252D424C00002553455249414C2566
:104AD000000000000200000000000000AD1A000805
:104AE000391B000840004000604300207043002054
:104AF00002000000000000000300000000000000B1
:104B00008D1B000800000000100000008043002002
:104B1000000000000100000000000000F44500203B
:104B200001010200AD280008992700083528000877
:104B300019280008430000003C4B0008090243000C
:104B4000020100C032090400000102020100052434
:104B500000100105240100010424020205240600BE
:104B600001070582030800FF09040100020A000092
:104B70000007050102400000070581024000000017
:104B800012000000884B00081201100102000040D2
:104B90000912415700020102030100000403090445
:104BA00025424F415244250054534450696C6F7460
:104BB0002D53342D4643550030313233343536379A
:104BC00038394142434445460000000000000000DF
:104BD0000920000809210008B92100084000400010
:104BE0002C4700202C470020010000003C470020FB
:104BF00080000000400100000800000000010000EB
:104C000000100000080000006D61696E00000000E7
:104C100069646C65000000001000802A000000003C
:104C2000AAAAAAAA00000024FFFF000000000000BA
:104C300000A00A004041040000000000AAAAAAAA9D
:104C400040410400FFFF00000000000000000000E1
:104C50001500001400000000AAAAAAAA000000146F
:104C6000FFFF000000000000000000000000000046
:104C700000000000AAAAAAAA00000000FFFF00008E
:104C800000000000000000000080020000000000A2
:104C9000AAAAAAAA00400100FFFF000000000070BD
:104CA000070000000000000000000000AAAAAAAA55
:104CB00000000000FFFF00000000000000000000F6
:104CC0000000000000000000AAAAAAAA000000003C
:104CD000FFFF0000000000000000000000000000D6
:104CE00000000000AAAAAAAA00000000FFFF00001E
:104CF00000000000000000000000000000000000B4
:104D0000AAAAAAAA00000000FFFF000000000000FD
:104D1000000000000000000000000000AAAAAAAAEB
:104D200000000000FFFF0000000000000000000085
:104D30000000000000000000AAAAAAAA00000000CB
:104D4000FFFF000000000000000000000000000065
:104D5000D82700000000000000001E000000000036
:104D6000FF000000B82A0020D82300200000000027
:104D7000EC49000883040000F849000850040000D2
:104D8000084A000800960000000008000096000095
:104D900000000800040000009C4B00080000000018
:104DA0000000000000000000000000000000000003
:044DB00000000000FF
:00000001FF
