:020000040800F2
:1000000000060020A1020008B51000083510000805
:100010008D1000083510000861100008A3020008C8
:10002000A3020008A3020008A3020008D9290008BF
:10003000A3020008A3020008A3020008A30200080C
:10004000A3020008A3020008A3020008A3020008FC
:10005000A3020008A30200085D3E0008893E0008D4
:10006000B53E0008E13E00080D3F0008A30200086D
:10007000A3020008A3020008A3020008A3020008CC
:10008000A3020008A3020008A3020008A3020008BC
:10009000A3020008A3020008A3020008393F0008D9
:1000A000A3020008A3020008A3020008A30200089C
:1000B000A3020008A3020008A3020008A30200088C
:1000C000A3020008A3020008A3020008A30200087C
:1000D000A3020008A3020008A3020008A30200086C
:1000E0009D3F0008A3020008A3020008A302000825
:1000F000A3020008A3020008A3020008A30200084C
:10010000A3020008A302000825400008A30200087B
:10011000A3020008A3020008A3020008A30200082B
:10012000A3020008A3020008A3020008A30200081B
:10013000A3020008A3020008A3020008A30200080B
:10014000A3020008A3020008A3020008A3020008FB
:10015000A3020008A3020008A3020008A3020008EB
:10016000A3020008A3020008A3020008A3020008DB
:10017000A30200082D350008A3020008A30200080E
:10018000A3020008A302000811400008A30200080F
:10019000A3020008A3020008A3020008A3020008AB
:1001A000A3020008A3020008A3020008A30200089B
:1001B000A3020008A3020008A3020008A30200088B
:1001C000A3020008A3020008A3020008A30200087B
:1001D000A302000819350008A3020008A3020008C2
:1001E000A3020008A3020008A3020008A30200085B
:1001F000A3020008A3020008A3020008A30200084B
:10020000A3020008A3020008A3020008A30200083A
:10021000A3020008A3020008A3020008A30200082A
:10022000A3020008A3020008A3020008A30200081A
:10023000A3020008A3020008A3020008A30200080A
:10024000A3020008A3020008A3020008A3020008FA
:10025000A3020008A3020008A3020008A3020008EA
:10026000A3020008A3020008A3020008A3020008DA
:10027000A3020008A3020008A3020008A3020008CA
:10028000A3020008A3020008A3020008A3020008BA
:10029000A3020008A3020008A3020008A3020008AA
:1002A00002E000F000F8FEE772B63A4880F30888F2
:1002B000394880F3098839484EF60851CEF20001DA
:1002C000086040F20000CCF200004EF63471CEF22D
:1002D00000010860BFF34F8FBFF36F8F40F2000043
:1002E000C0F2F0004EF68851CEF200010860BFF374
:1002F0004F8FBFF36F8F4FF00000E1EE100A4EF604
:100300003C71CEF200010860062080F31488BFF330
:100310006F8F02F01FFC02F0C3FB03F04FFB4FF0A6
:1003200055301F491B4A91423CBF41F8040BFAE784
:100330001C49194A91423CBF41F8040BFAE71A499B
:100340001A4A1B4B9A423EBF51F8040B42F8040B69
:10035000F8E700201749184A91423CBF41F8040BC6
:10036000FAE702F0DDFB03F0B7FB144C144DAC428E
:1003700003DA54F8041B8847F9E700F041F8114C00
:10038000114DAC4203DA54F8041B8847F9E702F038
:10039000C5BB00000006002000220020000000086D
:1003A0000000002000060020584400080022002021
:1003B0005C22002060220020FC460020A0020008F1
:1003C000A0020008A0020008A00200082DE9F04FDA
:1003D0002DED108AC1F80CD0D0F80CD0BDEC108AED
:1003E000BDE8F08F002383F311882846A047002042
:1003F00001F0D4FEFEE701F04FFE00DFFEE7000053
:1004000038B502F0D1FA30B1164B00220E211A7223
:100410005A729972DA7202F09DFA044602F0D2FA28
:100420000546D0B9104B9C4219D001339C4241F291
:10043000883412BF054600240125002002F094FAFA
:100440000DB100F07BF800F09BFD00F02BFC204686
:1004500000F026F900F072F8F9E70024EDE7044611
:10046000EBE700BF00220020010007B008B500F054
:10047000E5FBA0F120035842584108BD054B07B5E4
:100480001B88022101A8ADF8043000F0F5FB03B091
:100490005DF804FBF840000838B5202383F3118889
:1004A0001748C3680BB101F001FF0023154A4FF450
:1004B0007A71134801F0BCFE002383F31188124CBB
:1004C000236813B12368013B2360636813B1636839
:1004D000013B63600D4D2A7832B963687BB9022015
:1004E00000F0B6FC322363602B78032B07D16368DE
:1004F0002BB9022000F0ACFC4FF47A73636038BD76
:1005000060220020990400087C230020742200202F
:10051000084B187003280CD8DFE800F00805020823
:10052000022000F087BC022000F074BC024B0022C5
:100530005A607047742200207C230020F8B5504A8E
:10054000504B1968013100F09A8004339342F8D17E
:100550004D4C4E4B22689A4240F291804C4B9B6826
:1005600003F1006303F500339A4280F08880002095
:1005700000F0B4FB0220FFF7CBFF464BD3F8E82096
:100580000022C3F8E820D3F81011C3F81021D3F8E3
:100590001011D3F8EC10C3F8EC20D3F81411C3F801
:1005A0001421D3F81411D3F8F010C3F8F020D3F8C5
:1005B0001811C3F81821D3F81811D3F8801041F09E
:1005C0000061C3F88010D3F8801021F00061C3F8F7
:1005D0008010D3F88010D3F8801041F00071C3F878
:1005E0008010D3F8801021F00071C3F88010D3F888
:1005F000803072B6234B28490B6018682468BFF31B
:100600004F8FBFF36F8F254BC3F88420BFF34F8FFD
:100610005A6922F480325A61BFF34F8FD3F8802099
:1006200043F6E076C2F3C905C2F34E32520102EA44
:10063000060C29464CEA817711F1FF31C3F8747238
:10064000F8D2203A12F1200FF1D1BFF34F8FBFF350
:100650006F8FBFF34F8FBFF36F8F5A6922F4003251
:100660005A610022C3F85022BFF34F8FBFF36F8F40
:10067000202383F31188854680F308882047F8BD3E
:10068000200002080000020804000208FFFF010821
:10069000002200200044025808ED00E000ED00E0D8
:1006A0002DE9F04F95B0AA4D2022FF2100900CA813
:1006B000AC6800F009FCA74A01951378A3B90121A1
:1006C000A5481170C360202383F31188C3680BB160
:1006D00001F0ECFD0023A14A4FF47A719E4801F02D
:1006E000A7FD002383F31188009B13B19C4B009A54
:1006F0001A609C4B1A780293032A04D00023994A6B
:100700001370974A53604FF00009009DCA464E4649
:10071000C846012000F08EFB25B1914B1B68002BD1
:1007200000F01382002000F089FA0590059B002B51
:10073000F2DB012000F06EFB059B213B162BE8D875
:1007400001A252F823F000BFA5070008CD0700085A
:1007500061080008130700081307000813070008C2
:10076000E9080008BF0A0008D70900083B0A00088A
:10077000630A0008890A0008130700089B0A00089A
:10078000130700080D0B00084508000813070008B0
:10079000510B0008B10700084508000813070008BE
:1007A0003B0A00080220FFF761FE002840F0F881B4
:1007B000009B022107A8B9F1000F08BF1D466A4B34
:1007C0001B88ADF81C3000F057FAA2E74FF47A709E
:1007D00000F034FA071EEBDB0220FFF747FE00288B
:1007E000E6D0013F052F00F2DD81DFE807F0030AC4
:1007F0000D1013360523042107A8079300F03CFAD7
:1008000017E004215248F9E704215848F6E704218B
:100810005748F3E74FF01C08404608F1040800F081
:100820005FFA0421079007A800F026FAB8F12C0F10
:10083000F2D101234FF0000803FA07F747EA0A0A4A
:100840005FFA8AFA00F092FB26B10AF00B030B2B39
:1008500008BF0025FFF712FE5BE704214548CDE7FE
:10086000002EA5D00AF00B030B2BA1D10220FFF71D
:10087000FDFD074600289BD00120002600F02EFA3F
:100880000220FFF745FE5FFA86F9484600F036FA87
:10089000054688B14846013600F040FA0028F2D1FA
:1008A000B9460546344B022107A83E461B88ADF8E1
:1008B0001C3000F0E1F92CE72C460120FFF728FE60
:1008C000019B9B68A34207D9204600F009FA01303A
:1008D00040F06B810434F3E70024029BB9463E46A6
:1008E0001C701F4B5C60ADE7002E3FF461AF0AF057
:1008F0000B030B2B7FF45CAF0220FFF709FE3220C5
:1009000000F09CF9B0F1000BFFF652AF1BF00307AB
:100910007FF44EAF019B0BEB040299688A423FF6CD
:1009200047AFBBF5807F3FF643AF144ABB45039208
:1009300026DD4FF47A7000F081F9059005990029C1
:10094000FFF636AF05990137039A02F8011BEDE770
:100950000022002078230020602200209904000853
:100960007C23002074220020FA400008042200208A
:10097000082200200C220020FC40000878220020E1
:10098000C820FFF773FD074600283FF411AF1F2C66
:1009900011D8C4F120060CAB24F0030085495E4554
:1009A000184428BF5E46324600F064FA3246FF2102
:1009B000804800F089FA4FEAAB037E492046DAB25C
:1009C000039300F089FA064600283FF46BAF039BBF
:1009D00004EB830436E70220FFF748FD00283FF4CC
:1009E000E7AE00F0B5F900283FF4E2AE00273B4641
:1009F000019A9268BA421AD91F2F11D80C9A013263
:100A00000ED027F0030214A90A4452F8202C0792B2
:100A10001846042207A9043700F04EFB0346E7E717
:100A20003846039300F05CF9039B0790F0E70793C7
:100A3000042107A800F020F904E70023642106A898
:100A4000069300F00FF900287FF4B2AE0220FFF702
:100A50000DFD00283FF4ACAE069800F071F9079048
:100A6000E6E70023642106A8069300F0FBF80028BF
:100A70007FF49EAE0220FFF7F9FC00283FF498AE09
:100A8000069800F05FF9EAE70220FFF7EFFC002884
:100A90003FF48EAE00F06CF9E1E70220FFF7E6FCD0
:100AA00000283FF485AE07A9142000F067F9074637
:100AB0000690042106A800F0DFF83946B9E7322095
:100AC00000F0BCF8071EFFF673AEBB077FF470AEF4
:100AD000019A07EB0803926893423FF669AE022041
:100AE000FFF7C4FC00283FF463AE27F00307474438
:100AF000B8453FF4A7AE404608F1040800F0F0F80E
:100B00000421079007A800F0B7F8F1E74FF47A70D6
:100B1000FFF7ACFC00283FF44BAE00F019F90028B9
:100B200045D00C9B01330BD008220CA9002000F00B
:100B3000D3F900283BD02022FF210CA800F0C4F9F3
:100B4000FFF79CFC1C4801F02FFB15B0BDE8F08FAF
:100B5000002E3FF42DAE0AF00B030B2B7FF428AED2
:100B60000023642107A8079300F07CF807460028BB
:100B70007FF41EAE0220FFF779FC039000283FF4BB
:100B800017AEFFF77BFC41F2883001F00DFB0798B0
:100B900000F030FA3D4600F0E9F9039B1E46B8E547
:100BA00006464FE64FF0000802E6B9467AE63746B9
:100BB00078E600BF78220020A08601002DE9F84FDA
:100BC0004FF47A760C460546A2FB06AB174A92F91B
:100BD00000309046591C0BD115482246294603681F
:100BE000D3F820905346C847844203D1002311E034
:100BF000002BF1D098F900305A1C01D0012B0ED1F6
:100C00000C482246294603681F6A5346B847844267
:100C100005D10123084A01201370BDE8F88F4FF475
:100C2000FA7001F0C1FA0020F7E700BF102200209F
:100C3000F0290020CC230020C8230020002307B582
:100C4000024601210DF107008DF80730FFF7B6FFCE
:100C500020B19DF8070003B05DF804FB4FF0FF30B2
:100C6000F9E700000A46042108B5FFF7A7FF80F066
:100C70000100C0B2404208BD074B30B41A78074BA0
:100C800053F822400A46014623682046DD69044B9A
:100C9000AC4630BC604700BFC823002000410008BC
:100CA000A0860100F8B50A4C00250A4E01F028FD87
:100CB000094F208030682388834207D901F01CFD4A
:100CC000336805440133BD423360F3D9F8BD00BF3A
:100CD000CA23002084230020FFFF010001F0F0BDA3
:100CE00000F1006000F500300068704700F100601E
:100CF000920000F5003001F065BD0000054B1A6858
:100D0000054B1B889B1A834202D9104401F0F4BCA6
:100D10000020704784230020CA23002038B5074DE7
:100D200004462868204401F0EDFC28B928682044D6
:100D3000BDE8384001F0F8BC38BD00BF8423002076
:100D400000207047014BC058704700BF00E8F11FFA
:100D5000064991F8243033B100230822086A81F84B
:100D60002430FFF7C3BF0120704700BF8823002055
:100D7000014B1868704700BF0010005C234BF0B5B2
:100D8000234C1B682788C3F30B0665681B0C94F97A
:100D90000820BE4228D0A789BE4206D101220C25D8
:100DA00005FB0244656894F9082041F20104A3425E
:100DB0001CD041F20304A3421AD042F20104A34220
:100DC00018D042F20304A34208BF5622441E013D3C
:100DD0000B460C44A3420FD215F9016F581C6EB19B
:100DE00000F8016C0346F5E70022D8E75A22EDE748
:100DF0005922EBE75822E9E7184605E02C25A042E6
:100E00001D7001D2981C5A70401AF0BD0010005C91
:100E100014220020022804D1054B4FF480329A613D
:100E200070470128FCD1024B4FF48022F7E700BF46
:100E300000080258022803D1044B01229A6170472E
:100E40000128FCD1014B0422F8E700BF000802583A
:100E5000022805D1064A536983F0010353617047A4
:100E60000128FCD1024A536983F00403F6E700BF6E
:100E700000080258002310B5934203D0CC5CC45440
:100E80000133F9E710BD000030B5441E14F9010F1D
:100E90000B4660B193F900500131854207D1551ED0
:100EA0001AB993F90020801A30BD2A46EEE7002ACD
:100EB000F7D11046F8E7000002460346981A13F9E6
:100EC000011B0029FAD1704702440346934202D025
:100ED00003F8011BFAE770472DE9F047224C16464C
:100EE0000746884694F824207ABBDFF87C90C6B386
:100EF00094F824302BB92022FF2148462762FFF7BF
:100F0000E3FF94F824004146C0F1080504EB80009B
:100F1000B54228BF35465FFA85FAAD00A6EB0A0652
:100F20002A462F44FFF7A6FF94F82430A844F6B2CF
:100F30009A445FFA8AFABAF1080F84F824A0D6D14D
:100F4000FFF706FF0028D2D108E0236A03EB8203F3
:100F50008342CAD0FFF7FCFE0028C6D10020BDE8BE
:100F6000F0870120FBE700BF88230020024B1A789E
:100F7000024B1A70704700BFC823002010220020C7
:100F800038B5164C164D204600F000FC2946204688
:100F900000F028FC2D681348D5F89020D2F80438CA
:100FA00043F00203C2F8043801F0FEF80E49284667
:100FB00000F026FDD5F890200C48D2F804380C49F2
:100FC000A04223F00203C2F804384FF4E1330B606F
:100FD00003D0BDE8384000F037BB38BDF029002011
:100FE0000842000840420F0030420008CC23002095
:100FF000B023002038B50B4B05461A780A4B53F83E
:1010000022400A4B9C420CD0094B00211822184662
:10101000FFF75AFF056001462046BDE8384000F062
:1010200013BB38BDC823002000410008F029002070
:10103000B023002000B59BB0EFF309816822684619
:10104000FFF718FFEFF30583044B9A6BDA6A9A6A8D
:101050009A6A9A6A9A6A9A6A9B6AFEE700ED00E0C9
:1010600000B59BB0EFF3098168226846FFF702FFE5
:10107000EFF30583044B9A6B9A6A9A6A9A6A9A6AA2
:101080009A6A9B6AFEE700BF00ED00E000B59BB0E6
:10109000EFF3098168226846FFF7ECFEEFF3058362
:1010A000034B5A6B9A6A9A6A9A6A9A6A9B6AFEE733
:1010B00000ED00E0FEE7000030B50A44084D914223
:1010C0000DD011F8013B5840082340F30004013BC8
:1010D0002C4013F0FF0384EA5000F6D1EFE730BD57
:1010E0002083B8ED026843681143016003B11847DB
:1010F00070470000024A136843F0C0031360704752
:101100000078004013B50E4C204600F091FA04F12F
:101110001400009400234FF400720A4900F052F9C1
:101120000094094B4FF40072084904F1380000F0B4
:10113000CBF9074A074BC4E9172302B010BD00BF23
:10114000CC23002038240020F51000083826002089
:101150000078004000E1F505254B002908BF19463D
:10116000037C012B30B511D1224B98420ED1224B7A
:10117000D3F8E82042F08042C3F8E820D3F81021E9
:1011800042F08042C3F81021D3F810310A68036E90
:10119000C46D03EB52038166B3FBF2F34A68150496
:1011A00042BF23F0070503F0070343EA4503E3606A
:1011B0008B6843F040036360CB68510543F0010343
:1011C000A36042F4967343F0010323604FF0FF33B2
:1011D000236205D512F0102205D0B2F1805F04D051
:1011E00080F8643030BD7F23FAE73F23F8E700BF83
:1011F00024410008CC230020004402582DE9F04788
:10120000C66D05463768F4692107346219D014F0B9
:10121000080118BF8021E20748BF41F02001A30761
:101220004FF0200348BF41F04001600748BF41F440
:10123000807183F31188281DFFF754FF002383F387
:101240001188E2050AD5202383F311884FF4007139
:10125000281DFFF747FF002383F311884FF0200973
:101260004FF0000A14F0200838D13B0616D54FF095
:10127000200905F1380A200610D589F31188504657
:1012800000F056F9002836DA0821281DFFF72AFF5A
:1012900027F080033360002383F31188790614D587
:1012A000620612D5202383F31188D5E913239A42CD
:1012B00008D12B6C33B127F040071021281DFFF710
:1012C00011FF3760002383F31188E30618D5AA6E57
:1012D0001369ABB15069BDE8F047184789F311882D
:1012E000736A284695F86410194000F0BBF98AF338
:1012F0001188F469B6E7B06288F31188F469BAE737
:10130000BDE8F087F8B51546826804460B46AA4248
:1013100000D28568A1692669761AB54207D21846B7
:101320002A46FFF7A7FDA3692B44A3610DE011D95D
:10133000AF1B32461846FFF79DFD3A46E168304440
:10134000FFF798FDE2683A44A261A36828465B1B58
:10135000A360F8BD18462A46FFF78CFDE368E4E772
:10136000836893422DE9F04104460F46154600D2AA
:101370008568D4E90460361AB54207D22A46394650
:10138000FFF778FD63692B4463610EE013D9A5EB89
:10139000060832463946FFF76DFD4246B919E06846
:1013A000FFF768FDE26842446261A36828465B1B60
:1013B000A360BDE8F0812A463946FFF75BFDE3688C
:1013C000E2E7000010B50A440024C361029B846078
:1013D000C16002610362C0E90000C0E9051110BDEF
:1013E00008B5D0E90532934201D1826882B982689A
:1013F000013282605A1C426119700021D0E9043226
:101400009A4224BFC368436100F0EAFE002008BD91
:101410004FF0FF30FBE7000070B5202304460E4676
:1014200083F31188A568A5B1A368A269013BA360F5
:10143000531CA36115782269934224BFE368A3611A
:10144000E3690BB120469847002383F311882846AF
:1014500007E03146204600F0B3FE0028E2DA85F3CB
:10146000118870BD2DE9F74F05460F4690469A4604
:10147000D0F81C90202686F311884FF0000B1446FC
:1014800064B1224639462846FFF73CFF034668B957
:101490005146284600F094FE0028F1D0002383F343
:1014A0001188A8EB040003B0BDE8F08FB9F1000F7C
:1014B00003D001902846C847019B8BF31188E41A9A
:1014C0001F4486F31188DBE7C160C361009B826023
:1014D0000362C0E905111144C0E9000001617047D1
:1014E000F8B504460E461746202383F31188A568F5
:1014F000A5B1A368013BA36063695A1C62611E70B9
:10150000D4E904329A4224BFE3686361E3690BB112
:1015100020469847002080F3118807E0394620468E
:1015200000F04EFE0028E2DA85F31188F8BD0000D5
:10153000D0E9052310B59A4201D182687AB9826850
:101540000021013282605A1C82611C7803699A4230
:1015500024BFC368836100F043FE204610BD4FF0F6
:10156000FF30FBE72DE9F74F05460F4690469A46B8
:10157000D0F81C90202686F311884FF0000B1446FB
:1015800064B1224639462846FFF7EAFE034668B9A9
:101590005146284600F014FE0028F1D0002383F3C2
:1015A0001188A8EB040003B0BDE8F08FB9F1000F7B
:1015B00003D001902846C847019B8BF31188E41A99
:1015C0001F4486F31188DBE702684368114301601A
:1015D00003B11847704700001430FFF743BF000005
:1015E0004FF0FF331430FFF73DBF00003830FFF7F6
:1015F000B9BF00004FF0FF333830FFF7B3BF000032
:101600001430FFF709BF00004FF0FF311430FFF72F
:1016100003BF00003830FFF763BF00004FF0FF3218
:101620003830FFF75DBF000000207047FFF76ABD4C
:10163000044B036000234360C0E9023301230374B9
:10164000704700BF3C41000810B52023044683F3D7
:101650001188FFF781FD02232374002383F311888F
:1016600010BD000038B5C36904460D461BB90421FE
:101670000844FFF7A9FF294604F11400FFF7B0FE64
:10168000002806DA201D4FF48061BDE83840FFF7DE
:101690009BBF38BD026843681143016003B118471E
:1016A0007047000037B5446B41F6A40563591A68CA
:1016B0001178042914D1217C022911D1197901232F
:1016C00012898B4013420BD101A904F14C0002F0A6
:1016D00075F864590246019B2179206800F0E4F90D
:1016E00003B030BD143001F0F9BF00004FF0FF33FC
:1016F000143001F0F3BF00004C3002F0CBB8000012
:101700004FF0FF334C3002F0C5B80000143001F048
:10171000C7BF00004FF0FF31143001F0C1BF00001F
:101720004C3002F097B800004FF0FF324C3002F01E
:1017300091B8000070B541F6A406054682591368B9
:101740001978042901D0012070BD017C0229FAD149
:10175000527901205C8990400440F4D105F11400D5
:1017600001F058FF02460028EDD0AD594FF4407308
:101770002868697900F086F92046E5E7406BFFF7B5
:10178000D9BF000000207047704700007FB5124BA2
:1017900001250426044603600023057400F1840239
:1017A00043602946C0E902330C4B02901430019388
:1017B0004FF44073009601F009FF094B04F6944280
:1017C000294604F14C000294CDE900634FF44073C4
:1017D00001F0D0FF04B070BD644100087D1700081F
:1017E000A51600080A68202383F311880B790B33B0
:1017F00042F823004B79133342F823008B7913B15D
:101800000B3342F8230041F6A403C15002230374B2
:10181000002383F31188704738B5037F044613B162
:1018200090F85430ABB90125201D0221FFF732FF9B
:1018300004F1140025776FF0010100F0DDFC84F85D
:10184000545004F14C006FF00101BDE8384000F045
:10185000D3BC38BD10B5012104460430FFF71AFF90
:101860000023237784F8543010BD000038B50446B7
:101870000025143001F0C2FE04F14C00257701F080
:1018800091FF201D84F854500121FFF703FF2046EB
:10189000BDE83840FFF74EBF90F8803003F060039A
:1018A000202B09D190F88130202B05D3212B05D98D
:1018B000222B4FF0000309D000207047054B4367EF
:1018C000072383670023C36701207047C0E91D33E6
:1018D000F9E700BF2C22002073B541F6A4050446A9
:1018E00043591A681178042919D1017C022916D1AB
:1018F0001979012312898B40134210D100F14C0653
:10190000304602F00FF850B101A9304601F056FF01
:1019100064590246019B2179206800F0C5F802B0A5
:1019200070BD000001F10B03F7B550F823400546E8
:101930000E46F4B1202383F3118805EB8607201DA2
:1019400008214C34FFF7A6FEFB685B691B6813B1E6
:10195000204601F041FF01A9204601F02FFF024679
:1019600048B1019B3146284600F09EF8002383F3DE
:10197000118803B0F0BDFB685A691268002AF5D0DF
:101980001B8A013B1340F1D105F18002EAE7000018
:10199000133138B550F82140E4B1202383F3118886
:1019A00041F6A403E2581368527903EB8203DB6823
:1019B0009B695D6845B104216018FFF76BFE2946FD
:1019C00004F1140001F030FE2046FFF7B3FE0023BF
:1019D00083F3118838BD00007047000001F02EB974
:1019E000012300F1300200F1500103700023436035
:1019F00042F8043B8A42D361FAD183607047000009
:101A000038B50446202383F31188002500F10C0328
:101A100000F13002416043F8045B9342FBD1204661
:101A200001F02EF90223237085F3118838BD0000E0
:101A300070B500EB8103054650690E461446DA6026
:101A400018B110220021FFF73FFAA06918B1102247
:101A50000021FFF739FA31462846BDE8704001F011
:101A600021BA0000826802F0011282600022C0E9FF
:101A70000422C0E90622C0E90822C0E90A2201F0D6
:101A800093BA0000F0B4012500EB810447898D4032
:101A9000E4683D43A469458123600023A26063603C
:101AA000F0BC01F0AFBA0000F0B4012500EB8104F6
:101AB00007898D40E4683D43646905812360002304
:101AC000A2606360F0BC01F025BB0000022300F1BE
:101AD0000C0200F1300110B5037004460023C0F879
:101AE0008830836042F8043B8A42FBD184F870302E
:101AF000204601F06BF963681B6823B12046002182
:101B0000BDE81040184710BD037880F88C300523DD
:101B1000037043681B6810B504460BB10421984755
:101B20000023A36010BD0000436890F88C201B6860
:101B300002700BB1052118477047000090F8703013
:101B400070B5044613B1002380F8703004F18002B0
:101B5000204601F04DFA63689B68B3B994F8803071
:101B600013F0600539D00021204601F0F5FC00217A
:101B7000204601F0E5FC63681B6813B1062120468E
:101B80009847062384F8703070BD20469847002897
:101B9000E4D094F8872094F8863043EA0223A26FB9
:101BA0009A4288BFA36794F98030A56F002B4FF04D
:101BB000200380F20B81002D00F0FA80092284F8C6
:101BC000702083F3118800212046D4E91D23FFF7FC
:101BD0006BFF002383F31188D6E794F8812003F08C
:101BE0007F0343EA022340F20232934200F0CC80AA
:101BF00025D8022B00F0A08009D8002B51D0012B52
:101C0000B1D17F4B63670223A36700234EE0B3F596
:101C1000817F00F0A680B3F5407F49D0B3F5807F87
:101C2000A1D194F88230012B9DD1B4F8883023F0F3
:101C30000203A4F88830C4E91D55E567A9E740F21E
:101C4000016293421DD8B3F5C06F3BD2B3F5A06FCC
:101C500089D1B4F88030B3F5A06F0ED194F88230FA
:101C6000204684F88A3001F00FF963681B6813B1CD
:101C7000012120469847032323700023C4E91D3324
:101C800014E0B3F5106F33D040F602429342B8D05F
:101C9000B3F5006F7FF467AF04F18B036367012333
:101CA00024E004F1880262670222A267E36770E71A
:101CB00094F88230012B7FF456AFB4F8883043F0AB
:101CC0000203B6E794F885202046616894F88430D2
:101CD0004E6843EA022394F8831094F88220B047B8
:101CE00000283FF440AF436863670368A367A4E735
:101CF0002378042B10D1202383F311882046FFF78B
:101D0000B1FE85F311886368032184F88B501B684A
:101D100021700BB12046984794F88230002BACD04C
:101D200084F88B300423237063681B68002BA4D0D5
:101D3000022120469847A0E794F8843020461D06EB
:101D400003F00F010AD501F045F9012804D002285B
:101D50007FF409AF2B4B55E72B4B53E701F02CF9E0
:101D6000F3E794F88230002B7FF4FDAE94F88430D2
:101D700013F00F0181D01A06204602D501F004FCB1
:101D80007BE701F0F5FB78E794F88230002B7FF4D5
:101D9000EAAE94F8843013F00F013FF46EAF1B06E7
:101DA000204602D501F0D8FB67E701F0C9FB64E7E4
:101DB000142284F8702083F311882B462A46294682
:101DC0002046FFF75FFE85F31188DDE65DB1152241
:101DD00084F8702083F3118800212046D4E91D2364
:101DE000FFF750FEF5E60B2284F8702083F311888C
:101DF0002B462A4629462046FFF756FEE3E700BF5A
:101E0000944100088C4100089041000838B590F8D2
:101E100070300446152B39D8DFE803F03E383838E7
:101E200038383E38380B2939383838383838383867
:101E30003E3E90F8871090F88620836F42EA012298
:101E4000934214D2C268128AB3FBF2F502FB153535
:101E50006DB9202383F311882B462A462946FFF7C4
:101E600023FE85F311880A2384F870300EE01423D2
:101E700084F87030202383F31188002320461A460B
:101E80001946FFF7FFFD002383F3118838BDC36FA8
:101E900003B198470023E7E7002101F05DFB002133
:101EA000204601F04DFB63681B6813B106212046F4
:101EB00098470623D8E7000090F87020152A38B517
:101EC000044617D80123934040F6416213421ED1C5
:101ED00013F480150FD19B020CD50B2380F87030C2
:101EE000202383F311882B462A462946FFF7DCFD81
:101EF00085F3118838BDC3689B695B68002BF9D1F5
:101F0000C36F03B19847002384F87030F2E70021D3
:101F100001F022FB0021204601F012FB63681B68E0
:101F200013B10621204698470623EDE7024B002215
:101F3000C3E900339A607047382800200023826884
:101F40000374054B1B6899689142FBD25A68036081
:101F500042601060586070473828002008B5202380
:101F600083F31188037C032B05D0042B0DD02BB9F0
:101F700083F3118808BD436900221A604FF0FF33D4
:101F80004361FFF7DBFF0023F2E7D0E90032136083
:101F90005A60F3E7002382680374054B1B68996855
:101FA0009142FBD85A6803604260106058607047E5
:101FB00038280020054B19690874186802685360B6
:101FC0001A60186101230374FEF700BA3828002054
:101FD0004B1C30B5054687B00A4C10D0236901A8C8
:101FE000094A00F025F92846FFF7E4FF049B13B1E6
:101FF00001A800F05BF92369586907B030BDFFF70D
:10200000D9FFF8E7382800205D1F000838B50C4DCF
:10201000044641612B6981689A68914203D8BDE802
:102020003840FFF78BBF1846FFF7B4FF01232C6140
:10203000014623742046BDE83840FEF7C7B900BF0B
:1020400038280020044B1A681B6990689B689842E6
:1020500094BF0020012070473828002010B5084C9C
:10206000236820691A6854602260012223611A746F
:10207000FFF790FF01462069BDE81040FEF7A6B9C2
:102080003828002008B5FFF7DDFF18B1BDE808408B
:10209000FFF7E4BF08BD0000FFF7E0BFFEE7000068
:1020A00010B50C4CFFF742FF00F0B4F880220A494B
:1020B000204600F03BF8012344F8180C037400F0AC
:1020C0009BFC002383F3118862B60448BDE81040EE
:1020D00000F04CB86028002098410008A04100089A
:1020E00000F020B9EFF3118020B9EFF3058320222F
:1020F00082F311887047000010B530B9EFF3058402
:10210000C4F3080414B180F3118810BDFFF7BAFFBF
:1021100084F31188F9E70000034B59685A68521A92
:102120009042FBD8704700BF001000E0826002229E
:10213000028270478368A3F17C0243F80C2C026989
:1021400043F83C2C426943F8382C074A43F81C2CCE
:10215000C268A3F1180043F8102C022203F8082CDF
:10216000002203F8072C7047E503000810B5202370
:1021700083F31188FFF7DEFF00210446FFF746FFD7
:10218000002383F31188204610BD0000024B1B6919
:1021900058610F20FFF70EBF38280020202383F35B
:1021A0001188FFF7F3BF000008B50146202383F331
:1021B00011880820FFF70CFF002383F3118808BD66
:1021C00049B1064B42681B6918605A60136043604E
:1021D0000420FFF7FDBE4FF0FF3070473828002085
:1021E0000368984206D01A68026050601846596128
:1021F000FFF7A4BE7047000038B504460D462068BE
:10220000844200D138BD036823605C604561FFF7FC
:1022100095FEF4E7054B4FF0FF3103F11402C3E9DB
:1022200005220022C3E90712704700BF38280020AA
:10223000F8B5C0E903230E46054601F0A9FB1A4B89
:1022400019461F4651F8142F8A420DD118620A2EE2
:102250002CBF80190A302A60C5E90126C3E905555B
:10226000BDE8F84001F07EBB1B6A9268C41A3419BD
:1022700028BF3446A24202D9181901F083FB7B69BA
:102280009A6894420CD8AC6099685A68091B2B6014
:102290006A6015605D6099604FF0FF33FB61F8BDC7
:1022A000A41A1B68ECE700BF3828002038B51C4B87
:1022B0005A691D4690420DD0D0E900210A60516054
:1022C0000021C16091688068014491604FF0FF3245
:1022D000DA6138BD1A46016842F8141F4A600021CD
:1022E0005B69C160934203D1BDE8384001F044BB53
:1022F0009A6881680A449A602C6A01F049FB6B690C
:10230000021B9B689342E4D91C44241A286A092CB6
:1023100098BF02F10A031844BDE8384001F032BB0F
:10232000382800202DE9F041184C002704F114064C
:10233000656901F02DFB236AAA68C11A8A4215D883
:102340001344D5F80C802362D5E9003213605A603B
:102350006369EF60B34201D101F00EFB87F311888E
:102360002869C047202383F31188E1E76169B142FE
:1023700009D013441B1ABDE8F0410A2B2CBFC0182A
:102380000A3001F0FFBABDE8F08100BF3828002014
:1023900000207047FEE70000704700004FF0FF305C
:1023A0007047000002290CD0032904D001290748F6
:1023B00018BF00207047032A05D8054800EBC2006B
:1023C0007047044870470020704700BF8C420008E7
:1023D0003C2200204042000870B59AB006460846EC
:1023E000144601AD294600F0BBF82846FEF764FD0F
:1023F0000323C1B201304000C6E90004637000232A
:10240000207002341846DAB20234914201D81AB070
:1024100070BDEA5C013304F8010C04F8022CF2E709
:1024200008B5202383F311880348FFF755FA0023EA
:1024300083F3118808BD00BFF029002090F8803098
:1024400003F01F02012A07D190F881200B2A03D143
:102450000023C0E91D3314E003F06003202B0AD1F0
:10246000B0F884303BB990F88120202A03D3212A88
:1024700003D9222AEDD0FFF70FBA034A4267072299
:102480008267C367012070473322002010B50446DD
:10249000052916D8DFE801F016150316161D2023AE
:1024A00083F311880E4A0121FFF7C2FA20460D4A34
:1024B0000221FFF7BDFA0C48FFF7D8F9002383F398
:1024C000118810BD202383F311880748FFF7A4F972
:1024D000F4E7202383F311880348FFF7BBF9EDE706
:1024E000C0410008E4410008F029002038B50C4D37
:1024F0000C4C2A460C4904F10800FFF76DFF05F16A
:10250000CA0204F110000949FFF766FF05F5CA7217
:1025100004F118000649BDE83840FFF75DBF00BF71
:10252000C84200203C220020104200081A42000845
:102530002542000870B5044608460D46FEF7BCFC6F
:10254000C6B22046013403780BB9184670BD324636
:102550002946FEF799FC0028F3D10120F6E7000098
:102560002DE9F04705460C46FEF7A6FC2C49C6B2FD
:102570002846FFF7DFFF08B10836F6B2294928469A
:10258000FFF7D8FF08B11036F6B2632E0BD8DFF88C
:102590009080DFF89090244FDFF898A02E7846B90D
:1025A0002670BDE8F08729462046BDE8F04701F0D7
:1025B0009BBD252E30D1072241462846FEF764FCFC
:1025C00080B91A4B224603F10C0153F8040B8B42DD
:1025D00042F8040BF9D1198807359B780F34118024
:1025E0009370DBE7082249462846FEF74DFC98B970
:1025F000A21C0F4B197802320909C95D02F8041CAC
:1026000013F8011B01F00F015345C95D02F8031CCB
:10261000F0D118340835C1E7013504F8016BBDE786
:10262000AC42000825420008C4420008B442000839
:1026300000E8F11F0CE8F11FBFF34F8F044B1A693C
:102640005107FCD1D3F810215207F8D1704700BFD1
:102650000020005208B50D4B1B78ABB9FFF7ECFF1B
:102660000B4BDA68D10704D50A4A5A6002F1883266
:102670005A60D3F80C21D20706D5064AC3F80421C4
:1026800002F18832C3F8042108BD00BF26450020AE
:10269000002000522301674508B5114B1B78F3B9A0
:1026A000104B1A69510703D5DA6842F04002DA602C
:1026B000D3F81021520705D5D3F80C2142F040027F
:1026C000C3F80C21FFF7B8FF064BDA6842F00102AD
:1026D000DA60D3F80C2142F00102C3F80C2108BDE6
:1026E00026450020002000520F289ABF00F5806088
:1026F00040040020704700004FF400307047000095
:10270000102070470F2808B50BD8FFF7EDFF00F534
:1027100000330268013204D104308342F9D1012030
:1027200008BD0020FCE700000F2838B5044645D856
:10273000FFF7D8FC0546FFF77FFFFFF78BFF204828
:102740004FF0FF33072C4361C0F8143120D80361E8
:10275000FFF772FF230243F02403C360C36843F012
:102760008003C36003695A07FCD4FFF765FF204666
:10277000FFF7BAFF4FF4003100F004F9FFF78CFFC8
:102780002846FFF7B9FC2046BDE83840FFF7BABF3E
:10279000C0F81031FFF750FFA4F108031B0243F00B
:1027A0002403C0F80C31D0F80C3143F08003C0F89A
:1027B0000C31D0F810315B07FBD4D6E7002038BDD0
:1027C000002000522DE9F84F40EA020305460C466E
:1027D0001746D80602D00020BDE8F88F27F01F0763
:1027E000DFF8D8B0FFF736FF2744BC4203D1012001
:1027F000FFF752FFF0E720222946204601F066FC51
:1028000010B920352034F0E72B4605F120021E6870
:10281000711CE0D104339A42F9D1FFF763FC05F152
:102820007843234A9342234B234A88BF9A4603F1B5
:10283000040398BF9046A2F1080288BF9846A3F10E
:1028400008039ABF9146DA469946FFF7F5FEC8F8A5
:102850000060A5EB040CD9F8002004F11C0142F043
:102860000202C9F80020221FDAF8006016F00506FF
:10287000FAD152F8043F8A424CF80230F4D1BFF347
:102880004F8FFFF7D9FE4FF0FF32C8F80020D9F87C
:10289000002022F00202C9F80020FFF72DFC2022C0
:1028A0002146284601F012FC0028AAD030469FE7B6
:1028B000FFFF0F0010210052142000521020005280
:1028C00010B5084C237828B11BB9FFF7C3FE0123CC
:1028D000237010BD002BFCD02070BDE81040FFF726
:1028E000DBBE00BF264500200244074BD2B210B524
:1028F000904200D110BD441C00B253F8200041F8B2
:10290000040BE0B2F4E700BF504000580E4B30B566
:102910001C6F240405D41C6F1C671C6F44F4004416
:102920001C670A4C02442368D2B243F480732360CC
:10293000074B904200D130BD441C51F8045B00B2FB
:1029400043F82050E0B2F4E700440258004802582F
:102950005040005807B5012201A90020FFF7C4FF2D
:10296000019803B05DF804FB13B50446FFF7F2FFCE
:10297000A04205D0012201A900200194FFF7C6FF63
:1029800002B010BD0144BFF34F8F064B884204D301
:10299000BFF34F8FBFF36F8F7047C3F85C022030D7
:1029A000F4E700BF00ED00E000207047034B1A6819
:1029B00012B9034A12681A60704700BF2845002008
:1029C000D044025808B5FFF7F1FF024B1868C0F376
:1029D000806008BD28450020EFF30983054968336E
:1029E0004A6822F001024A6083F30988002383F3D6
:1029F0001188704730EF00E0202080F3118862B624
:102A00000D4B0E4AD96821F4E0610904090C0A4310
:102A10000B49DA60CA6842F08072CA60094A0A4902
:102A2000C2F8B01F116841F0010111601022DA777D
:102A300083F82200704700BF00ED00E00003FA05B4
:102A4000F0ED00E0001000E055CEACC510B520233D
:102A500083F311880E4B5B6813F4006314D0F1EE1E
:102A6000103AEFF309844FF08073683CE361094B3F
:102A7000DB68236684F30988FFF7E4FA10B1064B9C
:102A8000A36110BD054BFBE783F31188F9E700BF95
:102A900000ED00E030EF00E0F7030008FA03000863
:102AA00070B5BFF34F8FBFF36F8F1B4B0021C3F87F
:102AB0005012BFF34F8FBFF36F8F5A6942F4003249
:102AC0005A61BFF34F8FBFF36F8FC3F88410BFF30A
:102AD0004F8FD3F8802043F6E074C2F3C900C2F3ED
:102AE0004E32520102EA0406014646EA817511F1AE
:102AF000FF31C3F86052F8D2203A12F1200FF1D121
:102B0000BFF34F8F5A6942F480325A61BFF34F8F3F
:102B1000BFF36F8F70BD00BF00ED00E0FEE7000067
:102B2000084A094B09498B4204D3094A00219342C0
:102B300005D3704752F8040B43F8040BF3E743F84E
:102B4000041BF4E7B4440008FC460020FC460020C7
:102B5000FC4600207047000070B5D0E924430021F6
:102B60004FF0FF359E684A01A318D3F800090028EA
:102B700005DAD3F8000940F08040C3F80009D3F823
:102B8000000B002805DAD3F8000B40F08040C3F8B2
:102B9000000B0131A3188E42C3F80859C3F8085B33
:102BA000E1D24FF00113C4F81C3870BD00EB810373
:102BB000D3F80CC02DE9F043DCF814204E1CD0F8FB
:102BC0009050D2F800E005EB063605EB411850684E
:102BD00070450AD30120D5F8343800FA01F123EA10
:102BE0000103C5F83438BDE8F083AEEB0003BCF850
:102BF0001040A34228BF2346D8F81849A4B2B3EB2B
:102C0000840F0FD89468A4F1040959F8047F376041
:102C1000A4EB09071F44042FF7D81C440344946015
:102C20005360D4E70020DEE7890141F02001016113
:102C300003699B06FCD41220FFF76EBA10B50A4C4C
:102C40002046FEF7CDFE094BC4F89030084BC4F87F
:102C50009430084C2046FEF7C3FE074BC4F8903072
:102C6000064BC4F8943010BD2C45002000000840ED
:102C70000C430008C8450020000004401843000829
:102C80000378012B70B505465DD1494BD0F89040D3
:102C9000984259D1474B0E216520D3F8D82042F0F5
:102CA0000062C3F8D820D3F8002142F00062C3F8D4
:102CB0000021D3F80021D3F8802042F00062C3F84D
:102CC0008020D3F8802022F00062C3F88020D3F85F
:102CD000803000F065FC384BE360384BC4F80038B6
:102CE0000023D5F89060C4F8003EC02323604FF461
:102CF0000413A3633369002BFCDA01230C20336136
:102D0000FFF70AFA3369DB07FCD41220FFF704FA55
:102D10003369002BFCDA00262846A660FFF71CFF6B
:102D20006B68C4F81068DB68C4F81468C4F81C68E1
:102D3000002B3AD1224BA3614FF0FF336361A368AC
:102D400043F00103A36070BD1E4B9842C8D1194BDC
:102D50000E214D20D3F8D82042F00072C3F8D820BD
:102D6000D3F8002142F00072C3F80021D3F800210B
:102D7000D3F8802042F00072C3F88020D3F880207E
:102D800022F00072C3F88020D3F88020D3F8D82036
:102D900022F08062C3F8D820D3F8002122F08062AC
:102DA000C3F80021D3F8003193E7074BC3E700BF16
:102DB0002C4500200044025840140040030020022B
:102DC000003C30C0C8450020083C30C0F8B5D0F801
:102DD0009040054600214FF000662046FFF724FF93
:102DE000D5F8941000234FF001128F684FF0FF3098
:102DF000C4F83438C4F81C2804EB431201339F4252
:102E0000C2F80069C2F8006BC2F80809C2F8080BE2
:102E1000F2D20B68D5F89020C5F898306362102381
:102E20001361166916F01006FBD11220FFF774F932
:102E3000D4F8003823F4FE63C4F80038A36943F4DF
:102E4000402343F01003A3610923C4F81038C4F8E9
:102E500014380B4BEB604FF0C043C4F8103B094BE8
:102E6000C4F8003BC4F81069C4F80039D5F89830AC
:102E700003F1100243F48013C5F89820A362F8BD53
:102E8000E842000840800010D0F8902090F88A10A6
:102E9000D2F8003823F4FE6343EA0113C2F8003885
:102EA000704700002DE9F8430EB20D463C4900275B
:102EB00000EB8609D0F89040D9F80C20136803F095
:102EC000030351F8238069016318C3F8107B05F1EF
:102ED000100301279F409369002B3CD0B2F812C029
:102EE00005F158034CEA080C5B0144F803C0D4F820
:102EF0001C381F4321440023C4F81C780127C1F863
:102F00001039691E5369AF4093B3138A4031928BD5
:102F10009B08012A04EB810188BF5343D0F8982015
:102F20009E1842EA0343C0F8986020464B60294649
:102F3000FFF77AFED9F80C301B8A43EA85534835EF
:102F400043EA08036D016351D4F81C381F43C4F8E9
:102F50001C78BDE8F88304EB461CDCF8003B23F446
:102F60000043CCF8003BD4F81C3823EA0707C1E73C
:102F700005F13F030B4A04EB4616294604EB830395
:102F800020465A60FFF750FED6F8003923F400437C
:102F9000C6F80039D4F81C3823EA0707D7E700BF82
:102FA000D842000800040002D0F894201268C0F84B
:102FB0009820FFF7D1BD00005831D0F8903049017A
:102FC0005B5813F4004004D013F4001F0CBF022020
:102FD000012070474831D0F8903049015B5813F414
:102FE000004004D013F4001F0CBF022001207047E2
:102FF00000EB8101CB68196A0B6813604B68536062
:103000007047000000EB810330B5DD68AA691368E2
:10301000D36019B9402B84BF402313606B8A1468B6
:10302000D0F890201C4402EB4110013C09B2B4FBE3
:10303000F3F46343033323F0030343EAC44343F04D
:10304000C043C0F8103B2B6803F00303012B0ED1E3
:10305000D2F8083802EB411013F4807FD0F8003B1F
:1030600014BF43F0805343F00053C0F8003B02EB21
:103070004112D2F8003B43F00443C2F8003B30BD9C
:103080002DE9F041D0F8906005460C4606EB41135F
:10309000D3F8087B3A07C3F8087B08D5D6F814386C
:1030A0001B0704D500EB8103DB685B689847FA07D0
:1030B0001FD5D6F81438DB071BD505EB8403D96878
:1030C000CCB98B69488A5E68B6FBF0F200FB1262ED
:1030D0008AB91868DA6890420DD2121AC3E900243E
:1030E000202383F3118821462846FFF78BFF84F3C2
:1030F0001188BDE8F081012303FA04F26B8923EA09
:1031000002036B81CB68002BF3D021462846BDE833
:10311000F041184700EB81034A0170B5DD68D0F833
:1031200090306C692668E6604EBB1A444FF400206C
:10313000C2F810092A6802F00302012A0AB20ED16D
:10314000D3F8080803EB421410F4807FD4F8000988
:1031500014BF40F0805040F00050C4F8000903EB69
:103160004212D2F8000940F00440C2F800090122DE
:10317000D3F834088A400243C3F8342870BD19B923
:10318000402E84BF4020206020681A442E8A841973
:10319000013CB4FBF6F440EAC44040F00050C7E7FD
:1031A0002DE9F041D0F8906004460D4606EB41133E
:1031B000D3F80879C3F80879FB071CD5D6F810387E
:1031C000DA0718D500EB8103D3F80CC0DCF8143013
:1031D000D3F800E0DA6896451BD2A2EB0E024FF05E
:1031E00000081A60C3F80480202383F31188FFF7D6
:1031F00091FF88F311883B0618D50123D6F83428AF
:10320000AB40134212D029462046BDE8F041FFF7FB
:10321000CDBC012303FA01F2038923EA02030381EF
:10322000DCF80830002BE6D09847E4E7BDE8F081F1
:103230002DE9F84FD0F8905004466E69AB691E40F6
:1032400016F480586E6103D0BDE8F84FFEF73EBC1F
:10325000002E12DAD5F8003E9F0705D0D5F8003EC3
:1032600023F00303C5F8003ED5F80438204623F0C8
:103270000103C5F80438FEF757FC300505D5204694
:10328000FFF76AFC2046FEF73FFCB1040CD5D5F8E9
:10329000083813F0060FEB6823F470530CBF43F4A7
:1032A000105343F4A053EB60320704D56368DB6826
:1032B0000BB120469847F30200F1BA80B70226D539
:1032C000D4F8909000274FF0010A09EB4712D2F88A
:1032D000003B03F44023B3F5802F11D1D2F8003B1B
:1032E000002B0DDA62890AFA07F322EA03036381ED
:1032F00004EB8703DB68DB6813B139462046984747
:103300000137D4F89430FFB29B689F42DDD9F006B4
:1033100019D5D4F89000026AC2F30A1702F00F031D
:1033200002F4F012B2F5802F00F0CC80B2F5402FFD
:1033300009D104EB8303002200F58050DB681B6A8F
:10334000974240F0B2803003D5F8185835D5E903DC
:1033500003D500212046FFF793FEAA0303D50121E0
:103360002046FFF78DFE6B0303D502212046FFF7B1
:1033700087FE2F0303D503212046FFF781FEE802D5
:1033800003D504212046FFF77BFEA90203D50521C2
:103390002046FFF775FE6A0203D506212046FFF797
:1033A0006FFE2B0203D507212046FFF769FEEF01D0
:1033B00003D508212046FFF763FE700340F1A98082
:1033C000E90703D500212046FFF7EAFEAA0703D547
:1033D00001212046FFF7E4FE6B0703D502212046BA
:1033E000FFF7DEFE2F0703D503212046FFF7D8FEA7
:1033F000EE0603D504212046FFF7D2FEA80603D52A
:1034000005212046FFF7CCFE690603D5062120469C
:10341000FFF7C6FE2A0603D507212046FFF7C0FEA8
:10342000EB0576D520460821BDE8F84FFFF7B8BE7A
:10343000D4F8909000274FF0010AD4F894305FFA46
:1034400087FB9B685B45FFF439AF09EB4B13D3F85F
:10345000002902F44022B2F5802F24D1D3F80029AC
:10346000002A20DAD3F8002942F09042C3F800295C
:10347000D3F80029002AFBDB5946D4F89000FFF767
:10348000D3FB22890AFA0BF322EA0303238104EB1C
:103490008B03DB689B6813B1594620469847594611
:1034A0002046FFF783FB0137C7E7910701D1D0F82A
:1034B0000080072A02F101029CBF03F8018B4FEA4A
:1034C00018283DE704EB830300F58050DA68D2F852
:1034D00018C0DCF80820DCE9001CA1EB0C0C002172
:1034E0008F4208D1DB689B699A683A449A605A68AF
:1034F00017445F6027E711F0030F01D1D0F8008077
:103500008C4501F1010184BF02F8018B4FEA1828B4
:10351000E6E7BDE8F88F000008B50348FFF788FE2E
:10352000BDE80840FFF792BA2C45002008B50348D3
:10353000FFF77EFEBDE80840FFF788BAC8450020C7
:10354000D0F8903003EB4111D1F8003B43F4001365
:10355000C1F8003B70470000D0F8903003EB4111F8
:10356000D1F8003943F40013C1F800397047000066
:10357000D0F8903003EB4111D1F8003B23F4001355
:10358000C1F8003B70470000D0F8903003EB4111C8
:10359000D1F8003923F40013C1F800397047000056
:1035A00000F1604300F01F020901400903F5614387
:1035B000C9B2800083F80013012300F160409340FA
:1035C00000F56140C0F880310360704730B50433C6
:1035D000039C0172002104FB0325C160C0E906536E
:1035E000049B0363059BC0E90000C0E90422C0E915
:1035F0000842C0E90A11436330BD00000022416A5D
:10360000C260C0E90411C0E90A226FF00101FEF7AF
:10361000F3BD0000D0E90432934201D1C2680AB977
:10362000181D704700207047036919600021C268A7
:103630000132C260C269134482699342036124BFAC
:10364000436A0361FEF7CCBD38B504460D46E36816
:103650003BB162690020131D1268A3621344E36248
:1036600007E0237A33B929462046FEF7A9FD002852
:10367000EDDA38BD6FF00100FBE70000C368C269F6
:10368000013BC3604369134482699342436124BF91
:10369000436A436100238362036B03B11847704799
:1036A00070B52023044683F31188866A3EB9FFF77C
:1036B000CBFF054618B186F31188284670BDA36A72
:1036C000E26A13F8015B9342A36202D32046FFF73C
:1036D000D5FF002383F31188EFE700002DE9F84FB1
:1036E00004460E4690469946202787F31188002508
:1036F000AA46D4F828B0BBF1000F09D149462046AC
:10370000FFF7A2FF20B18BF311882846BDE8F88FA0
:10371000D4E90A13A8EB050B5B1A9B4528BF9B460F
:10372000BBF1400F1BD9334601F1400251F8040BA5
:10373000914243F8040BF9D1A36A40364035403337
:10374000A362D4E90A239A4202D32046FFF796FFE8
:103750008AF311884545D8D287F31188C9E73046E6
:103760005A46FDF787FBA36A5E445D445B44A3624F
:10377000E7E7000010B5029C0433017204FB03214B
:10378000C460C0E906130023C0E90A33039B036346
:10379000049BC0E90000C0E90422C0E90842436379
:1037A00010BD0000026A6FF00101C260426AC0E908
:1037B00004220022C0E90A22FEF71EBDD0E904233C
:1037C0009A4201D1C26822B9184650F8043B0B60F6
:1037D0007047002070470000C3680021C2690133B0
:1037E000C3604369134482699342436124BF436ABF
:1037F0004361FEF7F5BC000038B504460D46E368AA
:103800003BB1236900201A1DA262E2691344E362FE
:1038100007E0237A33B929462046FEF7D1FC002879
:10382000EDDA38BD6FF00100FBE7000003691960B5
:10383000C268013AC260C26913448269934203615B
:1038400024BF436A036100238362036B03B11847FB
:103850007047000070B5202304460E4683F311889C
:10386000856A35B91146FFF7C7FF10B185F3118896
:1038700070BDA36A1E70A36AE26A01339342A36219
:1038800004D3E16920460439FFF7D0FF002080F31C
:103890001188EDE72DE9F84F04460D4691469A460A
:1038A0004FF0200888F311880026B346A76A4FB965
:1038B00051462046FFF7A0FF20B187F3118830461C
:1038C000BDE8F88FD4E90A07A9EB06033F1A9F4227
:1038D00028BF1F46402F1BD905F1400355F8042B84
:1038E0009D4240F8042BF9D1A36A40364033A362CD
:1038F000D4E90A239A4204D3E16920460439FFF748
:1039000095FF8BF311884E45D9D288F31188CDE706
:1039100029463A46FDF7AEFAA36A3D443E443B448D
:10392000A362E5E7D0E904239A4217D1C3689BB1AB
:10393000836A8BB1043B9B1A0ED01360C368013BB2
:10394000C360C3691A4483699A42026124BF436A0F
:103950000361002383620123184670470023FBE7BD
:1039600000F0E4B8034B002258631A610222DA60C7
:10397000704700BF000C0040014B0022DA60704726
:10398000000C0040014B5863704700BF000C004022
:10399000014B586A704700BF000C00404B68436001
:1039A0008B688360CB68C3600B6943614B690362BA
:1039B0008B6943620B6803607047000008B5374BA2
:1039C00040F2FF713648D3F888200A43C3F88820B4
:1039D000D3F8882022F4FF6222F00702C3F888207F
:1039E000D3F88820D3F8E0200A43C3F8E020D3F8C6
:1039F00008210A43C3F808212A4AD3F8083111469E
:103A0000FFF7CCFF284802F11C01FFF7C7FF27484A
:103A100002F13801FFF7C2FF254802F15401FFF718
:103A2000BDFF244802F17001FFF7B8FF224802F100
:103A30008C01FFF7B3FF214802F1A801FFF7AEFFA9
:103A40001F4802F1C401FFF7A9FF1E4802F1E0017F
:103A5000FFF7A4FF1C4802F1FC01FFF79FFF1B4882
:103A600002F58C71FFF79AFF00F014F9184BD3F8A8
:103A7000902242F00102C3F89022D3F8942242F03F
:103A80000102C3F894220522C3F898204FF0605237
:103A9000C3F89C200F4AC3F8A02008BD0044025878
:103AA000000002582443000800040258000802588D
:103AB000000C025800100258001402580018025856
:103AC000001C025800200258002402580028025806
:103AD00000ED00E01F00080308B500F0D7FAFEF77C
:103AE000DFFA0F4BD3F8DC2042F04002C3F8DC20B1
:103AF000D3F8042122F04002C3F80421D3F80431A2
:103B0000084B1A6842F008021A601A6842F0040270
:103B10001A60FEF74BFFBDE80840FEF7E7BC00BFA8
:103B2000004402580018024870470000114BD3F8B7
:103B3000E82042F00802C3F8E820D3F8102142F050
:103B40000802C3F810210C4AD3F81031D36B43F0AC
:103B50000803D363C722094B9A624FF0FF32DA623F
:103B600000229A615A63DA605A6001225A611A602F
:103B7000704700BF004402580010005C000C004079
:103B8000094A08B51169D3680B40D9B29B076FEA9F
:103B90000101116107D5202383F31188FEF7A0FAF4
:103BA000002383F3118808BD000C0040384B4FF010
:103BB000FF31D3F88020C3F88010D3F88020002292
:103BC000C3F88020D3F88000D3F88400C3F88410B1
:103BD000D3F88400C3F88420D3F88400D86F40F071
:103BE000FF4040F4FF0040F43F5040F03F00D867F2
:103BF000D86F20F0FF4020F4FF0020F43F5020F069
:103C00003F00D867D86FD3F888006FEA40506FEA5A
:103C10005050C3F88800D3F88800C0F30A00C3F8F6
:103C20008800D3F88800D3F89000C3F89010D3F838
:103C30009000C3F89020D3F89000D3F89400C3F814
:103C40009410D3F89400C3F89420D3F89400D3F8D8
:103C50009800C3F89810D3F89800C3F89820D3F8C8
:103C60009800D3F88C00C3F88C10D3F88C00C3F8FC
:103C70008C20D3F88C00D3F89C00C3F89C10D3F8A8
:103C80009C10C3F89C20D3F89C3000F0D3B900BF3F
:103C900000440258614B01221A60614BD3F8F420B2
:103CA00042F00202C3F8F420D3F81C2142F00202D1
:103CB000C3F81C210222D3F81C315A4BDA605A682F
:103CC0009104FCD5584A1A6001229A60574ADA607A
:103CD00000221A614FF440429A61524B9A69920451
:103CE000FCD51A6842F480721A604D4B1A6F12F4B8
:103CF000407F04D04FF480321A6700221A671A6896
:103D000042F001021A60464A134611684807FCD582
:103D1000002111611A6912F03802FBD101211960EA
:103D20004FF0804159605A67414ADA62414A1A614C
:103D30001A6842F480321A60394A134611688903BE
:103D4000FCD5116841F4805111601A689204FCD5C9
:103D5000394A3A499A6200225A6319633849DA6348
:103D600099635A64374A1A64374ADA621A6842F029
:103D7000A8521A602A4B1A6802F02852B2F1285F42
:103D8000F9D148229A614FF48862DA6140221A62BE
:103D90002E4ADA644FF080521A652D4A5A652D4A30
:103DA0009A6532222C4B1A601A6802F00F02022A1E
:103DB000FAD11B4B1A6942F003021A611A6902F028
:103DC0003802182AFAD1D3F8DC2042F00052C3F8A6
:103DD000DC20D3F8042142F00052C3F80421D3F8C8
:103DE0000421D3F8DC2042F08042C3F8DC20D3F871
:103DF000042142F08042C3F80421D3F80421D3F80F
:103E0000DC2042F00042C3F8DC20D3F8042142F069
:103E10000042C3F80421D3F80431704708810051EF
:103E2000004402580048025800C000F0020000019F
:103E30000000FF01008890081210200063020901B1
:103E40002C02040047040508FD0BFF0120000020A0
:103E50000010E00000010100002000524FF0B042CD
:103E600008B5D2F8883003F00103C2F8883023B1D6
:103E7000044A13680BB150689847BDE80840FEF744
:103E8000E5BD00BF7C4600204FF0B04208B5D2F837
:103E9000883003F00203C2F8883023B1044A9368E3
:103EA0000BB1D0689847BDE80840FEF7CFBD00BF12
:103EB0007C4600204FF0B04208B5D2F8883003F0BD
:103EC0000403C2F8883023B1044A13690BB1506966
:103ED0009847BDE80840FEF7B9BD00BF7C4600200A
:103EE0004FF0B04208B5D2F8883003F00803C2F8AA
:103EF000883023B1044A93690BB1D0699847BDE873
:103F00000840FEF7A3BD00BF7C4600204FF0B04242
:103F100008B5D2F8883003F01003C2F8883023B116
:103F2000044A136A0BB1506A9847BDE80840FEF78F
:103F30008DBD00BF7C4600204FF0B04310B5D3F8D4
:103F4000884004F47872C3F88820A30604D5124A86
:103F5000936A0BB1D06A9847600604D50E4A136B7A
:103F60000BB1506B9847210604D50B4A936B0BB1EC
:103F7000D06B9847E20504D5074A136C0BB1506C1F
:103F80009847A30504D5044A936C0BB1D06C9847AD
:103F9000BDE81040FEF75ABD7C4600204FF0B0430C
:103FA00010B5D3F8884004F47C42C3F88820620539
:103FB00004D5164A136D0BB1506D9847230504D5EF
:103FC000124A936D0BB1D06D9847E00404D50F4AA7
:103FD000136E0BB1506E9847A10404D50B4A936E33
:103FE0000BB1D06E9847620404D5084A136F0BB129
:103FF000506F9847230404D5044A936F0BB1D06FD8
:104000009847BDE81040FEF721BD00BF7C46002068
:1040100008B50348FDF7F2F8BDE80840FEF716BD05
:10402000CC23002008B5FFF7ABFDBDE80840FEF744
:104030000DBD0000062108B50846FFF7B1FA0621BC
:104040000720FFF7ADFA06210820FFF7A9FA06219D
:104050000920FFF7A5FA06210A20FFF7A1FA062199
:104060001720FFF79DFA06212820FFF799FA09216A
:104070007A20FFF795FA07213220FFF791FA0C21F9
:104080005220BDE80840FFF78BBA000008B5FFF7E3
:104090008DFD00F00DF8FDF7C9FAFDF79FFCFDF767
:1040A00073FBFFF741FDBDE80840FFF759BC000076
:1040B0000023054A19460133102BC2E9001102F111
:1040C0000802F8D1704700BF7C46002030B50139A6
:1040D0000024A24201D1002005E0035D01340D5D02
:1040E000AB42F6D0581B30BD034611F8012B03F844
:1040F000012B002AF9D1704712101213121100007F
:10410000F0290020CC23002053544D333248373F50
:104110003F3F0053544D3332483734332F37353314
:1041200000000000009600000000000000000000F9
:10413000000000000000000000000000000000007F
:10414000F5150008E11500081D16000809160008FD
:104150001516000801160008ED150008D91500080D
:10416000291600080000000001170008ED160008DD
:104170002917000815170008211700080D17000857
:10418000F9160008E5160008851700080000000071
:1041900001000000000000006D61696E0000000079
:1041A000B841000878280020F02900200100000014
:1041B0009D2000080000000069646C65000000009C
:1041C00002000000000000002519000891190008F5
:1041D0004000400098420020A84200200200000059
:1041E000000000000300000000000000D9190008D2
:1041F0000000000010000000B84200200000000095
:1042000001000000000000002C4500200101020018
:104210004172647550696C6F740025424F4152447D
:10422000252D424C002553455249414C25000000A4
:104230008D240008A52300083D240008212400083F
:10424000430000004842000809024300020100C088
:1042500032090400000102020100052400100105DA
:10426000240100010424020205240600010705823E
:10427000030800FF09040100020A0000000705010D
:10428000024000000705810240000000120000000B
:104290009442000812011001020000400912415727
:1042A00000020102030100000403090425424F41FA
:1042B0005244250054534450696C6F742D46435545
:1042C0002D533400303132333435363738394142AA
:1042D00043444546000000000080001000800410A8
:1042E0000080081000800C10000000003D1B00083A
:1042F0000D1E0008B91E0008400040006446002062
:104300006446002001000000744600208000000088
:10431000400100000800000000010000000400004F
:10432000080000001000802A00000000AAAAAAAA23
:1043300000000024FFFF00000000000000A00A00B1
:104340004041040000000000AAAAAAAA40410400BB
:10435000FFFF000000000000000000001500001436
:1043600000000000AAAAAAAA00000014FFFF000093
:10437000000000000000000000000000000000003D
:10438000AAAAAAAA00000000FFFF00000000000087
:10439000000000000080020000000000AAAAAAAAF3
:1043A00000400100FFFF0000000000700700000057
:1043B0000000000000000000AAAAAAAA0000000055
:1043C000FFFF0000000000000000000000000000EF
:1043D00000000000AAAAAAAA00000000FFFF000037
:1043E00000000000000000000000000000000000CD
:1043F000AAAAAAAA00000000FFFF00000000000017
:10440000000000000000000000000000AAAAAAAA04
:1044100000000000FFFF000000000000000000009E
:104420000000000000000000AAAAAAAA00000000E4
:10443000FFFF00000000000000000000000000007E
:1044400000000000AAAAAAAA00000000FFFF0000C6
:104450000000000000000000F20300000000000067
:1044600000001E0000000000FF000000000000002F
:10447000084100083F0000005004000013410008FC
:104480003F000000009600000000080096000000B9
:104490000008000004000000A8420008000000001E
:1044A000000000000000000000000000000000000C
:0444B0000000000008
:00000001FF
