:020000040800F2
:1000000000070020E50400084D1F0008051F000838
:100010002D1F0008051F0008251F0008E704000821
:10002000E7040008E7040008E70400081549000891
:10003000E7040008E7040008E7040008E7040008F4
:10004000E7040008E7040008E7040008E7040008E4
:10005000E7040008E7040008ED5E0008155F0008EB
:100060003D5F0008655F00088D5F0008E704000839
:10007000E7040008E7040008E7040008E7040008B4
:10008000E7040008E7040008E7040008492F000817
:10009000B52F0008093000085D300008B55F000882
:1000A000E7040008E7040008E7040008E704000884
:1000B0009D600008E7040008E7040008E704000862
:1000C000E7040008E7040008E7040008E704000864
:1000D000E7040008E7040008E7040008E704000854
:1000E00019600008E7040008E7040008E7040008B6
:1000F000E7040008E7040008E7040008E704000834
:10010000E7040008E7040008E7040008E704000823
:1001100089600008E7040008E7040008E704000815
:10012000E7040008E7040008E7040008E704000803
:10013000E7040008E7040008E7040008E7040008F3
:10014000E7040008E7040008E7040008415000083D
:10015000E7040008E7040008E7040008E7040008D3
:10016000E7040008E7040008E7040008E7040008C3
:10017000E7040008E7040008E7040008E7040008B3
:10018000E7040008E7040008E7040008E7040008A3
:10019000E7040008E7040008E7040008E704000893
:1001A000E7040008E7040008E7040008E704000883
:1001B000E7040008E7040008E7040008E704000873
:1001C000E7040008E7040008E7040008E704000863
:1001D000E7040008E7040008E7040008E704000853
:1001E00053B94AB9002908BF00281CBF4FF0FF319E
:1001F0004FF0FF3000F074B9ADF1080C6DE904CE9A
:1002000000F006F8DDF804E0DDE9022304B07047F1
:100210002DE9F047089D04468E46002B4DD18A42B9
:10022000944669D9B2FA82F252B101FA02F3C2F1EC
:10023000200120FA01F10CFA02FC41EA030E94407D
:100240004FEA1C48210CBEFBF8F61FFA8CF708FB9E
:1002500016E341EA034306FB07F199420AD91CEB76
:10026000030306F1FF3080F01F81994240F21C81A8
:10027000023E63445B1AA4B2B3FBF8F008FB1033F0
:1002800044EA034400FB07F7A7420AD91CEB040425
:1002900000F1FF3380F00A81A74240F207816444F5
:1002A000023840EA0640E41B00261DB1D44000237A
:1002B000C5E900433146BDE8F0878B4209D9002DDE
:1002C00000F0EF800026C5E9000130463146BDE868
:1002D000F087B3FA83F6002E4AD18B4202D38242D2
:1002E00000F2F980841A61EB030301209E46002D81
:1002F000E0D0C5E9004EDDE702B9FFDEB2FA82F2D6
:10030000002A40F09280A1EB0C014FEA1C471FFA33
:100310008CFE0126200CB1FBF7F307FB131140EA1A
:1003200001410EFB03F0884208D91CEB010103F1E7
:10033000FF3802D2884200F2CB804346091AA4B2A9
:10034000B1FBF7F007FB101144EA01440EFB00FE7D
:10035000A64508D91CEB040400F1FF3102D2A645E2
:1003600000F2BB800846A4EB0E0440EA03409CE781
:10037000C6F12007B34022FA07FC4CEA030C20FA2E
:1003800007F401FA06F31C43F9404FEA1C4900FA4E
:1003900006F3B1FBF9F8200C1FFA8CFE09FB1811CB
:1003A00040EA014108FB0EF0884202FA06F20BD93E
:1003B0001CEB010108F1FF3A80F08880884240F28E
:1003C0008580A8F102086144091AA4B2B1FBF9F0D2
:1003D00009FB101144EA014100FB0EFE8E4508D9CD
:1003E0001CEB010100F1FF346CD28E456AD9023852
:1003F000614440EA0840A0FB0294A1EB0E01A14237
:10040000C846A64656D353D05DB1B3EB080261EBA4
:100410000E0101FA07F722FA06F3F1401F43C5E97E
:10042000007100263146BDE8F087C2F12003D840B4
:100430000CFA02FC21FA03F3914001434FEA1C47F6
:100440001FFA8CFEB3FBF7F007FB10360B0C43EAE8
:10045000064300FB0EF69E4204FA02F408D91CEB98
:10046000030300F1FF382FD29E422DD90238634496
:100470009B1B89B2B3FBF7F607FB163341EA034136
:1004800006FB0EF38B4208D91CEB010106F1FF3885
:1004900016D28B4214D9023E6144C91A46EA00467C
:1004A00038E72E46284605E70646E3E61846F8E60E
:1004B0004B45A9D2B9EB020864EB0C0E0138A3E757
:1004C0004646EAE7204694E74046D1E7D0467BE738
:1004D000023B614432E7304609E76444023842E7B0
:1004E000704700BF02E000F000F8FEE772B6374840
:1004F00080F30888364880F3098836483649086012
:1005000040F20000CCF200004EF63471CEF2000151
:100510000860BFF34F8FBFF36F8F40F20000C0F24F
:10052000F0004EF68851CEF200010860BFF34F8F05
:10053000BFF36F8F4FF00000E1EE100A4EF63C71F2
:10054000CEF200010860062080F31488BFF36F8F9D
:1005500004F03EFA05F072FB4FF055301F491B4A7C
:1005600091423CBF41F8040BFAE71D49184A9142F9
:100570003CBF41F8040BFAE71A491B4A1B4B9A424D
:100580003EBF51F8040B42F8040BF8E7002018496D
:10059000184A91423CBF41F8040BFAE704F01CFAF8
:1005A00005F0A0FB144C154DAC4203DA54F8041BC3
:1005B0008847F9E700F042F8114C124DAC4203DADB
:1005C00054F8041B8847F9E704F004BA0007002038
:1005D000002300200000000808ED00E000010020DA
:1005E0000007002048650008002300205C2300204D
:1005F000602300206C430020E0010008E0010008B7
:10060000E0010008E00100082DE9F04F2DED108A0F
:10061000C1F80CD0C3689D46BDEC108ABDE8F08FD0
:10062000002383F311882846A047002003F08CFCA8
:10063000FEE703F0F5FB00DFFEE70000F8B504F08D
:1006400007F9074604F052F90546B8BB204B9F4214
:1006500034D001339F4234D01E4B27F0FF029A4220
:1006600032D1F8B200F030FE2E4642F2107400F0A3
:1006700031FE08B10024264601F0C6FB20B103205C
:1006800000F07CF80024264635B1134B9F4203D07E
:1006900004F024F900242646002004F0E3F80EB10B
:1006A00000F082F801F012FA00F072FE01F0B6F8E4
:1006B000204600F0D5F800F077F8F9E72E46002440
:1006C000D5E704460126D2E706464FF47A74CEE712
:1006D000010007B0000008B0263A09B008B501F0E3
:1006E00069F8A0F120035842584108BD07B541F20E
:1006F0001203022101A8ADF8043001F079F803B02B
:100700005DF804FB38B5302383F31188174803687C
:100710000BB103F0E5FC164A144800234FF47A713C
:1007200003F0D4FC002383F31188124C236813B127
:100730002368013B2360636813B16368013B636016
:100740000D4D2B7833B963687BB9022001F030F985
:10075000322363602B78032B07D163682BB9022007
:1007600001F026F94FF47A73636038BD60230020EE
:10077000050700088024002078230020084B18700B
:1007800003280CD8DFE800F008050208022001F079
:10079000FFB8022001F0ECB8024B00225A6070470B
:1007A000782300208024002010B501F02DFB30B10B
:1007B000244B03221A70244B00225A6010BD234B95
:1007C000234A1C4619680131F8D004339342F9D109
:1007D0006268204B9A42F1D91F4B9B6803F100637A
:1007E00003F580339A42E9D204F04CF804F05EF845
:1007F000002001F02DF80220FFF7C0FF174B1A6C04
:1008000000221A64196E1A66196E596C5A64596E70
:100810005A665A6E1A6942F000521A611A6922F039
:1008200000521A611B6972B64FF0E0233021C3F801
:10083000084DD4E9003281F311889D4683F308887E
:100840001047BBE778230020802400200000010827
:1008500020000108FFFF00080023002000380240AC
:100860002DE9F04F93B0AC4B00902022FF210AA855
:100870009D6801F0D5F8A94A1378A3B9A8480121C9
:1008800003601170302383F3118803680BB103F008
:1008900027FCA44AA24800234FF47A7103F016FC07
:1008A000002383F31188009B13B19F4B009A1A60B9
:1008B0009E4A009C1378032B1EBF002313709A4A94
:1008C0004FF0000A18BF5360D3465646D146012068
:1008D00001F05EF824B1944B1B68002B00F01582E8
:1008E000002000F067FF0390039B002B01DA00F06B
:1008F00003FE039B002BEDDB012001F039F8039B85
:10090000213B162BE3D801A252F823F06909000815
:1009100091090008250A0008CF080008CF08000840
:10092000CF080008AF0A00087F0C0008990B0008E8
:10093000FB0B0008230C0008490C0008CF08000836
:100940005B0C0008CF080008CD0C0008090A00085D
:10095000CF080008110D000875090008090A0008F1
:10096000CF080008FB0B00080220FFF7B7FE0028A5
:1009700040F0F581009B0221BAF1000F08BF1C4630
:1009800005A841F21233ADF8143000F031FF9EE7B4
:100990004FF47A7000F00EFF071EEBDB0220FFF72A
:1009A0009DFE0028E6D0013F052F00F2DA81DFE846
:1009B00007F0030A0D10133605230593042105A83B
:1009C00000F016FF17E054480421F9E758480421C5
:1009D000F6E758480421F3E74FF01C08404600F0C2
:1009E00039FF08F104080590042105A800F000FF74
:1009F000B8F12C0FF2D1012000FA07F747EA0B0BF0
:100A00005FFA8BFB4FF0000901F056F826B10BF0AE
:100A10000B030B2B08BF0024FFF768FE57E746487F
:100A20000421CDE7002EA5D00BF00B030B2BA1D199
:100A30000220FFF753FE074600289BD0012000F05C
:100A400007FF0220FFF79AFE00265FFA86F840466D
:100A500000F00EFF044690B10021404600F018FF60
:100A600001360028F1D1BA46044641F212130221A0
:100A700005A8ADF814303E4600F0BAFE27E7012085
:100A8000FFF77CFE2546244B9B68AB4207D92846DE
:100A900000F0E0FE013040F067810435F3E7234BBE
:100AA00000251D70204BBA465D603E46ACE7002E27
:100AB0003FF460AF0BF00B030B2B7FF45BAF022016
:100AC000FFF75CFE322000F075FEB0F10008FFF683
:100AD00051AF18F003077FF44DAF0F4A926808EB4F
:100AE000050393423FF646AFB8F5807F3FF742AF2C
:100AF000124B0193B84523DD4FF47A7000F05AFE93
:100B00000390039A002AFFF635AF019B039A03F87E
:100B1000012B0137EDE700BF002300207C240020DB
:100B2000602300200507000880240020782300208F
:100B300004230020082300200C2300207C23002015
:100B4000C820FFF7CBFD074600283FF413AF1F2D49
:100B500011D8C5F1200242450AAB25F0030028BF99
:100B6000424683490192184400F034FF019A8048BC
:100B7000FF2100F055FF4FEAA8037D490193C8F318
:100B80008702284600F054FF064600283FF46DAF68
:100B9000019B05EB830537E70220FFF79FFD002847
:100BA0003FF4E8AE00F094FE00283FF4E3AE0027E7
:100BB000B846704B9B68BB4218D91F2F11D80A9BAF
:100BC00001330ED027F0030312AA134453F8203C3C
:100BD00005934046042205A901F0CEF8043780466B
:100BE000E7E7384600F036FE0590F2E7CDF81480CE
:100BF000042105A800F0FCFD06E70023642104A8F9
:100C0000049300F0EBFD00287FF4B4AE0220FFF760
:100C100065FD00283FF4AEAE049800F041FE05905B
:100C2000E6E70023642104A8049300F0D7FD002820
:100C30007FF4A0AE0220FFF751FD00283FF49AAEEA
:100C4000049800F03DFEEAE70220FFF747FD002888
:100C50003FF490AE00F04CFEE1E70220FFF73EFDCE
:100C600000283FF487AE05A9142000F047FE0421B8
:100C70000746049004A800F0BBFD3946B9E73220CE
:100C800000F098FD071EFFF675AEBB077FF472AE4D
:100C9000384A926807EB090393423FF66BAE022095
:100CA000FFF71CFD00283FF465AE27F003074F4413
:100CB000B9453FF4A9AE484600F0CCFD04210590AB
:100CC00005A800F095FD09F10409F1E74FF47A70E9
:100CD000FFF704FD00283FF44DAE00F0F9FD0028B9
:100CE00044D00A9B01330BD008220AA9002000F04F
:100CF0009FFE00283AD02022FF210AA800F090FE93
:100D0000FFF7F4FC1C4803F025F913B0BDE8F08FA1
:100D1000002E3FF42FAE0BF00B030B2B7FF42AAE0B
:100D20000023642105A8059300F058FD074600281C
:100D30007FF420AE0220FFF7D1FC804600283FF46C
:100D400019AEFFF7D3FC41F2883003F003F90598A0
:100D500000F0F6FE464600F0AFFE3C46B7E506461C
:100D600052E64FF0000905E6BA467EE637467CE6D5
:100D70007C23002000230020A0860100094A13687C
:100D800049F2690099B21B0C00FB01331360064B5A
:100D9000186844F2506182B2000C01FB0200186036
:100DA00080B27047202300201C23002010B50021B2
:100DB0001022044600F034FE034B03CB2060616038
:100DC0001868A06010BD00BF107AFF1F2DE9F04128
:100DD000ADF54C7D0DF12C086AAC40F2751207465A
:100DE0000D460CA80021C8F8001000F019FE4FF4C1
:100DF000C4720021204600F013FE01F0A9F8254B33
:100E00004FF47A72B0FBF2F0186093E80700012308
:100E100084E807000DF5E5702382FFF7C7FF4DF664
:100E200027131D49238406A805F0BCF9112384F873
:100E300032310DF2DB2206AB0DF1280C1E4603CE3B
:100E4000664510605160334602F10802F6D13378EE
:100E5000137041460122204600F094FE00230393C4
:100E6000AB7E029305F11903019380B20123CDE912
:100E700004800093E97E05A3D3E90023384601F0FE
:100E8000B1FB0DF54C7DBDE8F08100BF9E6AC42129
:100E9000818A46EE88240020B46100082DE9F043E1
:100EA000224DBBB001F054F8AB6840F2ED22C31AFA
:100EB000934232D906AFA8602B462822002138463B
:100EC00001F040FD05F10E0000F0A2FD00260446F1
:100ED0005FFA80F905F10E08F3B2F100994501F1CE
:100EE000280107D908EB06030822384601F02AFD3D
:100EF0000136F1E708230122CDE9023205340C4B1B
:100F00000193A4B230230093CDE9047405A3D3E97F
:100F10000023297B074801F065FB3BB0BDE8F08367
:100F2000AFF3008078F6339F93CACD8DD034002084
:100F3000DD340020A0340020F0B58B8A013B9BB249
:100F4000C92BC9B006460C4647D8274D2F7B27BB77
:100F500005F10C03009308223B463946204601F078
:100F6000B5FB7B1CFAB2D9001F46A38A013B9A420B
:100F700005DA0E322A44009200230822EEE700230D
:100F80000022C5E900230023AB6085F8D730C5F8FF
:100F9000D8302B7B0BB9E37E2B738122002106AD69
:100FA00027A800F03DFD0122294627A800F0B8FE41
:100FB00000230393A37E029304F1190380B20193EB
:100FC0002823CDE90450E17E0093304604A3D3E901
:100FD000002301F007FBFFF761FF49B0F0BD00BF40
:100FE00026417272DF25D7B7D034002070B50D4688
:100FF00014461E4601F052FA50B9022E10D1012CAF
:101000000ED112A3D3E90023C5E90023012007E094
:10101000282C10D005D8012C09D0052C0FD0002089
:1010200070BD302CFBD10BA3D3E90023ECE70BA35D
:10103000D3E90023E8E70BA3D3E90023E4E70BA3FC
:10104000D3E90023E0E700BFAFF30080401DA120FB
:1010500026812A0B78F6339F93CACD8D9E6AC421D0
:10106000818A46EE26417272DF25D7B7F017304AE3
:1010700039059E562DE9F04F8DB002AF80460D46E2
:1010800001F00CFA044600285CD12B7E022B1BD108
:10109000EB8A012B18D100F05BFF0646FFF76EFECE
:1010A00003464FF4C870DFF81C92B3FBF0F206F56C
:1010B000167602FB103316FA83F3C9F80030EB7E84
:1010C00033B97B4B00221A702C37BD46BDE8F08F38
:1010D000AB8AE6B2013BB34204F101040CD907F13B
:1010E00008031E44E10000960023082201F0F801E5
:1010F000284601F0EBFAEBE707F11800FFF756FE80
:10110000324607F1180107F1080005F019F8002828
:10111000D7D10F2E08D8664B1E70D9F80030A3F532
:101120001673C9F80030CFE7FB1DF8710146009334
:1011300007220346284601F0C9FAF979404601F032
:10114000A5F9C1E7EB8A282B26D010D8012B1ED099
:10115000052BB9D1BFF34F8F5649574BCA6802F4DC
:10116000E0621343CB60BFF34F8F00BFFDE7302B2E
:10117000AAD16B7E514C0133627BDBB29342E946CC
:1011800003D1EA7E237B9A420BD0CD469CE72946C9
:101190004046FFF71BFE97E729464046FFF7CCFE87
:1011A00092E74FF0000807F11803A7F81880102203
:1011B000009341460123284601F088FAAE8A023E98
:1011C000B6B2F31C9B109B000733DB08A9EBC303EB
:1011D0009D460DF1080A1FFA88F34FEAC8019E42A6
:1011E00001F110010AD90AEB080300930822002339
:1011F000284601F06BFA08F10108ECE794F8D700F3
:1012000000F036FBD4F8D810054619B994F8D70089
:1012100000F03EFBD4F8D83033449D4205D294F818
:10122000D7000021013000F033FB4FEA960B4FF05E
:1012300000081FFA88F18B45D4E9003209D90AEB7E
:10124000880103EB8800012200F0F2FB08F101089D
:10125000EFE7F31842F10002C4E90032D4F8D830C5
:1012600094F8D70006EB0308C4F8D88000F000FB20
:10127000804509D394F8D730D4F8D8000133401B07
:1012800084F8D730C4F8D800FF2E0D4D09D80023BC
:10129000237300F01DFB00F0B7FD288108B9FFF7AC
:1012A00083FA23689B0A01332B810023A3606CE738
:1012B0009934002000ED00E00400FA05D03400204D
:1012C000882400209C340020014B1870704700BF18
:1012D0009424002030B54FF00054244B22689A42E9
:1012E00085B007D003F00CFB0446A8B900242046C3
:1012F00005B030BD1E4B627D1A701E48237D0373FE
:101300001D49C9220E3000F065FB2046E022002175
:1013100000F086FB0124EAE7184A194D136C43F0EC
:1013200000731364AA6D174B9A42DFD12B6E013BF9
:101330007E2BDBD8144A07CA01AB83E807001846A6
:10134000032100F02FFD6B6D83424FF00003CDD1E0
:101350002A6D8A4201BFAB65054B2A6E1A7003BF26
:101360000A4BEA6D1A601C46C1E700BF9AAD44C53E
:1013700094240020D03400201600002000380240C1
:10138000006600405041A0B058660040182300207D
:101390002DE9FF474C4C00F037FD02236371002319
:1013A00002934A4B2081D3F800C0BCF57A7F12D358
:1013B000474B484FB7FBFCF69C458CBF0A231123D3
:1013C000581EB6FBF3F503FB1562C1B2002A3ED0EE
:1013D00002280346F4D89DF80B303F493F485A1E77
:1013E0009DF80A30013B1B0443EA0253BDF8082074
:1013F000013A13434B6001F093FF00230193384BF4
:10140000384900933848394B4FF4805201F016F8B0
:10141000374B197811B1344801F038F800F098FDD5
:101420000546FFF7ABFC4FF4C873B0FBF3F202FBC9
:10143000130305F5167010FA83F02E4B186003F0B5
:1014400055FA08B10F23238104B0BDE8F0876B1E65
:10145000B3F5806FBFD2C1EBC10E0EF103034FEAAB
:10146000E309C3F3C703A1EB030809F1010A4FF431
:101470007A705FFA88F609FB00005AFA88F8B0FB28
:10148000F8F0B0F5617F08D90EF1FF33C3F3C7035D
:10149000C91ACEB2591E0F2914D8721E072A8CBF42
:1014A00000220122991901FB0551B7FBF1F7BC4558
:1014B00091D1002A8FD0ADF808508DF80A308DF800
:1014C0000B6088E71346EDE78824002018230020EE
:1014D0003F420F0080DE800210230020FC350020F8
:1014E000ED0F000898240020A0340020751000089B
:1014F000942400209C3400202DE9F04F91A7D7E9D7
:1015000000670FF24829D9E90089874D93B0DFF8C9
:1015100044B2864C284601F091F80DF1300A07904C
:1015200070B310220021504600F07AFA079B197B15
:101530004FF0000261F303028DF83020586899687B
:101540000EAA03C21B680D9A63F31C029DF830308B
:101550000D9243F020038DF8303000235246194697
:10156000584601F0EDFE079028B9284601F06AF8C8
:10157000079B2370CEE72378072B3CD801332370D9
:1015800018220021504600F04BFADFF8C8B1684C31
:10159000002319465246584601F0FAFE014670BB38
:1015A000102208A800F03CFA636983F400536361D9
:1015B00000F0D0FC0B4612A9024611E903000DF120
:1015C000240C8CE803009DF83410C1F30300890655
:1015D0004CBF0E99BDF838C08DF82C0046BFC1F342
:1015E0001C0C4CF00041CCF30A010891284608A9D4
:1015F00001F006FACCE7284601F024F8C0E72846B7
:1016000000F04CFF0446002848D1DFF84CB100F050
:101610009FFCDBF80030984240D300F099FC079023
:10162000FFF7ACFB079A8DF8204003464FF4C870D3
:1016300002F51672B3FBF0F101FB103312FA83F3DB
:10164000CBF80030DFF814B19BF8001011B901237A
:101650008DF8203050460791FFF7A8FB0799C1F19C
:101660001004E4B2062C28BF0624224651440DF192
:10167000210000F0AFF908AB039318230293013463
:101680002C4B0193E4B20123009304943B46324671
:10169000284600F049FF00238BF8003000F058FC8A
:1016A000254A264C1368C31AB3F57A7F30D31060ED
:1016B00000F050FC02460B46284600F0CDFF2846BD
:1016C00000F0ECFE20B3237BDFF894B0002B14BFB6
:1016D000032302238BF8053000F03AFC4FF47A73B1
:1016E0000122B0FBF3F05146CBF80000584600F061
:1016F000EFFA18230293124B019380B240F2551374
:10170000CDE903A0009342464B46284600F00CFF6B
:10171000237B2BB1FFF7C2FB237B002B7FF4F7AEBB
:1017200013B0BDE8F08F00BFA0340020B535002015
:101730000004024098340020B0350020D03400204E
:10174000B4350020401DA12026812A0BF1C6A7C177
:10175000D068080FFC3500209C340020993400200C
:101760008824002070B5104B1B780133DBB2012BAD
:101770000C4612D80D4B1D6829684FF47A730E6A17
:10178000A2FB0332014622462846B047844204D1D8
:10179000074B00221A70012070BD4FF4FA7002F05E
:1017A000D9FB0020F8E700BF2423002028230020D5
:1017B000F835002007B50023024601210DF107008E
:1017C0008DF80730FFF7CEFF20B19DF8070003B07A
:1017D0005DF804FB4FF0FF30F9E700000A4608B55A
:1017E0000421FFF7BFFF80F00100C0B2404208BDF6
:1017F00030B4074B0A461978064B53F8214023684A
:10180000DD69054B0146AC46204630BC604700BF51
:10181000F835002028230020A086010070B502F0D2
:10182000B9FE094E094D3080002428683388834270
:1018300008D902F0A9FE2B6804440133B4F5803FB7
:101840002B60F2D370BD00BFFA350020B835002000
:1018500002F062BF00F1006000F580300068704760
:1018600000F10060920000F5803002F0E1BE00005F
:10187000054B1A68054B1B889B1A834202D91044FA
:1018800002F082BE00207047B8350020FA350020F3
:10189000024B1B68184402F097BE00BFB835002009
:1018A00010F003030AD1B0F5047F05D200F1005017
:1018B000A0F51040D0F80038184670470023FBE729
:1018C00000F10050A0F51040D0F8100A7047000059
:1018D000064991F8243033B10023086A81F8243096
:1018E0000822FFF7BDBF0120704700BFBC350020B4
:1018F000014B1868704700BF002004E070B5194B19
:101900001D68194B0138C5F30B0408442D0C042243
:101910001E88A6420BD15C680A46013C82421346EF
:101920000FD214F9016F4EB102F8016BF6E7013ADC
:1019300003F10803ECD181420B4602D22C2203F8BA
:10194000012B0A4A05241688AE4204D1984284BF6E
:10195000967803F8016B013C02F10402F3D1581AA6
:1019600070BD00BF002004E008620008F4610008B8
:10197000022804D1054B4FF000529A6170470128AC
:10198000FCD1024B4FF08042F7E700BF0004024059
:10199000022804D1054B4FF400529A617047012888
:1019A000FCD1024B4FF48042F7E700BF0004024035
:1019B000022805D1064A536983F4005353617047E6
:1019C0000128FCD1024A536983F48043F6E700BF43
:1019D0000004024010B50023934203D0CC5CC454F1
:1019E0000133F9E710BD000010B5013810F9013FCF
:1019F0003BB191F900409C4203D11AB10131013A47
:101A0000F4E71AB191F90020981A10BD1046FCE7CE
:101A100003460246D01A12F9011B0029FAD1704779
:101A200002440346934202D003F8011BFAE77047D1
:101A30002DE9F8431F4D144695F8242007468846A3
:101A400052BBDFF870909CB395F824302BB920225C
:101A5000FF2148462F62FFF7E3FF95F82400C0F10D
:101A60000802A24228BF2246D6B24146920005EBA8
:101A70008000FFF7AFFF95F82430A41B1E44F6B298
:101A8000082E17449044E4B285F82460DBD1FFF7B8
:101A90001FFF0028D7D108E02B6A03EB82038342A3
:101AA000CFD0FFF715FF0028CBD10020BDE8F88389
:101AB0000120FBE7BC350020024B1A78024B1A705C
:101AC000704700BFF83500202423002038B5164C9D
:101AD000164D204601F07EFD2946204601F0A6FD68
:101AE0002D6813486A6DD2F8043843F00203C2F837
:101AF000043802F02FFA0F49284601F09DFE6A6D66
:101B00000D49D2F8043823F00203C2F804384FF428
:101B100061430B60094B1868A04203D0BDE8384010
:101B200001F0B8BC38BD00BF983800201063000831
:101B300040420F0018630008E435002028230020ED
:101B400070B50C4B0C4D1E780C4B55F826209A4264
:101B500004460DD00A4B002114221846FFF760FFFF
:101B60000460014655F82600BDE8704001F092BCC3
:101B700070BD00BFF83500202823002098380020D1
:101B8000E43500202DE9F0470D460446002190463B
:101B9000284640F27912FFF743FF23462022002116
:101BA000284600F0CFFE231D02222021284600F007
:101BB000C9FE631D03222221284600F0C3FEA31D97
:101BC00003222521284600F0BDFE04F1080310225F
:101BD0002821284600F0B6FE04F11003082238211F
:101BE000284600F0AFFE04F11103082240212846E8
:101BF00000F0A8FE04F1120308224821284600F054
:101C0000A1FE04F1140320225021284600F09AFE80
:101C100004F1180340227021284600F093FE04F1DD
:101C200020030822B021284600F08CFE04F1210395
:101C30000822B821284600F085FE04F12207C026BC
:101C40003B46314608222846083600F07BFEB6F5B2
:101C5000A07F07F10107F3D104F1320308223146D6
:101C6000284600F06FFE002704F1330A94F8323062
:101C70004FEAC7099F4209F5A47615D3B8F1000FC2
:101C800008D1314604F599730722284600F05AFE20
:101C900009F24F16274694F832213B1B93420CD38E
:101CA000F01DC008BDE8F0870AEB070308223146A3
:101CB000284600F047FE0137D8E707F233133146D4
:101CC0000822284600F03EFE08360137E3E7000010
:101CD00013B504460846002101602346C0F80310EE
:101CE0002022019000F02EFE0198231D02222021C7
:101CF00000F028FE0198631D0322222100F022FE3D
:101D00000198A31D0322252100F01CFE019804F177
:101D100008031022282100F015FE072002B010BD94
:101D2000F8B50E4605461446002181223046FFF7DD
:101D300077FE2B4608220021304600F003FE7CB9D6
:101D40006B1C07220821304600F0FCFD0F24012304
:101D50006A785F1C013B934204D3E01DC008F8BDC4
:101D60000824F4E7EB1921460822304600F0EAFD8A
:101D700008343B46ECE7000030B5094D0A44914277
:101D80000DD011F8013B5840082340F30004013BFB
:101D90002C4013F0FF0384EA5000F6D1EFE730BD8A
:101DA0002083B8EDF7B54FF0FF33DFF854C0DFF80C
:101DB00054E000EB81011A4688421CD050F8044BD5
:101DC000019401AF042417F8015B82EA056208253B
:101DD000DB18164605F1FF355241002EBCBF83EAE1
:101DE0000C0382EA0E0215F0FF05F1D1013C14F05C
:101DF000FF04E8D1E0E7D843D14303B0F0BD00BF12
:101E00009336EAA9EBE1F042F7B5384A1068516819
:101E10006B4603C36A4636493648082304F0A0F9E6
:101E20000446002833D10A25334A106851686B46AE
:101E300003C36A4631492F48082304F091F9044648
:101E4000002849D00369B3F5702F45D8B0F8661063
:101E500042F2D97291423FD1294A024402F15C0117
:101E60008B4239D35C3B234900209E1AFFF784FF45
:101E70003246074604F164010020FFF77DFFA368A6
:101E80009F4229D1E368984208BF002524E00369F6
:101E9000B3F5702F27D8418B42F2D972914220D1ED
:101EA000174A024402F110018B4218D3103B11492A
:101EB00000209D1AFFF760FF2A46064604F118012C
:101EC0000020FFF759FFA3689E4202D1E3689842C1
:101ED00001D00D25A8E70025284603B0F0BD102548
:101EE000A2E70C25A0E70B259EE700BF28620008AB
:101EF000DCFF0E00000001083162000890FF0E00B8
:101F00000800FFF700B59BB0EFF30981682268462F
:101F1000FFF760FDEFF30583014B9B6BFEE700BF0E
:101F200000ED00E008B5FFF7EDFF000000B59BB045
:101F3000EFF3098168226846FFF74CFDEFF3058354
:101F4000014B5B6BFEE700BF00ED00E0FEE7000029
:101F500002F01CBC02F0F4BB2DE9F041456A15B952
:101F60004162BDE8F0814B6823F06047C3F38A46C5
:101F70004FEAD37EC3F3807816EA230638BF3E4685
:101F8000AC462B465A68BEEBD27F22F060440AD0A2
:101F9000002A18DAA40CB44217D19D420FD10D606B
:101FA000DEE71346EEE7A74207D102F08044C2F312
:101FB000807242450BD054B1EFE708D2EDE7CCF880
:101FC00000100B60CDE7B44201D0B442E5D81A68E6
:101FD0009C46002AE5D11960C3E700002DE9F047CF
:101FE000089D01F007044FEAD508224405F00705D3
:101FF00000EBD1004FF47F49944201D1BDE8F08756
:1020000004F0070705F0070A57453E4638BF564615
:10201000C6F10806111B8E4228BF0E46E10808EBE8
:10202000D50E415C13F80EC0B94029FA06F721FA23
:102030000AF1FFB28CEA010147FA0AF739408CEA4B
:10204000010C03F80EC034443544D5E780EA012082
:10205000082341F2210201B24000002980B203F1BD
:10206000FF33B8BF504013F0FF03F4D170470000B6
:1020700038B50C468D18A54200D138BD14F8011BA7
:10208000FFF7E4FFF7E7000042684AB113684360D6
:102090004389818901339BB29942438138BF83814F
:1020A0001046704770B588B0202204460D46684639
:1020B0000021FFF7B5FC20460495FFF7E5FF024637
:1020C00058B16B46054608AE1C4603CCB4422860A6
:1020D0006960234605F10805F6D1104608B070BDC9
:1020E000082817D909280CD00A280CD00B280CD0A6
:1020F0000C280CD00D280CD00E2814BF4020302006
:1021000070470C207047102070471420704718202B
:102110007047202070470000082817D90C280CD9D8
:1021200010280CD914280CD918280CD920280CD91F
:1021300030288CBF0F200E207047092070470A20DE
:1021400070470B2070470C2070470D20704700002F
:102150002DE9F843078C072F04461ED9D0E90298D1
:1021600000254FF6FF73C5F12006A5F1200029FADE
:1021700005F108FA06F628FA00F031430143C9B226
:102180001846FFF763FF0835402D0346EBD1E169A0
:102190003A46BDE8F843FFF76BBF4FF6FF70BDE866
:1021A000F883000010B54B6823B9CA8A63F30902AB
:1021B000CA8210BD04691A681C600361C38A013BAE
:1021C000C3824A60EFE700002DE9F84F1D46CB8A35
:1021D0000F46C3F309010529814692460B4630D0CC
:1021E0000020AAB207F11A049EB2042E1FFA80F84A
:1021F0000FD8904503F1010306D3FB8A0A4462F32A
:102200000903FB8201201AE01AF80060E65401304D
:10221000EAE79045F1D2A1F1050B1C237C68BBFBDA
:10222000F3F203FB12BB1FFA8BF6002C45D1484694
:10223000FFF72AFF044638B978606FF00200BDE866
:10224000F88F4FF00008E6E7002606607860ADB230
:102250004FF0000B454510D90AEB0803221D13F877
:10226000011B9155B1B208F101081B291FFA88F82A
:102270002BD0454506F10106F1D8FB8AC3F30902CC
:10228000154465F30903BCE7013292B21C4623688A
:10229000002BF9D16B1F0B441C21B3FBF1F301336D
:1022A0009BB29A42D3D2BBF1000FD0D14846FFF780
:1022B000EBFE20B9C4F800B0BFE70122E7E7C0F8A1
:1022C00000B05E4620600446C1E74545D5D9484682
:1022D000FFF7DAFE08B92060AFE7C0F800B00026CB
:1022E00020600446B6E700002DE9F04F2DED028B8B
:1022F0001C4683B05B69019207468846002B00F0BC
:102300009A80238C2BB1E269002A00F09480072B7D
:1023100035D807F10C00FFF7B7FE054638B96FF066
:102320000205284603B0BDEC028BBDE8F08F1422F5
:102330000021FFF775FB228CE16905F10800FFF72A
:1023400049FB208C013080B2FFF7E6FEFFF7C8FEA4
:10235000013880B22084013028746369228C1B7894
:102360002A4403F01F0363F03F0348F00041137257
:10237000384669602946FFF7EFFD0125D1E700F1F6
:102380000C034FF0000908EE103A4FF0800A4E4659
:102390004D4618EE100AFFF777FE83460028BED0A0
:1023A00014220021FFF73CFB002E3AD1019BABF831
:1023B000083002220BF1080E1FFA82FC0CF101001A
:1023C000BCF1060F218C80B201D88E422BD3FFF7CF
:1023D000A3FEFFF785FE62691278013802F01F0242
:1023E0008E4208BF4FF0400A42EA49121BFA80F1C0
:1023F0004AEA020A013048F0004281F808A08BF84E
:102400001000CBF8042059463846FFF7A5FD238C71
:102410000135B3422DB289F001094FF0000AB8D15D
:102420007FE70022C6E7E169895D0EF802100136F8
:10243000B6B20132C0E76FF0010572E7F8B5154694
:102440000E463022002104461F46FFF7E9FA069B9C
:102450006360B5F5001F079BA76034BF6A094FF69C
:10246000FF72A36297B2E66104F1100000239A4262
:1024700006D800230360A782E3822383E360F8BDCC
:102480000660013330462036F1E7000003781BB9BF
:102490004BB2002BC8BF0170704700000078704736
:1024A000F8B50C46C969074611B9238C002B37D102
:1024B000257E1F2D34D8387828BB228C072A2CD8AB
:1024C000268A36F003032BD14FF6FF70FFF7D0FDBD
:1024D00020F001003102400441EA0561400C41EA6C
:1024E00040254FF6FF72234629463846FFF7FCFE8B
:1024F000002807DD626913780133DBB21F2B88BF28
:1025000000231370F8BD218A2D0645EA01250543F5
:102510002046FFF71DFE0246E5E76FF00300F1E7F6
:102520006FF00100EEE7000070B58AB00446164671
:102530000021282268461D46FFF772FABDF83830A0
:10254000ADF810300F9B05939DF840308DF8183092
:10255000119B07936946BDF84830ADF820302046FE
:10256000CDE90265FFF79CFF0AB070BD2DE9F0418F
:10257000D36905460C4616460BB9138C5BBB377EF8
:102580001F2F28D895F80080B8F1000F26D03046CC
:10259000FFF7DEFD3378210241EAC33141EA080149
:1025A000338A41EA076141EA03410246334641F07A
:1025B00080012846FFF798FE00280ADD3378012BBA
:1025C00007D1726913780133DBB21F2B88BF002358
:1025D0001370BDE8F0816FF00100FAE76FF00300BF
:1025E000F7E70000F0B58BB004460D461746002112
:1025F000282268461E46FFF713FA9DF84C305A1EF3
:10260000534253418DF800309DF84030ADF8103002
:10261000119B05939DF848308DF81830149B079353
:102620006A46BDF85430ADF8203029462046CDE941
:102630000276FFF79BFF0BB0F0BD0000406A00B1CF
:1026400004307047436A1A68426202691A60036183
:10265000C38A013BC38270472DE9F041D0F8208046
:10266000194E14461D464146002709B9BDE8F081C0
:10267000D1E90223A21A65EB0303964277EB030329
:102680001ED2036A8B420DD1FFF78CFD036A1B68D3
:10269000036203690B60C38A0161016A013BC38263
:1026A0008846E2E7FFF77EFD0B68C8F80030036953
:1026B0000B60C38A0161013BC382D8F80010D4E7E4
:1026C00088460968D1E700BF80841E002DE9F04FDD
:1026D0008BB00D46DDF8509014469B46804600288E
:1026E00000F01981B9F1000F00F01581531E3F2B46
:1026F00000F21181012A03D1BBF1000F40F00B81E0
:102700000023CDE90833B8F81430B5EBC30F4FEA16
:10271000C30703D300200BB0BDE8F08F2B199F42F5
:10272000D8F80C303ABF7F1BFFB227461BB9D8F848
:102730001030002B7AD0272D4ED8C5F12806B7428D
:102740004FF000032CBFF6B23E4600932946D8F85E
:10275000080008AB3246FFF741FCA7EB060A3544F8
:102760005FFA8AFAB8F8143003F10053053BDB0036
:102770000493D8F80C3003932821039B13B1BAF1CA
:10278000000F2CD1D8F8100040B1BAF1000F05D0DD
:10279000009608AB5246691AFFF720FC38B2002FAA
:1027A000B8D066070AD00AAB03EBD401624211F835
:1027B000083C02F00702134101F8083C082C3CD900
:1027C000102C40F2B580202C40F2B780BBF1000FF6
:1027D00000F09C80082334E0BA460026C2E7049B40
:1027E000E02B28BFE02306930B44AB42059314D99A
:1027F0005A1B03980096924534BF5246D2B2691ACA
:1028000008AB04300792FFF7E9FB079A1644AAEBDE
:10281000020A1544F6B25FFA8AFA049B069A0599F1
:102820009B1A0493039B1B680393A6E70093D8F8B5
:10283000080008AB3A462946AEE7BBF1000F13D0BB
:102840000123B4EBC30F6CD0082C12D89DF82030B4
:10285000621E23FA02F2D50706D54FF0FF3202FAC4
:1028600004F423438DF820309DF8203089F800309F
:1028700051E7102C12D8BDF82030621E23FA02F264
:10288000D10706D54FF0FF3202FA04F42343ADF826
:102890002030BDF82030A9F800303CE7202C0FD8BC
:1028A0000899631E21FA03F3DA0705D54FF0FF32CA
:1028B00002FA04F40C430894089BC9F800302AE794
:1028C000402C2BD0DDE90865611EC4F12102A4F182
:1028D000210326FA01F105FA02F225FA03F3114366
:1028E0001943CB0712D50122A4F12003C4F1200122
:1028F00002FA03F322FA01F1A240524243EA010331
:1029000063EB430332432B43CDE90823DDE908237E
:10291000C9E90023FFE66FF00100FCE66FF0080054
:10292000F9E6082CA0D9102CB3D9202CEED8C3E797
:10293000BBF1000FADD0022383E7BBF1000FBBD08A
:1029400004237EE730B5012A144638BF0124402C09
:1029500085B028BF40240025012ACDE9025518D8AA
:102960001B788DF8083063070AD004AB03EBD4055D
:10297000624215F8083C02F00702934005F8083C53
:10298000009103462246002102A8FFF727FB05B06D
:1029900030BD082AE4D9102A03D81B88ADF80830C6
:1029A000E1E7202A8DBFD3E900231B680293CDE91C
:1029B0000223D8E710B5CB681BB98B600B618B8203
:1029C00010BD04691A681C600361C38A013BC3829D
:1029D000CA60F0E703064CBFC0F3C0300220704766
:1029E00008B50246FFF7F6FF022806D15306C2F3E8
:1029F0000F2001D100F0030008BDC2F30740FBE740
:102A00002DE9F04F93B0CDE903230A680446104640
:102A1000FFF7E0FF022814BFC2F306260026002AB3
:102A20000D46824680F2F28112F0C04940F0EE81FC
:102A3000097B002900F0EA81022803D02378B34201
:102A400040F0E781C2F304630693104602F07F036F
:102A50000593FFF7C5FF059B29444FEA834848EAE1
:102A60000A4848EA4668CE7800230022CDE90823C8
:102A7000F309834648EA0008029367D0059B009358
:102A800002466768534608A92046B847002800F068
:102A9000C381276A4FB9414604F10C00FFF702FBDE
:102AA000074690B96FF0020054E03B6998450DD09D
:102AB0003F68002FF9D1414604F10C00FFF7F2FA0C
:102AC00007460028EED0236A3B60276297F817C0BC
:102AD00006F01F08CCF3840CACEB08001FFA80FE54
:102AE0000028B8BF0EF12000A8EB0C031FFA83FEEC
:102AF000D7E90221B8BF00B2002B0793BEBF0EF189
:102B000020031BB2079352EA010338D0039BDFF87E
:102B100024E39A1A049B4FF0000C63EB01019645E5
:102B20007CEB01032BD36B7B97F81AE0734519D12B
:102B3000029B002B78D0012821DC7868F8B9DFF8F7
:102B4000F0C2944570EB010316D337E0276A27B92A
:102B50006FF00C0013B0BDE8F08F3B699845B5D01D
:102B60003F68F4E7B24890427CEB010301D30020B8
:102B7000F0E7029B002BFAD0079B0F2B17DCFA7DA6
:102B8000B30002F0030203F07C031343FB753946E4
:102B90002046FFF707FB6B7BBB76029B3BB9FB7DB7
:102BA000C3F38402013262F38603FB75D0E76A7BCC
:102BB000BB7E9A42DBD1029B002B35D0B309022B9E
:102BC00032D0039BBB60049BFB60142200210DA844
:102BD000FEF726FF039B0A93049B0B932B1D0C937C
:102BE0002B7BADF83EB0013BDBB2ADF83C30069B31
:102BF0008DF84230059B8DF8433094F82C308DF8D9
:102C000040A083F001038DF844308DF84180A36823
:102C10000AA920469847FB7DC3F38403013303F0E0
:102C20001F039B02FB82A2E7FB7DC6F34012B2EBBF
:102C3000D31F40F0F480C3F38403434540F0F28097
:102C4000029A2B7BB609002A4DD0F2075DD4032BE4
:102C500040F2EB80039BBB60049BFB602B7BAE1DB3
:102C6000033BDBB23246394604F10C00FFF7ACFA05
:102C700000280CDA39462046FFF794FAFB7DC3F3AF
:102C80008403013303F01F039B02FB820AE7DDE9A3
:102C90000884AB883B834FF6FF73C9F12000A9F18C
:102CA000200228FA09F104FA00F0014324FA02F2A2
:102CB00011431846C9B2FFF7C9F909F10809B9F17A
:102CC000400F0346E9D1B8822A7B033AD2B231469B
:102CD000FFF7CEF9FB7DB882DA43C2F3C01262F38C
:102CE000C713FB7543E786B92E1D013BDBB23246A5
:102CF000394604F10C00FFF767FA0028BADB2A7B9B
:102D0000B88A013AD2B23146E2E7F98AC1F3090141
:102D1000013B0429DAB25BD8281D002307F11B060A
:102D20009A4208D910F801CB06F801C001310133ED
:102D30000529DBB2F4D103990A9104990B919342CE
:102D400007F11B010C9138BF043379680D9134BF32
:102D500055FA83F300230E93FB8AADF83EB0C3F31C
:102D600009031A44069B8DF84230059B8DF84330C9
:102D700094F82C30ADF83C2083F001038DF84430FA
:102D800000238DF840A08DF841807B602A7BB88AB3
:102D9000013A291DFFF76CF93B8BB882834203D1BE
:102DA000A3680AA92046984720460AA9FFF702FE11
:102DB000FB7DBA8AC3F38403013303F01F039B0234
:102DC000FB823B8B9A420CBF00206FF01000C1E6E3
:102DD0007B68002BAFD0052001E01C3033461E6815
:102DE000002EFAD1091A081D2E1D184401EB090CFA
:102DF000BCF11B0F5FFA89F39DD89A429BD916F854
:102E0000013B00F8013B09F10109EFE76FF0090010
:102E1000A0E66FF00A009DE66FF00B009AE66FF0F7
:102E20000D0097E66FF00E0094E66FF00F0091E64C
:102E300040420F0080841E00404BF0B51C6C404E99
:102E400044F000741C641D6E45F000751D661B6E19
:102E50003C4B9B6AD3F80052354045F00105C3F85E
:102E60000052D3F80042344044EA002040F0010010
:102E7000C3F80002002952D00020C3F81C02054606
:102E8000C3F80402C3F80C02C3F8140203EBC00435
:102E900001301C28C4F84052C4F84452F6D1002531
:102EA0004FF0010C96781488F70748BFD3F80472E6
:102EB0000CFA04F044BF0743C3F80472B70742BFDB
:102EC000D3F80C720743C3F80C72760742BFD3F8ED
:102ED00014620643C3F8146203EBC4045668C4F8D2
:102EE00040629668C4F84462D3F81C42013520431E
:102EF000A942C3F81C0202F10C02D3D1D3F800227C
:102F000022F00102C3F800220C4B1A6C22F000726E
:102F10001A641A6E22F000721A661B6EF0BD01224E
:102F2000C3F84012C3F84412C3F80412C3F81412D1
:102F3000C3F80C22C3F81C22E0E700BF00380240AF
:102F40000000FFFFFC350020184A916A08B58B6825
:102F50008B6013F0010104D013F00C0F18BF4FF475
:102F60008031D80506D513F4406F14BF41F4003109
:102F700041F00201D80306D513F4402F14BF41F4E9
:102F8000802141F00401D3690BB1084898473023F0
:102F900083F311880648002101F004F8002383F32D
:102FA0001188BDE8084001F0E9BC00BFFC350020F5
:102FB0000436002038B5124CA36ADD68AA0712D087
:102FC0005A6922F002025A61A36913B10121204615
:102FD0009847302383F311880A48002100F0E2FF6C
:102FE000002383F31188EB0606D5A36A1021D9606C
:102FF000236A0BB102489847BDE8384001F0BEBCD7
:10300000FC3500200C36002038B5124CA36A1D692F
:10301000AA0712D05A6922F010025A61A36913B1AB
:10302000022120469847302383F311880A48002163
:1030300000F0B8FF002383F31188EB0606D5A36ADE
:1030400010211961236A0BB102489847BDE8384046
:1030500001F094BCFC3500200C36002038B50F4C34
:10306000A36A5D685D602A070AD5042222701A6887
:1030700022F002021A60636A13B1002120469847C9
:103080006B0706D5A36A9969236A13B1034809043B
:103090009847BDE8384001F071BC00BFFC35002006
:1030A00010B50E4C204600F029F90D4BA3620B2100
:1030B000132000F00BF90B21142000F007F90B216D
:1030C000152000F003F90B21162000F0FFF8002274
:1030D000BDE8104011460E20FFF7AEBEFC350020C3
:1030E00000640040114B984210B5044609D1104BC2
:1030F0001A6C42F000721A641A6E42F000721A667C
:103100001B6EA36A01221A60A36A5A68D20707D508
:10311000626851681268D9611A60064A5A6110BD26
:103120000121082000F052FEEEE700BFFC35002030
:10313000003802405B87010003291AD8DFE801F05C
:10314000020A0F14836A9B6813F0E05F14BF01202A
:1031500000207047836A9868C0F380607047836A74
:103160009868C0F3C0607047836A9868C0F30070C5
:10317000704700207047000010B5032925D8DFE80C
:1031800001F00225292D836A9968C1F30161183184
:1031900003EB0113107884064CBF54689488C0F385
:1031A00000114FEA410148BF41EAC40100F00F009D
:1031B0004CBF41F0040141EA4451586041F0010123
:1031C0009068D2689860DA60196010BD836A03F570
:1031D000C073DFE7836A03F5C873DBE7836A03F52F
:1031E000D073D7E701290AD002290FD081B9836AA9
:1031F000DA68920701D1186903E001207047836AF9
:10320000D86810F0030018BF01207047836AF2E706
:103210000020704710B539B9836AD96889071BD176
:103220001B699C0704D110BD012915D00229FAD1D0
:10323000816AD1F8C031D1F8C441D1F8C801106118
:10324000D1F8CC015061202008610869800717D1AE
:10325000486940F0100012E0816AD1F8B031D1F82D
:10326000B441D1F8B8011061D1F8BC0150612020FF
:10327000C860C868800703D1486940F0020048610F
:10328000C3F34000C3F38001000140EA411110790B
:1032900020F030000143117189064BBF91681189FC
:1032A000DB085B0D4CBF63F31C0163F30A01137968
:1032B00048BF916064F3030313714FEA14234FEA8C
:1032C000144458BF118113705480ACE700F160437F
:1032D00003F561430901C9B283F80013012200F02C
:1032E0001F039A4043099B0003F1604303F56143C8
:1032F000C3F880211A607047FFF7D2BE012300F1A6
:103300000802C0E90222037000F110020023C0E9A4
:103310000422C0E90633C0E9083343607047000067
:1033200010B53023044683F31188022303704160F3
:10333000FFF7D8FE04232370002080F3118810BD0E
:103340002DE9F0411F4604460D461646302383F30F
:10335000118800F108082378052B0DD02946204656
:10336000FFF7EAFE40B1204632462946FFF704FF48
:10337000002080F3118808E03946404600F0F6FD51
:103380000028E8D0002383F31188BDE8F081000015
:103390002DE9F0411F4604460D461646302383F3BF
:1033A000118800F110082378052B0DD029462046FE
:1033B000FFF718FF40B1204632462946FFF72AFFA3
:1033C000002080F3118808E03946404600F0CEFD29
:1033D0000028E8D0002383F31188BDE8F0810000C5
:1033E000026843681143016003B118477047000049
:1033F000143002F0FFBA00004FF0FF33143002F037
:10340000F9BA0000383002F075BB00004FF0FF330E
:10341000383002F06FBB0000143002F0C5BA000073
:103420004FF0FF31143002F0BFBA0000383002F024
:103430001FBB00004FF0FF32383002F019BB000014
:10344000012914BF6FF013000020704701F07ABF0C
:1034500037B515460E4A026000224260C0E90222DA
:103460000122044602740B46009000F15C014FF407
:103470008072143002F06EFA00942B464FF4807282
:1034800004F5AE7104F1380002F0E6FA03B030BD85
:103490003C62000810B53023044683F3118801F024
:1034A00065FF02232374002080F3118810BD000003
:1034B00038B5C36904460D461BB904210844FFF71B
:1034C0008FFF294604F1140002F052FA002806DAB0
:1034D000201D4FF40061BDE83840FFF781BF38BDC3
:1034E000026843681143016003B118477047000048
:1034F00013B5446BD4F894341A681178042915D1A3
:10350000217C022912D11979128901238B4013429F
:103510000CD101A904F14C0002F0F0F8D4F8944465
:10352000019B21790246206800F0D0F902B010BD5D
:10353000143002F073B800004FF0FF33143002F083
:103540006DB800004C3002F045B900004FF0FF3379
:103550004C3002F03FB90000143002F041B80000D6
:103560004FF0FF31143002F03BB800004C3002F055
:1035700011B900004FF0FF324C3002F00BB90000DF
:103580000020704710B5D0F894341A6811780429D7
:10359000044617D1017C022914D15979528901239B
:1035A0008B4013420ED1143001F0D4FF024648B1D3
:1035B000D4F894444FF4807361792068BDE81040DA
:1035C00000F072B910BD0000406BFFF7DBBF0000D8
:1035D000704700007FB5124B036000234360C0E9D1
:1035E0000233012502260F4B057404460290019315
:1035F00000F18402294600964FF48073143001F0E4
:1036000085FF094B0294CDE9006304F523724FF462
:103610008073294604F14C0002F04CF804B070BDF0
:1036200064620008C9350008F13400080B683022D4
:1036300082F311880A7903EB820290614A79093298
:1036400043F822008A7912B103EB820398610223C6
:10365000C0F894140374002080F3118870470000B0
:1036600038B5037F044613B190F85430ABB9201D30
:1036700001250221FFF734FF04F1140025776FF0D4
:10368000010100F08FFC84F8545004F14C006FF0FD
:103690000101BDE8384000F085BC38BD10B50121FE
:1036A00004460430FFF71CFF0023237784F85430CE
:1036B00010BD000038B504460025143001F03EFF6F
:1036C00004F14C00257702F00DF8201D84F85450C9
:1036D0000121FFF705FF2046BDE83840FFF752BF44
:1036E00090F8443003F06003202B07D190F8452078
:1036F000212A4FF0000303D81F2A06D80020704764
:10370000222AFBD1C0E90E3303E0034A8263072279
:10371000C2630364012070472C23002037B5D0F822
:1037200094341A681178042904461AD1017C0229BC
:1037300017D11979128901238B40134211D100F15D
:103740004C05284602F08EF858B101A9284601F030
:10375000D5FFD4F89444019B21790246206800F0FB
:10376000B5F803B030BD0000F0B500EB810385B0C3
:103770009E6904460D46FEB1302383F3118804EBA5
:103780008507301D0821FFF7ABFEFB685B691B68EE
:1037900006F14C001BB1019001F0BEFF019803A996
:1037A00001F0ACFF024648B1039B2946204600F0D9
:1037B0008DF8002383F3118805B0F0BDFB685A69CA
:1037C0001268002AF5D01B8A013B1340F1D104F1A5
:1037D0004402EAE7093138B550F82140DCB1302322
:1037E00083F31188D4F894241368527903EB82038D
:1037F000DB689B695D6845B104216018FFF770FEC6
:10380000294604F1140001F0AFFE2046FFF7BAFE8E
:10381000002383F3118838BD7047000001F030B9F0
:10382000012303700023C0E90133C3618362036293
:10383000C36243620363704738B50446302383F3A1
:1038400011880025C0E90355C0E90555416001F024
:1038500027F90223237085F31188284638BD00001C
:1038600070B500EB810305465069DA600E461446D8
:1038700018B110220021FEF7D3F8A06918B1102268
:103880000021FEF7CDF831462846BDE8704001F032
:10389000D1B90000826802F0011282600022C0E902
:1038A0000422826101F052BAF0B400EB810447892E
:1038B000E4680125A4698D403D43458123600023D0
:1038C000A2606360F0BC01F06DBA0000F0B400EBE0
:1038D00081040789E468012564698D403D430581C1
:1038E00023600023A2606360F0BC01F0E7BA00002F
:1038F00070B50223002504460370C0E90255C0E9F3
:103900000455C564856180F8345001F02FF963686F
:103910001B6823B129462046BDE87040184770BD9A
:103920000378052B10B504460AD080F850300523E3
:10393000037043681B680BB1042198470023A36000
:1039400010BD00000178052906D190F85020436889
:1039500002701B6803B118477047000070B590F8FB
:103960003430044613B1002380F8343004F14402AB
:10397000204601F00DFA63689B68B3B994F84430AF
:1039800013F0600535D00021204601F0ADFC002188
:10399000204601F09FFC63681B6813B10621204696
:1039A0009847062384F8343070BD20469847002895
:1039B000E4D0B4F84A30E26B9A4288BFE36394F9EA
:1039C0004430E56B002B4FF0300380F20381002D73
:1039D00000F0F280092284F8342083F3118800215A
:1039E000D4E90E232046FFF771FF002383F31188EB
:1039F000DAE794F8452003F07F0343EA022340F21C
:103A00000232934200F0C58021D8B3F5807F48D0C0
:103A10000DD8012B3FD0022B00F09380002BB2D1A8
:103A200004F14C02A2630222E2632364C1E7B3F50E
:103A3000817F00F09B80B3F5407FA4D194F846309D
:103A4000012BA0D1B4F84C3043F0020332E0B3F5BF
:103A5000006F4DD017D8B3F5A06F31D0A3F5C06378
:103A6000012B90D8636894F846205E6894F847105C
:103A7000B4F848302046B047002884D04368A36398
:103A80000368E3631AE0B3F5106F36D040F60242E4
:103A900093427FF478AF5C4BA3630223E36300237C
:103AA000C3E794F84630012B7FF46DAFB4F84C3087
:103AB00023F00203C4E90E55A4F84C30256478E7DE
:103AC000B4F84430B3F5A06F0ED194F8463084F8C2
:103AD0004E30204601F0A2F863681B6813B1012143
:103AE00020469847032323700023C4E90E339CE744
:103AF00004F14F03A3630123C3E72378042B10D100
:103B0000302383F311882046FFF7C4FE85F3118824
:103B10000321636884F84F5021701B680BB1204665
:103B2000984794F84630002BDED084F84F300423B9
:103B3000237063681B68002BD6D00221204698476B
:103B4000D2E794F848301D0603F00F0120460AD54D
:103B500001F010F9012804D002287FF414AF2B4B98
:103B60009AE72B4B98E701F0F7F8F3E794F8463023
:103B7000002B7FF408AF94F8483013F00F01B3D056
:103B80001A06204602D501F0C3FBADE701F0B6FBF3
:103B9000AAE794F84630002B7FF4F5AE94F848304D
:103BA00013F00F01A0D01B06204602D501F09CFBAC
:103BB0009AE701F08FFB97E7142284F8342083F30F
:103BC00011882B462A4629462046FFF76DFE85F3CD
:103BD0001188E9E65DB1152284F8342083F3118859
:103BE0000021D4E90E232046FFF75EFEFDE60B22FE
:103BF00084F8342083F311882B462A462946204630
:103C0000FFF764FEE3E700BF946200088C620008DF
:103C10009062000838B590F834300446002B3ED04E
:103C2000063BDAB20F2A34D80F2B32D8DFE803F084
:103C30003731310822323131313131313131373799
:103C4000C56BB0F84A309D4214D2C3681B8AB5FBDD
:103C5000F3F203FB12556DB9302383F311882B4621
:103C60002A462946FFF732FE85F311880A2384F895
:103C700034300EE0142384F83430302383F3118879
:103C800000231A4619462046FFF70EFE002383F351
:103C9000118838BD036C03B198470023E7E7002182
:103CA000204601F021FB0021204601F013FB636850
:103CB0001B6813B10621204698470623D7E700006A
:103CC00010B590F83430142B044629D017D8062BA1
:103CD00005D001D81BB110BD093B022BFBD8002138
:103CE000204601F001FB0021204601F0F3FA636851
:103CF0001B6813B1062120469847062319E0152BAF
:103D0000E9D10B2380F83430302383F3118800236A
:103D10001A461946FFF7DAFD002383F31188DAE724
:103D2000C3689B695B68002BD5D1036C03B19847CE
:103D3000002384F83430CEE70023037582680369DA
:103D40001B6899689142FBD25A6803604260106018
:103D50005860704700230375826803691B6899687F
:103D60009142FBD85A680360426010605860704707
:103D700008B50846302383F311880B7D032B05D04B
:103D8000042B0DD02BB983F3118808BD8B69002259
:103D90001A604FF0FF338361FFF7CEFF0023F2E795
:103DA000D1E9003213605A60F3E70000FFF7C4BFA7
:103DB000054BD9680875186802681A6053600122BB
:103DC0000275D860FCF720BC2836002030B50C4BBB
:103DD000DD684B1C87B004460FD02B46094A684665
:103DE00000F074F92046FFF7E3FF009B13B168462B
:103DF00000F076F9A86907B030BDFFF7D9FFF9E701
:103E000028360020713D0008044B1A68DB68906872
:103E10009B68984294BF00200120704728360020FC
:103E2000084B10B51C68D86822681A6053600122DC
:103E30002275DC60FFF78EFF01462046BDE810408A
:103E4000FCF7E2BB28360020044B1A68DB68926856
:103E50009B689A4201D9FFF7E3BF704728360020DC
:103E600038B5074C074908480123002523706560D1
:103E700001F08CFE0223237085F3118838BD00BF4A
:103E8000903800209C6200082836002000F05EB9BF
:103E9000EFF3118020B9EFF30583302282F311880C
:103EA0007047000010B530B9EFF30584C4F308047F
:103EB00014B180F3118810BDFFF7C6FF84F3118899
:103EC000F9E70000034A516853685B1A9842FBD82F
:103ED000704700BF001000E08B60022308618B82F6
:103EE000084670478368A3F1840243F8142C0269E2
:103EF00043F8442C426943F8402C094A43F8242CE7
:103F0000C26843F8182C022203F80C2C002203F894
:103F10000B2C044A43F8102CA3F12000704700BF7B
:103F2000210600082836002008B5FFF7DBFFBDE8B2
:103F30000840FFF73BBF0000024BDB6898610F2091
:103F4000FFF736BF28360020302383F31188FFF7B0
:103F5000F3BF000008B50146302383F31188082021
:103F6000FFF734FF002383F3118808BD064BDB689D
:103F700039B1426818605A60136043600420FFF74B
:103F800025BF4FF0FF307047283600200368984265
:103F900006D01A680260506099611846FFF706BFA4
:103FA0007047000038B504460D462068844200D1B1
:103FB00038BD036823605C608561FFF7F7FEF4E7B6
:103FC00010B503689C68A2420CD85C688A600B60DC
:103FD0004C602160596099688A1A9A604FF0FF33EB
:103FE000836010BD1B68121BECE700000A2938BF74
:103FF0000A2170B504460D460A26601901F0C0FD7D
:1040000001F0ACFD041BA54203D8751C2E460446E6
:10401000F3E70A2E04D9BDE87040012001F0F6BD97
:1040200070BD0000F8B5144B0D46D96103F11001C5
:1040300041600A2A1969826038BF0A22016048601B
:104040001861A818144601F08DFD0A2701F086FDBD
:10405000431BA342064606D37C1C281901F090FDA1
:1040600027463546F2E70A2F04D9BDE8F84001207B
:1040700001F0CCBDF8BD00BF28360020F8B50646DB
:104080000D4601F06BFD0F4A134653F8107F9F4217
:1040900006D12A4601463046BDE8F840FFF7C2BFC8
:1040A000D169BB68441A2C1928BF2C46A34202D9F7
:1040B0002946FFF79BFF224631460348BDE8F840FA
:1040C000FFF77EBF283600203836002010B4C0E944
:1040D000032300235DF8044B4361FFF7CFBF0000CB
:1040E00010B5194C236998420DD0D0E9003281688F
:1040F00013605A609A680A449A60002303604FF084
:10410000FF33A36110BD2346026843F8102F5360AC
:104110000022026022699A4203D1BDE8104001F0FA
:1041200029BD936881680B44936001F017FD2269F3
:10413000E1699268441AA242E4D91144BDE81040F2
:10414000091AFFF753BF00BF283600202DE9F047BA
:10415000DFF8BC8008F110072C4ED8F8105001F0A1
:10416000FDFCD8F81C40AA68031B9A423ED81444B0
:10417000D5E900324FF00009C8F81C4013605A60BE
:10418000C5F80090D8F81030B34201D101F0F2FC2C
:1041900089F31188D5E9033128469847302383F302
:1041A00011886B69002BD8D001F0D8FC6A69A0EBAC
:1041B00004094A4582460DD2022001F027FD002263
:1041C000D8F81030B34208D151462846BDE8F04730
:1041D000FFF728BF121A2244F2E712EB090938BF91
:1041E0004A4629463846FFF7EBFEB5E7D8F81030C7
:1041F000B34208D01444211AC8F81C00A960BDE8D5
:10420000F047FFF7F3BEBDE8F08700BF3836002067
:104210002836002000207047FEE7000070470000AD
:104220004FF0FF307047000002290CD0032904D062
:104230000129074818BF00207047032A05D8054800
:1042400000EBC2007047044870470020704700BF71
:10425000746300083C2300202863000870B59AB0FE
:104260000546084601A9144600F0C2F801A8FDF76A
:10427000CFFB431C5B00C5E90034002223700323FD
:104280006370C6B201AB02341046D1B28E4204F163
:10429000020401D81AB070BD13F8011B04F8021C07
:1042A00004F8010C0132F0E708B5302383F31188DC
:1042B0000348FFF733FA002383F3118808BD00BFDA
:1042C0009838002090F8443003F01F02012A07D1EB
:1042D00090F845200B2A03D10023C0E90E3315E0E6
:1042E00003F06003202B08D1B0F848302BB990F8C8
:1042F0004520212A03D81F2A04D8FFF7F1B9222A22
:10430000EBD0FAE7034A82630722C2630364012009
:10431000704700BF3323002007B5052917D8DFE811
:1043200001F0191603191920302383F31188104A5C
:1043300001900121FFF794FA01980E4A0221FFF73C
:104340008FFA0D48FFF7B6F9002383F3118803B005
:104350005DF804FB302383F311880748FFF780F9E9
:10436000F2E7302383F311880348FFF797F9EBE76F
:10437000C8620008EC6200089838002038B50C4D7F
:104380000C4C0D492A4604F10800FFF767FF05F1C0
:10439000CA0204F110000949FFF760FF05F5CA726F
:1043A00004F118000649BDE83840FFF757BF00BFC9
:1043B000603D00203C230020A8620008B262000893
:1043C000BD62000870B5044608460D46FDF720FBA7
:1043D000C6B22046013403780BB9184670BD324688
:1043E0002946FDF701FB0028F3D10120F6E7000084
:1043F0002DE9F04705460C46FDF70AFB2B49C6B2EE
:104400002846FFF7DFFF08B10A36F6B228492846EA
:10441000FFF7D8FF08B11036F6B2632E0BD8DFF8DD
:104420008C80DFF88C90234FDFF894A02E7846B96B
:104430002670BDE8F08729462046BDE8F04701F028
:10444000B1BE252E2ED1072241462846FDF7CCFAD3
:1044500070B9194B224603F1100153F8040B42F8CE
:10446000040B8B42F9D11B78137007351134DDE74B
:10447000082249462846FDF7B7FA98B90F4BA21C07
:10448000197809090232C95D02F8041C13F8011BEE
:1044900001F00F015345C95D02F8031CF0D1183437
:1044A0000835C3E704F8016B0135BFE794630008E2
:1044B000BD620008AE6300089C630008107AFF1F0D
:1044C0001C7AFF1FBFF34F8F024AD368DB03FCD473
:1044D000704700BF003C024008B5094B1B7873B918
:1044E000FFF7F0FF074B1A69002ABFBF064A5A6060
:1044F00002F188325A601A6822F480621A6008BD9C
:10450000BE3F0020003C02402301674508B50B4B2D
:104510001B7893B9FFF7D6FF094B1A6942F00042A6
:104520001A611A6842F480521A601A6822F48052A2
:104530001A601A6842F480621A6008BDBE3F00200B
:10454000003C02400B28F0B516D80C4C0C492378DF
:104550007BB90C4D0E460C234FF0006255F8047BDE
:1045600046F8042B013B13F0FF033A44F6D1012334
:10457000237051F82000F0BD0020FCE7F03F002040
:10458000C03F0020C0630008014B53F82000704773
:10459000C06300080C2070470B2810B5044601D9F1
:1045A000002010BDFFF7CEFF064B53F8243018440F
:1045B000C21A0BB90120F4E712680132F0D1043BB2
:1045C000F6E700BFC06300080B2838B5044628D8BA
:1045D000FFF75EFCFFF776FFFFF77EFF124AF3233B
:1045E000D360E300DBB243F4007343F002031361D2
:1045F000136943F48033136105462046FFF762FFD9
:10460000FFF7A0FF094B53F8241000F039F92846B2
:10461000FFF77CFFFFF746FC2046BDE83840FFF778
:10462000BBBF002038BD00BF003C0240C063000893
:1046300012F001032DE9F04105460E4614464BD118
:104640008218B2F1016F61D8314B1B6813F001037E
:104650005CD0304FFFF71CFCFFF73EFFF323FB60FD
:10466000FFF730FF314640F20128032C18D824F020
:104670000104284E0C446D1A40F20118A14233691E
:1046800005EB01072AD123F001033361FFF73EFF59
:10469000FFF708FC0120BDE8F081043C0435E4E7A5
:1046A000AB07E4D13B6923F440733B613B6943EAC8
:1046B00008033B6151F8046B2E60BFF34F8FFFF787
:1046C00001FF2B689E42E8D03B6923F001033B6168
:1046D000FFF71CFFFFF7E6FB0020DCE723F4407345
:1046E0003361336943EA080333610B883B80BFF3CE
:1046F0004F8FFFF7E7FE3F8831F8023BBFB2BB4266
:10470000BCD0336923F001033361E1E71846C2E707
:1047100000380240003C0240084908B50B7828B137
:104720001BB9FFF7D9FE01230B7008BD002BFCD08D
:10473000BDE808400870FFF7E9BE00BFBE3F00209B
:1047400070B582B0FFF7A4FB0E4E054601F006FAE5
:104750003268904237BF0C4A0B49516814682EBF2B
:10476000D1E90041013151600419034641F10001D2
:10477000284601913360FFF795FB0199204602B06E
:1047800070BD00BFF43F0020F83F002070B582B03C
:10479000FFF77EFB104E054601F0E0F932689042CB
:1047A00037BF0E4A0D49516814682EBFD1E9004148
:1047B00001315160041941F100010346284601917D
:1047C0003360FFF76FFB01994FF47A7200232046A4
:1047D000FBF706FD02B070BDF43F0020F83F00205B
:1047E00010B50244064BD2B2904200D110BD441C19
:1047F00000B253F8200041F8040BE0B2F4E700BF28
:10480000502800400F4B30B51C6F240407D41C6F98
:1048100044F400741C671C6F44F400441C670A4C89
:10482000236843F4807323600244084BD2B2904261
:1048300000D130BD441C00B251F8045B43F8205055
:10484000E0B2F4E700380240007000405028004019
:1048500007B5012201A90020FFF7C2FF019803B0AC
:104860005DF804FB13B50446FFF7F2FFA04205D044
:10487000012201A900200194FFF7C4FF02B010BD7E
:1048800070470000074B45F255521A6002225A60E9
:1048900040F6FF729A604CF6CC421A60024B01223D
:1048A0001A7070470030004004400020034B1B7812
:1048B0001BB1034B4AF6AA221A607047044000203D
:1048C00000300040034B1A681AB9034AD2F8742822
:1048D0001A6070470040002000300240024B4FF049
:1048E0008072C3F8742870470030024008B5FFF7A3
:1048F000E9FF024B1868C0F3407008BD004000207B
:1049000008B5FFF7DFFF024B1868C0F3007008BD61
:1049100000400020EFF3098305494A6B22F00102B1
:104920004A63683383F30988002383F3118870474F
:1049300000EF00E0302080F3118862B60C4B0D4A86
:10494000D96821F4E0610904090C0A43DA60D3F85C
:10495000FC20094942F08072C3F8FC200A6842F04A
:1049600001020A602022DA7783F82200704700BF34
:1049700000ED00E00003FA05001000E010B5302360
:1049800083F311880E4B5B6813F4006314D0F1EECF
:10499000103AEFF30984683C4FF08073E361094BF0
:1049A000DB6B236684F30988FFF72EFA10B1064B00
:1049B000A36110BD054BFBE783F31188F9E700BF46
:1049C00000ED00E000EF00E03306000836060008C6
:1049D00070470000FEE700000A4B0B480B4A90426C
:1049E0000BD30B4BDA1C121AC11E22F003028B42AE
:1049F00038BF00220021FDF713B853F8041B40F81C
:104A0000041BECE7A46500086C4300206C43002005
:104A10006C43002070B5D0E915439E6800224FF02A
:104A2000FF3504EB42135101D3F800090028BEBF43
:104A3000D3F8000940F08040C3F80009D3F8000B18
:104A40000028BEBFD3F8000B40F08040C3F8000B35
:104A5000013263189642C3F80859C3F8085BE0D2E4
:104A60004FF00113C4F81C3870BD0000890141F0FB
:104A70002001016103699B06FCD41220FFF722BAD2
:104A800010B5054C2046FEF7CBFE4FF0A043636502
:104A9000024BA36510BD00BF08400020146400084D
:104AA00070B50378012B054650D12A4B446D9842CE
:104AB0001BD1294B5A6B42F080025A635A6D42F067
:104AC00080025A655A6D5A6942F080025A615A69E9
:104AD00022F080025A610E2143205B69FEF7F6FB4B
:104AE0001E4BE3601E4BC4F800380023C4F8003EA0
:104AF000C02323606E6D4FF40413A3633369002B4E
:104B0000FCDA012333610C20FFF7DCF93369DB07A2
:104B1000FCD41220FFF7D6F93369002BFCDA00260B
:104B2000A6602846FFF776FF6B68C4F81068DB685C
:104B3000C4F81468C4F81C684BB90A4BA3614FF061
:104B4000FF336361A36843F00103A36070BD064BAC
:104B5000F4E700BF08400020003802404014004045
:104B600003002002003C30C0083C30C0F8B5446D62
:104B7000054600212046FFF779FFA96D00234FF07D
:104B800001128F68C4F834384FF00066C4F81C284E
:104B90004FF0FF3004EB431201339F42C2F800692B
:104BA000C2F8006BC2F80809C2F8080BF2D20B6811
:104BB0006A6DEB65636210231361166916F01006C7
:104BC000FBD11220FFF77EF9D4F8003823F4FE63FE
:104BD000C4F80038A36943F4402343F01003A361F1
:104BE0000923C4F81038C4F814380A4BEB604FF0AE
:104BF000C043C4F8103B084BC4F8003BC4F810692C
:104C0000C4F80039EB6D03F1100243F48013EA6538
:104C1000A362F8BDF063000840800010426D90F878
:104C20004E10D2F8003823F4FE6343EA0113C2F8B1
:104C3000003870472DE9F84300EB8103456DDA68D1
:104C4000166806F00306731E022B05EB41130C4693
:104C500080460FFA81F94FEA41104FF00001C3F886
:104C6000101B4FF0010104F1100398BFB60401FAC4
:104C700003F391698EBF334E06F1805606F5004668
:104C800000293AD0578A04F15801490137436F503F
:104C9000D5F81C180B43C5F81C382B180021C3F895
:104CA000101953690127611EA7409BB3138A928B89
:104CB0009B08012A88BF5343D8F85C20981842EA21
:104CC000034301F1400205EB8202C8F85C00214673
:104CD00053602846FFF7CAFE08EB8900C3681B8AA9
:104CE00043EA8453483464011E432E51D5F81C38DE
:104CF0001F43C5F81C78BDE8F88305EB4917D7F8C2
:104D0000001B21F40041C7F8001BD5F81C1821EA4C
:104D10000303C0E704F13F0305EB83030A4A5A602B
:104D200028462146FFF7A2FE05EB4910D0F80039CE
:104D300023F40043C0F80039D5F81C3823EA0707EC
:104D4000D7E700BF0080001000040002826D1268E7
:104D5000C265FFF75FBE00005831436D49015B58E3
:104D600013F4004004D013F4001F0CBF02200120F4
:104D7000704700004831436D49015B5813F400400F
:104D800004D013F4001F0CBF022001207047000064
:104D900000EB8101CB68196A0B6813604B685360A4
:104DA0007047000000EB810330B5DD68AA69136825
:104DB000D36019B9402B84BF402313606B8A1468F9
:104DC000426D1C44013CB4FBF3F46343033323F012
:104DD000030302EB411043EAC44343F0C043C0F86D
:104DE000103B2B6803F00303012B09B20ED1D2F85C
:104DF000083802EB411013F4807FD0F8003B14BF59
:104E000043F0805343F00053C0F8003B02EB4112E3
:104E1000D2F8003B43F00443C2F8003B30BD000031
:104E20002DE9F041244D6E6D06EB40130446D3F896
:104E3000087BC3F8087B38070AD5D6F81438190759
:104E400006D505EB84032146DB6828465B68984756
:104E5000FA071FD5D6F81438DB071BD505EB8403FA
:104E6000D968CCB98B69488A5A68B2FBF0F600FB66
:104E700016228AB91868DA6890420DD2121AC3E96C
:104E80000024302383F311880B482146FFF78AFF63
:104E900084F31188BDE8F081012303FA04F26B89E1
:104EA00023EA02036B81CB68002BF3D02146024832
:104EB000BDE8F041184700BF0840002000EB810327
:104EC00070B5DD68436D6C692668E6604A0156BBC3
:104ED0001A444FF40020C2F810092A6802F00302B5
:104EE000012A0AB20ED1D3F8080803EB421410F4D9
:104EF000807FD4F8000914BF40F0805040F000508B
:104F0000C4F8000903EB4212D2F8000940F0044053
:104F1000C2F80009D3F83408012202FA01F1014372
:104F2000C3F8341870BD19B9402E84BF40202060EA
:104F300020682E8A8419013CB4FBF6F440EAC44090
:104F400040F000501A44C6E72DE9F8433B4D6E6D22
:104F500006EB40130446D3F80889C3F8088918F013
:104F6000010F4FEA40171AD0D6F81038DB0716D5D4
:104F700005EB8003D9684B691868DA68904230D233
:104F8000121A4FF000091A60C3F80490302383F31B
:104F9000118821462846FFF791FF89F3118818F000
:104FA000800F1CD0D6F834380126A640334216D0E4
:104FB00005EB84036D6DD3F80CC0DCF814200134CC
:104FC000E4B2D2F800E005EB04342F445168714597
:104FD00015D3D5F8343823EA0606C5F83468BDE899
:104FE000F883012303FA04F22B8923EA02032B81BD
:104FF0008B68002BD3D0214628469847CFE7BCF8D2
:105000001000AEEB0103834228BF0346D7F818090E
:1050100080B2B3EB800FE2D89068A0F1040959F890
:10502000048FC4F80080A0EB09089844B8F1040F7D
:10503000F5D818440B4490605360C7E7084000203F
:105040002DE9F74FA24C656D6E69AB691E4016F4F1
:1050500080586E6107D02046FEF74AFC03B0BDE8D9
:10506000F04FFFF78BBC002E12DAD5F8003E9848BF
:105070009B071EBFD5F8003E23F00303C5F8003E92
:10508000D5F8043823F00103C5F80438FEF75AFCBC
:10509000370505D58E48FFF7BDFC8D48FEF740FC6F
:1050A000B0040CD5D5F8083813F0060FEB6823F4DC
:1050B00070530CBF43F4105343F4A053EB6031071B
:1050C0001BD56368DB681BB9AB6923F00803AB61D0
:1050D0002378052B0CD1D5F8003E7D489A071EBFDA
:1050E000D5F8003E23F00303C5F8003EFEF72AFC86
:1050F0006368DB680BB176489847F30274D4B70253
:1051000027D5D4F85490DFF8C8B100274FF0010A32
:1051100009EB4712D2F8003B03F44023B3F5802F8C
:1051200011D1D2F8003B002B0DDA62890AFA07F39D
:1051300022EA0303638104EB8703DB68DB6813B1B6
:10514000394658469847A36D01379B68FFB29F4286
:10515000DED9F00617D5676D3A6AC2F30A1002F07D
:105160000F0302F4F012B2F5802F00F08580B2F543
:10517000402F08D104EB83030022DB681B6A07F58C
:10518000805790426AD13003D5F8184813D5E1030F
:1051900002D50020FFF744FEA20302D50120FFF74D
:1051A0003FFE630302D50220FFF73AFE270302D534
:1051B0000320FFF735FE75037FF550AFE00702D5FA
:1051C0000020FFF7C1FEA10702D50120FFF7BCFEBA
:1051D000620702D50220FFF7B7FE23077FF53EAF37
:1051E0000320FFF7B1FE39E7636DDFF8E4A0019318
:1051F00000274FF00109A36D9B685FFA87FB9B4571
:105200003FF67DAF019B03EB4B13D3F8001901F47C
:105210004021B1F5802F1FD1D3F8001900291BDAE6
:10522000D3F8001941F09041C3F80019D3F80019E0
:105230000029FBDB5946606DFFF718FC218909FA4C
:105240000BF321EA0303238104EB8B03DB689B68E8
:1052500013B15946504698470137CCE7910708BF2C
:10526000D7F80080072A98BF03F8018B02F10102EA
:1052700098BF4FEA182884E7023304EB830207F54E
:1052800080575268D2F818C0DCF80820DCE9001C0E
:10529000A1EB0C0C002188420AD104EB8304636863
:1052A0009B699A6802449A605A6802445A606AE7A5
:1052B00011F0030F08BFD7F800808C4588BF02F8B3
:1052C000018B01F1010188BF4FEA1828E3E700BF15
:1052D00008400020436D03EB4111D1F8003B43F43B
:1052E0000013C1F8003B7047436D03EB4111D1F847
:1052F000003943F40013C1F800397047436D03EBE4
:105300004111D1F8003B23F40013C1F8003B704772
:10531000436D03EB4111D1F8003923F40013C1F8B8
:1053200000397047026843681143016003B11847B0
:1053300070470000024AD36843F0C003D36070474F
:10534000004C004010B5054C054A00212046FEF7F0
:105350007FF8044A044BC4E9972310BD8040002025
:1053600035530008004C004080DE8002234A037C55
:10537000002918BF0A46012B30B5C0F868220CD1AD
:105380001F4B984209D11F4B196C41F4002119643D
:10539000196E41F4002119661B6EB2F904501468AD
:1053A000D0F86032D0F85C12002D03EB5403B3FB4D
:1053B000F4F3BEBF23F0070503F0070343EA4503F8
:1053C00094888B60D38843F040030B61138943F0CA
:1053D00001034B6144F4045343F02C03CB6004F409
:1053E000A05400230B60B4F5806F0B684B680CBFB2
:1053F0007F23FF2380F8643230BD00BF20640008A3
:1054000080400020003802402DE9F041D0F85C6275
:10541000F7683368DA0504469DB20DD5302383F36F
:1054200011884FF480610430FFF77CFF6FF48073C4
:105430003360002383F31188302383F3118804F150
:10544000040815F02F033AD183F31188380615D5D7
:10545000290613D5302383F3118804F1380000F0B6
:105460002FFB00284EDA0821201DFFF75BFF4FF6C7
:105470007F733B40F360002383F311887A0616D5CF
:105480006B0614D5302383F31188D4E913239A4291
:105490000AD1236C43B127F040073F041021201D9F
:1054A0003F0CFFF73FFFF760002383F31188D4F828
:1054B0006822D36843B3BDE8F041106918472B0751
:1054C00014D015F0080F0CBF00214FF48071E807CD
:1054D00048BF41F02001AA0748BF41F040016B07D7
:1054E00048BF41F080014046FFF71CFFAD067368DE
:1054F00005D594F8641220461940FDF7D9FF3568A8
:10550000ADB29EE77060B6E7BDE8F08130B5039CB0
:105510000172043304FB0325C0E90653049B0363B3
:105520000021059BC160C0E90000C0E90422C0E978
:105530000842C0E90A11436330BD0000416A0022FD
:10554000C0E90411C0E90A22C2606FF00101FEF750
:1055500029BD0000D0E90432934201D1C2680AB9E2
:10556000181D70470020704703691960C268013236
:10557000C260C269134482690361934224BF436AD3
:1055800003610021FEF702BD38B504460D46E3680D
:105590003BB16269131D1268A3621344E3620020E9
:1055A00007E0237A33B929462046FEF7DFFC0028BE
:1055B000EDDA38BD6FF00100FBE70000C368C26997
:1055C000013BC3604369134482694361934224BF32
:1055D000436A436100238362036B03B1184770473A
:1055E00070B53023044683F31188866A3EB9FFF70D
:1055F000CBFF054618B186F31188284670BDA36A13
:10560000E26A13F8015BA362934202D32046FFF7DC
:10561000D5FF002383F31188EFE700002DE9F84F51
:1056200004460E46174698464FF0300989F3118814
:105630000025AA46D4F828B0BBF1000F09D1414695
:105640002046FFF7A1FF20B18BF311882846BDE863
:10565000F88FD4E90A12A7EB050B521A934528BF1D
:105660009346BBF1400F1BD9334601F1400251F87C
:10567000040B43F8040B9142F9D1A36A403340363E
:10568000A3624035D4E90A239A4202D32046FFF7A9
:1056900095FF8AF31188BD42D8D289F31188C9E7F2
:1056A00030465A46FCF796F9A36A5B445E44A3620F
:1056B0005D44E7E710B5029C0172043303FB04214B
:1056C000C0E906130023C0E90A33039B0363049B6C
:1056D000C460C0E90000C0E90422C0E90842436395
:1056E00010BD0000026AC260426AC0E904220022C2
:1056F000C0E90A226FF00101FEF754BCD0E904238F
:105700009A4201D1C26822B9184650F8043B0B6096
:10571000704700231846FAE7C368C2690133C360C3
:105720004369134482694361934224BF436A4361DE
:105730000021FEF72BBC000038B504460D46E36897
:105740003BB123691A1DA262E2691344E36200209F
:1057500007E0237A33B929462046FEF707FC0028E4
:10576000EDDA38BD6FF00100FBE700000369196056
:10577000C268013AC260C2691344826903619342FC
:1057800024BF436A036100238362036B03B118479C
:105790007047000070B530230D460446114683F370
:1057A0001188866A2EB9FFF7C7FF10B186F31188FA
:1057B00070BDA36A1D70A36AE26A01339342A362BB
:1057C00004D3E16920460439FFF7D0FF002080F3BD
:1057D0001188EDE72DE9F84F04460D4690469946AD
:1057E0004FF0300A8AF311880026B346A76A4FB9F2
:1057F00049462046FFF7A0FF20B187F311883046C5
:10580000BDE8F88FD4E90A073A1AA8EB06079742D1
:1058100028BF1746402F1BD905F1400355F8042B2C
:1058200040F8042B9D42F9D1A36A4033A36240366D
:10583000D4E90A239A4204D3E16920460439FFF7E8
:1058400095FF8BF311884645D9D28AF31188CDE7AD
:1058500029463A46FCF7BEF8A36A3B443D44A3629E
:105860003E44E5E7D0E904239A4217D1C3689BB1CF
:10587000836A8BB1043B9B1A0ED01360C368013B53
:10588000C360C3691A44836902619A4224BF436AB0
:105890000361002383620123184670470023FBE75E
:1058A000F8B5154682680669AA420B46816938BF79
:1058B0008568761AB54204460BD218462A46FCF78C
:1058C00089F8A3692B44A361A3685B1BA3602846E6
:1058D000F8BD0CD918463246FCF77CF8AF1BE168DE
:1058E0003A463044FCF776F8E3683B44EBE7184669
:1058F0002A46FCF76FF8E368E5E700008368934207
:10590000F7B51546044638BF8568D0E90460361AF5
:10591000B5420BD22A46FCF75DF863692B446361FC
:10592000A36828465B1BA36003B0F0BD0DD93246C7
:105930000191FCF74FF80199E068AF1B3A463144FA
:10594000FCF748F8E3683B44E9E72A46FCF742F8ED
:10595000E368E4E710B50A440024C361029B846055
:10596000C0E90000C0E90511C1600261036210BD19
:1059700008B5D0E90532934201D1826882B98268C4
:10598000013282605A1C42611970D0E904329A4295
:1059900024BFC36843610021FEF7F8FA002008BD68
:1059A0004FF0FF30FBE7000070B5302304460E4691
:1059B00083F31188A568A5B1A368A269013BA36020
:1059C000531CA36115782269934224BFE368A36145
:1059D000E3690BB120469847002383F311882846DA
:1059E00007E031462046FEF7C1FA0028E2DA85F3E7
:1059F000118870BD2DE9F74F04460E4617469846AC
:105A0000D0F81C904FF0300A8AF311884FF0000B49
:105A1000154665B12A4631462046FFF741FF034649
:105A200060B941462046FEF7A1FA0028F1D00023D4
:105A300083F31188781B03B0BDE8F08FB9F1000F34
:105A400003D001902046C847019B8BF31188ED1AC3
:105A50001E448AF31188DCE7C0E90511C160C36107
:105A60001144009B8260C0E900000161036270473D
:105A7000F8B504460D461646302383F31188A7680F
:105A8000A7B1A368013BA36063695A1C62611D70E2
:105A9000D4E904329A4224BFE3686361E3690BB13D
:105AA00020469847002080F3118807E031462046C1
:105AB000FEF75CFA0028E2DA87F31188F8BD0000EF
:105AC000D0E905239A4210B501D182687AB982687B
:105AD000013282605A1C82611C7803699A4224BF99
