:020000040800F2
:1000000000070020E5040008951D0008151D0008E4
:100010006D1D0008151D0008411D0008E7040008BB
:10002000E7040008E7040008E7040008154C00088E
:10003000E7040008E7040008E7040008E7040008F4
:10004000E7040008E7040008E7040008E7040008E4
:10005000E7040008E7040008A15C0008CD5C000884
:10006000F95C0008255D0008515D0008E704000800
:10007000E7040008E7040008E7040008E7040008B4
:10008000E7040008E7040008E7040008C92E000898
:10009000352F0008892F0008DD2F00087D5D00083E
:1000A000E7040008E7040008E7040008E704000884
:1000B000155B0008E7040008E7040008E7040008EF
:1000C000E7040008E7040008E7040008E704000864
:1000D000E7040008E7040008E70400087933000893
:1000E000E55D0008E7040008E7040008E7040008ED
:1000F000E7040008E7040008E7040008E704000834
:10010000E7040008E7040008E7040008E704000823
:100110008D330008E7040008E7040008E70400083E
:10012000E7040008E7040008E7040008E704000803
:10013000E7040008E7040008E7040008E7040008F3
:10014000E7040008E7040008E70400082D5300084E
:10015000E7040008E7040008E7040008E7040008D3
:10016000E7040008E7040008E7040008E7040008C3
:10017000E7040008E7040008E7040008E7040008B3
:10018000E7040008E7040008E7040008E7040008A3
:10019000E7040008E7040008E7040008E704000893
:1001A000E7040008E7040008E7040008E704000883
:1001B000E7040008E7040008E7040008E704000873
:1001C000E7040008E7040008E7040008E704000863
:1001D000E7040008E7040008E7040008E704000853
:1001E00053B94AB9002908BF00281CBF4FF0FF319E
:1001F0004FF0FF3000F074B9ADF1080C6DE904CE9A
:1002000000F006F8DDF804E0DDE9022304B07047F1
:100210002DE9F047089E04468846002B40F0858073
:100220008A42154648D9B2FA82F24AB1C2F1200791
:1002300001FA02F320FA07F7954047EA03089440D1
:100240004FEA154E230CB8FBFEF71FFA85FC0EFB98
:10025000178843EA084307FB0CF1994209D9EB18C8
:1002600007F1FF3080F0E380994240F2E080023FE6
:100270002B445B1AA4B2B3FBFEF00EFB103344EA2E
:10028000034400FB0CFCA44509D92C1900F1FF33F1
:1002900080F0CB80A44540F2C88002382C4440EA6C
:1002A0000740A4EB0C0400271EB1D4400023C6E98C
:1002B00000433946BDE8F087002A53D0B2FA82F2F3
:1002C000002A40F0B680491B4FEA154E1FFA85F808
:1002D0000127B1FBFEFC230C0EFB1C1143EA01437A
:1002E00008FB0CF1994207D9EB180CF1FF3002D250
:1002F000994200F2EC808446591AA3B2B1FBFEF099
:100300000EFB101443EA044408FB00F8A04507D98B
:100310002C1900F1FF3302D2A04500F2DC80184610
:10032000A4EB080440EA0C40BEE78B4208D9002E3B
:1003300078D00027C6E9000138463946BDE8F08785
:10034000B3FA83F77FB98B4202D3824200F2BD80B9
:10035000841A61EB030301209846002EA9D0C6E958
:100360000048A6E7FFDEC7F12005BB4022FA05FCE6
:100370004CEA030C01FA07F420FA05F821FA05F318
:100380004FEA1C4E48EA0404B3FBFEF9210C0EFBB5
:1003900019331FFA8CF841EA034309FB08FA9A451E
:1003A00002FA07F200FA07F10BD91CEB030309F17B
:1003B000FF3080F088809A4540F28580A9F10209DB
:1003C0006344A3EB0A03A4B2B3FBFEF00EFB1033AD
:1003D00044EA034400FB08F8A04508D91CEB0404D8
:1003E00000F1FF336BD2A04569D90238644440EA7A
:1003F0000940A4EB0804A0FB02894C45C6464B46C5
:1004000054D351D0002E69D0B1EB0E0264EB03043B
:1004100004FA05F522FA07F3FC401D43C6E900542F
:10042000002746E73746304643E7184637E7074692
:100430001FE7C2F1200320FA03F7954001FA02F00A
:1004400021FA03F34FEA154E3843010CB3FBFEF7D4
:100450001FFA85F80EFB173341EA034107FB08F347
:100460008B4204FA02F407D9691807F1FF3C28D23D
:100470008B4226D9023F2944CB1A81B2B3FBFEF04E
:100480000EFB103341EA034100FB08F38B4207D90E
:10049000691800F1FF3C10D28B420ED90238294472
:1004A000C91A40EA074714E74145ABD2B8EB020E40
:1004B00069EB0C0201381346A4E76046F0E71846E2
:1004C00095E76746D8E781467BE7384645E7ACF1D4
:1004D000020C2B4410E702382C4421E73746E8E6AB
:1004E000704700BF02E000F000F8FEE772B63A483D
:1004F00080F30888394880F3098839484EF6085156
:10050000CEF20001086040F20000CCF200004EF68E
:100510003471CEF200010860BFF34F8FBFF36F8FCD
:1005200040F20000C0F2F0004EF68851CEF2000119
:100530000860BFF34F8FBFF36F8F4FF00000E1EE05
:10054000100A4EF63C71CEF200010860062080F3DE
:100550001488BFF36F8F04F0D9FB04F0B9FB05F0EA
:1005600035FA4FF055301F491B4A91423CBF41F8C4
:10057000040BFAE71C49194A91423CBF41F8040BAD
:10058000FAE71A491A4A1B4B9A423EBF51F8040B2C
:1005900042F8040BF8E700201749184A91423CBF83
:1005A00041F8040BFAE704F097FB05F06BFA144CE2
:1005B000144DAC4203DA54F8041B8847F9E700F005
:1005C00041F8114C114DAC4203DA54F8041B884732
:1005D000F9E704F07FBB00000007002000230020A3
:1005E000000000080001002000070020D062000881
:1005F0000023002054230020582300200845002019
:10060000E0010008E0010008E0010008E001000846
:100610002DE9F04F2DED108AC1F80CD0C3689D462E
:10062000BDEC108ABDE8F08F002383F311882846C3
:10063000A047002003F094FEFEE703F00FFE00DF6A
:10064000FEE70000F8B504F083FA074604F0CEFA9E
:100650000646B8BB204B9F4234D001339F4234D072
:100660001E4B27F0FF029A4232D1F8B200F0E4FEAE
:10067000354642F2107400F0E5FE08B1002425462C
:1006800001F0E0FB20B1032000F07EF800242546B5
:1006900036B1134B9F4203D004F0A0FA0024254644
:1006A000002004F05FFA0DB100F084F801F000FBC7
:1006B00000F026FF01F072F9204600F0E3F800F0A8
:1006C00079F8F9E735460024D5E704460125D2E755
:1006D000054640F6B834CEE7010007B0000008B088
:1006E000263A09B008B501F02BF9A0F120035842D1
:1006F000584108BD07B5054B02211B88ADF80430F1
:1007000001A801F03BF903B05DF804FB3C5F000871
:1007100038B5202383F311881748C3680BB103F061
:10072000A7FE0023154A14484FF47A7103F062FEC5
:10073000002383F31188124C236813B12368013B13
:100740002360636813B16368013B63600D4D2A78D1
:1007500032B963687BB9022001F012FA3223636078
:100760002B78032B07D163682BB9022001F008FA1C
:100770004FF47A73636038BD5823002011070008D6
:10078000742400206C230020084B187003280CD818
:10079000DFE800F008050208022001F0E3B90220BA
:1007A00001F0D0B9024B00225A6070476C23002040
:1007B0007424002010B501F045FB30B1284B032212
:1007C0001A70284B00225A6010BD274B274A19681F
:1007D0000131F9D004339342F9D1254C254B2268DD
:1007E0009A42F1D9244B9B6803F1006303F58033EF
:1007F0009A42E9D204F0C6F904F0D8F9002001F0D9
:10080000E7F80220FFF7C0FF1C4B1A6C00221A64A5
:10081000196E1A66196E596C5A64596E5A665A6E78
:100820005A6942F080025A615A6922F080025A6184
:100830005A691A6942F000521A611A6922F000528C
:100840001A611B6972B60E4A074B13601B68226857
:10085000202181F311889D4683F308881047B3E770
:100860006C230020742400200000010820000108EF
:1008700004000108FFFF00080023002000380240A8
:1008800008ED00E02DE9F04F95B0AC4D009020222E
:10089000FF210CA8AC6801F0AFF9A94A01951378C3
:1008A000A3B9A8480121C3601170202383F31188E4
:1008B000C3680BB103F0DCFD0023A34AA1484FF449
:1008C0007A7103F097FD002383F31188009B13B125
:1008D0009E4B009A1A609E4B02931A78032A04D00A
:1008E0009B4A00231370994A53604FF00009009D02
:1008F000CA464E46C846012001F034F925B1934B53
:100900001B68002B00F01782002001F019F80590F9
:10091000059B002B01DA00F0A7FE059B002BEDDB09
:10092000012001F00FF9059B213B162BE3D801A212
:1009300052F823F091090008B90900084D0A00088F
:10094000F7080008F7080008F7080008D50A0008AB
:10095000AB0C0008C30B0008270C00084F0C000864
:10096000750C0008F7080008870C0008F708000855
:10097000F90C0008310A0008F70800083D0D0008CE
:100980009D090008310A0008F7080008270C000834
:100990000220FFF7A7FE002840F0F881009BB9F184
:1009A000000F08BF1D466B4B02211B88ADF81C30A1
:1009B00007A800F0E3FF9EE74FF47A7000F0C0FF55
:1009C000071EEBDB0220FFF78DFE0028E6D0013F7B
:1009D000052F00F2DD81DFE807F0030A0D10133662
:1009E00005230793042107A800F0C8FF17E004219E
:1009F0005248F9E704215848F6E704215748F3E73D
:100A00004FF01C08404600F0E5FF08F1040807908D
:100A1000042107A800F0B2FFB8F12C0FF2D1012396
:100A200003FA07F747EA0A0A5FFA8AFA4FF0000862
:100A300001F034F926B10AF00B030B2B08BF002597
:100A4000FFF758FE57E704214548CDE7002EA5D013
:100A50000AF00B030B2BA1D10220FFF743FE074640
:100A600000289BD0012000F0B3FF0220FFF78CFE8E
:100A700000265FFA86F9484600F0BAFF054688B1BD
:100A8000484600F0C5FF01360028F2D1B9460546B8
:100A9000344B02211B88ADF81C3007A800F06EFF14
:100AA0003E4628E70120FFF76FFE2C46019B9B681E
:100AB000A34207D9204600F08DFF013040F06B8142
:100AC0000434F3E7029B00241C70204BB9465C60A1
:100AD0003E46ADE7002E3FF461AF0AF00B030B2B4F
:100AE0007FF45CAF0220FFF74FFE322000F028FFBA
:100AF000B0F1000BFFF652AF1BF003077FF44EAFCF
:100B0000019B99680BEB04028A423FF647AFBBF5A5
:100B1000807F3FF643AF144A0392BB4526DD4FF476
:100B20007A7000F00DFF059005990029FFF636AFA9
:100B3000039A059902F8011B0137EDE70023002015
:100B4000702400205823002011070008742400207E
:100B50006C2300203E5F00080423002008230020AF
:100B60000C230020405F000870230020C820FFF7FE
:100B7000B9FD074600283FF411AF1F2C11D8C4F16E
:100B800020065E4528BF5E460CAB24F003003246CB
:100B90008349184401F006F83246FF21804801F0ED
:100BA0002BF84FEAAB03DAB27D490393204601F0FC
:100BB0002BF8064600283FF46BAF039B04EB83043D
:100BC00036E70220FFF78EFD00283FF4E7AE00F085
:100BD00047FF00283FF4E2AE00273B46019A9268A7
:100BE000BA421AD91F2F11D80C9A01320ED027F011
:100BF000030214A90A4452F8202C07921846042232
:100C000007A901F0CDF804370346E7E73846039318
:100C100000F0E0FE039B0790F0E70793042107A88C
:100C200000F0ACFE04E70023642106A8069300F060
:100C30009BFE00287FF4B2AE0220FFF753FD002890
:100C40003FF4ACAE069800F0F5FE0790E6E700230F
:100C5000642106A8069300F087FE00287FF49EAE6C
:100C60000220FFF73FFD00283FF498AE069800F001
:100C7000F1FEEAE70220FFF735FD00283FF48EAED3
:100C800000F0FEFEE1E70220FFF72CFD00283FF414
:100C900085AE07A9142000F0F9FE0421074606904E
:100CA00006A800F06BFE3946B9E7322000F048FE96
:100CB000071EFFF673AEBB077FF470AE019A926811
:100CC00007EB080393423FF669AE0220FFF70AFDE7
:100CD00000283FF463AE27F003074744B8453FF4CC
:100CE000A7AE404600F076FE0421079007A800F06A
:100CF00045FE08F10408F1E74FF47A70FFF7F2FCC3
:100D000000283FF44BAE00F0ABFE002845D00C9B12
:100D100001330BD008220CA9002000F075FF002839
:100D20003BD02022FF210CA800F066FFFFF7E2FC79
:100D30001C4803F01BFB15B0BDE8F08F002E3FF4FC
:100D40002DAE0AF00B030B2B7FF428AE0023642199
:100D500007A8079300F008FE074600287FF41EAEA0
:100D60000220FFF7BFFC039000283FF417AEFFF707
:100D7000C1FC41F2883003F0F9FA079800F0C8FF8F
:100D800000F08CFF039B3D461E46B4E506464FE649
:100D90004FF0000802E6B9467AE6374678E600BF2B
:100DA00070230020A086010009490B6849F2690000
:100DB0009AB21B0C00FB0233064A0B60136844F224
:100DC000506198B21B0C01FB0030106080B270477C
:100DD000202300201C23002010B5002110220446EF
:100DE00000F00AFF034B03CB206061601868A0602D
:100DF00010BD00BF107AFF1F2DE9F043224CBBB09D
:100E000000F0CAFFA36840F2ED22C31A934232D920
:100E100006AFA060234628220021384601F054FD89
:100E200004F10E0000F0E0FE002605465FFA80F9AE
:100E300004F10E08F3B2F100994501F1280107D938
:100E400008EB06030822384601F03EFD0136F1E7C3
:100E500008230122CDE9023205350C4B0193ADB2D6
:100E600030230093CDE9047505A3D3E90023217B4A
:100E7000074801F04FFB3BB0BDE8F083AFF30080C3
:100E800078F6339F93CACD8DC0340020CD34002036
:100E90009434002070B50D4614461E4601F0E4FA65
:100EA00050B9022E0ED1012C0CD112A3D3E900238C
:100EB000C5E90023012005E0052C14D003D8012C3E
:100EC00009D0002070BD282C09D0302CF9D10BA3FB
:100ED000D3E90023ECE70BA3D3E90023E8E70BA356
:100EE000D3E90023E4E70BA3D3E90023E0E700BF45
:100EF000AFF30080401DA12026812A0B78F6339F96
:100F000093CACD8D9E6AC421818A46EE26417272B3
:100F1000DF25D7B7F017304A39059E5638B5044655
:100F20000D46034620222846002101F0CDFC2279FF
:100F30002346032A28BF032203F8042F284602224F
:100F4000202101F0C1FC62792346072A28BF07222D
:100F500003F8052F28460322222101F0B5FCA279CF
:100F60002346072A28BF072203F8062F2846032214
:100F7000252101F0A9FC284604F1080310222821AC
:100F800001F0A2FC382038BD2DE9F04FFDB01DADB9
:100F90000AAE40F2791280460F462846002100F042
:100FA0002BFE48220021304600F026FE00F0F4FE21
:100FB000554B4FF47A72B0FBF2F0186093E80700DB
:100FC000012386E807000DF14A003382FFF704FF92
:100FD00041F60443338406AB18464C4904F0A6FF9F
:100FE0000C2230642946304686F83C20FFF796FFF5
:100FF0000EAB044601460822284601F065FC082293
:10100000A1180DF13903284601F05EFC0DF13A03F9
:10101000082204F11001284601F056FC0FAB2022F3
:1010200004F11801284601F04FFC10AB402204F1F6
:101030003801284601F048FC12AB082204F178017F
:10104000284601F041FC0DF14903082204F180011A
:10105000284601F039FC04F1880A0DF14A0904F52B
:10106000847B4B465146082228460AF1080A01F0C3
:101070002BFCD34509F10109F3D117AB08225946DE
:10108000284601F021FC04F588744FF0000996F819
:1010900034304B450AD9B36B21464B4408222846CD
:1010A00001F012FC083409F10109F0E74FF00009E2
:1010B00096F83C304B4504EBC90108D9336C082243
:1010C0004B44284601F000FC09F10109F0E7002338
:1010D0000393BB7E0293073107F119030193C1F318
:1010E000CF010123CDE904510093F97E04A3D3E994
:1010F0000023404601F00EFA7DB0BDE8F08F00BF3E
:101100009E6AC421818A46EE7C240020545F000838
:101110002DE9F04FAFB006AF06460C4601F0A4F93A
:10112000054600285ED1237E022B19D1E38A012BCC
:1011300016D100F031FE8046FFF736FE4FF4C8733B
:10114000B74AB0FBF3F108F5167801FB1300E37E14
:1011500018FA80F01060914633B9B24B00221A7031
:10116000A437BD46BDE8F08FA38A5FFA85F8013B3E
:10117000434505F101050CD907F10C034344E9008F
:1011800000930822002301F0F801204601F05AFAEA
:10119000EAE707F11C00FFF71FFE424607F11C01BA
:1011A00007F10C0004F09AFE03460028D5D1B8F1EF
:1011B0000F0F09D89B4B83F80080D9F80030A3F5B6
:1011C0001673C9F80030CBE707F10B02F87201463D
:1011D00000922046072201F035FAF97A304601F0F4
:1011E0003BF9BDE7E38A052B00F0068106D8012B09
:1011F000B6D121463046FFF7C7FEB1E7282B0FD006
:10120000302BADD1637E884D01336A7BDBB29342D4
:10121000E94603D1E27E2B7B9A4265D0CD469FE71B
:10122000A38A013BC92B9BD87F4D95F80C80B8F160
:10123000000F26D105F10C030093082243464146D6
:10124000204601F0FFF908F101035FFA88F2D900A6
:101250009846A38A013B9A4205DA0E322A4400924C
:1012600000230822ECE700230022C5E90023002325
:10127000AB6085F8D730C5F8D8302B7B0BB9E37E4F
:101280002B73002507F11C0807F10C0308222946DF
:101290004046C7E903557D6101F016FB3B7C05F133
:1012A0000109AB424FEAC90107D97B6908222B44E7
:1012B000404601F009FB4D46F0E7C1F3CF01E07E67
:1012C000CDE9048100230393A37E029319342823DC
:1012D00001460093019450A3D3E90023304601F066
:1012E00019F9FFF789FD3BE74FF0000807F11C03F0
:1012F000A7F81C801022009341460123204601F0EC
:10130000A1F9A68A023EB6B2F31C9B109B000733DC
:10131000DB08A9EBC3039D460DF1180A1FFA88F3F9
:101320004FEAC801B34201F110010AD20AEB0803E7
:10133000009308220023204601F084F908F10108F7
:10134000ECE795F8D70000F053FBD5F8D83080468D
:101350001BB995F8D70000F05BFBD5F8D8303344C3
:10136000984504D295F8D700013000F051FB4FEAC0
:10137000960B0024D5E90023C7E90023A3B29B45BF
:1013800009D93868A30001220AEB0301184400F0D0
:101390003BFC0134EEE7D7E90001D5F8D8408019CD
:1013A00041F10001C5E90001344495F8D700C5F8C2
:1013B000D84000F01DFB84420AD395F8D7300133A2
:1013C00085F8D730D5F8D830A3EB0803C5F8D83066
:1013D000FF2E164C09D800232B7300F041FB00F0C0
:1013E00031FD208108B9FFF7E5F92B689B0A01332D
:1013F00023810023AB6011E7BFF34F8F0C490D4BE6
:10140000CA6802F4E0621343CB60BFF34F8F00BFA2
:10141000FDE700BFAFF3008026417272DF25D7B72A
:10142000903400208D340020C03400207C24002023
:1014300000ED00E00400FA05014B1870704700BF92
:101440008824002030B54FF00054244B22689A4283
:1014500085B007D003F0D4FB0546A8B9002528467F
:1014600005B030BD1E4B627D1A701E48237D03738C
:10147000C9221D490E3000F095FBE02200212046D4
:1014800000F0BAFB0125EAE7184A194C136C43F047
:1014900000731364A268174B9A42DFD12369013BA2
:1014A0007E2BDBD8144A07CA01AB83E80700184635
:1014B000032100F08BFC636883424FF00003CDD121
:1014C00022688A4201BFA360054B22691A7003BFDC
:1014D0000A4BE2681A601D46C1E700BF9AAD44C5D9
:1014E00088240020C034002016000020003802406C
:1014F000506600405041A0B05866004018230020BC
:101500002DE9FF414C4C00F09DFC02236371002348
:101510000293ADF80C30494B2081D3F800C0BCF5E4
:101520007A7F49D3464B474DB5FBFCF29C458CBFB7
:10153000092310235F1CB2FBF7F607FB16275FFA9F
:1015400083FE1FB1022B37D9013BF3E7721EB2F5C0
:10155000806F31D2C3EBC302D31CDB10D9B2AEEB28
:1015600001000133C0B24FF47A7808FB03F803445A
:10157000B8FBF3F3B3F5617F08D9531EC3F3C7017A
:101580004B1EAEEB01000F2BC0B251D8431E072BF0
:101590008CBF002301230A1802FB0662B5FBF2F59B
:1015A000AC4509D143B10123ADF808608DF80C308A
:1015B0008DF80A108DF80B009DF80B302249234856
:1015C0005A1E9DF80A30013B1B0443EA0253BDF842
:1015D0000820013A13434B6001F02CFF00230193D4
:1015E0001B4B00931B491C4B1C484FF4805200F0CE
:1015F00009FF1B4B197811B1184800F02DFF00F0BE
:10160000CBFB0546FFF7D0FB4FF4C87305F5167505
:10161000B0FBF3F202FB1300124B15FA80F01860D6
:1016200003F0E4FA08B10F23238104B0BDE8F08190
:1016300039463B46AFE700BF7C240020182300203A
:101640003F420F0080DE800210230020EC35002096
:10165000950E00088C2400201111000894340020FD
:1016600088240020903400202DE9F04F96A7D7E978
:1016700000670FF25C29D9E900898F4C93B0DFF83D
:1016800058B2DFF858A2204600F08CFF0CAD07904E
:1016900098B310220021284600F0AEFA079B197B70
:1016A0004FF0000261F3030219468DF8302051F823
:1016B000040F49680EAA03C21B680D9A63F31C024B
:1016C0009DF830300D9243F020038DF83030002328
:1016D0002A461946584601F0BDFE079030B920460B
:1016E00000F064FF079B8AF80030CCE79AF80030DE
:1016F000072B40D801338AF80030182200212846F1
:1017000000F07AFADFF8D0B1DFF8D4A1002319464F
:101710002A46584601F0C6FE014680BB102208A8A2
:1017200000F06AFADAF8143083F08003CAF8143053
:1017300000F034FB0B4612A9024611E903000DF13B
:10174000240C8CE803009DF83410C1F303008906D3
:101750004CBF0E99BDF838108DF82C0046BFC1F370
:101760001C0141F00041C1F30A010891204608A97B
:1017700001F0F6F8CAE7204600F018FFBDE7204662
:1017800000F072FE824600284AD1DFF858B100F01E
:1017900003FBDBF80030984242D300F0FDFA0790DB
:1017A000FFF702FB079A8DF820A04FF4C87302F5EB
:1017B0001672B0FBF3F101FB130012FA80F0CBF8C4
:1017C0000000DFF824B19BF8001011B901238DF857
:1017D000203028460791FFF7FFFA0799C1F1100A58
:1017E0005FFA8AFABAF1060F28BF4FF0060A52468E
:1017F00029440DF1210000F0D5F90AF10103049309
:1018000008AB0393182302932C4B019301230093FD
:1018100032463B46204600F029FE00238BF800307C
:1018200000F0BAFA264ADFF8C4A01368C31AB3F569
:101830007A7F32D3106000F0B1FA02460B462046A0
:1018400000F0BEFE204600F00FFE30B39AF80C30D8
:10185000DFF89CB0002B14BF032302238BF8053064
:1018600000F09AFA4FF47A732946B0FBF3F0CBF804
:1018700000005846FFF752FB182307300293114B24
:101880000193C0F3CF0040F25513CDE9035000930C
:1018900042464B46204600F0E9FD9AF80C3033B141
:1018A000FFF7AAFA9AF80C30002B7FF4E8AE13B0D9
:1018B000BDE8F08FAFF30080943400208C3400201A
:1018C000A0350020A4350020401DA12026812A0B30
:1018D000F1C6A7C1D068080FEC350020A53500205F
:1018E00000080240903400208D340020C0340020D5
:1018F0007C24002070B50F4B0C4619780131C9B219
:10190000012906460FD80C4803681D6A4FF47A7304
:10191000534331462246A847844204D1074B002254
:101920001A70012070BD4FF4FA7002F01FFD002004
:10193000F8E700BF24230020A03C0020E835002069
:1019400007B50023024601210DF107008DF807308D
:10195000FFF7D0FF20B19DF8070003B05DF804FB4E
:101960004FF0FF30F9E700000A4608B50421FFF701
:10197000C1FF80F00100C0B2404208BD30B4054C48
:101980002368DD69044B0A46AC460146204630BC5C
:10199000604700BFA03C0020A086010070B502F0A7
:1019A00095FF094C094E208000253068238883422A
:1019B00008D902F085FF336805440133B5F5803F4F
:1019C0003360F2D370BD00BFEA350020A835002097
:1019D00003F03CB800F1006000F58030006870470B
:1019E00000F10060920000F5803002F0BDBF000001
:1019F000054B1A68054B1B889B1A834202D9104479
:101A000002F05EBF00207047A8350020EA350020B4
:101A100038B5074D04462868204402F059FF28B91C
:101A200028682044BDE8384002F06ABF38BD00BFD6
:101A3000A8350020034610F0030008D1B3F5047F59
:101A400006D203F10053A3F508431868704700203D
:101A500070470000014BC058704700BF107AFF1F4D
:101A6000064991F8243033B100230822086A81F82E
:101A70002430FFF7B5BF0120704700BFAC35002010
:101A8000014B1868704700BF002004E070B52A4B76
:101A90001A68C2F30B03120C63B140F21344A34261
:101AA00031D040F21944A3422FD040F22144A34246
:101AB0002DD10323214C0C2505FB03435D6893F9CD
:101AC000083042F20104A24224D0B2F5805F23D054
:101AD00041F20104A24221D041F20304A2421FD0EC
:101AE00041F20704A24208BF3123441E0C44013DC9
:101AF0000A46A24216D215F9016F501CA6B100F891
:101B0000016C0246F5E70123D4E70223D2E73F2325
:101B10000B4DD6E73323E8E74123E6E75A23E4E712
:101B20005923E2E7104605E02C258442157001D9BF
:101B3000901C5370401A70BD002004E0705F0008D4
:101B4000645F0008022804D1054B4FF400029A613B
:101B500070470128FCD1024B4FF08072F7E700BFBD
:101B600000080240022803D1044B80229A6170478A
:101B70000128FCD1014B4FF48072F7E700080240C6
:101B8000022805D1064A536983F0800353617047E8
:101B90000128FCD1024A536983F48073F6E700BF41
:101BA0000008024010B50023934203D0CC5CC4541B
:101BB0000133F9E710BD000030B5441E14F9010FE0
:101BC0000B4668B193F90050854201F1010107D13C
:101BD000551E1AB993F90020801A30BD2A46EDE748
:101BE000002AF7D11046F8E702460346981A13F97F
:101BF000011B0029FAD1704702440346934202D0E8
:101C000003F8011BFAE770472DE9F047224C16460E
:101C100094F82420074688467ABBDFF87C90C6B348
:101C200094F824302BB92022FF2148462762FFF781
:101C3000E3FF94F82400C0F10805B54228BF3546FB
:101C40005FFA85FAAD0041462A4604EB8000FFF7B3
:101C5000A9FF94F82430A6EB0A069A445FFA8AFAA0
:101C6000BAF1080F2F44A844F6B284F824A0D6D1C4
:101C7000FFF7F6FE0028D2D108E0236A03EB8203C7
:101C80008342CAD0FFF7ECFE0028C6D10020BDE891
:101C9000F0870120FBE700BFAC350020024B1A782B
:101CA000024B1A70704700BFE83500202423002043
:101CB00038B5124D124C284601F064FE21462846E4
:101CC00001F08CFE24680F48626DD2F8043843F0AE
:101CD0000203C2F8043802F049FB0B49204601F028
:101CE00083FF626DD2F8043823F00203C2F804388F
:101CF000064B4FF461421A6038BD00BFA03C002083
:101D00008C60000840420F00B4600008D435002009
:101D10007047000000B59BB0EFF309816822684668
:101D2000FFF740FFEFF30583044B9A6BDA6A9A6A78
:101D30009A6A9A6A9A6A9A6A9B6AFEE700ED00E0DC
:101D400000B59BB0EFF3098168226846FFF72AFFD0
:101D5000EFF30583044B9A6B9A6A9A6A9A6A9A6AB5
:101D60009A6A9B6AFEE700BF00ED00E000B59BB0F9
:101D7000EFF3098168226846FFF714FFEFF305834C
:101D8000034B5A6B9A6A9A6A9A6A9A6A9B6AFEE746
:101D900000ED00E0FEE7000002F098BE02F080BE19
:101DA00030B5094D0A4491420DD011F8013B58401D
:101DB000082340F30004013B2C4013F0FF0384EAA6
:101DC0005000F6D1EFE730BD2083B8ED2DE9F341A7
:101DD0004FF0FF33DFF864E0DFF8648000EB81014F
:101DE0001A46884224D050F8044B01940DF1040C9B
:101DF00004241CF8016B1D4682EA06662B46324617
:101E000008251E46DB1817465241002E77F10006C2
:101E100005DA8EEA030788EA02063B463246013DB0
:101E200015F0FF05EDD1013C14F0FF04E1D1D8E736
:101E3000D843D14302B0BDE8F08100BF9336EAA990
:101E4000EBE1F04273B5374A106851686B4603C343
:101E50006A4608233449354804F04EF8044670B900
:101E6000334A106851686B4603C36A4608233149F8
:101E70002E4804F041F8044630BB0A2022E00369F2
:101E8000B3F5702FECD8418B40F21C429142E7D160
:101E9000294A024402F110018B42E1D3103B23494D
:101EA00000209D1AFFF77CFF2A46064604F1180120
:101EB0000020FFF775FFA3689E42D1D1E3689842E6
:101EC000CED1002002B070BD0369B3F5702F21D8C8
:101ED000B0F8661040F21C4291421DD1164A0244ED
:101EE00002F15C018B4219D35C3B104900209D1A22
:101EF000FFF756FF2A46064604F164010020FFF76B
:101F00004FFFA3689E420BD1E368984214BF0D2097
:101F10000020D7E70B20D5E70C20D3E71020D1E72E
:101F20000D20CFE7445F0008DCFF0E000000010831
:101F30004C5F000890FF0E000800FFF72DE9F04706
:101F4000089E01F007054FEAD60E2A4406F0070660
:101F500000EBD1004FF47F49954201D1BDE8F087F5
:101F600005F0070C06F0070AD44567464FEAD5048A
:101F700038BF5746C7F10807511B0EEBD6088F42F2
:101F8000045D28BF0F4604FA0CF413F8081029FA70
:101F900007FC24FA0AF45FFA8CFC4C404CFA0AFC69
:101FA00004EA0C04614003F808103D443E44D3E7C2
:101FB00030B50A4441F22104914200D130BD11F8FC
:101FC000013B80EA0320082305B24000002D80B2C7
:101FD00003F1FF33B8BF604013F0FF03F4D1EBE728
:101FE0000246006848B103681360D3881189013341
:101FF0009BB29942D38038BF1381704770B588B0C7
:102000000D460446202200216846FFF7F5FD2046D4
:102010000495FFF7E5FF054658B16B46044608AE48
:102020001A4603CAB24220606160134604F10804F4
:10203000F6D1284608B070BD082817D909280CD059
:102040000A280CD00B280CD00C280CD00D280CD052
:102050000E2814BF4020302070470C2070471020FD
:1020600070471420704718207047202070470000E8
:10207000082817D90C280CD910280CD914280CD9E9
:1020800018280CD920280CD930288CBF0F200E20FE
:102090007047092070470A2070470B2070470C20BA
:1020A00070470D20704700002DE9F041056815B913
:1020B0000160BDE8F0814B6823F06047BE0C4FEA39
:1020C000D37EC3F3807816EA230638BF3E46AC467B
:1020D0002A465368BEEBD37F23F060440AD0002B1E
:1020E00017DAA40CB44216D195420ED10D60DFE789
:1020F0001A46EEE7A74203D1C3F3807398450ED189
:10210000A7422CBF0023012309E0CCF800100A608D
:10211000CFE7B44205D0B44294BF00230123002B83
:10212000E2D113689446002BE2D11160C1E70000B0
:1021300010B54B6833B9CA8A63F30902CA8200201A
:10214000002110BDC4681A681C60C360438A013B4B
:1021500043824A60EDE70000F0B54FF6FF730024BC
:1021600041F22107C4F12006A4F1200520FA04F26F
:1021700001FA06F6324321FA05F52A43D2B283EA80
:10218000022308221DB25B00002D9BB202F1FF3238
:10219000B8BF7B4012F0FF02F4D10834402CE1D1EB
:1021A0001846F0BD2DE9F04F85B08146CDE9011309
:1021B000BDF83C509346002A00F08E802DB10E9B56
:1021C000002B00F08980072D31D809F10C00FFF7B2
:1021D00007FF044628B96FF00204204605B0BDE8A9
:1021E000F08F14220021FFF707FD2A460E9904F113
:1021F0000800FFF7D7FC681CC0B2FFF739FFFFF7F4
:102200001BFF20749BF80030013814FA80F003F0B3
:102210001F0363F03F030372019B43F000436360BD
:10222000214609F11C00FFF73FFF0124D5E70027F5
:1022300000F10C034FF080083E463C4603930398A0
:10224000FFF7CEFE82460028C5D014220021FFF7FA
:10225000D3FCC6BB029BAAF8083002200E9B00F1FB
:102260000802991952440130C0B2082801D0AE4288
:102270002BD3FFF7FDFEFFF7DFFE9BF80020019B4D
:10228000411E02F01F0242EA4712AE4208BF4FF061
:1022900040085AFA81F148EA020843F0004281F806
:1022A00008808AF81000CAF80420514609F11C0081
:1022B000FFF7FAFE0134AE4224B287F001074FF077
:1022C0000008BCD189E70020C8E711F801CB02F86B
:1022D00001CB0136B6B2C6E76FF001047DE700001E
:1022E0002DE9F0471D46CB8A8046C3F30900052837
:1022F0000E46914603461DD00021AAB206F11A0CE3
:102300001FFA83FE8CB2BEF1040F274603D8A24207
:1023100003F1010308D894420DD3F38A024462F317
:102320000903F382012018E019F801400CF803407A
:102330000131E5E70027421F1C237468B2FBF3FA62
:1023400003FB1A2A1FFA8AF28CBB4046FFF748FEAD
:10235000044620B970606FF00200BDE8F0870022EB
:1023600002607060ADB24FF0000ABD4227D8F38A18
:10237000C3F30902154465F30903D2E7013189B2B9
:102380001C462368002BF9D16B1F03441C20B3FBB0
:10239000F0F301339BB29942E4D2BAF1000FE1D1DC
:1023A0004046FFF71DFE20B9C4F800A0D3E7012185
:1023B000E7E7C0F800A0524620600446D2E7134683
:1023C00009EB0701201D11F801CB00F803C01FFA2B
:1023D00083FC0137BCF11B0FBFB204D0BD4203F137
:1023E0000103F0D8C1E7BD42BFD94046FFF7F8FD71
:1023F00008B92060AFE7C0F800A0002220600446C2
:10240000B3E70000F8B5044615460E462822002121
:102410001F46FFF7F1FB0022069B2270B5F5001F57
:1024200084F82420636038BF6A09079BA76028BF2F
:102430004FF6FF72236204F10C0097B200239A4218
:1024400005D80023036027826382A382F8BD06605B
:10245000013330462036F2E703781BB94BB2002B2C
:10246000C8BF017070470000007870472DE9F7433E
:102470000D9EBDF828900B9D9DF83040BDF838802A
:1024800007461946104616B9B8F1000F3ED11F2C69
:102490003CD83B78C3B9B8F1070F34D839F00303FF
:1024A00034D1424631464FF6FF70FFF781FD20F0F0
:1024B00001004FEA0923400443EA0464400C44EA63
:1024C00040244FF6FF730DE043EA0923B8F1070FEC
:1024D00043EA0464F5D9FFF73FFE42463146FFF771
:1024E00067FD0346CDE900682A4621463846FFF7D6
:1024F00059FE2B780133DBB21F2B88BF00232B70D2
:1025000003B0BDE8F0836FF00300F9E76FF001005E
:10251000F6E700002DE9F7430E9F0B9D9DF830C0B4
:102520009DF83480BDF83C60814607B99EBBBCF184
:102530001F0F30D899F8000080B30C0244EA0C64F5
:102540009DF8281044EAC83444EA01440443072EA5
:1025500044F080041CD919461046FFF7FDFD3246B1
:102560003946FFF725FD0346CDE900762A46214688
:102570004846FFF717FEB8F1010F06D12B7801335B
:10258000DBB21F2B88BF00232B7003B0BDE8F083A4
:102590004FF6FF73E8E76FF00100F6E76FF0030016
:1025A000F3E70000C06900B104307047C3691A68DE
:1025B000C261C2681A60C360438A013B43827047AC
:1025C0002DE9F74F9B468369DFF8748005469246F4
:1025D0001C464FF0000914B903B0BDE8F08FD4E9F0
:1025E0000221BAEB02066BEB0107B94508BFB04503
:1025F00022D2AA69A2420FD121462846FFF798FDB0
:10260000AB691B68AB61EB6823606B8AEC60AC69FB
:10261000013B6B822346DEE7214628460193FFF704
:1026200087FD019B22681A60EA6822606A8AEC6072
:10263000013A6A821C68CEE723462468CBE700BFD4
:1026400080841E002DE9F04F8BB00E461446039394
:10265000DDF850808246002800F01E81B8F1000F9E
:1026600000F01A81531E3F2B00F21681012A03D17C
:10267000039B002B40F01081BAF81450ED000023AA
:10268000AE42CDE9083303D300200BB0BDE8F08F94
:1026900033199D42DAF80C303ABFAD1BEDB2254636
:1026A0001BB9DAF81030002B7AD0272E4ED8C6F19D
:1026B0002807BD424FF000032CBFFFB22F46009306
:1026C000314608AB3A46DAF80800FFF737FCA5EBCD
:1026D00007093E445FFA89F9BAF8143003F1005350
:1026E000053BDB000593DAF80C3004932821049BAA
:1026F00013B1B9F1000F2CD1DAF8100040B1B9F1E3
:10270000000F05D0009708AB4A46711AFFF716FC78
:1027100028B2002DB8D065070AD00AAB03EBD4016C
:10272000624211F8083C02F00702134101F8083C2C
:10273000082C3CD9102C40F2BC80202C40F2BE80EA
:10274000039B002B00F0A380082333E0A946002759
:10275000C2E7059BE02B28BFE02307930B44B3425D
:10276000069314D99B1B9945049800972CBF5FFAD8
:1027700083FBCB46711A08AB5A460430FFF7DEFBE9
:102780005F44A9EB0B095E44FFB25FFA89F9059B30
:10279000079A06999B1A0593049B1B680493A6E766
:1027A00000932A4608AB3146DAF80800AEE7039BEF
:1027B0009BB10123B4EBC30F74D0082C12D89DF841
:1027C0002030621E23FA02F2D10706D54FF0FF3205
:1027D00002FA04F423438DF820309DF8203088F865
:1027E000003052E7102C12D8BDF82030621E23FAB8
:1027F00002F2D20706D54FF0FF3202FA04F4234367
:10280000ADF82030BDF82030A8F800303DE7202C8E
:102810000FD8089A631E22FA03F3DB0705D54FF0A1
:10282000FF3303FA04F414430894089BC8F80030FB
:102830002BE7402C33D0DDE90851631EC3F120069D
:1028400001FA06F6A4F1210225FA03F3334321FA33
:1028500002F213434FF0010C4FF0000E03EA0C0696
:10286000774656EA070312D0A4F12007C4F12006E8
:102870000CFA07F32CFA06F60CFA04F2524243EA79
:10288000060363EB430315431943CDE90851DDE922
:102890000823C8E90023F8E66FF00100F5E66FF0C1
:1028A0000800F2E6082C98D9102CABD9202CEED8D1
:1028B000BBE7039B002BA5D002237BE7039B002BE8
:1028C000B3D0042376E7000030B5402A85B016D88F
:1028D000002A08BF01220024012ACDE9024410D1B8
:1028E0001B788DF8083004AB03EBD205544215F881
:1028F000083C04F00704A34005F8083C08E0402227
:10290000E9E7082A0CD81B788DF808305307EAD17C
:1029100000910346002102A8FFF710FB05B030BD6F
:10292000102A03D81B88ADF80830EFE7202A8DBFA6
:10293000D3E900451B680293CDE90245E6E70000B4
:1029400010B5CB681BB98B600B618B8210BDC4685E
:102950001A681C60C360438A013B4382CA60F0E787
:102960002DE9F04F97B00D4604930B68C3F3C011E7
:102970000446934600294BD0C3F3C03AC3F306265E
:10298000002B80F2078213F0C042059240F00282D1
:102990002A7B002A00F0FE81BAF1020F03D02078D2
:1029A000B04240F0FA81C3F304600B9003F07F0063
:1029B0000A9089B3C3F307492A440A9B92F803801B
:1029C000760646EA0A4646EA834600220023CDE917
:1029D0000C235FEAD81346EA090603937AD00A9BD0
:1029E0000093676853464A460CA92046B84700281A
:1029F00000F0D681A769B7B9314604F10C00FFF7A2
:102A0000FDFA0746F8B96FF0020017B0BDE8F08F85
:102A10004FF0020A0E46B3E7C3F30F295B0608BF67
:102A200009F00309C8E73B699E420DD03F68002FBB
:102A3000F9D1314604F10C00FFF7E0FA074600280F
:102A4000E1D0A3693B60A761D7E90223F97D08F0D3
:102A50001F06CDE90823C1F38401B3B2CA1A92B2AA
:102A60000FFA82FE5B1A9BB2BEF1000F0FFA83FCD5
:102A7000BCBF20320FFA82FEBCF1000FBCBF203376
:102A80000FFA83FCDDE9082313433DD0089B099A24
:102A9000BBEB03030693049B63EB02030793DDE99F
:102AA0000601A94A00238B4208BF82422CD36A7BCD
:102AB000BB7E9A4218D1039B002B7CD0BEF1010F44
:102AC00022DCDDE90601A14A00238B4208BF8242D5
:102AD00017D336E0A76917B96FF00C0095E73B698B
:102AE0009E42B1D03F68F6E7DDE90601974A002330
:102AF0008B4208BF824201D3002086E7039B002B54
:102B0000FAD0BCF10F0F15DCFB7D68F386036FF381
:102B1000C713FB7539462046FFF70AFB6B7BBB7674
:102B2000039B3BB9FB7DC3F38402013262F386034E
:102B3000FB75D1E76A7BBB7E9A42DDD1039B002BFC
:102B400039D04FEA9813022B35D0049BFB60142236
:102B50000021C7F808B011A8FFF74EF8049B0F93A7
:102B60002B1D10932B7BCDF838B0013BDBB2ADF8B9
:102B70004C300B9B8DF852300A9B8DF8533094F8F3
:102B80002430ADF84E9083F001038DF854308DF869
:102B900050A0A3688DF851600EA920469847FB7D90
:102BA000C3F38402013262F38603FB75FB8A03F4EC
:102BB000F843FB82A0E7FB7DC8F34012B2EBD31FC2
:102BC00040F0F180C3F38403B34240F0EF800399F7
:102BD0002B7B4FEA981200293BD0022A4BD1032BC2
:102BE00040F2E780049BC7F808B0FB602B7BAE1D6A
:102BF000033BDBB23246394604F10C00FFF770FBB1
:102C0000002810DA39462046FFF792FAFB7DC3F31D
:102C10008402013262F38603FB75FB8A03F4F843F6
:102C2000FB820320F1E6AB883B83DDE90C01FFF773
:102C300093FAB8822A7B033AD2B23146FFF7B8F949
:102C4000FB7DB882DA43C2F3C01262F3C713FB758F
:102C500052E782B92E1D013BDBB23246394604F100
:102C60000C00FFF73DFB0028CCDB2A7BB88A013A39
:102C7000D2B23146E2E7F98AC1F30901013B0429E6
:102C8000DAB25CD8281D002307F11B0C9A4208D940
:102C900010F801EB0CF801E0013101330529DBB23A
:102CA000F4D104990F91934207F11B01CDF838B08C
:102CB000109138BF04337968119134BF5B19002338
:102CC0001293FB8AADF84E90C3F309031A440B9B91
:102CD0008DF852300A9B8DF8533094F82430ADF8BB
:102CE0004C2083F001038DF8543000238DF850A060
:102CF0008DF851607B602A7BB88A013A291DFFF765
:102D000057F93B8BB882834203D1A3680EA92046B2
:102D1000984720460EA9FFF713FEFB7DB88AC3F340
:102D20008402013262F38603FB75FB8A03F4F843E5
:102D3000FB823B8B984214BF1120002065E67B6824
:102D4000002BAED0052005E080841E0040420F001D
:102D50001C306346D3F800C0BCF1000FF8D1091A4B
:102D6000081DC31805F1040E039305989DF814C0BF
:102D700001EB0008B8F11B0F634692D8624590D969
:102D800003981EF8013B00F8013B059B03900133BB
:102D90000593EAE76FF0090037E66FF00A0034E6C2
:102DA0006FF00B0031E66FF00D002EE66FF00E00B5
:102DB0002BE66FF00F0028E6404BF0B51C6C404E40
:102DC00044F000741C641C6E44F000741C661B6E9E
:102DD0003C4B9B6AD3F80052354045F00105C3F8DF
:102DE0000052D3F80042344044EA002040F0010091
:102DF000C3F80002002952D00020C3F81C02054687
:102E0000C3F80402C3F80C02C3F8140203EBC004B5
:102E100001301C28C4F84052C4F84452F6D10025B1
:102E20004FF0010C96781488F70748BFD3F8047266
:102E30000CFA04F044BF0743C3F80472B70742BF5B
:102E4000D3F80C720743C3F80C72760742BFD3F86D
:102E500014620643C3F8146203EBC4045668C4F852
:102E600040629668C4F84462D3F81C42013520439E
:102E7000A942C3F81C0202F10C02D3D1D3F80022FC
:102E800022F00102C3F800220C4B1A6C22F00072EF
:102E90001A641A6E22F000721A661B6EF0BD0122CF
:102EA000C3F84012C3F84412C3F80412C3F8141252
:102EB000C3F80C22C3F81C22E0E700BF0038024030
:102EC0000000FFFFEC350020184A916A08B58B68B6
:102ED0008B6013F0010104D013F00C0F18BF4FF4F6
:102EE0008031D80506D513F4406F14BF41F400318A
:102EF00041F00201D80306D513F4402F14BF41F46A
:102F0000802141F00401D3690BB108489847202380
:102F100083F311880021064801F050FA002383F35F
:102F20001188BDE8084001F0A9BE00BFEC350020C3
:102F3000F435002038B5124CA36ADD68AA0712D018
:102F40005A6922F002025A61A36913B10121204695
:102F50009847202383F3118800210A4801F02EFAB4
:102F6000002383F31188EB0606D5A36A1021D960EC
:102F7000236A0BB102489847BDE8384001F07EBE95
:102F8000EC350020FC35002038B5124CA36A1D69D1
:102F9000AA0712D05A6922F010025A61A36913B12C
:102FA000022120469847202383F3118800210A48F4
:102FB00001F004FA002383F31188EB0606D5A36A17
:102FC00010211961236A0BB102489847BDE83840C7
:102FD00001F054BEEC350020FC35002038B50F4C14
:102FE000A36A5D685D602A070AD5042222701A6808
:102FF00022F002021A60636A13B10021204698474A
:103000006B0706D5A36A9969236A13B109040348BB
:103010009847BDE8384001F031BE00BFEC350020D4
:1030200010B50E4C204600F0F3F90D4BA3620B21B6
:10303000132000F0D5F90B21142000F0D1F90B2159
:10304000152000F0CDF90B21162000F0C9F900225F
:1030500011460E20BDE81040FFF7AEBEEC35002053
:1030600000640040114B984210B5044609D1104B42
:103070001A6C42F000721A641A6E42F000721A66FC
:103080001B6EA36A01221A60A36A5A68D20707D589
:10309000626851681268D9611A60064A5A6110BDA7
:1030A0000121082001F076F8EEE700BFEC350020A2
:1030B000003802405B87010003291AD8DFE801F0DD
:1030C000020A0F14836A9B6813F0E05F14BF0120AB
:1030D00000207047836A9868C0F380607047836AF5
:1030E0009868C0F3C0607047836A9868C0F3007046
:1030F000704700207047000010B5032925D8DFE88D
:1031000001F00225292D836A9968C1F30161183104
:1031100003EB0113107884064CBF54689488C0F305
:1031200000114FEA410148BF41EAC40100F00F001D
:103130004CBF41F0040141EA4451586041F00101A3
:103140009068D2689860DA60196010BD836A03F5F0
:10315000C073DFE7836A03F5C873DBE7836A03F5AF
:10316000D073D7E701290CD019B1022910D0002063
:103170007047836ADA68920701D1186903E0012079
:103180007047836AD86810F0030018BF01207047A9
:10319000836AF2E710B539B9836AD96889071BD108
:1031A0001B699B0704D110BD012915D00229FAD152
:1031B000816AD1F8C031D1F8C401D1F8C841146195
:1031C000D1F8CC41546120240C610C69A40717D1BB
:1031D0004C6944F0100412E0816AD1F8B031D1F8A2
:1031E000B401D1F8B8411461D1F8BC415461202434
:1031F000CC60CC68A40703D14C6944F002044C6154
:1032000011795C0864F304119C0864F34511117191
:1032100089064BBF91681189DB085B0D4CBF63F3D6
:103220001C0163F30A01137948BF916060F3030343
:1032300013714FEA10234FEA104058BF11811370E9
:103240005080B0E7026843681143016003B118473A
:1032500070470000024AD36843F0C003D360704750
:1032600000480040024AD36843F0C003D36070476F
:10327000004C00402DE9F041D0F85C62F7683368FB
:10328000DA0505469CB20DD5202383F311884FF44F
:1032900000710430FFF7D6FF6FF4807333600023B2
:1032A00083F31188202383F3118805F1040814F0B7
:1032B0002F033AD183F31188380615D5210613D58B
:1032C000202383F3118805F1380000F025FA002847
:1032D0004DDA0821281DFFF7B5FF4FF67F733B40FD
:1032E000F360002383F311887A0616D5630614D59C
:1032F000202383F31188D5E913239A420AD12B6C3A
:1033000043B127F040073F041021281D3F0CFFF771
:1033100099FFF760002383F31188D5F86422D368FE
:103320003BB31069BDE8F0411847230713D014F0F0
:10333000080F0CBF00218021E00748BF41F02001A9
:10334000A20748BF41F04001630748BF41F48071C4
:103350004046FFF777FFA406736805D595F860121D
:103360002846194000F07AFA3468A4B29FE77060EA
:10337000B7E7BDE8F081000008B50348FFF77AFF22
:10338000BDE8084001F07ABC1836002008B50348B3
:10339000FFF770FFBDE8084001F070BC80380020E6
:1033A00010B5094C094A2046002100F035FA084BB7
:1033B000C4F85C32074C084A0021204600F02CFA81
:1033C000064BC4F85C3210BD183600205532000898
:1033D000004800408038002065320008004C004062
:1033E00000F1604300F01F02400903F56143090149
:1033F0008000C9B200F1604083F8001300F561401D
:1034000001239340C0F8803103607047FFF708BE86
:10341000012300F108020370C0E90222002300F139
:1034200010024360C0E90422C0E90633C0E9083352
:103430007047000010B52023044683F3118802234F
:1034400003704160FFF70EFE04232370002383F313
:10345000118810BD2DE9F0411F4604460D46164661
:10346000202383F3118800F108082378052B0DD061
:1034700029462046FFF720FE40B120463246294625
:10348000FFF73AFE002080F3118808E039464046F5
:1034900000F078FF0028E8D0002383F31188BDE80E
:1034A000F08100002DE9F0411F4604460D46164606
:1034B000202383F3118800F110082378052B0DD009
:1034C00029462046FFF74EFE40B1204632462946A7
:1034D000FFF760FE002080F3118808E0394640467F
:1034E00000F050FF0028E8D0002383F31188BDE8E6
:1034F000F0810000F8B5154682680669AA420B46BD
:10350000816938BF8568761AB542044607D21846E5
:103510002A46FEF747FBA3692B44A3610DE011D9AE
:1035200032461846FEF73EFBAF1B3A46E168304490
:10353000FEF738FBE2683A44A261A3685B1BA36014
:103540002846F8BD18462A46FEF72CFBE368E4E758
:10355000836893422DE9F0411546044638BF8568DB
:10356000D0E90460361AB5420F4606D22A46FEF765
:1035700019FB63692B4463610DE012D93246A5EB58
:103580000608FEF70FFB4246B919E068FEF70AFB92
:10359000E26842446261A3685B1BA3602846BDE801
:1035A000F0812A46FEF7FEFAE368E4E710B50A4424
:1035B0000024C361029B8460C0E90000C160C0E9CF
:1035C00005110261036210BD08B5D0E905329342CE
:1035D00001D1826882B98268013282605A1C4261DC
:1035E0001970D0E904329A4224BFC36843610021B4
:1035F00000F0D8FE002008BD4FF0FF30FBE70000D0
:1036000070B5202304460E4683F31188A568A5B142
:10361000A368A269013BA360531CA36115782269CA
:10362000934224BFE368A361E3690BB12046984746
:10363000002383F31188284607E03146204600F036
:10364000A1FE0028E2DA85F3118870BD2DE9F74F5D
:1036500005460F4690469A46D0F81C90202686F3E1
:1036600011884FF0000B144664B1224639462846B3
:10367000FFF740FF034668B95146284600F082FE36
:103680000028F1D0002383F31188A8EB040003B0D5
:10369000BDE8F08FB9F1000F03D001902846C8476C
:1036A000019B8BF31188E41A1F4486F31188DBE732
:1036B000C160C0E90511C3611144009B8260C0E98B
:1036C0000000016103627047F8B504460E461746D4
:1036D000202383F31188A568A5B1A368013BA360EB
:1036E00063695A1C62611E70D4E904329A4224BF95
:1036F000E3686361E3690BB120469847002080F3DB
:10370000118807E03946204600F03CFE0028E2DA46
:1037100085F31188F8BD0000D0E905239A4210B561
:1037200001D182687AB98268013282605A1C826152
:103730001C7803699A4224BFC3688361002100F0AA
:1037400031FE204610BD4FF0FF30FBE72DE9F74F6B
:1037500005460F4690469A46D0F81C90202686F3E0
:1037600011884FF0000B144664B1224639462846B2
:10377000FFF7EEFE034668B95146284600F002FE08
:103780000028F1D0002383F31188A8EB040003B0D4
:10379000BDE8F08FB9F1000F03D001902846C8476B
:1037A000019B8BF31188E41A1F4486F31188DBE731
:1037B000026843681143016003B118477047000075
:1037C0001430FFF743BF00004FF0FF331430FFF712
:1037D0003DBF00003830FFF7B9BF00004FF0FF33A6
:1037E0003830FFF7B3BF00001430FFF709BF000007
:1037F0004FF0FF311430FFF703BF00003830FFF700
:1038000063BF00004FF0FF323830FFF75DBF0000AC
:1038100000207047FFF7C4BD37B50F4B036000238E
:103820004360C0E902330123044603741546009047
:103830000B464FF4807200F15C011430FFF7B6FEC6
:1038400000942B464FF4807204F5AE7104F13800F9
:10385000FFF72EFF03B030BDC05F000838B5C36965
:1038600004460D461BB904210844FFF7A1FF294671
:1038700004F11400FFF7A8FE002806DA201D4FF41B
:103880008061BDE83840FFF793BF38BD02684368E8
:103890001143016003B118477047000013B5446B32
:1038A000D4F894341A681178042915D1217C02299E
:1038B00012D11979128901238B4013420CD101A92D
:1038C00004F14C0001F088FFD4F89444019B217965
:1038D0000246206800F0D0F902B010BD143001F0AB
:1038E0000BBF00004FF0FF33143001F005BF0000A4
:1038F0004C3001F0DDBF00004FF0FF334C3001F0E1
:10390000D7BF0000143001F0D9BE00004FF0FF31E6
:10391000143001F0D3BE00004C3001F0A9BF00000C
:103920004FF0FF324C3001F0A3BF0000D0F89424D8
:1039300038B5136819780429054601D0012038BD2F
:10394000017C0229FAD152795C890120904004401F
:10395000F4D105F1140001F06BFE02460028EDD011
:10396000D5F894544FF480732868697900F072F99F
:103970002046E4E7406BFFF7D9BF00000020704706
:10398000704700007FB5124B036000234360C0E91D
:103990000233012502260F4B057404460290019361
:1039A00000F18402294600964FF48073143001F030
:1039B0001BFE094B0294CDE9006304F523724FF41A
:1039C0008073294604F14C0001F0E2FE04B070BDA2
:1039D000E85F0008753900089D3800080B68202250
:1039E00082F311880A7903EB820290614A790932E5
:1039F00043F822008A7912B103EB82039861022313
:103A00000374C0F89414002383F3118870470000F6
:103A100038B5037F044613B190F85430ABB9201D7C
:103A200001250221FFF732FF04F1140025776FF022
:103A3000010100F0C3FC84F8545004F14C006FF015
:103A40000101BDE8384000F0B9BC38BD10B5012116
:103A500004460430FFF71AFF0023237784F854301C
:103A600010BD000038B504460025143001F0D4FD27
:103A700004F14C00257701F0A3FE201D84F854507A
:103A80000121FFF703FF2046BDE83840FFF74EBF96
:103A900090F8443003F06003202B09D190F84530B2
:103AA000202B05D3212B05D9222B4FF0000309D061
:103AB00000207047054B83630723C363002303641F
:103AC00001207047C0E90E33F9E700BF252300202D
:103AD000D0F8943437B51A681178042904461AD1FD
:103AE000017C022917D11979128901238B401342D5
:103AF00011D100F14C05284601F022FF58B101A96F
:103B0000284601F069FED4F89444019B21790246CD
:103B1000206800F0B1F803B030BD000000EB810375
:103B2000F7B59C6905460E46F4B1202383F311884E
:103B300005EB8607201D0821FFF7A8FEFB685B69DF
:103B40001B684C3413B1204601F054FE01A92046F5
:103B500001F042FE024648B1019B3146284600F082
:103B60008BF8002383F3118803B0F0BDFB685A691A
:103B70001268002AF5D01B8A013B1340F1D105F1F0
:103B80004402EAE7093138B550F82140DCB120237E
:103B900083F31188D4F894241368527903EB8203D9
:103BA000DB689B695D6845B104216018FFF76EFE14
:103BB000294604F1140001F045FD2046FFF7B6FE4A
:103BC000002383F3118838BD7047000001F016B957
:103BD000012303700023C36183620362C3624362F3
:103BE0000363C0E90133704738B50446202383F3EB
:103BF000118800254160C0E90355C0E9055501F071
:103C00000DF90223237085F3118838BD70B500EBE0
:103C1000810305465069DA600E46144618B1102239
:103C20000021FDF7E9FFA06918B110220021FDF77E
:103C3000E3FF31462846BDE8704001F0B9B9000005
:103C4000826802F0011282600022C0E904228261CF
:103C500001F02CBAF0B400EB81044789E468012537
:103C6000A4698D403D43458123600023A2606360C9
:103C7000F0BC01F047BA0000F0B400EB8104078902
:103C8000E468012564698D403D430581236000237C
:103C9000A2606360F0BC01F0C1BA000070B50223FD
:103CA000002504460370C564C0E90255C0E9045507
:103CB000856180F8345001F017F963681B6823B1FF
:103CC00029462046BDE87040184770BD037880F84B
:103CD00050300523037043681B6810B504460BB1D0
:103CE000042198470023A36010BD0000436890F8AA
:103CF00050201B6802700BB1052118477047000067
:103D000090F8343070B5044613B1002380F8343095
:103D100004F14402204601F0EBF963689B68B3B9F3
:103D200094F8443013F0600539D00021204601F0AA
:103D30003DFC0021204601F02FFC63681B6813B195
:103D4000062120469847062384F8343070BD20466B
:103D500098470028E4D094F84B2094F84A3043EA7E
:103D60000223E26B9A4288BFE36394F94430E56B27
:103D7000002B4FF0200380F20B81002D00F0FA8021
:103D8000092284F8342083F311880021D4E90E231A
:103D90002046FFF771FF002383F31188D6E794F8DC
:103DA000452003F07F0343EA022340F202329342AC
:103DB00000F0CC8025D8022B00F0A08009D8002B81
:103DC00051D0012BB1D17F4BA3630223E3630023C6
:103DD0004EE0B3F5817F00F0A680B3F5407F49D077
:103DE000B3F5807FA1D194F84630012B9DD1B4F872
:103DF0004C3023F00203C4E90E55A4F84C3025647E
:103E0000A9E740F2016293421DD8B3F5C06F3BD2DF
:103E1000B3F5A06F89D1B4F84430B3F5A06F0ED1DB
:103E200094F8463084F84E30204601F0B5F86368C7
:103E30001B6813B1012120469847032323700023F8
:103E4000C4E90E3314E0B3F5106F33D040F60242EC
:103E50009342B8D0B3F5006F7FF467AF04F14F031E
:103E6000A363012324E004F14C02A2630222E26373
:103E7000236470E794F84630012B7FF456AFB4F812
:103E80004C3043F00203B6E794F84920616894F897
:103E900048304E6894F8471043EA0223204694F8CD
:103EA0004620B04700283FF440AF4368A36303684F
:103EB000E363A4E72378042B10D1202383F3118834
:103EC0002046FFF7BDFE85F31188636884F84F50E4
:103ED0001B68032121700BB12046984794F84630A7
:103EE000002BACD084F84F300423237063681B6828
:103EF000002BA4D0022120469847A0E794F8483030
:103F00001D0603F00F0120460AD501F0E3F8012851
:103F100004D002287FF409AF2B4B55E72B4B53E716
:103F200001F0CAF8F3E794F84630002B7FF4FDAEB9
:103F300094F8483013F00F0181D01A06204602D5BC
:103F400001F048FB7BE701F03BFB78E794F8463053
:103F5000002B7FF4EAAE94F8483013F00F013FF4E1
:103F60006EAF1B06204602D501F020FB67E701F08B
:103F700013FB64E7142284F8342083F311882B4662
:103F80002A4629462046FFF765FE85F31188DDE6BF
:103F90005DB1152284F8342083F311880021D4E91F
:103FA0000E232046FFF756FEF5E60B2284F8342058
:103FB00083F311882B462A4629462046FFF75CFEEC
:103FC000E3E700BF186000081060000814600008F4
:103FD00038B590F834300446152B39D8DFE803F0B3
:103FE0003E38383838383E38380B29393838383880
:103FF000383838383E3E90F84B1090F84A20C36B62
:1040000042EA0122934214D2C268128AB3FBF2F54B
:1040100002FB15356DB9202383F311882B462A4600
:104020002946FFF729FE85F311880A2384F83430E6
:104030000EE0142384F83430202383F31188002306
:104040001A4619462046FFF705FE002383F3118820
:1040500038BD036C03B198470023E7E7002101F066
:10406000A5FA0021204601F097FA63681B6813B196
:104070000621204698470623D8E7000090F8342010
:10408000152A38B5044617D80123934040F64162FB
:1040900013421ED113F480150FD19B020CD50B23B4
:1040A00080F83430202383F311882B462A46294692
:1040B000FFF7E2FD85F3118838BDC3689B695B6833
:1040C000002BF9D1036C03B19847002384F83430F6
:1040D000F2E7002101F06AFA0021204601F05CFAC3
:1040E00063681B6813B10621204698470623EDE755
:1040F000024B0022C3E900339A607047E83A00207F
:10410000002303748268054B1B6899689142FBD2B7
:104110005A6803604260106058607047E83A0020B7
:1041200008B5202383F31188037C032B05D0042BCF
:104130000DD02BB983F3118808BD436900221A60A2
:104140004FF0FF334361FFF7DBFF0023F2E7D0E9D5
:10415000003213605A60F3E7002303748268054B52
:104160001B6899689142FBD85A68036042601060EE
:1041700058607047E83A0020054B196908741868C0
:1041800002681A605360186101230374FCF740BA97
:10419000E83A002030B54B1C87B005460A4C10D0D9
:1041A00023690A4A01A800F025F92846FFF7E4FF31
:1041B000049B13B101A800F05BF92369586907B0AB
:1041C00030BDFFF7D9FFF8E7E83A002021410008A9
:1041D00038B50C4D41612B6981689A68914204465B
:1041E00003D8BDE83840FFF78BBF1846FFF7B4FF90
:1041F00001232C61014623742046BDE83840FCF7BA
:1042000007BA00BFE83A0020044B1A681B6990689F
:104210009B68984294BF002001207047E83A002034
:1042200010B5084C236820691A6822605460012286
:1042300023611A74FFF790FF01462069BDE8104022
:10424000FCF7E6B9E83A002008B5FFF7DDFF18B142
:10425000BDE80840FFF7E4BF08BD0000FFF7E0BF7E
:10426000FEE7000010B50C4CFFF742FF00F0B4F879
:1042700080220A49204600F03BF8012344F8180C3C
:10428000037400F0D7FC002383F3118862B604485E
:10429000BDE8104000F04CB8103B00201C60000846
:1042A0002460000800F020B9EFF3118020B9EFF38B
:1042B0000583202282F311887047000010B530B9C1
:1042C000EFF30584C4F3080414B180F3118810BD22
:1042D000FFF7BAFF84F31188F9E70000034B596830
:1042E0005A68521A9042FBD8704700BF001000E095
:1042F00082600222028270478368A3F17C0243F845
:104300000C2C026943F83C2C426943F8382C074ACC
:1043100043F81C2CC26843F8102C022203F8082C26
:10432000002203F8072CA3F11800704729060008A3
:1043300010B5202383F31188FFF7DEFF0021044628
:10434000FFF746FF002383F31188204610BD0000CD
:10435000024B1B6958610F20FFF70EBFE83A00209F
:10436000202383F31188FFF7F3BF000008B501464F
:10437000202383F311880820FFF70CFF002383F329
:10438000118808BD49B1064B42681B6918605A6024
:10439000136043600420FFF7FDBE4FF0FF3070470D
:1043A000E83A00200368984206D01A68026050601C
:1043B00059611846FFF7A4BE7047000038B504469F
:1043C0000D462068844200D138BD036823605C60DC
:1043D0004561FFF795FEF4E7054B03F11402C3E9CD
:1043E00005224FF0FF310022C3E90712704700BFDA
:1043F000E83A0020F8B5C0E903230E46054601F06F
:10440000D1FA1A4B19461F4651F8142F8A420DD182
:104410001862C5E901262A600A2E2CBF80190A30CD
:10442000C3E90555BDE8F84001F0AABA1B6A9268D5
:10443000C41A341928BF3446A24202D9181901F00F
:10444000ADFA7B699A6894420CD8AC6099685A6856
:104450002B60091B6A6015605D6099604FF0FF3347
:10446000FB61F8BDA41A1B68ECE700BFE83A002026
:1044700038B51C4B5A6990421D460DD0D0E9002139
:104480000A6051600021C1609168806801449160B8
:104490004FF0FF32DA6138BD1A46016842F8141F46
:1044A0004A605B6900219342C16003D1BDE8384096
:1044B00001F06EBA9A6881680A449A602C6A01F029
:1044C00071FA6B699B68021B9342E4D91C44241A5D
:1044D000092C286A98BF02F10A031844BDE8384045
:1044E00001F05CBAE83A00202DE9F041184C0027B1
:1044F00004F11406656901F055FA236AAA68C11A25
:104500008A4215D813442362D5E9003213605A60F9
:104510006369D5F80C80EF60B34201D101F038FA3D
:1045200087F311882869C047202383F31188E1E7C6
:104530006169B14209D013441B1A0A2B2CBFC01861
:104540000A30BDE8F04101F029BABDE8F08100BFB2
:10455000E83A002000207047FEE7000070470000A6
:104560004FF0FF307047000002290CD0032904D01F
:104570000129074818BF00207047032A05D80548BD
:1045800000EBC2007047044870470020704700BF2E
:104590001061000834230020C460000870B59AB090
:1045A00001AD064608462946144600F0BDF82846E7
:1045B000FDF71AFBC1B2013040000323C6E9000435
:1045C00063700023207002341846DAB2914204F17D
:1045D000020401D81AB070BDEA5C04F8022C04F899
:1045E000010C0133F1E7000008B5202383F31188A3
:1045F0000348FFF76DFA002383F3118808BD00BF5D
:10460000A03C002090F8443003F01F02012A07D19B
:1046100090F845200B2A03D10023C0E90E3314E0A3
:1046200003F06003202B0AD1B0F848303BB990F872
:104630004520202A03D3212A03D9222AEDD0FFF7CF
:1046400027BA034A82630722C263036401207047CA
:104650002C23002010B50446052916D8DFE801F008
:1046600016150316161D202383F311880E4A012107
:10467000FFF7CCFA20460D4A0221FFF7C7FA0C4893
:10468000FFF7F0F9002383F3118810BD202383F393
:1046900011880748FFF7BCF9F4E7202383F311885A
:1046A0000348FFF7D3F9EDE74460000868600008AD
:1046B000A03C002038B50C4D0C4C0D492A4604F1A5
:1046C0000800FFF76BFF05F1CA0204F11000094969
:1046D000FFF764FF05F5CA7204F118000649BDE84A
:1046E0003840FFF75BBF00BF684100203423002043
:1046F000946000089E600008A960000870B5044638
:1047000008460D46FDF770FAC6B22046013403781C
:104710000BB9184670BD32462946FDF74DFA002800
:10472000F3D10120F6E700002DE9F84F05460C46CD
:10473000FDF75AFA2B49C6B22846FFF7DFFF08B14A
:104740000536F6B228492846FFF7D8FF08B11036DB
:10475000F6B2632E0DD8DFF88C80DFF88C90234FF3
:10476000DFF890A0DFF890B02E7846B92670BDE84B
:10477000F88F29462046BDE8F84F01F0D7BB252E1B
:104780002BD1072241462846FDF716FA58B9DBF827
:1047900000302360DBF804306360DBF80830A3608E
:1047A00007350C34E0E7082249462846FDF704FAAD
:1047B00098B90F4BA21C197809090232C95D02F899
:1047C000041C13F8011B01F00F015345C95D02F8E9
:1047D000031CF0D118340835C6E7013504F8016B25
:1047E000C2E700BF30610008A96000084561000809
:1047F000107AFF1F1C7AFF1F38610008BFF34F8F2C
:10480000024AD368DB03FCD4704700BF003C02407F
:1048100008B5094B1B7873B9FFF7F0FF074B1A690E
:10482000002ABFBF064A5A6002F188325A601A68ED
:1048300022F480621A6008BDC6430020003C02409A
:104840002301674508B50B4B1B7893B9FFF7D6FFDB
:10485000094B1A6942F000421A611A6842F4805208
:104860001A601A6822F480521A601A6842F4806250
:104870001A6008BDC6430020003C02400B28F0B57A
:1048800016D80C4A0C4C117879B90C4D26460C23DD
:104890004FF0006155F8047B46F8041B013B13F010
:1048A000FF033944F6D10123137054F82000F0BD02
:1048B0000020FCE7F8430020C843002058610008AE
:1048C000014B53F820007047586100080C207047D6
:1048D0000B2810B5044601D9002010BDFFF7CEFF0C
:1048E000064B53F824301844C21A0BB90120F4E7E0
:1048F00012680132F0D1043BF6E700BF58610008AE
:104900000B2838B5044628D8FFF7CEFC0546FFF73C
:1049100075FFFFF77DFF124AF323D360E300DBB29C
:1049200043F4007343F002031361136943F48033CB
:104930001361FFF763FF2046FFF7A0FF094B53F811
:10494000241000F01DF9FFF77DFF2846FFF7B6FCA5
:104950002046BDE83840FFF7BBBF002038BD00BF90
:10496000003C0240586100082DE9F041064612F073
:1049700001000F46144648D1B318B3F1016F28D88F
:10498000304B186810F0010023D02F4DFFF78CFC3E
:10499000FFF73EFFF323EB60FFF730FF40F2012803
:1049A0003946032C01D9B30715D024F00104264F52
:1049B0000C44761A40F20118A14206EB01053B694E
:1049C00028D123F001033B61FFF73CFFFFF776FCA2
:1049D0000120BDE8F0812B6923F440732B612B6922
:1049E00043EA08032B6151F8047B3760BFF34F8F14
:1049F000FFF704FF33689F4209D02B6923F00103BE
:104A00002B61FFF71FFFFFF759FC0020E1E7043C93
:104A10000436C6E723F440733B613B6943EA08036D
:104A20003B610B882B80BFF34F8FFFF7E7FE2D888C
:104A300031F8023BADB2AB42BED03B6923F001037B
:104A40003B61DEE700380240003C0240084908B5FF
:104A50000B7828B11BB9FFF7DBFE01230B7008BDF3
:104A6000002BFCD0BDE808400870FFF7EBBE00BF8C
:104A7000C643002010B500F095FF074B1A6882422C
:104A800007D90649D1E90024003244F10104C1E903
:104A90000024186010BD00BFFC430020004400202B
:104AA0002DE9F041FFF700FC0646FFF7E3FF064B58
:104AB000D3E90045271845F100083046FFF7FEFB13
:104AC00038464146BDE8F0810044002008B5FFF7B4
:104AD000E7FF4FF47A720023FBF782FB08BD00BFAB
:104AE00010B50244064BD2B2904200D110BD441C16
:104AF00000B253F8200041F8040BE0B2F4E700BF25
:104B0000502800400F4B30B51C6F240407D41C6F95
:104B100044F400741C671C6F44F400441C670A4C86
:104B2000236843F4807323600244084BD2B290425E
:104B300000D130BD441C00B251F8045B43F8205052
:104B4000E0B2F4E700380240007000405028004016
:104B500007B5012201A90020FFF7C2FF019803B0A9
:104B60005DF804FB13B50446FFF7F2FFA04205D041
:104B7000012201A900200194FFF7C4FF02B010BD7B
:104B800070470000074B45F255521A6002225A60E6
:104B900040F6FF729A604CF6CC421A60024B01223A
:104BA0001A707047003000400C440020034B1B7803
:104BB0001BB1034B4AF6AA221A6070470C4400202E
:104BC00000300040034B1A6812B9034A12681A6099
:104BD000704700BF0844002074380240024B4FF079
:104BE00080721A60704700BF7438024008B5FFF742
:104BF000E9FF024B1868C0F3407008BD084400206C
:104C000008B5FFF7DFFF024B1868C0F3007008BD5E
:104C100008440020EFF3098305494A6822F00102A5
:104C20004A60683383F30988002383F3118870474F
:104C300030EF00E0202080F3118862B60B4B0C4A65
:104C4000D96821F4E0610904090C0A430949DA60D2
:104C5000CA6842F08072CA6007490A6842F00102DD
:104C60000A601022DA7783F82200704700ED00E036
:104C70000003FA05F0ED00E0001000E010B520237D
:104C800083F311880E4B5B6813F4006314D0F1EECC
:104C9000103AEFF30984683C4FF08073E361094BED
:104CA000DB68236684F30988FFF7AEFA10B1064B80
:104CB000A36110BD054BFBE783F31188F9E700BF43
:104CC00000ED00E030EF00E03B0600083E06000883
:104CD00070470000FEE70000084A094B09498B4273
:104CE00004D3094A0021934205D3704752F8040BBC
:104CF00043F8040BF3E743F8041BF4E724630008CC
:104D000008450020084500200845002070470000A5
:104D100070B5D0E915439E6800214FF0FF354A0178
:104D2000A3180131D3F800090028BEBFD3F8000949
:104D300040F08040C3F80009D3F8000B0028BEBF44
:104D4000D3F8000B40F08040C3F8000BA3188E424C
:104D5000C3F80859C3F8085BE1D24FF00113C4F857
:104D60001C3870BD890141F02001016103699B0677
:104D7000FCD41220FFF7B2BA1F4B03EB80022DE9DF
:104D8000F043D2F80CC05D6DDCF81420461CD2F85C
:104D900000E005EB063605EB4018516871450BD372
:104DA000D5F83428012303FA00F022EA0002C5F8FE
:104DB00034281846BDE8F083BCF81040AEEB010380
:104DC000A34228BF2346D8F81849A4B2B3EB840FF6
:104DD0000FD89468A4F1040959F8047F3760A4EB54
:104DE00009071F44042FF7D81C440B4494605360F8
:104DF000D3E70020DEE700BF1044002010B5054CCB
:104E00002046FEF7E5FE4FF0A0436365024BA36525
:104E100010BD00BF10440020BC6100080378012BC6
:104E200070B5054650D12A4B446D98421BD1294B91
:104E30005A6B42F080025A635A6D42F080025A6502
:104E40005A6D5A6942F080025A615A6922F0800212
:104E50005A610E2143205B69FEF7C2FA1E4BE360E4
:104E60001E4BC4F800380023C4F8003EC023236062
:104E70006E6D4FF40413A3633369002BFCDA012336
:104E800033610C20FFF72AFA3369DB07FCD41220C8
:104E9000FFF724FA3369002BFCDA0026A6602846C7
:104EA000FFF736FF6B68C4F81068DB68C4F8146855
:104EB000C4F81C684BB90A4BA3614FF0FF33636120
:104EC000A36843F00103A36070BD064BF4E700BF85
:104ED000104400200038024040140040030020022B
:104EE000003C30C0083C30C0F8B5446D0546002198
:104EF0002046FFF737FFA96D00234FF001128F689E
:104F0000C4F834384FF00066C4F81C284FF0FF3066
:104F100004EB431201339F42C2F80069C2F8006BF0
:104F2000C2F80809C2F8080BF2D20B686A6DEB658B
:104F3000636210231361166916F01006FBD112206C
:104F4000FFF7CCF9D4F8003823F4FE63C4F8003836
:104F5000A36943F4402343F01003A3610923C4F879
:104F60001038C4F814380A4BEB604FF0C043C4F853
:104F7000103B084BC4F8003BC4F81069C4F8003972
:104F8000EB6D03F1100243F48013EA65A362F8BDF0
:104F90009861000840800010426D90F84E10D2F8E1
:104FA000003823F4FE6343EA0113C2F80038704767
:104FB0002DE9F8430EB200EB86090D46D9F80C2016
:104FC00038491368446D03F00303002751F8238028
:104FD00069016318C3F8107B05F1100301279F4096
:104FE0009369002B3AD0B2F812C005F158035B0167
:104FF0004CEA080C44F803C0D4F81C381F43214481
:105000000023C4F81C78C1F8103953690127691EC0
:10501000AF4083B3138A928B9B08012A88BF534306
:105020004031C26D04EB81019E1842EA0343C6651C
:105030004B6020462946FFF795FED9F80C301B8AB5
:1050400043EA855348356D0143EA08036351D4F8B8
:105050001C381F43C4F81C78BDE8F88304EB461CD9
:10506000DCF8003B23F40043CCF8003BD4F81C38B8
:1050700023EA0707C3E705F13F0304EB83030A4A6A
:105080005A6004EB461629462046FFF76BFED6F819
:10509000003923F40043C6F80039D4F81C3823EA59
:1050A0000707D7E78861000800040002826D1268D4
:1050B000C265FFF72DBE00005831436D49015B58B2
:1050C00013F4004004D013F4001F0CBF0220012091
:1050D000704700004831436D49015B5813F40040AC
:1050E00004D013F4001F0CBF022001207047000001
:1050F00000EB8101CB68196A0B6813604B68536041
:105100007047000000EB810330B5DD68AA691368C1
:10511000D36019B9402B84BF402313606B8A146895
:10512000426D1C44013CB4FBF3F46343033323F0AE
:10513000030302EB411043EAC44343F0C043C0F809
:10514000103B2B6803F00303012B09B20ED1D2F8F8
:10515000083802EB411013F4807FD0F8003B14BFF5
:1051600043F0805343F00053C0F8003B02EB411280
:10517000D2F8003B43F00443C2F8003B30BD0000CE
:105180002DE9F041244D6E6D06EB40130446D3F833
:10519000087BC3F8087B38070AD5D6F814381907F6
:1051A00006D505EB84032146DB6828465B689847F3
:1051B000FA071FD5D6F81438DB071BD505EB840397
:1051C000D968CCB98B69488A5E68B6FBF0F200FBFF
:1051D00012628AB91868DA6890420DD2121AC3E9CD
:1051E0000024202383F311880B482146FFF78AFF10
:1051F00084F31188BDE8F081012303FA04F26B897E
:1052000023EA02036B81CB68002BF3D021460248CE
:10521000BDE8F041184700BF1044002000EB8103B7
:1052200070B5DD68436D6C692668E6604A014EBB67
:105230001A444FF40020C2F810092A6802F0030251
:10524000012A0AB20ED1D3F8080803EB421410F475
:10525000807FD4F8000914BF40F0805040F0005027
:10526000C4F8000903EB4212D2F8000940F00440F0
:10527000C2F80009D3F8340801228A400243C3F877
:10528000342870BD19B9402E84BF402020602068AA
:105290002E8A8419013CB4FBF6F440EAC44040F085
:1052A00000501A44C7E70000F8B504461E48456D93
:1052B00005EB4413D3F80869C3F80869F10717D55B
:1052C000D5F81038DA0713D500EB8403D9684B6999
:1052D0001F68DA68974218D2D21B00271A605F60F5
:1052E000202383F311882146FFF798FF87F3118865
:1052F000330617D5D5F834280123A340134211D023
:105300002046BDE8F840FFF737BD012303FA04F259
:10531000038923EA020303818B68002BE8D021462E
:105320009847E5E7F8BD00BF104400202DE9F74F8E
:105330009848466D7569B3691D4015F480587561CC
:10534000044606D0FEF7AAFC03B0BDE8F04FFFF715
:1053500095BC002D12DAD6F8003E8E489F071EBF7E
:10536000D6F8003E23F00303C6F8003ED6F8043812
:1053700023F00103C6F80438FEF7B8FC280505D56C
:105380008448FFF7C5FC8348FEF7A0FCA9040CD5B0
:10539000D6F8083813F0060FF36823F470530CBFE7
:1053A00043F4105343F4A053F3602A0704D5636811
:1053B000DB680BB177489847EB0274D4AF0227D56E
:1053C000D4F85490DFF8CCB100274FF0010A09EB74
:1053D0004712D2F8003B03F44023B3F5802F11D1DC
:1053E000D2F8003B002B0DDA62890AFA07F322EAB1
:1053F0000303638104EB8703DB68DB6813B1394681
:1054000058469847A36D01379B68FFB29F42DED98B
:10541000E80617D5676D3A6AC2F30A1002F00F0367
:1054200002F4F012B2F5802F00F08880B2F5402F20
:1054300008D104EB83030022DB681B6A07F5805761
:1054400090426DD12903D6F8184813D5E20302D54E
:105450000020FFF795FEA30302D50120FFF790FE81
:10546000670302D50220FFF78BFE260302D5032037
:10547000FFF786FE6D037FF567AFE00702D50020DA
:10548000FFF712FFA10702D50120FFF70DFF62070A
:1054900002D50220FFF708FF23077FF555AF032051
:1054A000FFF702FF50E7636DDFF8E8B001930027D4
:1054B0004FF0010AA36D9B685FFA87F94B45FFF433
:1054C0007DAF019B03EB4913D3F8001901F4402190
:1054D000B1F5802F22D1D3F8001900291EDAD3F8B4
:1054E000001941F09041C3F80019D3F800190029C0
:1054F000FBDB4946606DFFF735FC21890AFA09F3A9
:1055000021EA0303238104EB8903DB689B6813B161
:105510004946584698474846FFF72EFC0137C9E7E9
:10552000910708BFD7F80080072A98BF03F8018BBE
:1055300002F1010298BF4FEA182881E7023304EB19
:10554000830207F580575268D2F818C0DCF80820AB
:10555000DCE9001CA1EB0C0C002188420AD104EB11
:10556000830463689B699A6802449A605A6810448D
:10557000586067E711F0030F08BFD7F800808C452B
:1055800088BF02F8018B01F1010188BF4FEA18289A
:10559000E3E700BF10440020436D03EB4111D1F855
:1055A000003B43F40013C1F8003B7047436D03EB2D
:1055B0004111D1F8003943F40013C1F800397047A4
:1055C000436D03EB4111D1F8003B23F40013C1F804
:1055D000003B7047436D03EB4111D1F8003923F4D0
:1055E0000013C1F80039704730B5039C01720433D1
:1055F00004FB0325C0E90653049B03630021059BBC
:10560000C160C0E90000C0E90422C0E90842C0E965
:105610000A11436330BD0000416A0022C0E9041151
:10562000C260C0E90A226FF00101FEF7C7BE0000A8
:10563000D0E90432934201D1C2680AB9181D7047FB
:105640000020704703691960C2680132C260C269F4
:10565000134482690361934224BF436A03610021BA
:10566000FEF7A0BE38B504460D46E3683BB162695B
:10567000131D1268A3621344E362002007E0237A3B
:1056800033B929462046FEF77DFE0028EDDA38BD05
:105690006FF00100FBE70000C368C269013BC36013
:1056A0004369134482694361934224BF436A43615F
:1056B00000238362036B03B11847704770B5202342
:1056C000044683F31188866A3EB9FFF7CBFF05468F
:1056D00018B186F31188284670BDA36AE26A13F8F0
:1056E000015BA362934202D32046FFF7D5FF00235C
:1056F00083F31188EFE700002DE9F84F04460E46CA
:1057000090469946202787F311880025AA46D4F8A9
:1057100028B0BBF1000F09D149462046FFF7A2FF90
:1057200020B18BF311882846BDE8F88FD4E90A131D
:10573000A8EB050B5B1A9B4528BF9B46BBF1400FAE
:105740001BD9334601F1400251F8040B43F8040B16
:105750009142F9D1A36A40334036A3624035D4E97F
:105760000A239A4202D32046FFF796FF8AF3118854
:105770004545D8D287F31188C9E730465A46FCF729
:1057800011FAA36A5B445E44A3625D44E7E700004C
:1057900010B5029C0172043304FB0321C0E9061317
:1057A0000023C0E90A33039B0363049BC460C0E980
:1057B0000000C0E90422C0E90842436310BD0000B4
:1057C000026AC260426AC0E904220022C0E90A22D9
:1057D0006FF00101FEF7F2BDD0E904239A4201D136
:1057E000C26822B9184650F8043B0B60704700208D
:1057F00070470000C368C2690133C3604369134442
:1058000082694361934224BF436A43610021FEF7EA
:10581000C9BD000038B504460D46E3683BB12369B5
:105820001A1DA262E2691344E362002007E0237AB2
:1058300033B929462046FEF7A5FD0028EDDA38BD2C
:105840006FF00100FBE7000003691960C268013ACC
:10585000C260C269134482690361934224BF436AF0
:10586000036100238362036B03B118477047000094
:1058700070B5202304460E4683F31188856A35B936
:105880001146FFF7C7FF10B185F3118870BDA36AF9
:105890001E70A36AE26A01339342A36204D3E169F2
:1058A00020460439FFF7D0FF002080F31188EDE790
:1058B0002DE9F84F04460D4691469A464FF02008D0
:1058C00088F311880026B346A76A4FB9514620468F
:1058D000FFF7A0FF20B187F311883046BDE8F88FAD
:1058E000D4E90A07A9EB06033F1A9F4228BF1F46C7
:1058F000402F1BD905F1400355F8042B40F8042B29
:105900009D42F9D1A36A4033A3624036D4E90A2309
:105910009A4204D3E16920460439FFF795FF8BF3DF
:1059200011884E45D9D288F31188CDE729463A46E9
:10593000FCF738F9A36A3B443D44A3623E44E5E7E3
:10594000D0E904239A4217D1C3689BB1836A8BB113
:10595000043B9B1A0ED01360C368013BC360C3694C
:105960001A44836902619A4224BF436A0361002397
:1059700083620123184670470023FBE700F090B8CC
:105980004FF08043002258631A610222DA607047A8
:105990004FF080430022DA60704700004FF08043F0
:1059A000586370474FF08043586A70474B684360B4
:1059B0008B688360CB68C3600B6943614B6903628A
:1059C0008B6943620B6803607047000008B5224B87
:1059D00022481A6940F2FF110A431A611A6922F437
:1059E000FF7222F001021A611A691A6B0A431A63E4
:1059F0001A6D0A431A651A4A1B6D1146FFF7D6FF46
:105A0000184802F11C01FFF7D1FF174802F13801D5
:105A1000FFF7CCFF154802F15401FFF7C7FF144808
:105A200002F17001FFF7C2FF124802F18C01FFF78B
:105A3000BDFF114802F1A801FFF7B8FF0F4802F1BE
:105A4000C401FFF7B3FF0E4802F1E001FFF7AEFF1C
:105A5000BDE8084000F0AAB800380240000002404B
:105A6000C86100080004024000080240000C024027
:105A7000001002400014024000180240001C0240C6
:105A80000020024008B500F007FAFEF7EBFBFFF735
:105A900099F8BDE80840FEF70DBE00007047000011
:105AA000104B1A6C42F001021A641A6E42F00102A5
:105AB0001A660D4A1B6E936843F0010393604FF022
:105AC000804353229A624FF0FF32DA6200229A61D9
:105AD0005A63DA605A6001225A6108211A601C2058
